{
  "address": "0x547209bee583c057E30B0537A2EdD43eBBA0ed1c",
  "abi": [
    {
      "inputs": [
        {
          "internalType": "contract IERC20",
          "name": "outputToken",
          "type": "address"
        },
        {
          "internalType": "uint256",
          "name": "outputTokenDecimals",
          "type": "uint256"
        }
      ],
      "stateMutability": "nonpayable",
      "type": "constructor"
    },
    {
      "anonymous": false,
      "inputs": [
        {
          "indexed": false,
          "internalType": "contract IAccountList",
          "name": "allowedMsgSenders",
          "type": "address"
        }
      ],
      "name": "AllowedMsgSendersChange",
      "type": "event"
    },
    {
      "anonymous": false,
      "inputs": [
        {
          "indexed": false,
          "internalType": "contract IUintValue",
          "name": "price",
          "type": "address"
        }
      ],
      "name": "PriceChange",
      "type": "event"
    },
    {
      "anonymous": false,
      "inputs": [
        {
          "indexed": false,
          "internalType": "uint256",
          "name": "priceMultiplier",
          "type": "uint256"
        }
      ],
      "name": "PriceMultiplierChange",
      "type": "event"
    },
    {
      "anonymous": false,
      "inputs": [
        {
          "indexed": true,
          "internalType": "bytes32",
          "name": "role",
          "type": "bytes32"
        },
        {
          "indexed": true,
          "internalType": "bytes32",
          "name": "previousAdminRole",
          "type": "bytes32"
        },
        {
          "indexed": true,
          "internalType": "bytes32",
          "name": "newAdminRole",
          "type": "bytes32"
        }
      ],
      "name": "RoleAdminChanged",
      "type": "event"
    },
    {
      "anonymous": false,
      "inputs": [
        {
          "indexed": false,
          "internalType": "bytes32",
          "name": "role",
          "type": "bytes32"
        },
        {
          "indexed": false,
          "internalType": "bytes32",
          "name": "newRoleAdminNominee",
          "type": "bytes32"
        }
      ],
      "name": "RoleAdminNomineeUpdate",
      "type": "event"
    },
    {
      "anonymous": false,
      "inputs": [
        {
          "indexed": true,
          "internalType": "bytes32",
          "name": "role",
          "type": "bytes32"
        },
        {
          "indexed": true,
          "internalType": "address",
          "name": "account",
          "type": "address"
        },
        {
          "indexed": true,
          "internalType": "address",
          "name": "sender",
          "type": "address"
        }
      ],
      "name": "RoleGranted",
      "type": "event"
    },
    {
      "anonymous": false,
      "inputs": [
        {
          "indexed": false,
          "internalType": "bytes32",
          "name": "role",
          "type": "bytes32"
        },
        {
          "indexed": false,
          "internalType": "address",
          "name": "account",
          "type": "address"
        },
        {
          "indexed": false,
          "internalType": "bool",
          "name": "nominated",
          "type": "bool"
        }
      ],
      "name": "RoleNomineeUpdate",
      "type": "event"
    },
    {
      "anonymous": false,
      "inputs": [
        {
          "indexed": true,
          "internalType": "bytes32",
          "name": "role",
          "type": "bytes32"
        },
        {
          "indexed": true,
          "internalType": "address",
          "name": "account",
          "type": "address"
        },
        {
          "indexed": true,
          "internalType": "address",
          "name": "sender",
          "type": "address"
        }
      ],
      "name": "RoleRevoked",
      "type": "event"
    },
    {
      "anonymous": false,
      "inputs": [
        {
          "indexed": false,
          "internalType": "uint256",
          "name": "scaledPrice",
          "type": "uint256"
        }
      ],
      "name": "ScaledPriceLowerBoundChange",
      "type": "event"
    },
    {
      "inputs": [],
      "name": "DEFAULT_ADMIN_ROLE",
      "outputs": [
        {
          "internalType": "bytes32",
          "name": "",
          "type": "bytes32"
        }
      ],
      "stateMutability": "view",
      "type": "function"
    },
    {
      "inputs": [],
      "name": "MULTIPLIER_DENOMINATOR",
      "outputs": [
        {
          "internalType": "uint256",
          "name": "",
          "type": "uint256"
        }
      ],
      "stateMutability": "view",
      "type": "function"
    },
    {
      "inputs": [],
      "name": "SET_ALLOWED_MSG_SENDERS_ROLE",
      "outputs": [
        {
          "internalType": "bytes32",
          "name": "",
          "type": "bytes32"
        }
      ],
      "stateMutability": "view",
      "type": "function"
    },
    {
      "inputs": [],
      "name": "SET_PRICE_MULTIPLIER_ROLE",
      "outputs": [
        {
          "internalType": "bytes32",
          "name": "",
          "type": "bytes32"
        }
      ],
      "stateMutability": "view",
      "type": "function"
    },
    {
      "inputs": [],
      "name": "SET_PRICE_ROLE",
      "outputs": [
        {
          "internalType": "bytes32",
          "name": "",
          "type": "bytes32"
        }
      ],
      "stateMutability": "view",
      "type": "function"
    },
    {
      "inputs": [],
      "name": "SET_SCALED_PRICE_LOWER_BOUND_ROLE",
      "outputs": [
        {
          "internalType": "bytes32",
          "name": "",
          "type": "bytes32"
        }
      ],
      "stateMutability": "view",
      "type": "function"
    },
    {
      "inputs": [],
      "name": "WITHDRAW_ERC20_ROLE",
      "outputs": [
        {
          "internalType": "bytes32",
          "name": "",
          "type": "bytes32"
        }
      ],
      "stateMutability": "view",
      "type": "function"
    },
    {
      "inputs": [
        {
          "internalType": "bytes32",
          "name": "role",
          "type": "bytes32"
        }
      ],
      "name": "acceptRole",
      "outputs": [],
      "stateMutability": "nonpayable",
      "type": "function"
    },
    {
      "inputs": [
        {
          "internalType": "bytes32",
          "name": "role",
          "type": "bytes32"
        }
      ],
      "name": "acceptRoleAdmin",
      "outputs": [],
      "stateMutability": "nonpayable",
      "type": "function"
    },
    {
      "inputs": [],
      "name": "getAllowedMsgSenders",
      "outputs": [
        {
          "internalType": "contract IAccountList",
          "name": "",
          "type": "address"
        }
      ],
      "stateMutability": "view",
      "type": "function"
    },
    {
      "inputs": [],
      "name": "getOutputToken",
      "outputs": [
        {
          "internalType": "contract IERC20",
          "name": "",
          "type": "address"
        }
      ],
      "stateMutability": "view",
      "type": "function"
    },
    {
      "inputs": [],
      "name": "getPrice",
      "outputs": [
        {
          "internalType": "contract IUintValue",
          "name": "",
          "type": "address"
        }
      ],
      "stateMutability": "view",
      "type": "function"
    },
    {
      "inputs": [],
      "name": "getPriceMultiplier",
      "outputs": [
        {
          "internalType": "uint256",
          "name": "",
          "type": "uint256"
        }
      ],
      "stateMutability": "view",
      "type": "function"
    },
    {
      "inputs": [
        {
          "internalType": "bytes32",
          "name": "role",
          "type": "bytes32"
        }
      ],
      "name": "getRoleAdmin",
      "outputs": [
        {
          "internalType": "bytes32",
          "name": "",
          "type": "bytes32"
        }
      ],
      "stateMutability": "view",
      "type": "function"
    },
    {
      "inputs": [
        {
          "internalType": "bytes32",
          "name": "role",
          "type": "bytes32"
        }
      ],
      "name": "getRoleAdminNominee",
      "outputs": [
        {
          "internalType": "bytes32",
          "name": "",
          "type": "bytes32"
        }
      ],
      "stateMutability": "view",
      "type": "function"
    },
    {
      "inputs": [
        {
          "internalType": "bytes32",
          "name": "role",
          "type": "bytes32"
        },
        {
          "internalType": "uint256",
          "name": "index",
          "type": "uint256"
        }
      ],
      "name": "getRoleMember",
      "outputs": [
        {
          "internalType": "address",
          "name": "",
          "type": "address"
        }
      ],
      "stateMutability": "view",
      "type": "function"
    },
    {
      "inputs": [
        {
          "internalType": "bytes32",
          "name": "role",
          "type": "bytes32"
        }
      ],
      "name": "getRoleMemberCount",
      "outputs": [
        {
          "internalType": "uint256",
          "name": "",
          "type": "uint256"
        }
      ],
      "stateMutability": "view",
      "type": "function"
    },
    {
      "inputs": [],
      "name": "getScaledPrice",
      "outputs": [
        {
          "internalType": "uint256",
          "name": "",
          "type": "uint256"
        }
      ],
      "stateMutability": "view",
      "type": "function"
    },
    {
      "inputs": [],
      "name": "getScaledPriceLowerBound",
      "outputs": [
        {
          "internalType": "uint256",
          "name": "",
          "type": "uint256"
        }
      ],
      "stateMutability": "view",
      "type": "function"
    },
    {
      "inputs": [
        {
          "internalType": "bytes32",
          "name": "role",
          "type": "bytes32"
        },
        {
          "internalType": "address",
          "name": "account",
          "type": "address"
        }
      ],
      "name": "grantRole",
      "outputs": [],
      "stateMutability": "nonpayable",
      "type": "function"
    },
    {
      "inputs": [
        {
          "internalType": "bytes32",
          "name": "role",
          "type": "bytes32"
        },
        {
          "internalType": "address",
          "name": "account",
          "type": "address"
        }
      ],
      "name": "hasRole",
      "outputs": [
        {
          "internalType": "bool",
          "name": "",
          "type": "bool"
        }
      ],
      "stateMutability": "view",
      "type": "function"
    },
    {
      "inputs": [
        {
          "internalType": "bytes32",
          "name": "role",
          "type": "bytes32"
        },
        {
          "internalType": "address",
          "name": "account",
          "type": "address"
        }
      ],
      "name": "isNominated",
      "outputs": [
        {
          "internalType": "bool",
          "name": "",
          "type": "bool"
        }
      ],
      "stateMutability": "view",
      "type": "function"
    },
    {
      "inputs": [
        {
          "internalType": "bytes32",
          "name": "role",
          "type": "bytes32"
        },
        {
          "internalType": "address",
          "name": "account",
          "type": "address"
        }
      ],
      "name": "renounceRole",
      "outputs": [],
      "stateMutability": "nonpayable",
      "type": "function"
    },
    {
      "inputs": [
        {
          "internalType": "bytes32",
          "name": "role",
          "type": "bytes32"
        },
        {
          "internalType": "address",
          "name": "account",
          "type": "address"
        }
      ],
      "name": "revokeNomination",
      "outputs": [],
      "stateMutability": "nonpayable",
      "type": "function"
    },
    {
      "inputs": [
        {
          "internalType": "bytes32",
          "name": "role",
          "type": "bytes32"
        },
        {
          "internalType": "address",
          "name": "account",
          "type": "address"
        }
      ],
      "name": "revokeRole",
      "outputs": [],
      "stateMutability": "nonpayable",
      "type": "function"
    },
    {
      "inputs": [
        {
          "internalType": "address",
          "name": "recipient",
          "type": "address"
        },
        {
          "internalType": "uint256",
          "name": "unconvertedAmount",
          "type": "uint256"
        }
      ],
      "name": "send",
      "outputs": [],
      "stateMutability": "nonpayable",
      "type": "function"
    },
    {
      "inputs": [
        {
          "internalType": "contract IAccountList",
          "name": "allowedMsgSenders",
          "type": "address"
        }
      ],
      "name": "setAllowedMsgSenders",
      "outputs": [],
      "stateMutability": "nonpayable",
      "type": "function"
    },
    {
      "inputs": [
        {
          "internalType": "contract IUintValue",
          "name": "price",
          "type": "address"
        }
      ],
      "name": "setPrice",
      "outputs": [],
      "stateMutability": "nonpayable",
      "type": "function"
    },
    {
      "inputs": [
        {
          "internalType": "uint256",
          "name": "multiplier",
          "type": "uint256"
        }
      ],
      "name": "setPriceMultiplier",
      "outputs": [],
      "stateMutability": "nonpayable",
      "type": "function"
    },
    {
      "inputs": [
        {
          "internalType": "bytes32",
          "name": "role",
          "type": "bytes32"
        },
        {
          "internalType": "bytes32",
          "name": "roleAdminNominee",
          "type": "bytes32"
        }
      ],
      "name": "setRoleAdminNominee",
      "outputs": [],
      "stateMutability": "nonpayable",
      "type": "function"
    },
    {
      "inputs": [
        {
          "internalType": "uint256",
          "name": "lowerBound",
          "type": "uint256"
        }
      ],
      "name": "setScaledPriceLowerBound",
      "outputs": [],
      "stateMutability": "nonpayable",
      "type": "function"
    },
    {
      "inputs": [
        {
          "internalType": "bytes4",
          "name": "interfaceId",
          "type": "bytes4"
        }
      ],
      "name": "supportsInterface",
      "outputs": [
        {
          "internalType": "bool",
          "name": "",
          "type": "bool"
        }
      ],
      "stateMutability": "view",
      "type": "function"
    },
    {
      "inputs": [
        {
          "internalType": "address[]",
          "name": "erc20Tokens",
          "type": "address[]"
        },
        {
          "internalType": "uint256[]",
          "name": "amounts",
          "type": "uint256[]"
        }
      ],
      "name": "withdrawERC20",
      "outputs": [],
      "stateMutability": "nonpayable",
      "type": "function"
    },
    {
      "inputs": [
        {
          "internalType": "address[]",
          "name": "erc20Tokens",
          "type": "address[]"
        }
      ],
      "name": "withdrawERC20",
      "outputs": [],
      "stateMutability": "nonpayable",
      "type": "function"
    }
  ],
  "transactionHash": "0x27319c1c9a13181ead45005d73c7f0d963cac4d6e9c13477d697f8b537455388",
  "args": [
    "0xB40DBBb7931Cfef8Be73AEEC6c67d3809bD4600B",
    18
  ],
  "numDeployments": 1,
  "solcInputHash": "10b71d934b53fe4927d8421d9fe77463",
  "bytecode": "0x60c06040523480156200001157600080fd5b5060405162001f4e38038062001f4e8339810160408190526200003491620001be565b6200004160003362000071565b60016005556001600160601b0319606083901b166080526200006581600a62000243565b60a05250620003159050565b6200007d828262000081565b5050565b620000988282620000c460201b62000ca71760201c565b6000828152600260209081526040909120620000bf91839062000d126200014c821b17901c565b505050565b60008281526001602090815260408083206001600160a01b038516845290915290205460ff166200007d5760008281526001602081815260408084206001600160a01b0386168086529252808420805460ff19169093179092559051339285917f2f8788117e7eff1d82e926ec794901d17c78024a50270940304540a733656f0d9190a45050565b600062000163836001600160a01b0384166200016c565b90505b92915050565b6000818152600183016020526040812054620001b55750815460018181018455600084815260208082209093018490558454848252828601909352604090209190915562000166565b50600062000166565b60008060408385031215620001d257600080fd5b82516001600160a01b0381168114620001ea57600080fd5b6020939093015192949293505050565b600181815b808511156200023b5781600019048211156200021f576200021f620002ff565b808516156200022d57918102915b93841c9390800290620001ff565b509250929050565b60006200016383836000826200025c5750600162000166565b816200026b5750600062000166565b81600181146200028457600281146200028f57620002af565b600191505062000166565b60ff841115620002a357620002a3620002ff565b50506001821b62000166565b5060208310610133831016604e8410600b8410161715620002d4575081810a62000166565b620002e08383620001fa565b8060001904821115620002f757620002f7620002ff565b029392505050565b634e487b7160e01b600052601160045260246000fd5b60805160601c60a051611c026200034c6000396000610aa001526000818161023501528181610af10152610ba60152611c026000f3fe608060405234801561001057600080fd5b50600436106102065760003560e01c806380db43291161011a578063a217fddf116100ad578063d0679d341161007c578063d0679d34146104e2578063d547741f146104f5578063da20343f14610508578063dd1890691461051b578063fe6ca7821461054257600080fd5b8063a217fddf146104ac578063bf0a03ca146104b4578063ca15c873146104bc578063cd0c1d96146104cf57600080fd5b8063919c82f6116100e9578063919c82f61461046d57806391d148541461047557806398d5fdca14610488578063a2088cc91461049957600080fd5b806380db4329146104145780638bb06b0b146104345780639010d07c1461044757806390e89bb81461045a57600080fd5b806336568abe1161019d578063623fa2c41161016c578063623fa2c41461037b57806368f27d20146103a25780636acfd673146103b357806374e805e9146103c6578063768ba6eb146103ed57600080fd5b806336568abe1461030957806336fc17871461031c5780633b3247901461032f5780635c449f7c1461034257600080fd5b80632081c4ea116101d95780632081c4ea14610298578063248a9ca3146102ab5780632658ac5f146102cf5780632f2ff15d146102f657600080fd5b806301ffc9a71461020b57806316305cd81461023357806317b37bd91461026d5780631881902214610283575b600080fd5b61021e6102193660046119a5565b61054b565b60405190151581526020015b60405180910390f35b7f00000000000000000000000000000000000000000000000000000000000000005b6040516001600160a01b03909116815260200161022a565b610275610576565b60405190815260200161022a565b6102966102913660046118ac565b61061d565b005b6102966102a636600461193a565b61065a565b6102756102b936600461193a565b6000908152600160208190526040909120015490565b6102757f95386447c22ec44ef0eea280a703c04d722c10047e660c98b059cc01610e181481565b610296610304366004611953565b6106c1565b610296610317366004611953565b6106ee565b61029661032a36600461193a565b610771565b61029661033d366004611821565b6107f3565b61021e610350366004611953565b60009182526004602090815260408084206001600160a01b0393909316845291905290205460ff1690565b6102757f5ae63e664766ed63ceb860dbffc0f7aa0ccb76f90368617bfca90bc294e6ad0a81565b6000546001600160a01b0316610255565b6102966103c1366004611953565b61086b565b6102757ff02500ea42e8d8b12e0d7a36b0b601fbb02a5ed9a42f15f5d8d84a6ab5e4d97781565b6102757f866b4848de4af255be133f7c25c7ee2d1d6f688d2da0be4351123daaf2c8f16c81565b61027561042236600461193a565b60009081526003602052604090205490565b61029661044236600461193a565b610893565b610255610455366004611983565b6108d0565b61029661046836600461186a565b6108ef565b600854610275565b61021e610483366004611953565b610923565b6006546001600160a01b0316610255565b6102966104a7366004611821565b61094e565b610275600081565b600754610275565b6102756104ca36600461193a565b610981565b6102966104dd366004611983565b610998565b6102966104f036600461183e565b6109be565b610296610503366004611953565b610c22565b61029661051636600461193a565b610c48565b6102757f68a322fafda6454b93053800d6ab05c1db2d381443903c564ee152f1b8c2ed0d81565b61027561271081565b60006001600160e01b03198216635a05180f60e01b1480610570575061057082610d27565b92915050565b6000612710600754600660009054906101000a90046001600160a01b03166001600160a01b0316636d4ce63c6040518163ffffffff1660e01b815260040160206040518083038186803b1580156105cc57600080fd5b505afa1580156105e0573d6000803e3d6000fd5b505050506040513d601f19601f8201168201806040525081019061060491906119cf565b61060e9190611ae6565b6106189190611ac4565b905090565b7f5ae63e664766ed63ceb860dbffc0f7aa0ccb76f90368617bfca90bc294e6ad0a61064781610d5c565b61065385858585610d66565b5050505050565b7f95386447c22ec44ef0eea280a703c04d722c10047e660c98b059cc01610e181461068481610d5c565b60078290556040518281527f778734191a1536a8ea43ef5530fe76bdbfe31c81361e9515181eed01958a3a94906020015b60405180910390a15050565b600082815260016020819052604090912001546106dd81610d5c565b6106e983836001610e2f565b505050565b6001600160a01b03811633146107635760405162461bcd60e51b815260206004820152602f60248201527f416363657373436f6e74726f6c3a2063616e206f6e6c792072656e6f756e636560448201526e103937b632b9903337b91039b2b63360891b60648201526084015b60405180910390fd5b61076d8282610ea7565b5050565b600081815260046020908152604080832033845290915290205460ff166107da5760405162461bcd60e51b815260206004820152601a60248201527f6d73672e73656e64657220213d20726f6c65206e6f6d696e6565000000000000604482015260640161075a565b6107e681336000610e2f565b6107f08133610ec9565b50565b7ff02500ea42e8d8b12e0d7a36b0b601fbb02a5ed9a42f15f5d8d84a6ab5e4d97761081d81610d5c565b600680546001600160a01b0319166001600160a01b0384169081179091556040519081527f11819db701d4021ad31fa68faab1e3b681a49c30d57d6bdaeb4f6d920bc8de58906020016106b5565b6000828152600160208190526040909120015461088781610d5c565b6106e983836000610e2f565b6000818152600360205260409020546108ab81610d5c565b6000828152600360205260409020546108c5908390610eeb565b61076d826000610f38565b60008281526002602052604081206108e89083610f93565b9392505050565b7f5ae63e664766ed63ceb860dbffc0f7aa0ccb76f90368617bfca90bc294e6ad0a61091981610d5c565b6106e98383610f9f565b60009182526001602090815260408084206001600160a01b0393909316845291905290205460ff1690565b7f866b4848de4af255be133f7c25c7ee2d1d6f688d2da0be4351123daaf2c8f16c61097881610d5c565b61076d8261107d565b6000818152600260205260408120610570906110d1565b600082815260016020819052604090912001546109b481610d5c565b6106e98383610f38565b6000546040516304d93ff560e31b81523360048201526001600160a01b03909116906326c9ffa89060240160206040518083038186803b158015610a0157600080fd5b505afa158015610a15573d6000803e3d6000fd5b505050506040513d601f19601f82011682018060405250810190610a399190611918565b610a7e5760405162461bcd60e51b81526020600482015260166024820152751b5cd9cb9cd95b99195c881b9bdd08185b1b1bddd95960521b604482015260640161075a565b6000610a88610576565b90506008548111610a9857505050565b600081610ac57f000000000000000000000000000000000000000000000000000000000000000085611ae6565b610acf9190611ac4565b905080610adc5750505050565b6040516370a0823160e01b81523060048201527f00000000000000000000000000000000000000000000000000000000000000006001600160a01b0316906370a082319060240160206040518083038186803b158015610b3b57600080fd5b505afa158015610b4f573d6000803e3d6000fd5b505050506040513d601f19601f82011682018060405250810190610b7391906119cf565b811115610b805750505050565b60405163a9059cbb60e01b81526001600160a01b038581166004830152602482018390527f0000000000000000000000000000000000000000000000000000000000000000169063a9059cbb90604401602060405180830381600087803b158015610bea57600080fd5b505af1158015610bfe573d6000803e3d6000fd5b505050506040513d601f19601f820116820180604052508101906106539190611918565b60008281526001602081905260409091200154610c3e81610d5c565b6106e98383610ea7565b7f68a322fafda6454b93053800d6ab05c1db2d381443903c564ee152f1b8c2ed0d610c7281610d5c565b60088290556040518281527f53ce234844bf0edccc4e84a7dbdea32942d34449fdf449ee2f55e1967fa95eac906020016106b5565b610cb18282610923565b61076d5760008281526001602081815260408084206001600160a01b0386168086529252808420805460ff19169093179092559051339285917f2f8788117e7eff1d82e926ec794901d17c78024a50270940304540a733656f0d9190a45050565b60006108e8836001600160a01b0384166110db565b60006001600160e01b03198216637965db0b60e01b148061057057506301ffc9a760e01b6001600160e01b0319831614610570565b6107f0813361112a565b610d6e611183565b828114610db55760405162461bcd60e51b8152602060048201526015602482015274082e4e4c2f240d8cadccee8d040dad2e6dac2e8c6d605b1b604482015260640161075a565b8260005b81811015610e1d57610e1533858584818110610dd757610dd7611b8b565b90506020020135888885818110610df057610df0611b8b565b9050602002016020810190610e059190611821565b6001600160a01b031691906111dd565b600101610db9565b5050610e296001600555565b50505050565b60008381526004602090815260408083206001600160a01b03861680855290835292819020805460ff19168515159081179091558151878152928301939093528101919091527fd4eaea07a6439b4db5273291dd4d77f204d9eaf0d67149318c911f449f3df5d69060600160405180910390a1505050565b610eb1828261122f565b60008281526002602052604090206106e99082611296565b610ed38282610ca7565b60008281526002602052604090206106e99082610d12565b6000828152600160208190526040808320909101805490849055905190918391839186917fbd79b86ffe0ab8e8776151514217cd7cacd52c909f66475c3af44e129f0b00ff9190a4505050565b6000828152600360209081526040918290205482519081529081018390527fb7f84e320be67bd09b884f0142b70ae1256025837c61650411a58567f9137c5d910160405180910390a160009182526003602052604090912055565b60006108e883836112ab565b610fa7611183565b8060005b818110156110715761106933858584818110610fc957610fc9611b8b565b9050602002016020810190610fde9190611821565b6040516370a0823160e01b81523060048201526001600160a01b0391909116906370a082319060240160206040518083038186803b15801561101f57600080fd5b505afa158015611033573d6000803e3d6000fd5b505050506040513d601f19601f8201168201806040525081019061105791906119cf565b868685818110610df057610df0611b8b565b600101610fab565b505061076d6001600555565b600080546001600160a01b0319166001600160a01b0383169081179091556040519081527f0dacf1df82205439fd27104877c9ed6bec034e24daf9b3afb96f62191e0a7ea79060200160405180910390a150565b6000610570825490565b600081815260018301602052604081205461112257508154600181810184556000848152602080822090930184905584548482528286019093526040902091909155610570565b506000610570565b6111348282610923565b61076d57611141816112d5565b61114c8360206112e7565b60405160200161115d929190611a04565b60408051601f198184030181529082905262461bcd60e51b825261075a91600401611a79565b600260055414156111d65760405162461bcd60e51b815260206004820152601f60248201527f5265656e7472616e637947756172643a207265656e7472616e742063616c6c00604482015260640161075a565b6002600555565b604080516001600160a01b038416602482015260448082018490528251808303909101815260649091019091526020810180516001600160e01b031663a9059cbb60e01b1790526106e9908490611483565b6112398282610923565b1561076d5760008281526001602090815260408083206001600160a01b0385168085529252808320805460ff1916905551339285917ff6391f5c32d9c69d2a47ea670b442974b53935d1edc7fd64eb21e047a839171b9190a45050565b60006108e8836001600160a01b038416611555565b60008260000182815481106112c2576112c2611b8b565b9060005260206000200154905092915050565b60606105706001600160a01b03831660145b606060006112f6836002611ae6565b611301906002611aac565b67ffffffffffffffff81111561131957611319611ba1565b6040519080825280601f01601f191660200182016040528015611343576020820181803683370190505b509050600360fc1b8160008151811061135e5761135e611b8b565b60200101906001600160f81b031916908160001a905350600f60fb1b8160018151811061138d5761138d611b8b565b60200101906001600160f81b031916908160001a90535060006113b1846002611ae6565b6113bc906001611aac565b90505b6001811115611434576f181899199a1a9b1b9c1cb0b131b232b360811b85600f16601081106113f0576113f0611b8b565b1a60f81b82828151811061140657611406611b8b565b60200101906001600160f81b031916908160001a90535060049490941c9361142d81611b48565b90506113bf565b5083156108e85760405162461bcd60e51b815260206004820181905260248201527f537472696e67733a20686578206c656e67746820696e73756666696369656e74604482015260640161075a565b60006114d8826040518060400160405280602081526020017f5361666545524332303a206c6f772d6c6576656c2063616c6c206661696c6564815250856001600160a01b03166116489092919063ffffffff16565b8051909150156106e957808060200190518101906114f69190611918565b6106e95760405162461bcd60e51b815260206004820152602a60248201527f5361666545524332303a204552433230206f7065726174696f6e20646964206e6044820152691bdd081cdd58d8d9595960b21b606482015260840161075a565b6000818152600183016020526040812054801561163e576000611579600183611b05565b855490915060009061158d90600190611b05565b90508181146115f25760008660000182815481106115ad576115ad611b8b565b90600052602060002001549050808760000184815481106115d0576115d0611b8b565b6000918252602080832090910192909255918252600188019052604090208390555b855486908061160357611603611b75565b600190038181906000526020600020016000905590558560010160008681526020019081526020016000206000905560019350505050610570565b6000915050610570565b6060611657848460008561165f565b949350505050565b6060824710156116c05760405162461bcd60e51b815260206004820152602660248201527f416464726573733a20696e73756666696369656e742062616c616e636520666f6044820152651c8818d85b1b60d21b606482015260840161075a565b600080866001600160a01b031685876040516116dc91906119e8565b60006040518083038185875af1925050503d8060008114611719576040519150601f19603f3d011682016040523d82523d6000602084013e61171e565b606091505b509150915061172f8783838761173a565b979650505050505050565b606083156117a657825161179f576001600160a01b0385163b61179f5760405162461bcd60e51b815260206004820152601d60248201527f416464726573733a2063616c6c20746f206e6f6e2d636f6e7472616374000000604482015260640161075a565b5081611657565b61165783838151156117bb5781518083602001fd5b8060405162461bcd60e51b815260040161075a9190611a79565b60008083601f8401126117e757600080fd5b50813567ffffffffffffffff8111156117ff57600080fd5b6020830191508360208260051b850101111561181a57600080fd5b9250929050565b60006020828403121561183357600080fd5b81356108e881611bb7565b6000806040838503121561185157600080fd5b823561185c81611bb7565b946020939093013593505050565b6000806020838503121561187d57600080fd5b823567ffffffffffffffff81111561189457600080fd5b6118a0858286016117d5565b90969095509350505050565b600080600080604085870312156118c257600080fd5b843567ffffffffffffffff808211156118da57600080fd5b6118e6888389016117d5565b909650945060208701359150808211156118ff57600080fd5b5061190c878288016117d5565b95989497509550505050565b60006020828403121561192a57600080fd5b815180151581146108e857600080fd5b60006020828403121561194c57600080fd5b5035919050565b6000806040838503121561196657600080fd5b82359150602083013561197881611bb7565b809150509250929050565b6000806040838503121561199657600080fd5b50508035926020909101359150565b6000602082840312156119b757600080fd5b81356001600160e01b0319811681146108e857600080fd5b6000602082840312156119e157600080fd5b5051919050565b600082516119fa818460208701611b1c565b9190910192915050565b7f416363657373436f6e74726f6c3a206163636f756e7420000000000000000000815260008351611a3c816017850160208801611b1c565b7001034b99036b4b9b9b4b733903937b6329607d1b6017918401918201528351611a6d816028840160208801611b1c565b01602801949350505050565b6020815260008251806020840152611a98816040850160208701611b1c565b601f01601f19169190910160400192915050565b60008219821115611abf57611abf611b5f565b500190565b600082611ae157634e487b7160e01b600052601260045260246000fd5b500490565b6000816000190483118215151615611b0057611b00611b5f565b500290565b600082821015611b1757611b17611b5f565b500390565b60005b83811015611b37578181015183820152602001611b1f565b83811115610e295750506000910152565b600081611b5757611b57611b5f565b506000190190565b634e487b7160e01b600052601160045260246000fd5b634e487b7160e01b600052603160045260246000fd5b634e487b7160e01b600052603260045260246000fd5b634e487b7160e01b600052604160045260246000fd5b6001600160a01b03811681146107f057600080fdfea26469706673582212207ea84b3101b4cc037faa8f1487fd8d974de444eb1f3c63ec47e76672c219ed3664736f6c63430008070033",
  "devdoc": {
    "kind": "dev",
    "methods": {
      "acceptRole(bytes32)": {
        "details": "Only callable by the role nominee.",
        "params": {
          "role": "The role of the nomination to be accepted"
        }
      },
      "acceptRoleAdmin(bytes32)": {
        "details": "Only callable by a member of the role admin nominee.",
        "params": {
          "role": "The role a role admin nomination is to be accepted for"
        }
      },
      "getRoleAdmin(bytes32)": {
        "details": "Returns the admin role that controls `role`. See {grantRole} and {revokeRole}. To change a role's admin, use {_setRoleAdmin}."
      },
      "getRoleAdminNominee(bytes32)": {
        "params": {
          "role": "The role to retrieve the role admin nominee for"
        },
        "returns": {
          "_0": "The current role admin nominee of `role`"
        }
      },
      "getRoleMember(bytes32,uint256)": {
        "details": "Returns one of the accounts that have `role`. `index` must be a value between 0 and {getRoleMemberCount}, non-inclusive. Role bearers are not sorted in any particular way, and their ordering may change at any point. WARNING: When using {getRoleMember} and {getRoleMemberCount}, make sure you perform all queries on the same block. See the following https://forum.openzeppelin.com/t/iterating-over-elements-on-enumerableset-in-openzeppelin-contracts/2296[forum post] for more information."
      },
      "getRoleMemberCount(bytes32)": {
        "details": "Returns the number of accounts that have `role`. Can be used together with {getRoleMember} to enumerate all bearers of a role."
      },
      "grantRole(bytes32,address)": {
        "details": "Grants `role` to `account`. If `account` had not been already granted `role`, emits a {RoleGranted} event. Requirements: - the caller must have ``role``'s admin role."
      },
      "hasRole(bytes32,address)": {
        "details": "Returns `true` if `account` has been granted `role`."
      },
      "isNominated(bytes32,address)": {
        "params": {
          "account": "The address to retrieve nomination status for",
          "role": "The role to retrieve nomination status for"
        },
        "returns": {
          "_0": "Whether `account` is nominated for `role`"
        }
      },
      "renounceRole(bytes32,address)": {
        "details": "Revokes `role` from the calling account. Roles are often managed via {grantRole} and {revokeRole}: this function's purpose is to provide a mechanism for accounts to lose their privileges if they are compromised (such as when a trusted device is misplaced). If the calling account had been revoked `role`, emits a {RoleRevoked} event. Requirements: - the caller must be `account`. May emit a {RoleRevoked} event."
      },
      "revokeNomination(bytes32,address)": {
        "details": "Only callable by a member of the role's current role admin.",
        "params": {
          "account": "Address for which nomination is to be revoked",
          "role": "The role of the nomination to be revoked"
        }
      },
      "revokeRole(bytes32,address)": {
        "details": "Revokes `role` from `account`. If `account` had been granted `role`, emits a {RoleRevoked} event. Requirements: - the caller must have ``role``'s admin role. May emit a {RoleRevoked} event."
      },
      "supportsInterface(bytes4)": {
        "details": "See {IERC165-supportsInterface}."
      },
      "withdrawERC20(address[])": {
        "details": "Only callable by `owner()`.",
        "params": {
          "erc20Tokens": "ERC20 tokens to be withdrawn"
        }
      },
      "withdrawERC20(address[],uint256[])": {
        "details": "Length of `erc20Tokens` and `amounts` must match. Only callable by `owner()`.",
        "params": {
          "amounts": "Amounts to be withdrawn",
          "erc20Tokens": "ERC20 tokens to be withdrawn"
        }
      }
    },
    "version": 1
  },
  "userdoc": {
    "kind": "user",
    "methods": {
      "acceptRole(bytes32)": {
        "notice": "Accepts a role nomination."
      },
      "acceptRoleAdmin(bytes32)": {
        "notice": "Accepts a role admin nomination."
      },
      "revokeNomination(bytes32,address)": {
        "notice": "Revokes a role nomination."
      },
      "withdrawERC20(address[])": {
        "notice": "Withdraws entire balance of each ERC20 in `erc20Tokens`."
      },
      "withdrawERC20(address[],uint256[])": {
        "notice": "Withdraws corresponding `amounts` of each ERC20 in `erc20Tokens`."
      }
    },
    "version": 1
  },
  "storageLayout": {
    "storage": [
      {
        "astId": 16792,
        "contract": "contracts/TokenSender.sol:TokenSender",
        "label": "_allowedMsgSenders",
        "offset": 0,
        "slot": "0",
        "type": "t_contract(IAccountList)17592"
      },
      {
        "astId": 4407,
        "contract": "contracts/TokenSender.sol:TokenSender",
        "label": "_roles",
        "offset": 0,
        "slot": "1",
        "type": "t_mapping(t_bytes32,t_struct(RoleData)4402_storage)"
      },
      {
        "astId": 4717,
        "contract": "contracts/TokenSender.sol:TokenSender",
        "label": "_roleMembers",
        "offset": 0,
        "slot": "2",
        "type": "t_mapping(t_bytes32,t_struct(AddressSet)9760_storage)"
      },
      {
        "astId": 16844,
        "contract": "contracts/TokenSender.sol:TokenSender",
        "label": "_roleToRoleAdminNominee",
        "offset": 0,
        "slot": "3",
        "type": "t_mapping(t_bytes32,t_bytes32)"
      },
      {
        "astId": 16850,
        "contract": "contracts/TokenSender.sol:TokenSender",
        "label": "_roleToAccountToNominated",
        "offset": 0,
        "slot": "4",
        "type": "t_mapping(t_bytes32,t_mapping(t_address,t_bool))"
      },
      {
        "astId": 5045,
        "contract": "contracts/TokenSender.sol:TokenSender",
        "label": "_status",
        "offset": 0,
        "slot": "5",
        "type": "t_uint256"
      },
      {
        "astId": 14054,
        "contract": "contracts/TokenSender.sol:TokenSender",
        "label": "_price",
        "offset": 0,
        "slot": "6",
        "type": "t_contract(IUintValue)17961"
      },
      {
        "astId": 14056,
        "contract": "contracts/TokenSender.sol:TokenSender",
        "label": "_priceMultiplier",
        "offset": 0,
        "slot": "7",
        "type": "t_uint256"
      },
      {
        "astId": 14058,
        "contract": "contracts/TokenSender.sol:TokenSender",
        "label": "_scaledPriceLowerBound",
        "offset": 0,
        "slot": "8",
        "type": "t_uint256"
      }
    ],
    "types": {
      "t_address": {
        "encoding": "inplace",
        "label": "address",
        "numberOfBytes": "20"
      },
      "t_array(t_bytes32)dyn_storage": {
        "base": "t_bytes32",
        "encoding": "dynamic_array",
        "label": "bytes32[]",
        "numberOfBytes": "32"
      },
      "t_bool": {
        "encoding": "inplace",
        "label": "bool",
        "numberOfBytes": "1"
      },
      "t_bytes32": {
        "encoding": "inplace",
        "label": "bytes32",
        "numberOfBytes": "32"
      },
      "t_contract(IAccountList)17592": {
        "encoding": "inplace",
        "label": "contract IAccountList",
        "numberOfBytes": "20"
      },
      "t_contract(IUintValue)17961": {
        "encoding": "inplace",
        "label": "contract IUintValue",
        "numberOfBytes": "20"
      },
      "t_mapping(t_address,t_bool)": {
        "encoding": "mapping",
        "key": "t_address",
        "label": "mapping(address => bool)",
        "numberOfBytes": "32",
        "value": "t_bool"
      },
      "t_mapping(t_bytes32,t_bytes32)": {
        "encoding": "mapping",
        "key": "t_bytes32",
        "label": "mapping(bytes32 => bytes32)",
        "numberOfBytes": "32",
        "value": "t_bytes32"
      },
      "t_mapping(t_bytes32,t_mapping(t_address,t_bool))": {
        "encoding": "mapping",
        "key": "t_bytes32",
        "label": "mapping(bytes32 => mapping(address => bool))",
        "numberOfBytes": "32",
        "value": "t_mapping(t_address,t_bool)"
      },
      "t_mapping(t_bytes32,t_struct(AddressSet)9760_storage)": {
        "encoding": "mapping",
        "key": "t_bytes32",
        "label": "mapping(bytes32 => struct EnumerableSet.AddressSet)",
        "numberOfBytes": "32",
        "value": "t_struct(AddressSet)9760_storage"
      },
      "t_mapping(t_bytes32,t_struct(RoleData)4402_storage)": {
        "encoding": "mapping",
        "key": "t_bytes32",
        "label": "mapping(bytes32 => struct AccessControl.RoleData)",
        "numberOfBytes": "32",
        "value": "t_struct(RoleData)4402_storage"
      },
      "t_mapping(t_bytes32,t_uint256)": {
        "encoding": "mapping",
        "key": "t_bytes32",
        "label": "mapping(bytes32 => uint256)",
        "numberOfBytes": "32",
        "value": "t_uint256"
      },
      "t_struct(AddressSet)9760_storage": {
        "encoding": "inplace",
        "label": "struct EnumerableSet.AddressSet",
        "members": [
          {
            "astId": 9759,
            "contract": "contracts/TokenSender.sol:TokenSender",
            "label": "_inner",
            "offset": 0,
            "slot": "0",
            "type": "t_struct(Set)9445_storage"
          }
        ],
        "numberOfBytes": "64"
      },
      "t_struct(RoleData)4402_storage": {
        "encoding": "inplace",
        "label": "struct AccessControl.RoleData",
        "members": [
          {
            "astId": 4399,
            "contract": "contracts/TokenSender.sol:TokenSender",
            "label": "members",
            "offset": 0,
            "slot": "0",
            "type": "t_mapping(t_address,t_bool)"
          },
          {
            "astId": 4401,
            "contract": "contracts/TokenSender.sol:TokenSender",
            "label": "adminRole",
            "offset": 0,
            "slot": "1",
            "type": "t_bytes32"
          }
        ],
        "numberOfBytes": "64"
      },
      "t_struct(Set)9445_storage": {
        "encoding": "inplace",
        "label": "struct EnumerableSet.Set",
        "members": [
          {
            "astId": 9440,
            "contract": "contracts/TokenSender.sol:TokenSender",
            "label": "_values",
            "offset": 0,
            "slot": "0",
            "type": "t_array(t_bytes32)dyn_storage"
          },
          {
            "astId": 9444,
            "contract": "contracts/TokenSender.sol:TokenSender",
            "label": "_indexes",
            "offset": 0,
            "slot": "1",
            "type": "t_mapping(t_bytes32,t_uint256)"
          }
        ],
        "numberOfBytes": "64"
      },
      "t_uint256": {
        "encoding": "inplace",
        "label": "uint256",
        "numberOfBytes": "32"
      }
    }
  }
}