{
  "address": "0x2e1F0017476daFC5200e46d2BAD2d39256798a26",
  "abi": [
    {
      "anonymous": false,
      "inputs": [
        {
          "indexed": false,
          "internalType": "contract IAccountList",
          "name": "accountList",
          "type": "address"
        }
      ],
      "name": "AccountListChange",
      "type": "event"
    },
    {
      "anonymous": false,
      "inputs": [
        {
          "indexed": false,
          "internalType": "contract IAccountList",
          "name": "allowedMsgSenders",
          "type": "address"
        }
      ],
      "name": "AllowedMsgSendersChange",
      "type": "event"
    },
    {
      "anonymous": false,
      "inputs": [
        {
          "indexed": true,
          "internalType": "address",
          "name": "previousNominee",
          "type": "address"
        },
        {
          "indexed": true,
          "internalType": "address",
          "name": "newNominee",
          "type": "address"
        }
      ],
      "name": "NomineeUpdate",
      "type": "event"
    },
    {
      "anonymous": false,
      "inputs": [
        {
          "indexed": true,
          "internalType": "address",
          "name": "previousOwner",
          "type": "address"
        },
        {
          "indexed": true,
          "internalType": "address",
          "name": "newOwner",
          "type": "address"
        }
      ],
      "name": "OwnershipTransferred",
      "type": "event"
    },
    {
      "anonymous": false,
      "inputs": [
        {
          "indexed": false,
          "internalType": "address",
          "name": "sender",
          "type": "address"
        }
      ],
      "name": "TokenSenderChange",
      "type": "event"
    },
    {
      "anonymous": false,
      "inputs": [
        {
          "indexed": false,
          "internalType": "address",
          "name": "treasury",
          "type": "address"
        }
      ],
      "name": "TreasuryChange",
      "type": "event"
    },
    {
      "inputs": [],
      "name": "acceptOwnership",
      "outputs": [],
      "stateMutability": "nonpayable",
      "type": "function"
    },
    {
      "inputs": [],
      "name": "getAccountList",
      "outputs": [
        {
          "internalType": "contract IAccountList",
          "name": "",
          "type": "address"
        }
      ],
      "stateMutability": "view",
      "type": "function"
    },
    {
      "inputs": [],
      "name": "getAllowedMsgSenders",
      "outputs": [
        {
          "internalType": "contract IAccountList",
          "name": "",
          "type": "address"
        }
      ],
      "stateMutability": "view",
      "type": "function"
    },
    {
      "inputs": [],
      "name": "getNominee",
      "outputs": [
        {
          "internalType": "address",
          "name": "",
          "type": "address"
        }
      ],
      "stateMutability": "view",
      "type": "function"
    },
    {
      "inputs": [],
      "name": "getTokenSender",
      "outputs": [
        {
          "internalType": "contract ITokenSender",
          "name": "",
          "type": "address"
        }
      ],
      "stateMutability": "view",
      "type": "function"
    },
    {
      "inputs": [],
      "name": "getTreasury",
      "outputs": [
        {
          "internalType": "address",
          "name": "",
          "type": "address"
        }
      ],
      "stateMutability": "view",
      "type": "function"
    },
    {
      "inputs": [
        {
          "internalType": "address",
          "name": "funder",
          "type": "address"
        },
        {
          "internalType": "address",
          "name": "recipient",
          "type": "address"
        },
        {
          "internalType": "uint256",
          "name": "amountBeforeFee",
          "type": "uint256"
        },
        {
          "internalType": "uint256",
          "name": "amountAfterFee",
          "type": "uint256"
        }
      ],
      "name": "hook",
      "outputs": [],
      "stateMutability": "nonpayable",
      "type": "function"
    },
    {
      "inputs": [],
      "name": "owner",
      "outputs": [
        {
          "internalType": "address",
          "name": "",
          "type": "address"
        }
      ],
      "stateMutability": "view",
      "type": "function"
    },
    {
      "inputs": [],
      "name": "renounceOwnership",
      "outputs": [],
      "stateMutability": "nonpayable",
      "type": "function"
    },
    {
      "inputs": [
        {
          "internalType": "contract IAccountList",
          "name": "accountList",
          "type": "address"
        }
      ],
      "name": "setAccountList",
      "outputs": [],
      "stateMutability": "nonpayable",
      "type": "function"
    },
    {
      "inputs": [
        {
          "internalType": "contract IAccountList",
          "name": "allowedMsgSenders",
          "type": "address"
        }
      ],
      "name": "setAllowedMsgSenders",
      "outputs": [],
      "stateMutability": "nonpayable",
      "type": "function"
    },
    {
      "inputs": [
        {
          "internalType": "contract ITokenSender",
          "name": "tokenSender",
          "type": "address"
        }
      ],
      "name": "setTokenSender",
      "outputs": [],
      "stateMutability": "nonpayable",
      "type": "function"
    },
    {
      "inputs": [
        {
          "internalType": "address",
          "name": "_treasury",
          "type": "address"
        }
      ],
      "name": "setTreasury",
      "outputs": [],
      "stateMutability": "nonpayable",
      "type": "function"
    },
    {
      "inputs": [
        {
          "internalType": "address",
          "name": "nominee",
          "type": "address"
        }
      ],
      "name": "transferOwnership",
      "outputs": [],
      "stateMutability": "nonpayable",
      "type": "function"
    }
  ],
  "transactionHash": "0xcf3539316b33e09649256c56b15b24c65575737af6ac02e8efd691f5cb1990dd",
  "args": [],
  "numDeployments": 1,
  "solcInputHash": "522a9e520f8065cd7f85d9150b0fe19a",
  "bytecode": "0x608060405234801561001057600080fd5b5061001a3361001f565b610071565b600280546001600160a01b038381166001600160a01b0319831681179093556040519116919082907f8be0079c531659141344cd1fd0a4f28419497f9722a3daafe3b4186f6b6457e090600090a35050565b610954806100806000396000f3fe608060405234801561001057600080fd5b50600436106100ea5760003560e01c8063a2088cc91161008c578063d338107e11610066578063d338107e146101a7578063e6dab1a8146101ba578063f0f44260146101cb578063f2fde38b146101de57600080fd5b8063a2088cc914610170578063b6ca0b6314610183578063bfdbb7be1461019457600080fd5b80636d14bd1f116100c85780636d14bd1f1461013a578063715018a61461014f57806379ba5097146101575780638da5cb5b1461015f57600080fd5b80632843314e146100ef5780633b19e84a1461011857806368f27d2014610129575b600080fd5b6000546001600160a01b03165b6040516001600160a01b03909116815260200160405180910390f35b6005546001600160a01b03166100fc565b6001546001600160a01b03166100fc565b61014d61014836600461085f565b6101f1565b005b61014d610508565b61014d610524565b6002546001600160a01b03166100fc565b61014d61017e36600461083b565b610594565b6003546001600160a01b03166100fc565b61014d6101a236600461083b565b6105a8565b61014d6101b536600461083b565b6105b9565b6004546001600160a01b03166100fc565b61014d6101d936600461083b565b6105ca565b61014d6101ec36600461083b565b6105db565b6001546040516304d93ff560e31b81523360048201526001600160a01b03909116906326c9ffa89060240160206040518083038186803b15801561023457600080fd5b505afa158015610248573d6000803e3d6000fd5b505050506040513d601f19601f8201168201806040525081019061026c91906108a5565b6102b65760405162461bcd60e51b81526020600482015260166024820152751b5cd9cb9cd95b99195c881b9bdd08185b1b1bddd95960521b60448201526064015b60405180910390fd5b6000546001600160a01b031615610387576000546040516304d93ff560e31b81526001600160a01b038681166004830152909116906326c9ffa89060240160206040518083038186803b15801561030c57600080fd5b505afa158015610320573d6000803e3d6000fd5b505050506040513d601f19601f8201168201806040525081019061034491906108a5565b6103875760405162461bcd60e51b815260206004820152601460248201527314995919595b595c881b9bdd08185b1b1bddd95960621b60448201526064016102ad565b600061039382846108e4565b9050801561050157336001600160a01b0316635c1548fb6040518163ffffffff1660e01b815260040160206040518083038186803b1580156103d457600080fd5b505afa1580156103e8573d6000803e3d6000fd5b505050506040513d601f19601f8201168201806040525081019061040c91906108c7565b6005546040516323b872dd60e01b81523360048201526001600160a01b039182166024820152604481018490529116906323b872dd90606401602060405180830381600087803b15801561045f57600080fd5b505af1158015610473573d6000803e3d6000fd5b505050506040513d601f19601f8201168201806040525081019061049791906108a5565b5060048054604051633419e74d60e21b81526001600160a01b03878116938201939093526024810184905291169063d0679d3490604401600060405180830381600087803b1580156104e857600080fd5b505af11580156104fc573d6000803e3d6000fd5b505050505b5050505050565b6105106105ec565b610518610646565b6105226000610658565b565b6003546001600160a01b0316336001600160a01b03161461057f5760405162461bcd60e51b81526020600482015260156024820152746d73672e73656e64657220213d206e6f6d696e656560581b60448201526064016102ad565b600354610518906001600160a01b03166106aa565b61059c6105ec565b6105a5816106fc565b50565b6105b06105ec565b6105a581610751565b6105c16105ec565b6105a58161079f565b6105d26105ec565b6105a5816107ed565b6105e36105ec565b6105a581610658565b6002546001600160a01b031633146105225760405162461bcd60e51b815260206004820181905260248201527f4f776e61626c653a2063616c6c6572206973206e6f7420746865206f776e657260448201526064016102ad565b61064e6105ec565b61052260006106aa565b600380546001600160a01b038381166001600160a01b0319831681179093556040519116919082907fe7624d724357e317f51579affee5050a97c60b060e513e69aa8a1a35fb3315a790600090a35050565b600280546001600160a01b038381166001600160a01b0319831681179093556040519116919082907f8be0079c531659141344cd1fd0a4f28419497f9722a3daafe3b4186f6b6457e090600090a35050565b600180546001600160a01b0319166001600160a01b0383169081179091556040519081527f0dacf1df82205439fd27104877c9ed6bec034e24daf9b3afb96f62191e0a7ea7906020015b60405180910390a150565b600480546001600160a01b0319166001600160a01b0383169081179091556040519081527fc675cdccdd880d63acbe7af916bd9e4b8e8ffc96d4b0e1764619fa064658e93e90602001610746565b600080546001600160a01b0319166001600160a01b0383169081179091556040519081527f310aaf5db2aa9335d0aebcc973d03748ed641890df20d89139a312856b5a675c90602001610746565b600580546001600160a01b0319166001600160a01b0383169081179091556040519081527f1ac54af2084ba0e4b86b7bc54b978ce7dd4ca046d3dec89d7c8963873820c0bb90602001610746565b60006020828403121561084d57600080fd5b813561085881610909565b9392505050565b6000806000806080858703121561087557600080fd5b843561088081610909565b9350602085013561089081610909565b93969395505050506040820135916060013590565b6000602082840312156108b757600080fd5b8151801515811461085857600080fd5b6000602082840312156108d957600080fd5b815161085881610909565b60008282101561090457634e487b7160e01b600052601160045260246000fd5b500390565b6001600160a01b03811681146105a557600080fdfea26469706673582212203a3120f352e34e9f655d9c5cb5f975f8a0d9195322ad38d9e89081987a6f124564736f6c63430008070033",
  "devdoc": {
    "kind": "dev",
    "methods": {
      "acceptOwnership()": {
        "details": "Only callable by the current nominee. Sets nominee back to zero address."
      },
      "getNominee()": {
        "returns": {
          "_0": "The current nominee"
        }
      },
      "owner()": {
        "details": "Returns the address of the current owner."
      }
    },
    "version": 1
  },
  "userdoc": {
    "kind": "user",
    "methods": {
      "acceptOwnership()": {
        "notice": "Accepts ownership nomination."
      }
    },
    "version": 1
  },
  "storageLayout": {
    "storage": [
      {
        "astId": 16773,
        "contract": "contracts/RedeemHook.sol:RedeemHook",
        "label": "_accountList",
        "offset": 0,
        "slot": "0",
        "type": "t_contract(IAccountList)17609"
      },
      {
        "astId": 16809,
        "contract": "contracts/RedeemHook.sol:RedeemHook",
        "label": "_allowedMsgSenders",
        "offset": 0,
        "slot": "1",
        "type": "t_contract(IAccountList)17609"
      },
      {
        "astId": 4929,
        "contract": "contracts/RedeemHook.sol:RedeemHook",
        "label": "_owner",
        "offset": 0,
        "slot": "2",
        "type": "t_address"
      },
      {
        "astId": 17300,
        "contract": "contracts/RedeemHook.sol:RedeemHook",
        "label": "_nominee",
        "offset": 0,
        "slot": "3",
        "type": "t_address"
      },
      {
        "astId": 17404,
        "contract": "contracts/RedeemHook.sol:RedeemHook",
        "label": "_tokenSender",
        "offset": 0,
        "slot": "4",
        "type": "t_contract(ITokenSender)17933"
      },
      {
        "astId": 17441,
        "contract": "contracts/RedeemHook.sol:RedeemHook",
        "label": "_treasury",
        "offset": 0,
        "slot": "5",
        "type": "t_address"
      }
    ],
    "types": {
      "t_address": {
        "encoding": "inplace",
        "label": "address",
        "numberOfBytes": "20"
      },
      "t_contract(IAccountList)17609": {
        "encoding": "inplace",
        "label": "contract IAccountList",
        "numberOfBytes": "20"
      },
      "t_contract(ITokenSender)17933": {
        "encoding": "inplace",
        "label": "contract ITokenSender",
        "numberOfBytes": "20"
      }
    }
  }
}