{
  "address": "0xD0d005f5835bE09a129d4C0De99ed9A21dF2080d",
  "abi": [
    {
      "inputs": [],
      "stateMutability": "nonpayable",
      "type": "constructor"
    },
    {
      "inputs": [],
      "name": "ArrayLengthMismatch",
      "type": "error"
    },
    {
      "anonymous": false,
      "inputs": [
        {
          "indexed": false,
          "internalType": "address[]",
          "name": "accounts",
          "type": "address[]"
        },
        {
          "indexed": false,
          "internalType": "bool[]",
          "name": "included",
          "type": "bool[]"
        }
      ],
      "name": "AccountListChange",
      "type": "event"
    },
    {
      "anonymous": false,
      "inputs": [],
      "name": "AccountListReset",
      "type": "event"
    },
    {
      "anonymous": false,
      "inputs": [
        {
          "indexed": true,
          "internalType": "address",
          "name": "previousNominee",
          "type": "address"
        },
        {
          "indexed": true,
          "internalType": "address",
          "name": "newNominee",
          "type": "address"
        }
      ],
      "name": "NomineeUpdate",
      "type": "event"
    },
    {
      "anonymous": false,
      "inputs": [
        {
          "indexed": true,
          "internalType": "address",
          "name": "previousOwner",
          "type": "address"
        },
        {
          "indexed": true,
          "internalType": "address",
          "name": "newOwner",
          "type": "address"
        }
      ],
      "name": "OwnershipTransferred",
      "type": "event"
    },
    {
      "inputs": [],
      "name": "acceptOwnership",
      "outputs": [],
      "stateMutability": "nonpayable",
      "type": "function"
    },
    {
      "inputs": [
        {
          "internalType": "uint256",
          "name": "index",
          "type": "uint256"
        }
      ],
      "name": "getAccountAndInclusion",
      "outputs": [
        {
          "internalType": "address",
          "name": "",
          "type": "address"
        },
        {
          "internalType": "bool",
          "name": "",
          "type": "bool"
        }
      ],
      "stateMutability": "view",
      "type": "function"
    },
    {
      "inputs": [],
      "name": "getAccountListLength",
      "outputs": [
        {
          "internalType": "uint256",
          "name": "",
          "type": "uint256"
        }
      ],
      "stateMutability": "view",
      "type": "function"
    },
    {
      "inputs": [],
      "name": "getNominee",
      "outputs": [
        {
          "internalType": "address",
          "name": "",
          "type": "address"
        }
      ],
      "stateMutability": "view",
      "type": "function"
    },
    {
      "inputs": [
        {
          "internalType": "address",
          "name": "account",
          "type": "address"
        }
      ],
      "name": "isIncluded",
      "outputs": [
        {
          "internalType": "bool",
          "name": "",
          "type": "bool"
        }
      ],
      "stateMutability": "view",
      "type": "function"
    },
    {
      "inputs": [],
      "name": "owner",
      "outputs": [
        {
          "internalType": "address",
          "name": "",
          "type": "address"
        }
      ],
      "stateMutability": "view",
      "type": "function"
    },
    {
      "inputs": [],
      "name": "renounceOwnership",
      "outputs": [],
      "stateMutability": "nonpayable",
      "type": "function"
    },
    {
      "inputs": [],
      "name": "reset",
      "outputs": [],
      "stateMutability": "nonpayable",
      "type": "function"
    },
    {
      "inputs": [
        {
          "internalType": "address[]",
          "name": "accounts",
          "type": "address[]"
        },
        {
          "internalType": "bool[]",
          "name": "included",
          "type": "bool[]"
        }
      ],
      "name": "set",
      "outputs": [],
      "stateMutability": "nonpayable",
      "type": "function"
    },
    {
      "inputs": [
        {
          "internalType": "address",
          "name": "nominee",
          "type": "address"
        }
      ],
      "name": "transferOwnership",
      "outputs": [],
      "stateMutability": "nonpayable",
      "type": "function"
    }
  ],
  "transactionHash": "0x0bad6fb53c20016703f3a27b311f9e0fba1a3f5aa79284385df28f97ec1c03fc",
  "args": [],
  "numDeployments": 1,
  "solcInputHash": "84b86c455dfe286363523437f420d411",
  "bytecode": "0x608060405234801561001057600080fd5b5061001a3361001f565b61006f565b600080546001600160a01b038381166001600160a01b0319831681178455604051919092169283917f8be0079c531659141344cd1fd0a4f28419497f9722a3daafe3b4186f6b6457e09190a35050565b6108df8061007e6000396000f3fe608060405234801561001057600080fd5b506004361061009e5760003560e01c8063bdce8d3211610066578063bdce8d3214610113578063bfec52e714610145578063c559256314610158578063d826f88f1461016e578063f2fde38b1461017657600080fd5b806326c9ffa8146100a3578063715018a6146100cb57806379ba5097146100d55780638da5cb5b146100dd578063b6ca0b6314610102575b600080fd5b6100b66100b1366004610723565b610189565b60405190151581526020015b60405180910390f35b6100d36101b0565b005b6100d36101cc565b6000546001600160a01b03165b6040516001600160a01b0390911681526020016100c2565b6001546001600160a01b03166100ea565b6101266101213660046107c5565b610241565b604080516001600160a01b0390931683529015156020830152016100c2565b6100d361015336600461073e565b610270565b610160610371565b6040519081526020016100c2565b6100d3610390565b6100d3610184366004610723565b6103d8565b600254600090815260036020526040812081906101a690846103ec565b1515949350505050565b6101b8610413565b6101c061046d565b6101ca600061047f565b565b6001546001600160a01b0316336001600160a01b03161461022c5760405162461bcd60e51b81526020600482015260156024820152746d73672e73656e64657220213d206e6f6d696e656560581b60448201526064015b60405180910390fd5b6001546101c0906001600160a01b03166104d1565b60025460009081526003602052604081208190819081906102629086610521565b909690151595509350505050565b610278610413565b8281146102985760405163512509d360e11b815260040160405180910390fd5b8260005b8181101561032c5760008484838181106102b8576102b8610893565b90506020020160208101906102cd91906107aa565b6102d85760006102db565b60015b60ff1690506103228787848181106102f5576102f5610893565b905060200201602081019061030a9190610723565b60025460009081526003602052604090209083610530565b505060010161029c565b507f7fbdeafe828953af96f73b06fa4f23820d934f93a18f36fe4feb066f5e305b2a8585858560405161036294939291906107de565b60405180910390a15050505050565b600254600090815260036020526040812061038b9061054e565b905090565b610398610413565b600280549060006103a88361086a565b90915550506040517f3cef0a9719cda3d6a9449b4ba862d198d20e81eed8af0122fe0b9347e149a26590600090a1565b6103e0610413565b6103e98161047f565b50565b6000808080610404866001600160a01b03871661055f565b909450925050505b9250929050565b6000546001600160a01b031633146101ca5760405162461bcd60e51b815260206004820181905260248201527f4f776e61626c653a2063616c6c6572206973206e6f7420746865206f776e65726044820152606401610223565b610475610413565b6101ca60006104d1565b600180546001600160a01b038381166001600160a01b0319831681179093556040519116919082907fe7624d724357e317f51579affee5050a97c60b060e513e69aa8a1a35fb3315a790600090a35050565b600080546001600160a01b038381166001600160a01b0319831681178455604051919092169283917f8be0079c531659141344cd1fd0a4f28419497f9722a3daafe3b4186f6b6457e09190a35050565b60008080806104048686610599565b6000610546846001600160a01b038516846105c4565b949350505050565b6000610559826105e1565b92915050565b600081815260028301602052604081205481908061058e5761058185856105ec565b92506000915061040c9050565b60019250905061040c565b600080806105a785856105ff565b600081815260029690960160205260409095205494959350505050565b60008281526002840160205260408120829055610546848461060b565b600061055982610617565b60006105f88383610621565b9392505050565b60006105f88383610639565b60006105f88383610663565b6000610559825490565b600081815260018301602052604081205415156105f8565b600082600001828154811061065057610650610893565b9060005260206000200154905092915050565b60008181526001830160205260408120546106aa57508154600181810184556000848152602080822090930184905584548482528286019093526040902091909155610559565b506000610559565b80356001600160a01b03811681146106c957600080fd5b919050565b60008083601f8401126106e057600080fd5b50813567ffffffffffffffff8111156106f857600080fd5b6020830191508360208260051b850101111561040c57600080fd5b803580151581146106c957600080fd5b60006020828403121561073557600080fd5b6105f8826106b2565b6000806000806040858703121561075457600080fd5b843567ffffffffffffffff8082111561076c57600080fd5b610778888389016106ce565b9096509450602087013591508082111561079157600080fd5b5061079e878288016106ce565b95989497509550505050565b6000602082840312156107bc57600080fd5b6105f882610713565b6000602082840312156107d757600080fd5b5035919050565b6040808252810184905260008560608301825b8781101561081f576001600160a01b0361080a846106b2565b168252602092830192909101906001016107f1565b5083810360208581019190915285825291508590820160005b8681101561085d5761084983610713565b151582529183019190830190600101610838565b5098975050505050505050565b600060001982141561088c57634e487b7160e01b600052601160045260246000fd5b5060010190565b634e487b7160e01b600052603260045260246000fdfea264697066735822122060390e2c94e66549eea0a539bbe7488924337a6e336df2306100fe24a9ec1a0b64736f6c63430008070033",
  "devdoc": {
    "kind": "dev",
    "methods": {
      "acceptOwnership()": {
        "details": "Only callable by the current nominee. Sets nominee back to zero address."
      },
      "getNominee()": {
        "returns": {
          "_0": "The current nominee"
        }
      },
      "isIncluded(address)": {
        "params": {
          "account": "Address to check inclusion for"
        },
        "returns": {
          "_0": "Whether `account` is included"
        }
      },
      "owner()": {
        "details": "Returns the address of the current owner."
      },
      "reset()": {
        "details": "Only callable by `owner()`."
      },
      "set(address[],bool[])": {
        "details": "Whether an account is included is based on the boolean value at its respective index in `included`. This function will only edit the inclusion of addresses in `accounts`. The length of `accounts` and `included` must match. Only callable by `owner()`.",
        "params": {
          "accounts": "Addresses to change inclusion for",
          "included": "Whether to include corresponding address in `accounts`"
        }
      }
    },
    "version": 1
  },
  "userdoc": {
    "kind": "user",
    "methods": {
      "acceptOwnership()": {
        "notice": "Accepts ownership nomination."
      },
      "reset()": {
        "notice": "Removes every address from the set."
      },
      "set(address[],bool[])": {
        "notice": "Sets whether an address in `accounts` is included."
      }
    },
    "version": 1
  },
  "storageLayout": {
    "storage": [
      {
        "astId": 4929,
        "contract": "contracts/AccountList.sol:AccountList",
        "label": "_owner",
        "offset": 0,
        "slot": "0",
        "type": "t_address"
      },
      {
        "astId": 20063,
        "contract": "contracts/AccountList.sol:AccountList",
        "label": "_nominee",
        "offset": 0,
        "slot": "1",
        "type": "t_address"
      },
      {
        "astId": 11384,
        "contract": "contracts/AccountList.sol:AccountList",
        "label": "_resetIndex",
        "offset": 0,
        "slot": "2",
        "type": "t_uint256"
      },
      {
        "astId": 11389,
        "contract": "contracts/AccountList.sol:AccountList",
        "label": "_resetIndexToAccountToIncluded",
        "offset": 0,
        "slot": "3",
        "type": "t_mapping(t_uint256,t_struct(AddressToUintMap)10124_storage)"
      }
    ],
    "types": {
      "t_address": {
        "encoding": "inplace",
        "label": "address",
        "numberOfBytes": "20"
      },
      "t_array(t_bytes32)dyn_storage": {
        "base": "t_bytes32",
        "encoding": "dynamic_array",
        "label": "bytes32[]",
        "numberOfBytes": "32"
      },
      "t_bytes32": {
        "encoding": "inplace",
        "label": "bytes32",
        "numberOfBytes": "32"
      },
      "t_mapping(t_bytes32,t_bytes32)": {
        "encoding": "mapping",
        "key": "t_bytes32",
        "label": "mapping(bytes32 => bytes32)",
        "numberOfBytes": "32",
        "value": "t_bytes32"
      },
      "t_mapping(t_bytes32,t_uint256)": {
        "encoding": "mapping",
        "key": "t_bytes32",
        "label": "mapping(bytes32 => uint256)",
        "numberOfBytes": "32",
        "value": "t_uint256"
      },
      "t_mapping(t_uint256,t_struct(AddressToUintMap)10124_storage)": {
        "encoding": "mapping",
        "key": "t_uint256",
        "label": "mapping(uint256 => struct EnumerableMap.AddressToUintMap)",
        "numberOfBytes": "32",
        "value": "t_struct(AddressToUintMap)10124_storage"
      },
      "t_struct(AddressToUintMap)10124_storage": {
        "encoding": "inplace",
        "label": "struct EnumerableMap.AddressToUintMap",
        "members": [
          {
            "astId": 10123,
            "contract": "contracts/AccountList.sol:AccountList",
            "label": "_inner",
            "offset": 0,
            "slot": "0",
            "type": "t_struct(Bytes32ToBytes32Map)9450_storage"
          }
        ],
        "numberOfBytes": "96"
      },
      "t_struct(Bytes32Set)10761_storage": {
        "encoding": "inplace",
        "label": "struct EnumerableSet.Bytes32Set",
        "members": [
          {
            "astId": 10760,
            "contract": "contracts/AccountList.sol:AccountList",
            "label": "_inner",
            "offset": 0,
            "slot": "0",
            "type": "t_struct(Set)10567_storage"
          }
        ],
        "numberOfBytes": "64"
      },
      "t_struct(Bytes32ToBytes32Map)9450_storage": {
        "encoding": "inplace",
        "label": "struct EnumerableMap.Bytes32ToBytes32Map",
        "members": [
          {
            "astId": 9445,
            "contract": "contracts/AccountList.sol:AccountList",
            "label": "_keys",
            "offset": 0,
            "slot": "0",
            "type": "t_struct(Bytes32Set)10761_storage"
          },
          {
            "astId": 9449,
            "contract": "contracts/AccountList.sol:AccountList",
            "label": "_values",
            "offset": 0,
            "slot": "2",
            "type": "t_mapping(t_bytes32,t_bytes32)"
          }
        ],
        "numberOfBytes": "96"
      },
      "t_struct(Set)10567_storage": {
        "encoding": "inplace",
        "label": "struct EnumerableSet.Set",
        "members": [
          {
            "astId": 10562,
            "contract": "contracts/AccountList.sol:AccountList",
            "label": "_values",
            "offset": 0,
            "slot": "0",
            "type": "t_array(t_bytes32)dyn_storage"
          },
          {
            "astId": 10566,
            "contract": "contracts/AccountList.sol:AccountList",
            "label": "_indexes",
            "offset": 0,
            "slot": "1",
            "type": "t_mapping(t_bytes32,t_uint256)"
          }
        ],
        "numberOfBytes": "64"
      },
      "t_uint256": {
        "encoding": "inplace",
        "label": "uint256",
        "numberOfBytes": "32"
      }
    }
  }
}