{
  "address": "0x6DA2F6cE51A0E0fA2DB04d5829d255163CB0ca86",
  "abi": [
    {
      "inputs": [
        {
          "internalType": "contract ICollateral",
          "name": "collateral",
          "type": "address"
        },
        {
          "internalType": "contract ISwapRouter",
          "name": "swapRouter",
          "type": "address"
        },
        {
          "internalType": "contract IVault",
          "name": "wstethVault",
          "type": "address"
        }
      ],
      "stateMutability": "nonpayable",
      "type": "constructor"
    },
    {
      "inputs": [],
      "name": "InvalidAccount",
      "type": "error"
    },
    {
      "anonymous": false,
      "inputs": [
        {
          "indexed": false,
          "internalType": "address",
          "name": "account",
          "type": "address"
        },
        {
          "indexed": false,
          "internalType": "uint256",
          "name": "multiplier",
          "type": "uint256"
        }
      ],
      "name": "AmountMultiplierChange",
      "type": "event"
    },
    {
      "anonymous": false,
      "inputs": [
        {
          "indexed": true,
          "internalType": "address",
          "name": "previousNominee",
          "type": "address"
        },
        {
          "indexed": true,
          "internalType": "address",
          "name": "newNominee",
          "type": "address"
        }
      ],
      "name": "NomineeUpdate",
      "type": "event"
    },
    {
      "anonymous": false,
      "inputs": [
        {
          "indexed": true,
          "internalType": "address",
          "name": "previousOwner",
          "type": "address"
        },
        {
          "indexed": true,
          "internalType": "address",
          "name": "newOwner",
          "type": "address"
        }
      ],
      "name": "OwnershipTransferred",
      "type": "event"
    },
    {
      "anonymous": false,
      "inputs": [
        {
          "indexed": false,
          "internalType": "address",
          "name": "sender",
          "type": "address"
        }
      ],
      "name": "TokenSenderChange",
      "type": "event"
    },
    {
      "anonymous": false,
      "inputs": [
        {
          "indexed": false,
          "internalType": "uint256",
          "name": "percent",
          "type": "uint256"
        }
      ],
      "name": "TradeFeePercentChange",
      "type": "event"
    },
    {
      "anonymous": false,
      "inputs": [
        {
          "indexed": false,
          "internalType": "address",
          "name": "treasury",
          "type": "address"
        }
      ],
      "name": "TreasuryChange",
      "type": "event"
    },
    {
      "anonymous": false,
      "inputs": [
        {
          "indexed": false,
          "internalType": "bytes32",
          "name": "wstethPoolId",
          "type": "bytes32"
        }
      ],
      "name": "WstethPoolIdChange",
      "type": "event"
    },
    {
      "inputs": [],
      "name": "PERCENT_UNIT",
      "outputs": [
        {
          "internalType": "uint256",
          "name": "",
          "type": "uint256"
        }
      ],
      "stateMutability": "view",
      "type": "function"
    },
    {
      "inputs": [],
      "name": "POOL_FEE_TIER",
      "outputs": [
        {
          "internalType": "uint24",
          "name": "",
          "type": "uint24"
        }
      ],
      "stateMutability": "view",
      "type": "function"
    },
    {
      "inputs": [],
      "name": "acceptOwnership",
      "outputs": [],
      "stateMutability": "nonpayable",
      "type": "function"
    },
    {
      "inputs": [
        {
          "internalType": "address",
          "name": "account",
          "type": "address"
        }
      ],
      "name": "getAmountMultiplier",
      "outputs": [
        {
          "internalType": "uint256",
          "name": "",
          "type": "uint256"
        }
      ],
      "stateMutability": "view",
      "type": "function"
    },
    {
      "inputs": [],
      "name": "getBaseToken",
      "outputs": [
        {
          "internalType": "contract IERC20",
          "name": "",
          "type": "address"
        }
      ],
      "stateMutability": "view",
      "type": "function"
    },
    {
      "inputs": [],
      "name": "getCollateral",
      "outputs": [
        {
          "internalType": "contract ICollateral",
          "name": "",
          "type": "address"
        }
      ],
      "stateMutability": "view",
      "type": "function"
    },
    {
      "inputs": [],
      "name": "getNominee",
      "outputs": [
        {
          "internalType": "address",
          "name": "",
          "type": "address"
        }
      ],
      "stateMutability": "view",
      "type": "function"
    },
    {
      "inputs": [],
      "name": "getSwapRouter",
      "outputs": [
        {
          "internalType": "contract ISwapRouter",
          "name": "",
          "type": "address"
        }
      ],
      "stateMutability": "view",
      "type": "function"
    },
    {
      "inputs": [],
      "name": "getTokenSender",
      "outputs": [
        {
          "internalType": "contract ITokenSender",
          "name": "",
          "type": "address"
        }
      ],
      "stateMutability": "view",
      "type": "function"
    },
    {
      "inputs": [],
      "name": "getTradeFeePercent",
      "outputs": [
        {
          "internalType": "uint256",
          "name": "",
          "type": "uint256"
        }
      ],
      "stateMutability": "view",
      "type": "function"
    },
    {
      "inputs": [],
      "name": "getTreasury",
      "outputs": [
        {
          "internalType": "address",
          "name": "",
          "type": "address"
        }
      ],
      "stateMutability": "view",
      "type": "function"
    },
    {
      "inputs": [],
      "name": "getWstethPoolId",
      "outputs": [
        {
          "internalType": "bytes32",
          "name": "",
          "type": "bytes32"
        }
      ],
      "stateMutability": "view",
      "type": "function"
    },
    {
      "inputs": [],
      "name": "getWstethVault",
      "outputs": [
        {
          "internalType": "contract IVault",
          "name": "",
          "type": "address"
        }
      ],
      "stateMutability": "view",
      "type": "function"
    },
    {
      "inputs": [],
      "name": "owner",
      "outputs": [
        {
          "internalType": "address",
          "name": "",
          "type": "address"
        }
      ],
      "stateMutability": "view",
      "type": "function"
    },
    {
      "inputs": [],
      "name": "renounceOwnership",
      "outputs": [],
      "stateMutability": "nonpayable",
      "type": "function"
    },
    {
      "inputs": [
        {
          "internalType": "address",
          "name": "account",
          "type": "address"
        },
        {
          "internalType": "uint256",
          "name": "amountMultiplier",
          "type": "uint256"
        }
      ],
      "name": "setAmountMultiplier",
      "outputs": [],
      "stateMutability": "nonpayable",
      "type": "function"
    },
    {
      "inputs": [
        {
          "internalType": "contract ITokenSender",
          "name": "tokenSender",
          "type": "address"
        }
      ],
      "name": "setTokenSender",
      "outputs": [],
      "stateMutability": "nonpayable",
      "type": "function"
    },
    {
      "inputs": [
        {
          "internalType": "uint256",
          "name": "tradeFeePercent",
          "type": "uint256"
        }
      ],
      "name": "setTradeFeePercent",
      "outputs": [],
      "stateMutability": "nonpayable",
      "type": "function"
    },
    {
      "inputs": [
        {
          "internalType": "address",
          "name": "treasury",
          "type": "address"
        }
      ],
      "name": "setTreasury",
      "outputs": [],
      "stateMutability": "nonpayable",
      "type": "function"
    },
    {
      "inputs": [
        {
          "internalType": "bytes32",
          "name": "wstethPoolId",
          "type": "bytes32"
        }
      ],
      "name": "setWstethPoolId",
      "outputs": [],
      "stateMutability": "nonpayable",
      "type": "function"
    },
    {
      "inputs": [
        {
          "internalType": "address",
          "name": "recipient",
          "type": "address"
        },
        {
          "internalType": "uint256",
          "name": "positionAmount",
          "type": "uint256"
        },
        {
          "components": [
            {
              "internalType": "uint256",
              "name": "deadline",
              "type": "uint256"
            },
            {
              "internalType": "uint8",
              "name": "v",
              "type": "uint8"
            },
            {
              "internalType": "bytes32",
              "name": "r",
              "type": "bytes32"
            },
            {
              "internalType": "bytes32",
              "name": "s",
              "type": "bytes32"
            }
          ],
          "internalType": "struct IDepositTradeHelper.Permit",
          "name": "positionPermit",
          "type": "tuple"
        },
        {
          "components": [
            {
              "internalType": "address",
              "name": "positionToken",
              "type": "address"
            },
            {
              "internalType": "uint256",
              "name": "deadline",
              "type": "uint256"
            },
            {
              "internalType": "uint256",
              "name": "amountOutMinimum",
              "type": "uint256"
            },
            {
              "internalType": "uint160",
              "name": "sqrtPriceLimitX96",
              "type": "uint160"
            }
          ],
          "internalType": "struct IDepositTradeHelper.OffChainTradeParams",
          "name": "tradeParams",
          "type": "tuple"
        }
      ],
      "name": "tradeForCollateral",
      "outputs": [],
      "stateMutability": "nonpayable",
      "type": "function"
    },
    {
      "inputs": [
        {
          "internalType": "address",
          "name": "recipient",
          "type": "address"
        },
        {
          "internalType": "uint256",
          "name": "collateralAmount",
          "type": "uint256"
        },
        {
          "components": [
            {
              "internalType": "uint256",
              "name": "deadline",
              "type": "uint256"
            },
            {
              "internalType": "uint8",
              "name": "v",
              "type": "uint8"
            },
            {
              "internalType": "bytes32",
              "name": "r",
              "type": "bytes32"
            },
            {
              "internalType": "bytes32",
              "name": "s",
              "type": "bytes32"
            }
          ],
          "internalType": "struct IDepositTradeHelper.Permit",
          "name": "collateralPermit",
          "type": "tuple"
        },
        {
          "components": [
            {
              "internalType": "address",
              "name": "positionToken",
              "type": "address"
            },
            {
              "internalType": "uint256",
              "name": "deadline",
              "type": "uint256"
            },
            {
              "internalType": "uint256",
              "name": "amountOutMinimum",
              "type": "uint256"
            },
            {
              "internalType": "uint160",
              "name": "sqrtPriceLimitX96",
              "type": "uint160"
            }
          ],
          "internalType": "struct IDepositTradeHelper.OffChainTradeParams",
          "name": "tradeParams",
          "type": "tuple"
        }
      ],
      "name": "tradeForPosition",
      "outputs": [],
      "stateMutability": "nonpayable",
      "type": "function"
    },
    {
      "inputs": [
        {
          "internalType": "address",
          "name": "nominee",
          "type": "address"
        }
      ],
      "name": "transferOwnership",
      "outputs": [],
      "stateMutability": "nonpayable",
      "type": "function"
    },
    {
      "inputs": [
        {
          "internalType": "address",
          "name": "recipient",
          "type": "address"
        },
        {
          "internalType": "uint256",
          "name": "amount",
          "type": "uint256"
        },
        {
          "internalType": "bytes",
          "name": "withdrawData",
          "type": "bytes"
        },
        {
          "components": [
            {
              "internalType": "uint256",
              "name": "deadline",
              "type": "uint256"
            },
            {
              "internalType": "uint8",
              "name": "v",
              "type": "uint8"
            },
            {
              "internalType": "bytes32",
              "name": "r",
              "type": "bytes32"
            },
            {
              "internalType": "bytes32",
              "name": "s",
              "type": "bytes32"
            }
          ],
          "internalType": "struct IDepositTradeHelper.Permit",
          "name": "collateralPermit",
          "type": "tuple"
        },
        {
          "components": [
            {
              "internalType": "uint256",
              "name": "amountOutMinimum",
              "type": "uint256"
            },
            {
              "internalType": "uint256",
              "name": "deadline",
              "type": "uint256"
            }
          ],
          "internalType": "struct IDepositTradeHelper.OffChainBalancerParams",
          "name": "balancerParams",
          "type": "tuple"
        }
      ],
      "name": "withdrawAndUnwrap",
      "outputs": [],
      "stateMutability": "nonpayable",
      "type": "function"
    },
    {
      "inputs": [
        {
          "internalType": "address",
          "name": "recipient",
          "type": "address"
        },
        {
          "internalType": "uint256",
          "name": "amount",
          "type": "uint256"
        },
        {
          "components": [
            {
              "internalType": "uint256",
              "name": "deadline",
              "type": "uint256"
            },
            {
              "internalType": "uint8",
              "name": "v",
              "type": "uint8"
            },
            {
              "internalType": "bytes32",
              "name": "r",
              "type": "bytes32"
            },
            {
              "internalType": "bytes32",
              "name": "s",
              "type": "bytes32"
            }
          ],
          "internalType": "struct IDepositTradeHelper.Permit",
          "name": "collateralPermit",
          "type": "tuple"
        },
        {
          "components": [
            {
              "internalType": "uint256",
              "name": "amountOutMinimum",
              "type": "uint256"
            },
            {
              "internalType": "uint256",
              "name": "deadline",
              "type": "uint256"
            }
          ],
          "internalType": "struct IDepositTradeHelper.OffChainBalancerParams",
          "name": "balancerParams",
          "type": "tuple"
        }
      ],
      "name": "withdrawAndUnwrap",
      "outputs": [],
      "stateMutability": "nonpayable",
      "type": "function"
    },
    {
      "inputs": [
        {
          "internalType": "address",
          "name": "recipient",
          "type": "address"
        },
        {
          "components": [
            {
              "internalType": "uint256",
              "name": "amountOutMinimum",
              "type": "uint256"
            },
            {
              "internalType": "uint256",
              "name": "deadline",
              "type": "uint256"
            }
          ],
          "internalType": "struct IDepositTradeHelper.OffChainBalancerParams",
          "name": "balancerParams",
          "type": "tuple"
        }
      ],
      "name": "wrapAndDeposit",
      "outputs": [],
      "stateMutability": "payable",
      "type": "function"
    },
    {
      "inputs": [
        {
          "internalType": "address",
          "name": "recipient",
          "type": "address"
        },
        {
          "internalType": "bytes",
          "name": "depositData",
          "type": "bytes"
        },
        {
          "components": [
            {
              "internalType": "uint256",
              "name": "amountOutMinimum",
              "type": "uint256"
            },
            {
              "internalType": "uint256",
              "name": "deadline",
              "type": "uint256"
            }
          ],
          "internalType": "struct IDepositTradeHelper.OffChainBalancerParams",
          "name": "balancerParams",
          "type": "tuple"
        }
      ],
      "name": "wrapAndDeposit",
      "outputs": [],
      "stateMutability": "payable",
      "type": "function"
    },
    {
      "inputs": [
        {
          "internalType": "address",
          "name": "recipient",
          "type": "address"
        },
        {
          "components": [
            {
              "internalType": "uint256",
              "name": "amountOutMinimum",
              "type": "uint256"
            },
            {
              "internalType": "uint256",
              "name": "deadline",
              "type": "uint256"
            }
          ],
          "internalType": "struct IDepositTradeHelper.OffChainBalancerParams",
          "name": "balancerParams",
          "type": "tuple"
        },
        {
          "components": [
            {
              "internalType": "uint256",
              "name": "deadline",
              "type": "uint256"
            },
            {
              "internalType": "uint8",
              "name": "v",
              "type": "uint8"
            },
            {
              "internalType": "bytes32",
              "name": "r",
              "type": "bytes32"
            },
            {
              "internalType": "bytes32",
              "name": "s",
              "type": "bytes32"
            }
          ],
          "internalType": "struct IDepositTradeHelper.Permit",
          "name": "collateralPermit",
          "type": "tuple"
        },
        {
          "components": [
            {
              "internalType": "address",
              "name": "positionToken",
              "type": "address"
            },
            {
              "internalType": "uint256",
              "name": "deadline",
              "type": "uint256"
            },
            {
              "internalType": "uint256",
              "name": "amountOutMinimum",
              "type": "uint256"
            },
            {
              "internalType": "uint160",
              "name": "sqrtPriceLimitX96",
              "type": "uint160"
            }
          ],
          "internalType": "struct IDepositTradeHelper.OffChainTradeParams",
          "name": "tradeParams",
          "type": "tuple"
        }
      ],
      "name": "wrapAndDepositAndTrade",
      "outputs": [],
      "stateMutability": "payable",
      "type": "function"
    },
    {
      "inputs": [
        {
          "internalType": "address",
          "name": "recipient",
          "type": "address"
        },
        {
          "internalType": "bytes",
          "name": "depositData",
          "type": "bytes"
        },
        {
          "components": [
            {
              "internalType": "uint256",
              "name": "amountOutMinimum",
              "type": "uint256"
            },
            {
              "internalType": "uint256",
              "name": "deadline",
              "type": "uint256"
            }
          ],
          "internalType": "struct IDepositTradeHelper.OffChainBalancerParams",
          "name": "balancerParams",
          "type": "tuple"
        },
        {
          "components": [
            {
              "internalType": "uint256",
              "name": "deadline",
              "type": "uint256"
            },
            {
              "internalType": "uint8",
              "name": "v",
              "type": "uint8"
            },
            {
              "internalType": "bytes32",
              "name": "r",
              "type": "bytes32"
            },
            {
              "internalType": "bytes32",
              "name": "s",
              "type": "bytes32"
            }
          ],
          "internalType": "struct IDepositTradeHelper.Permit",
          "name": "collateralPermit",
          "type": "tuple"
        },
        {
          "components": [
            {
              "internalType": "address",
              "name": "positionToken",
              "type": "address"
            },
            {
              "internalType": "uint256",
              "name": "deadline",
              "type": "uint256"
            },
            {
              "internalType": "uint256",
              "name": "amountOutMinimum",
              "type": "uint256"
            },
            {
              "internalType": "uint160",
              "name": "sqrtPriceLimitX96",
              "type": "uint160"
            }
          ],
          "internalType": "struct IDepositTradeHelper.OffChainTradeParams",
          "name": "tradeParams",
          "type": "tuple"
        }
      ],
      "name": "wrapAndDepositAndTrade",
      "outputs": [],
      "stateMutability": "payable",
      "type": "function"
    }
  ],
  "transactionHash": "0x0cab0771ec89aac05cfdef8f9144a444b596d43c5e4e53252d7c64749ec0bd40",
  "args": [
    "0x67a5246e2DbbD51250b41128EA277674C65e8dee",
    "0xE592427A0AEce92De3Edee1F18E0157C05861564",
    "0xBA12222222228d8Ba445958a75a0704d566BF2C8"
  ],
  "numDeployments": 1,
  "solcInputHash": "db787d8080b719d0d5f261c540615290",
  "bytecode": "0x6101006040523480156200001257600080fd5b5060405162002e1f38038062002e1f83398101604081905262000035916200040d565b6001600055620000453362000390565b826001600160a01b03166080816001600160a01b031660601b81525050826001600160a01b03166398acd7a66040518163ffffffff1660e01b815260040160206040518083038186803b1580156200009c57600080fd5b505afa158015620000b1573d6000803e3d6000fd5b505050506040513d601f19601f82011682018060405250810190620000d7919062000461565b6001600160601b0319606091821b811660a05283821b811660c0529082901b1660e05260408051634c566bd360e11b815290516001600160a01b038516916398acd7a6916004808301926020929190829003018186803b1580156200013b57600080fd5b505afa15801562000150573d6000803e3d6000fd5b505050506040513d601f19601f8201168201806040525081019062000176919062000461565b60405163095ea7b360e01b81526001600160a01b0385811660048301526000196024830152919091169063095ea7b390604401602060405180830381600087803b158015620001c457600080fd5b505af1158015620001d9573d6000803e3d6000fd5b505050506040513d601f19601f82011682018060405250810190620001ff9190620003e2565b50826001600160a01b03166398acd7a66040518163ffffffff1660e01b815260040160206040518083038186803b1580156200023a57600080fd5b505afa1580156200024f573d6000803e3d6000fd5b505050506040513d601f19601f8201168201806040525081019062000275919062000461565b60405163095ea7b360e01b81526001600160a01b0383811660048301526000196024830152919091169063095ea7b390604401602060405180830381600087803b158015620002c357600080fd5b505af1158015620002d8573d6000803e3d6000fd5b505050506040513d601f19601f82011682018060405250810190620002fe9190620003e2565b5060405163095ea7b360e01b81526001600160a01b038381166004830152600019602483015284169063095ea7b390604401602060405180830381600087803b1580156200034b57600080fd5b505af115801562000360573d6000803e3d6000fd5b505050506040513d601f19601f82011682018060405250810190620003869190620003e2565b5050505062000495565b600180546001600160a01b038381166001600160a01b0319831681179093556040519116919082907f8be0079c531659141344cd1fd0a4f28419497f9722a3daafe3b4186f6b6457e090600090a35050565b600060208284031215620003f557600080fd5b815180151581146200040657600080fd5b9392505050565b6000806000606084860312156200042357600080fd5b835162000430816200047c565b602085015190935062000443816200047c565b604085015190925062000456816200047c565b809150509250925092565b6000602082840312156200047457600080fd5b815162000406815b6001600160a01b03811681146200049257600080fd5b50565b60805160601c60a05160601c60c05160601c60e05160601c612872620005ad600039600081816104a401528181610ace01528181611322015281816115f30152611f0001526000818161031f01528181610c9701528181610d440152611c1a0152600081816103a501528181610a37015281816112ae015281816114c701528181611581015281816116a201528181611dd401528181611e8e0152611faf0152600081816102b7015281816105a2015281816105dc015281816107050152818161073f015281816107b8015281816107f801528181610de901528181610e4601528181610f2c01528181610f660152818161102f01528181611074015281816117a2015281816119d301526120a001526128726000f3fe6080604052600436106101c25760003560e01c8063a1f51b55116100f7578063cf486d5611610095578063e6dab1a811610064578063e6dab1a814610508578063ea76719e14610526578063f0f4426014610546578063f2fde38b1461056657600080fd5b8063cf486d5614610482578063d5122ef214610495578063d8dc0290146104c8578063de042cf0146104e857600080fd5b8063b4017763116100d1578063b40177631461040f578063b6ca0b631461042f578063bfdbb7be1461044d578063c2532a5a1461046d57600080fd5b8063a1f51b55146103c9578063a433c969146103dc578063ac12af51146103fc57600080fd5b80635df2ba911161016457806379ba50971161013e57806379ba5097146103435780637b8ab6eb146103585780638da5cb5b1461037857806398acd7a61461039657600080fd5b80635df2ba91146102db578063715018a6146102fb578063725c9c491461031057600080fd5b806333a41797116101a057806333a41797146102295780633b19e84a1461025f57806340163a63146102915780635c1548fb146102a857600080fd5b8063011a3528146101c757806302e35a12146101f5578063306330b914610214575b600080fd5b3480156101d357600080fd5b506101dc606481565b60405162ffffff90911681526020015b60405180910390f35b34801561020157600080fd5b506006545b6040519081526020016101ec565b6102276102223660046123ec565b610586565b005b34801561023557600080fd5b5061020661024436600461229e565b6001600160a01b031660009081526003602052604090205490565b34801561026b57600080fd5b506005546001600160a01b03165b6040516001600160a01b0390911681526020016101ec565b34801561029d57600080fd5b50610206620f424081565b3480156102b457600080fd5b507f0000000000000000000000000000000000000000000000000000000000000000610279565b3480156102e757600080fd5b506102276102f636600461258e565b610622565b34801561030757600080fd5b50610227610666565b34801561031c57600080fd5b507f0000000000000000000000000000000000000000000000000000000000000000610279565b34801561034f57600080fd5b50610227610682565b34801561036457600080fd5b50610227610373366004612525565b6106f7565b34801561038457600080fd5b506001546001600160a01b0316610279565b3480156103a257600080fd5b507f0000000000000000000000000000000000000000000000000000000000000000610279565b6102276103d73660046123b6565b61077e565b3480156103e857600080fd5b506102276103f7366004612467565b61079f565b61022761040a3660046122c2565b610bf5565b34801561041b57600080fd5b5061022761042a366004612525565b610c4a565b34801561043b57600080fd5b506002546001600160a01b0316610279565b34801561045957600080fd5b5061022761046836600461229e565b610ec4565b34801561047957600080fd5b50600754610206565b61022761049036600461232a565b610ed8565b3480156104a157600080fd5b507f0000000000000000000000000000000000000000000000000000000000000000610279565b3480156104d457600080fd5b506102276104e336600461243b565b610f9f565b3480156104f457600080fd5b5061022761050336600461258e565b610fd9565b34801561051457600080fd5b506004546001600160a01b0316610279565b34801561053257600080fd5b506102276105413660046124de565b611016565b34801561055257600080fd5b5061022761056136600461229e565b611429565b34801561057257600080fd5b5061022761058136600461229e565b61143a565b61058e61144b565b600061059a85856114a5565b90506105c8857f0000000000000000000000000000000000000000000000000000000000000000838661182b565b60006105d48683611972565b905061060f867f0000000000000000000000000000000000000000000000000000000000000000610608602087018761229e565b8487611b2b565b50505061061c6001600055565b50505050565b61062a611ca2565b60078190556040518181527fb77499b1ef27c7c3372056f2d029f9903b21c5af4dcef027e74528cb97e693ab906020015b60405180910390a150565b61066e611ca2565b610676611cfc565b6106806000611d0e565b565b6002546001600160a01b0316336001600160a01b0316146106e25760405162461bcd60e51b81526020600482015260156024820152746d73672e73656e64657220213d206e6f6d696e656560581b60448201526064015b60405180910390fd5b600254610676906001600160a01b0316611d60565b6106ff61144b565b61072b337f0000000000000000000000000000000000000000000000000000000000000000858561182b565b60006107378585611972565b9050610772857f000000000000000000000000000000000000000000000000000000000000000061076b602086018661229e565b8486611b2b565b505061061c6001600055565b61078661144b565b61079082826114a5565b5061079b6001600055565b5050565b6107a761144b565b6001600160a01b038616316107de337f0000000000000000000000000000000000000000000000000000000000000000888661182b565b6040516331f0926560e01b81526000906001600160a01b037f000000000000000000000000000000000000000000000000000000000000000016906331f09265906108339030908b908b908b9060040161264d565b602060405180830381600087803b15801561084d57600080fd5b505af1158015610861573d6000803e3d6000fd5b505050506040513d601f19601f8201168201806040525081019061088591906125c4565b90506000600460009054906101000a90046001600160a01b03166001600160a01b03166316305cd86040518163ffffffff1660e01b815260040160206040518083038186803b1580156108d757600080fd5b505afa1580156108eb573d6000803e3d6000fd5b505050506040513d601f19601f8201168201806040525081019061090f91906125a7565b6040516370a0823160e01b81523060048201529091506000906001600160a01b038316906370a082319060240160206040518083038186803b15801561095457600080fd5b505afa158015610968573d6000803e3d6000fd5b505050506040513d601f19601f8201168201806040525081019061098c91906125c4565b90508015610a185760405163a9059cbb60e01b81526001600160a01b038b811660048301526024820183905283169063a9059cbb90604401602060405180830381600087803b1580156109de57600080fd5b505af11580156109f2573d6000803e3d6000fd5b505050506040513d601f19601f82011682018060405250810190610a16919061256c565b505b6040805160c081019091526006548152600090602081018281526020017f00000000000000000000000000000000000000000000000000000000000000006001600160a01b0316815260200160006001600160a01b0316815260200185815260200160405180602001604052806000815250815250905060006040518060800160405280306001600160a01b031681526020016000151581526020018d6001600160a01b031681526020016000151581525090507f00000000000000000000000000000000000000000000000000000000000000006001600160a01b03166352bbbe2983838a600001358b602001356040518563ffffffff1660e01b8152600401610b2694939291906126c5565b602060405180830381600087803b158015610b4057600080fd5b505af1158015610b54573d6000803e3d6000fd5b505050506040513d601f19601f82011682018060405250810190610b7891906125c4565b508635610b8f876001600160a01b038f16316127e4565b1015610bdd5760405162461bcd60e51b815260206004820152601a60248201527f496e73756666696369656e74204554482066726f6d207377617000000000000060448201526064016106d9565b505050505050610bed6001600055565b505050505050565b610bfd61144b565b610c3f8484848080601f016020809104026020016040519081016040528093929190818152602001838380828437600092019190915250869250611db2915050565b5061061c6001600055565b610c5261144b565b610c6a33610c63602084018461229e565b858561182b565b600019610c7a602083018361229e565b604051636eb1769f60e11b81523060048201526001600160a01b037f000000000000000000000000000000000000000000000000000000000000000081166024830152919091169063dd62ed3e9060440160206040518083038186803b158015610ce357600080fd5b505afa158015610cf7573d6000803e3d6000fd5b505050506040513d601f19601f82011682018060405250810190610d1b91906125c4565b14610dd457610d2d602082018261229e565b60405163095ea7b360e01b81526001600160a01b037f0000000000000000000000000000000000000000000000000000000000000000811660048301526000196024830152919091169063095ea7b390604401602060405180830381600087803b158015610d9a57600080fd5b505af1158015610dae573d6000803e3d6000fd5b505050506040513d601f19601f82011682018060405250810190610dd2919061256c565b505b6000610e0f30610de7602085018561229e565b7f00000000000000000000000000000000000000000000000000000000000000008786611b2b565b90506000610e1d8683611972565b60405163a9059cbb60e01b81526001600160a01b038881166004830152602482018390529192507f00000000000000000000000000000000000000000000000000000000000000009091169063a9059cbb90604401602060405180830381600087803b158015610e8c57600080fd5b505af1158015610ea0573d6000803e3d6000fd5b505050506040513d601f19601f8201168201806040525081019061060f919061256c565b610ecc611ca2565b610ed581612137565b50565b610ee061144b565b6000610f248787878080601f016020809104026020016040519081016040528093929190818152602001838380828437600092019190915250899250611db2915050565b9050610f52877f0000000000000000000000000000000000000000000000000000000000000000838661182b565b6000610f5e8883611972565b9050610f92887f0000000000000000000000000000000000000000000000000000000000000000610608602087018761229e565b505050610bed6001600055565b610fa7611ca2565b6001600160a01b03821615610fcf57604051630da30f6560e31b815260040160405180910390fd5b61079b8282612185565b610fe1611ca2565b60068190556040518181527f28dce8fdb4a28128f89aa86506f5b99583d83e85f9b864bc39af82e26e3133849060200161065b565b61101e61144b565b6001600160a01b03841631611055337f0000000000000000000000000000000000000000000000000000000000000000868661182b565b60405163f3fef3a360e01b8152306004820152602481018590526000907f00000000000000000000000000000000000000000000000000000000000000006001600160a01b03169063f3fef3a390604401602060405180830381600087803b1580156110c057600080fd5b505af11580156110d4573d6000803e3d6000fd5b505050506040513d601f19601f820116820180604052508101906110f891906125c4565b90506000600460009054906101000a90046001600160a01b03166001600160a01b03166316305cd86040518163ffffffff1660e01b815260040160206040518083038186803b15801561114a57600080fd5b505afa15801561115e573d6000803e3d6000fd5b505050506040513d601f19601f8201168201806040525081019061118291906125a7565b6040516370a0823160e01b81523060048201529091506000906001600160a01b038316906370a082319060240160206040518083038186803b1580156111c757600080fd5b505afa1580156111db573d6000803e3d6000fd5b505050506040513d601f19601f820116820180604052508101906111ff91906125c4565b9050801561128b5760405163a9059cbb60e01b81526001600160a01b0389811660048301526024820183905283169063a9059cbb90604401602060405180830381600087803b15801561125157600080fd5b505af1158015611265573d6000803e3d6000fd5b505050506040513d601f19601f82011682018060405250810190611289919061256c565b505b6040805160c0810182526006548152600060208083018290526001600160a01b037f0000000000000000000000000000000000000000000000000000000000000000811684860152606080850184905260808086018a90528651808501885285815260a0870152865190810187523081528084018590528e8316818801529081019390935293516352bbbe2960e01b8152929391927f0000000000000000000000000000000000000000000000000000000000000000909216916352bbbe299161136291869186918d35918e0135906004016126c5565b602060405180830381600087803b15801561137c57600080fd5b505af1158015611390573d6000803e3d6000fd5b505050506040513d601f19601f820116820180604052508101906113b491906125c4565b5086356113cb876001600160a01b038d16316127e4565b10156114195760405162461bcd60e51b815260206004820152601a60248201527f496e73756666696369656e74204554482066726f6d207377617000000000000060448201526064016106d9565b50505050505061061c6001600055565b611431611ca2565b610ed5816121dd565b611442611ca2565b610ed581611d0e565b6002600054141561149e5760405162461bcd60e51b815260206004820152601f60248201527f5265656e7472616e637947756172643a207265656e7472616e742063616c6c0060448201526064016106d9565b6002600055565b6040516370a0823160e01b815230600482015260009081906001600160a01b037f000000000000000000000000000000000000000000000000000000000000000016906370a082319060240160206040518083038186803b15801561150957600080fd5b505afa15801561151d573d6000803e3d6000fd5b505050506040513d601f19601f8201168201806040525081019061154191906125c4565b905060006040518060c0016040528060065481526020016000600181111561156b5761156b612811565b8152600060208083018290526001600160a01b037f0000000000000000000000000000000000000000000000000000000000000000811660408086019190915234606080870182905282518086018452868152608097880152825196870183523080885287860187905287840152860185905290516352bbbe2960e01b8152959650939492937f0000000000000000000000000000000000000000000000000000000000000000909116926352bbbe299261163391889188918d35918e0135906004016126c5565b6020604051808303818588803b15801561164c57600080fd5b505af1158015611660573d6000803e3d6000fd5b50505050506040513d601f19601f8201168201806040525081019061168591906125c4565b6040516370a0823160e01b815230600482015290915086359085907f00000000000000000000000000000000000000000000000000000000000000006001600160a01b0316906370a082319060240160206040518083038186803b1580156116ec57600080fd5b505afa158015611700573d6000803e3d6000fd5b505050506040513d601f19601f8201168201806040525081019061172491906125c4565b61172e91906127e4565b101561177c5760405162461bcd60e51b815260206004820152601d60248201527f496e73756666696369656e74207773744554482066726f6d207377617000000060448201526064016106d9565b6040516311f9fbc960e21b81526001600160a01b038881166004830152602482018390527f000000000000000000000000000000000000000000000000000000000000000016906347e7ef2490604401602060405180830381600087803b1580156117e657600080fd5b505af11580156117fa573d6000803e3d6000fd5b505050506040513d601f19601f8201168201806040525081019061181e91906125c4565b9450505050505b92915050565b8035156118e3576001600160a01b03831663d505accf8530600019853561185860408801602089016125dd565b604080516001600160e01b031960e089901b1681526001600160a01b0396871660048201529590941660248601526044850192909252606484015260ff16608483015284013560a4820152606084013560c482015260e401600060405180830381600087803b1580156118ca57600080fd5b505af11580156118de573d6000803e3d6000fd5b505050505b6040516323b872dd60e01b81526001600160a01b038581166004830152306024830152604482018490528416906323b872dd90606401602060405180830381600087803b15801561193357600080fd5b505af1158015611947573d6000803e3d6000fd5b505050506040513d601f19601f8201168201806040525081019061196b919061256c565b5050505050565b600080620f42406007548461198791906127c5565b61199191906127a3565b905061199d81846127e4565b9150806119aa5750611825565b60055460405163a9059cbb60e01b81526001600160a01b039182166004820152602481018390527f00000000000000000000000000000000000000000000000000000000000000009091169063a9059cbb90604401602060405180830381600087803b158015611a1957600080fd5b505af1158015611a2d573d6000803e3d6000fd5b505050506040513d601f19601f82011682018060405250810190611a51919061256c565b506004546001600160a01b0316611a685750611825565b600080805260036020527f3617319a054d772f909f7c479a2cebe5066e836a939412e32403c99029b92eff54620f424090611aa390846127c5565b611aad91906127a3565b905080611abb575050611825565b60048054604051633419e74d60e21b81526001600160a01b03888116938201939093526024810184905291169063d0679d3490604401600060405180830381600087803b158015611b0b57600080fd5b505af1158015611b1f573d6000803e3d6000fd5b50505050505092915050565b600080604051806101000160405280876001600160a01b03168152602001866001600160a01b03168152602001606462ffffff168152602001886001600160a01b031681526020018460200135815260200185815260200184604001358152602001846060016020810190611ba0919061229e565b6001600160a01b039081169091526040805163414bf38960e01b81528351831660048201526020840151831660248201529083015162ffffff1660448201526060830151821660648201526080830151608482015260a083015160a482015260c083015160c482015260e0830151821660e48201529192507f0000000000000000000000000000000000000000000000000000000000000000169063414bf3899061010401602060405180830381600087803b158015611c5f57600080fd5b505af1158015611c73573d6000803e3d6000fd5b505050506040513d601f19601f82011682018060405250810190611c9791906125c4565b979650505050505050565b6001546001600160a01b031633146106805760405162461bcd60e51b815260206004820181905260248201527f4f776e61626c653a2063616c6c6572206973206e6f7420746865206f776e657260448201526064016106d9565b611d04611ca2565b6106806000611d60565b600280546001600160a01b038381166001600160a01b0319831681179093556040519116919082907fe7624d724357e317f51579affee5050a97c60b060e513e69aa8a1a35fb3315a790600090a35050565b600180546001600160a01b038381166001600160a01b0319831681179093556040519116919082907f8be0079c531659141344cd1fd0a4f28419497f9722a3daafe3b4186f6b6457e090600090a35050565b6040516370a0823160e01b815230600482015260009081906001600160a01b037f000000000000000000000000000000000000000000000000000000000000000016906370a082319060240160206040518083038186803b158015611e1657600080fd5b505afa158015611e2a573d6000803e3d6000fd5b505050506040513d601f19601f82011682018060405250810190611e4e91906125c4565b905060006040518060c00160405280600654815260200160006001811115611e7857611e78612811565b8152600060208083018290526001600160a01b037f0000000000000000000000000000000000000000000000000000000000000000811660408086019190915234606080870182905282518086018452868152608097880152825196870183523080885287860187905287840152860185905290516352bbbe2960e01b8152959650939492937f0000000000000000000000000000000000000000000000000000000000000000909116926352bbbe2992611f4091889188918d35918e0135906004016126c5565b6020604051808303818588803b158015611f5957600080fd5b505af1158015611f6d573d6000803e3d6000fd5b50505050506040513d601f19601f82011682018060405250810190611f9291906125c4565b6040516370a0823160e01b815230600482015290915086359085907f00000000000000000000000000000000000000000000000000000000000000006001600160a01b0316906370a082319060240160206040518083038186803b158015611ff957600080fd5b505afa15801561200d573d6000803e3d6000fd5b505050506040513d601f19601f8201168201806040525081019061203191906125c4565b61203b91906127e4565b10156120895760405162461bcd60e51b815260206004820152601d60248201527f496e73756666696369656e74207773744554482066726f6d207377617000000060448201526064016106d9565b604051630937b85760e31b81526001600160a01b037f000000000000000000000000000000000000000000000000000000000000000016906349bdc2b8906120d9908b9085908c90600401612695565b602060405180830381600087803b1580156120f357600080fd5b505af1158015612107573d6000803e3d6000fd5b505050506040513d601f19601f8201168201806040525081019061212b91906125c4565b98975050505050505050565b600480546001600160a01b0319166001600160a01b0383169081179091556040519081527fc675cdccdd880d63acbe7af916bd9e4b8e8ffc96d4b0e1764619fa064658e93e9060200161065b565b6001600160a01b038216600081815260036020908152604091829020849055815192835282018390527fd5ed868d32725cecbd7093a294cc2e71fc63dfbe7a241899218d41a6810fbf53910160405180910390a15050565b600580546001600160a01b0319166001600160a01b0383169081179091556040519081527f1ac54af2084ba0e4b86b7bc54b978ce7dd4ca046d3dec89d7c8963873820c0bb9060200161065b565b60008083601f84011261223d57600080fd5b50813567ffffffffffffffff81111561225557600080fd5b60208301915083602082850101111561226d57600080fd5b9250929050565b60006040828403121561228657600080fd5b50919050565b60006080828403121561228657600080fd5b6000602082840312156122b057600080fd5b81356122bb81612827565b9392505050565b600080600080608085870312156122d857600080fd5b84356122e381612827565b9350602085013567ffffffffffffffff8111156122ff57600080fd5b61230b8782880161222b565b909450925061231f90508660408701612274565b905092959194509250565b600080600080600080610180878903121561234457600080fd5b863561234f81612827565b9550602087013567ffffffffffffffff81111561236b57600080fd5b61237789828a0161222b565b909650945061238b90508860408901612274565b925061239a886080890161228c565b91506123aa88610100890161228c565b90509295509295509295565b600080606083850312156123c957600080fd5b82356123d481612827565b91506123e38460208501612274565b90509250929050565b600080600080610160858703121561240357600080fd5b843561240e81612827565b935061241d8660208701612274565b925061242c866060870161228c565b915061231f8660e0870161228c565b6000806040838503121561244e57600080fd5b823561245981612827565b946020939093013593505050565b600080600080600080610120878903121561248157600080fd5b863561248c81612827565b955060208701359450604087013567ffffffffffffffff8111156124af57600080fd5b6124bb89828a0161222b565b90955093506124cf9050886060890161228c565b91506123aa8860e08901612274565b60008060008061010085870312156124f557600080fd5b843561250081612827565b935060208501359250612516866040870161228c565b915061231f8660c08701612274565b600080600080610140858703121561253c57600080fd5b843561254781612827565b93506020850135925061255d866040870161228c565b915061231f8660c0870161228c565b60006020828403121561257e57600080fd5b815180151581146122bb57600080fd5b6000602082840312156125a057600080fd5b5035919050565b6000602082840312156125b957600080fd5b81516122bb81612827565b6000602082840312156125d657600080fd5b5051919050565b6000602082840312156125ef57600080fd5b813560ff811681146122bb57600080fd5b6000815180845260005b818110156126265760208185018101518683018201520161260a565b81811115612638576000602083870101525b50601f01601f19169290920160200192915050565b6001600160a01b0385168152602081018490526060604082018190528101829052818360808301376000818301608090810191909152601f909201601f191601019392505050565b60018060a01b03841681528260208201526060604082015260006126bc6060830184612600565b95945050505050565b60e08152845160e082015260006020860151600281106126f557634e487b7160e01b600052602160045260246000fd5b61010083015260408601516001600160a01b0316610120830152606086015161272a6101408401826001600160a01b03169052565b50608086015161016083015260a086015160c06101808401526127516101a0840182612600565b915050612791602083018680516001600160a01b039081168352602080830151151590840152604080830151909116908301526060908101511515910152565b60a082019390935260c0015292915050565b6000826127c057634e487b7160e01b600052601260045260246000fd5b500490565b60008160001904831182151516156127df576127df6127fb565b500290565b6000828210156127f6576127f66127fb565b500390565b634e487b7160e01b600052601160045260246000fd5b634e487b7160e01b600052602160045260246000fd5b6001600160a01b0381168114610ed557600080fdfea2646970667358221220e5fdbc5b6b5629c70337a14158682c5deabfbbc464dd11aa4fd503454de3a68c64736f6c63430008070033",
  "devdoc": {
    "kind": "dev",
    "methods": {
      "acceptOwnership()": {
        "details": "Only callable by the current nominee. Sets nominee back to zero address."
      },
      "getNominee()": {
        "returns": {
          "_0": "The current nominee"
        }
      },
      "owner()": {
        "details": "Returns the address of the current owner."
      },
      "wrapAndDeposit(address,bytes,(uint256,uint256))": {
        "details": "Assumes `_baseToken` is WstETH"
      }
    },
    "version": 1
  },
  "userdoc": {
    "kind": "user",
    "methods": {
      "acceptOwnership()": {
        "notice": "Accepts ownership nomination."
      }
    },
    "version": 1
  },
  "storageLayout": {
    "storage": [
      {
        "astId": 5045,
        "contract": "contracts/DepositTradeHelper.sol:DepositTradeHelper",
        "label": "_status",
        "offset": 0,
        "slot": "0",
        "type": "t_uint256"
      },
      {
        "astId": 4929,
        "contract": "contracts/DepositTradeHelper.sol:DepositTradeHelper",
        "label": "_owner",
        "offset": 0,
        "slot": "1",
        "type": "t_address"
      },
      {
        "astId": 17143,
        "contract": "contracts/DepositTradeHelper.sol:DepositTradeHelper",
        "label": "_nominee",
        "offset": 0,
        "slot": "2",
        "type": "t_address"
      },
      {
        "astId": 17249,
        "contract": "contracts/DepositTradeHelper.sol:DepositTradeHelper",
        "label": "_accountToAmountMultiplier",
        "offset": 0,
        "slot": "3",
        "type": "t_mapping(t_address,t_uint256)"
      },
      {
        "astId": 17252,
        "contract": "contracts/DepositTradeHelper.sol:DepositTradeHelper",
        "label": "_tokenSender",
        "offset": 0,
        "slot": "4",
        "type": "t_contract(ITokenSender)17843"
      },
      {
        "astId": 17327,
        "contract": "contracts/DepositTradeHelper.sol:DepositTradeHelper",
        "label": "_treasury",
        "offset": 0,
        "slot": "5",
        "type": "t_address"
      },
      {
        "astId": 11175,
        "contract": "contracts/DepositTradeHelper.sol:DepositTradeHelper",
        "label": "_wstethPoolId",
        "offset": 0,
        "slot": "6",
        "type": "t_bytes32"
      },
      {
        "astId": 11177,
        "contract": "contracts/DepositTradeHelper.sol:DepositTradeHelper",
        "label": "_tradeFeePercent",
        "offset": 0,
        "slot": "7",
        "type": "t_uint256"
      }
    ],
    "types": {
      "t_address": {
        "encoding": "inplace",
        "label": "address",
        "numberOfBytes": "20"
      },
      "t_bytes32": {
        "encoding": "inplace",
        "label": "bytes32",
        "numberOfBytes": "32"
      },
      "t_contract(ITokenSender)17843": {
        "encoding": "inplace",
        "label": "contract ITokenSender",
        "numberOfBytes": "20"
      },
      "t_mapping(t_address,t_uint256)": {
        "encoding": "mapping",
        "key": "t_address",
        "label": "mapping(address => uint256)",
        "numberOfBytes": "32",
        "value": "t_uint256"
      },
      "t_uint256": {
        "encoding": "inplace",
        "label": "uint256",
        "numberOfBytes": "32"
      }
    }
  }
}