{
  "address": "0xD393D855F0A11F7fA6C0673D1667ddA6df97D35b",
  "abi": [
    {
      "inputs": [],
      "name": "InvalidAccount",
      "type": "error"
    },
    {
      "anonymous": false,
      "inputs": [
        {
          "indexed": false,
          "internalType": "contract IAccountList",
          "name": "accountList",
          "type": "address"
        }
      ],
      "name": "AccountListChange",
      "type": "event"
    },
    {
      "anonymous": false,
      "inputs": [
        {
          "indexed": false,
          "internalType": "address",
          "name": "account",
          "type": "address"
        },
        {
          "indexed": false,
          "internalType": "uint256",
          "name": "multiplier",
          "type": "uint256"
        }
      ],
      "name": "AmountMultiplierChange",
      "type": "event"
    },
    {
      "anonymous": false,
      "inputs": [
        {
          "indexed": true,
          "internalType": "address",
          "name": "previousNominee",
          "type": "address"
        },
        {
          "indexed": true,
          "internalType": "address",
          "name": "newNominee",
          "type": "address"
        }
      ],
      "name": "NomineeUpdate",
      "type": "event"
    },
    {
      "anonymous": false,
      "inputs": [
        {
          "indexed": true,
          "internalType": "address",
          "name": "previousOwner",
          "type": "address"
        },
        {
          "indexed": true,
          "internalType": "address",
          "name": "newOwner",
          "type": "address"
        }
      ],
      "name": "OwnershipTransferred",
      "type": "event"
    },
    {
      "anonymous": false,
      "inputs": [
        {
          "indexed": false,
          "internalType": "address",
          "name": "sender",
          "type": "address"
        }
      ],
      "name": "TokenSenderChange",
      "type": "event"
    },
    {
      "anonymous": false,
      "inputs": [
        {
          "indexed": false,
          "internalType": "address",
          "name": "treasury",
          "type": "address"
        }
      ],
      "name": "TreasuryChange",
      "type": "event"
    },
    {
      "inputs": [],
      "name": "PERCENT_UNIT",
      "outputs": [
        {
          "internalType": "uint256",
          "name": "",
          "type": "uint256"
        }
      ],
      "stateMutability": "view",
      "type": "function"
    },
    {
      "inputs": [],
      "name": "acceptOwnership",
      "outputs": [],
      "stateMutability": "nonpayable",
      "type": "function"
    },
    {
      "inputs": [],
      "name": "getAccountList",
      "outputs": [
        {
          "internalType": "contract IAccountList",
          "name": "",
          "type": "address"
        }
      ],
      "stateMutability": "view",
      "type": "function"
    },
    {
      "inputs": [
        {
          "internalType": "address",
          "name": "account",
          "type": "address"
        }
      ],
      "name": "getAmountMultiplier",
      "outputs": [
        {
          "internalType": "uint256",
          "name": "",
          "type": "uint256"
        }
      ],
      "stateMutability": "view",
      "type": "function"
    },
    {
      "inputs": [],
      "name": "getNominee",
      "outputs": [
        {
          "internalType": "address",
          "name": "",
          "type": "address"
        }
      ],
      "stateMutability": "view",
      "type": "function"
    },
    {
      "inputs": [],
      "name": "getTokenSender",
      "outputs": [
        {
          "internalType": "contract ITokenSender",
          "name": "",
          "type": "address"
        }
      ],
      "stateMutability": "view",
      "type": "function"
    },
    {
      "inputs": [],
      "name": "getTreasury",
      "outputs": [
        {
          "internalType": "address",
          "name": "",
          "type": "address"
        }
      ],
      "stateMutability": "view",
      "type": "function"
    },
    {
      "inputs": [
        {
          "internalType": "address",
          "name": "funder",
          "type": "address"
        },
        {
          "internalType": "address",
          "name": "recipient",
          "type": "address"
        },
        {
          "internalType": "uint256",
          "name": "amountBeforeFee",
          "type": "uint256"
        },
        {
          "internalType": "uint256",
          "name": "amountAfterFee",
          "type": "uint256"
        },
        {
          "internalType": "bytes",
          "name": "",
          "type": "bytes"
        }
      ],
      "name": "hook",
      "outputs": [],
      "stateMutability": "nonpayable",
      "type": "function"
    },
    {
      "inputs": [
        {
          "internalType": "address",
          "name": "funder",
          "type": "address"
        },
        {
          "internalType": "address",
          "name": "recipient",
          "type": "address"
        },
        {
          "internalType": "uint256",
          "name": "amountBeforeFee",
          "type": "uint256"
        },
        {
          "internalType": "uint256",
          "name": "amountAfterFee",
          "type": "uint256"
        }
      ],
      "name": "hook",
      "outputs": [],
      "stateMutability": "nonpayable",
      "type": "function"
    },
    {
      "inputs": [],
      "name": "owner",
      "outputs": [
        {
          "internalType": "address",
          "name": "",
          "type": "address"
        }
      ],
      "stateMutability": "view",
      "type": "function"
    },
    {
      "inputs": [],
      "name": "renounceOwnership",
      "outputs": [],
      "stateMutability": "nonpayable",
      "type": "function"
    },
    {
      "inputs": [
        {
          "internalType": "contract IAccountList",
          "name": "accountList",
          "type": "address"
        }
      ],
      "name": "setAccountList",
      "outputs": [],
      "stateMutability": "nonpayable",
      "type": "function"
    },
    {
      "inputs": [
        {
          "internalType": "address",
          "name": "account",
          "type": "address"
        },
        {
          "internalType": "uint256",
          "name": "amountMultiplier",
          "type": "uint256"
        }
      ],
      "name": "setAmountMultiplier",
      "outputs": [],
      "stateMutability": "nonpayable",
      "type": "function"
    },
    {
      "inputs": [
        {
          "internalType": "contract ITokenSender",
          "name": "tokenSender",
          "type": "address"
        }
      ],
      "name": "setTokenSender",
      "outputs": [],
      "stateMutability": "nonpayable",
      "type": "function"
    },
    {
      "inputs": [
        {
          "internalType": "address",
          "name": "_treasury",
          "type": "address"
        }
      ],
      "name": "setTreasury",
      "outputs": [],
      "stateMutability": "nonpayable",
      "type": "function"
    },
    {
      "inputs": [
        {
          "internalType": "address",
          "name": "nominee",
          "type": "address"
        }
      ],
      "name": "transferOwnership",
      "outputs": [],
      "stateMutability": "nonpayable",
      "type": "function"
    }
  ],
  "transactionHash": "0xbc824128d59ad1b006c2138fd23999d373d6c5f3ffca67a49fbb5b22502b9ce3",
  "args": [],
  "numDeployments": 1,
  "solcInputHash": "dde47185ae02100f3d165e5732653ea8",
  "bytecode": "0x608060405234801561001057600080fd5b506001805561001e33610023565b610075565b600280546001600160a01b038381166001600160a01b0319831681179093556040519116919082907f8be0079c531659141344cd1fd0a4f28419497f9722a3daafe3b4186f6b6457e090600090a35050565b610d24806100846000396000f3fe608060405234801561001057600080fd5b50600436106101005760003560e01c80638da5cb5b11610097578063d8dc029011610066578063d8dc029014610201578063e6dab1a814610214578063f0f4426014610225578063f2fde38b1461023857600080fd5b80638da5cb5b146101b9578063b6ca0b63146101ca578063bfdbb7be146101db578063d338107e146101ee57600080fd5b80636813ced4116100d35780636813ced4146101815780636d14bd1f14610196578063715018a6146101a957806379ba5097146101b157600080fd5b80632843314e1461010557806333a417971461012f5780633b19e84a1461016657806340163a6314610177575b600080fd5b6000546001600160a01b03165b6040516001600160a01b0390911681526020015b60405180910390f35b61015861013d366004610aec565b6001600160a01b031660009081526004602052604090205490565b604051908152602001610126565b6006546001600160a01b0316610112565b610158620f424081565b61019461018f366004610b56565b61024b565b005b6101946101a4366004610b10565b6104cc565b61019461074b565b610194610767565b6002546001600160a01b0316610112565b6003546001600160a01b0316610112565b6101946101e9366004610aec565b6107dc565b6101946101fc366004610aec565b6107f0565b61019461020f366004610c00565b610801565b6005546001600160a01b0316610112565b610194610233366004610aec565b610817565b610194610246366004610aec565b610828565b610253610839565b6000546001600160a01b0316158015906102e557506000546040516304d93ff560e31b81526001600160a01b038881166004830152909116906326c9ffa89060240160206040518083038186803b1580156102ad57600080fd5b505afa1580156102c1573d6000803e3d6000fd5b505050506040513d601f19601f820116820180604052508101906102e59190610c2c565b156102ef576104bb565b60006102fb8486610cac565b90508061030857506104bb565b336001600160a01b0316635c1548fb6040518163ffffffff1660e01b815260040160206040518083038186803b15801561034157600080fd5b505afa158015610355573d6000803e3d6000fd5b505050506040513d601f19601f820116820180604052508101906103799190610c4e565b6006546040516323b872dd60e01b81523360048201526001600160a01b039182166024820152604481018490529116906323b872dd90606401602060405180830381600087803b1580156103cc57600080fd5b505af11580156103e0573d6000803e3d6000fd5b505050506040513d601f19601f820116820180604052508101906104049190610c2c565b506005546001600160a01b031661041b57506104bb565b33600090815260046020526040812054620f42409061043a9084610c8d565b6104449190610c6b565b9050806104525750506104bb565b600554604051633419e74d60e21b81526001600160a01b038981166004830152602482018490529091169063d0679d3490604401600060405180830381600087803b1580156104a057600080fd5b505af11580156104b4573d6000803e3d6000fd5b5050505050505b6104c460018055565b505050505050565b6104d4610839565b6000546001600160a01b03161580159061056657506000546040516304d93ff560e31b81526001600160a01b038681166004830152909116906326c9ffa89060240160206040518083038186803b15801561052e57600080fd5b505afa158015610542573d6000803e3d6000fd5b505050506040513d601f19601f820116820180604052508101906105669190610c2c565b156105705761073c565b600061057c8284610cac565b905080610589575061073c565b336001600160a01b0316635c1548fb6040518163ffffffff1660e01b815260040160206040518083038186803b1580156105c257600080fd5b505afa1580156105d6573d6000803e3d6000fd5b505050506040513d601f19601f820116820180604052508101906105fa9190610c4e565b6006546040516323b872dd60e01b81523360048201526001600160a01b039182166024820152604481018490529116906323b872dd90606401602060405180830381600087803b15801561064d57600080fd5b505af1158015610661573d6000803e3d6000fd5b505050506040513d601f19601f820116820180604052508101906106859190610c2c565b506005546001600160a01b031661069c575061073c565b33600090815260046020526040812054620f4240906106bb9084610c8d565b6106c59190610c6b565b9050806106d357505061073c565b600554604051633419e74d60e21b81526001600160a01b038781166004830152602482018490529091169063d0679d3490604401600060405180830381600087803b15801561072157600080fd5b505af1158015610735573d6000803e3d6000fd5b5050505050505b61074560018055565b50505050565b610753610893565b61075b6108ed565b61076560006108ff565b565b6003546001600160a01b0316336001600160a01b0316146107c75760405162461bcd60e51b81526020600482015260156024820152746d73672e73656e64657220213d206e6f6d696e656560581b60448201526064015b60405180910390fd5b60035461075b906001600160a01b0316610951565b6107e4610893565b6107ed816109a3565b50565b6107f8610893565b6107ed816109f8565b610809610893565b6108138282610a46565b5050565b61081f610893565b6107ed81610a9e565b610830610893565b6107ed816108ff565b6002600154141561088c5760405162461bcd60e51b815260206004820152601f60248201527f5265656e7472616e637947756172643a207265656e7472616e742063616c6c0060448201526064016107be565b6002600155565b6002546001600160a01b031633146107655760405162461bcd60e51b815260206004820181905260248201527f4f776e61626c653a2063616c6c6572206973206e6f7420746865206f776e657260448201526064016107be565b6108f5610893565b6107656000610951565b600380546001600160a01b038381166001600160a01b0319831681179093556040519116919082907fe7624d724357e317f51579affee5050a97c60b060e513e69aa8a1a35fb3315a790600090a35050565b600280546001600160a01b038381166001600160a01b0319831681179093556040519116919082907f8be0079c531659141344cd1fd0a4f28419497f9722a3daafe3b4186f6b6457e090600090a35050565b600580546001600160a01b0319166001600160a01b0383169081179091556040519081527fc675cdccdd880d63acbe7af916bd9e4b8e8ffc96d4b0e1764619fa064658e93e906020015b60405180910390a150565b600080546001600160a01b0319166001600160a01b0383169081179091556040519081527f310aaf5db2aa9335d0aebcc973d03748ed641890df20d89139a312856b5a675c906020016109ed565b6001600160a01b038216600081815260046020908152604091829020849055815192835282018390527fd5ed868d32725cecbd7093a294cc2e71fc63dfbe7a241899218d41a6810fbf53910160405180910390a15050565b600680546001600160a01b0319166001600160a01b0383169081179091556040519081527f1ac54af2084ba0e4b86b7bc54b978ce7dd4ca046d3dec89d7c8963873820c0bb906020016109ed565b600060208284031215610afe57600080fd5b8135610b0981610cd9565b9392505050565b60008060008060808587031215610b2657600080fd5b8435610b3181610cd9565b93506020850135610b4181610cd9565b93969395505050506040820135916060013590565b60008060008060008060a08789031215610b6f57600080fd5b8635610b7a81610cd9565b95506020870135610b8a81610cd9565b94506040870135935060608701359250608087013567ffffffffffffffff80821115610bb557600080fd5b818901915089601f830112610bc957600080fd5b813581811115610bd857600080fd5b8a6020828501011115610bea57600080fd5b6020830194508093505050509295509295509295565b60008060408385031215610c1357600080fd5b8235610c1e81610cd9565b946020939093013593505050565b600060208284031215610c3e57600080fd5b81518015158114610b0957600080fd5b600060208284031215610c6057600080fd5b8151610b0981610cd9565b600082610c8857634e487b7160e01b600052601260045260246000fd5b500490565b6000816000190483118215151615610ca757610ca7610cc3565b500290565b600082821015610cbe57610cbe610cc3565b500390565b634e487b7160e01b600052601160045260246000fd5b6001600160a01b03811681146107ed57600080fdfea2646970667358221220fa42690631aff9a30d365f034dcfa17dcc195ed3e2c4aaf62d8754151c77cd1e64736f6c63430008070033",
  "devdoc": {
    "kind": "dev",
    "methods": {
      "acceptOwnership()": {
        "details": "Only callable by the current nominee. Sets nominee back to zero address."
      },
      "getNominee()": {
        "returns": {
          "_0": "The current nominee"
        }
      },
      "owner()": {
        "details": "Returns the address of the current owner."
      }
    },
    "version": 1
  },
  "userdoc": {
    "kind": "user",
    "methods": {
      "acceptOwnership()": {
        "notice": "Accepts ownership nomination."
      }
    },
    "version": 1
  },
  "storageLayout": {
    "storage": [
      {
        "astId": 20402,
        "contract": "contracts/MarketHook.sol:MarketHook",
        "label": "_accountList",
        "offset": 0,
        "slot": "0",
        "type": "t_contract(IAccountList)21542"
      },
      {
        "astId": 5045,
        "contract": "contracts/MarketHook.sol:MarketHook",
        "label": "_status",
        "offset": 0,
        "slot": "1",
        "type": "t_uint256"
      },
      {
        "astId": 4929,
        "contract": "contracts/MarketHook.sol:MarketHook",
        "label": "_owner",
        "offset": 0,
        "slot": "2",
        "type": "t_address"
      },
      {
        "astId": 21103,
        "contract": "contracts/MarketHook.sol:MarketHook",
        "label": "_nominee",
        "offset": 0,
        "slot": "3",
        "type": "t_address"
      },
      {
        "astId": 21209,
        "contract": "contracts/MarketHook.sol:MarketHook",
        "label": "_accountToAmountMultiplier",
        "offset": 0,
        "slot": "4",
        "type": "t_mapping(t_address,t_uint256)"
      },
      {
        "astId": 21212,
        "contract": "contracts/MarketHook.sol:MarketHook",
        "label": "_tokenSender",
        "offset": 0,
        "slot": "5",
        "type": "t_contract(ITokenSender)21930"
      },
      {
        "astId": 21287,
        "contract": "contracts/MarketHook.sol:MarketHook",
        "label": "_treasury",
        "offset": 0,
        "slot": "6",
        "type": "t_address"
      }
    ],
    "types": {
      "t_address": {
        "encoding": "inplace",
        "label": "address",
        "numberOfBytes": "20"
      },
      "t_contract(IAccountList)21542": {
        "encoding": "inplace",
        "label": "contract IAccountList",
        "numberOfBytes": "20"
      },
      "t_contract(ITokenSender)21930": {
        "encoding": "inplace",
        "label": "contract ITokenSender",
        "numberOfBytes": "20"
      },
      "t_mapping(t_address,t_uint256)": {
        "encoding": "mapping",
        "key": "t_address",
        "label": "mapping(address => uint256)",
        "numberOfBytes": "32",
        "value": "t_uint256"
      },
      "t_uint256": {
        "encoding": "inplace",
        "label": "uint256",
        "numberOfBytes": "32"
      }
    }
  }
}