{
  "address": "0xA7E59A4212E59d4645674C1d486948D60717668b",
  "abi": [
    {
      "inputs": [
        {
          "internalType": "contract IERC20",
          "name": "outputToken",
          "type": "address"
        },
        {
          "internalType": "uint256",
          "name": "outputTokenDecimals",
          "type": "uint256"
        }
      ],
      "stateMutability": "nonpayable",
      "type": "constructor"
    },
    {
      "inputs": [
        {
          "internalType": "address",
          "name": "account",
          "type": "address"
        },
        {
          "internalType": "uint256",
          "name": "amount",
          "type": "uint256"
        }
      ],
      "name": "AccountLimitExceeded",
      "type": "error"
    },
    {
      "inputs": [],
      "name": "ArrayLengthMismatch",
      "type": "error"
    },
    {
      "inputs": [],
      "name": "MsgSenderNotAllowed",
      "type": "error"
    },
    {
      "anonymous": false,
      "inputs": [
        {
          "indexed": false,
          "internalType": "uint256",
          "name": "limit",
          "type": "uint256"
        }
      ],
      "name": "AccountLimitPerPeriodChange",
      "type": "event"
    },
    {
      "anonymous": false,
      "inputs": [
        {
          "indexed": false,
          "internalType": "uint256",
          "name": "period",
          "type": "uint256"
        }
      ],
      "name": "AccountLimitResetPeriodChange",
      "type": "event"
    },
    {
      "anonymous": false,
      "inputs": [
        {
          "indexed": false,
          "internalType": "contract IAccountList",
          "name": "allowedMsgSenders",
          "type": "address"
        }
      ],
      "name": "AllowedMsgSendersChange",
      "type": "event"
    },
    {
      "anonymous": false,
      "inputs": [
        {
          "indexed": false,
          "internalType": "uint256",
          "name": "price",
          "type": "uint256"
        }
      ],
      "name": "PriceLowerBoundChange",
      "type": "event"
    },
    {
      "anonymous": false,
      "inputs": [
        {
          "indexed": false,
          "internalType": "contract IUintValue",
          "name": "oracle",
          "type": "address"
        }
      ],
      "name": "PriceOracleChange",
      "type": "event"
    },
    {
      "anonymous": false,
      "inputs": [
        {
          "indexed": true,
          "internalType": "bytes32",
          "name": "role",
          "type": "bytes32"
        },
        {
          "indexed": true,
          "internalType": "bytes32",
          "name": "previousAdminRole",
          "type": "bytes32"
        },
        {
          "indexed": true,
          "internalType": "bytes32",
          "name": "newAdminRole",
          "type": "bytes32"
        }
      ],
      "name": "RoleAdminChanged",
      "type": "event"
    },
    {
      "anonymous": false,
      "inputs": [
        {
          "indexed": false,
          "internalType": "bytes32",
          "name": "role",
          "type": "bytes32"
        },
        {
          "indexed": false,
          "internalType": "bytes32",
          "name": "newRoleAdminNominee",
          "type": "bytes32"
        }
      ],
      "name": "RoleAdminNomineeUpdate",
      "type": "event"
    },
    {
      "anonymous": false,
      "inputs": [
        {
          "indexed": true,
          "internalType": "bytes32",
          "name": "role",
          "type": "bytes32"
        },
        {
          "indexed": true,
          "internalType": "address",
          "name": "account",
          "type": "address"
        },
        {
          "indexed": true,
          "internalType": "address",
          "name": "sender",
          "type": "address"
        }
      ],
      "name": "RoleGranted",
      "type": "event"
    },
    {
      "anonymous": false,
      "inputs": [
        {
          "indexed": false,
          "internalType": "bytes32",
          "name": "role",
          "type": "bytes32"
        },
        {
          "indexed": false,
          "internalType": "address",
          "name": "account",
          "type": "address"
        },
        {
          "indexed": false,
          "internalType": "bool",
          "name": "nominated",
          "type": "bool"
        }
      ],
      "name": "RoleNomineeUpdate",
      "type": "event"
    },
    {
      "anonymous": false,
      "inputs": [
        {
          "indexed": true,
          "internalType": "bytes32",
          "name": "role",
          "type": "bytes32"
        },
        {
          "indexed": true,
          "internalType": "address",
          "name": "account",
          "type": "address"
        },
        {
          "indexed": true,
          "internalType": "address",
          "name": "sender",
          "type": "address"
        }
      ],
      "name": "RoleRevoked",
      "type": "event"
    },
    {
      "inputs": [],
      "name": "DEFAULT_ADMIN_ROLE",
      "outputs": [
        {
          "internalType": "bytes32",
          "name": "",
          "type": "bytes32"
        }
      ],
      "stateMutability": "view",
      "type": "function"
    },
    {
      "inputs": [],
      "name": "SET_ACCOUNT_LIMIT_PER_PERIOD_ROLE",
      "outputs": [
        {
          "internalType": "bytes32",
          "name": "",
          "type": "bytes32"
        }
      ],
      "stateMutability": "view",
      "type": "function"
    },
    {
      "inputs": [],
      "name": "SET_ACCOUNT_LIMIT_RESET_PERIOD_ROLE",
      "outputs": [
        {
          "internalType": "bytes32",
          "name": "",
          "type": "bytes32"
        }
      ],
      "stateMutability": "view",
      "type": "function"
    },
    {
      "inputs": [],
      "name": "SET_ALLOWED_MSG_SENDERS_ROLE",
      "outputs": [
        {
          "internalType": "bytes32",
          "name": "",
          "type": "bytes32"
        }
      ],
      "stateMutability": "view",
      "type": "function"
    },
    {
      "inputs": [],
      "name": "SET_PRICE_LOWER_BOUND_ROLE",
      "outputs": [
        {
          "internalType": "bytes32",
          "name": "",
          "type": "bytes32"
        }
      ],
      "stateMutability": "view",
      "type": "function"
    },
    {
      "inputs": [],
      "name": "SET_PRICE_ORACLE_ROLE",
      "outputs": [
        {
          "internalType": "bytes32",
          "name": "",
          "type": "bytes32"
        }
      ],
      "stateMutability": "view",
      "type": "function"
    },
    {
      "inputs": [],
      "name": "WITHDRAW_ERC20_ROLE",
      "outputs": [
        {
          "internalType": "bytes32",
          "name": "",
          "type": "bytes32"
        }
      ],
      "stateMutability": "view",
      "type": "function"
    },
    {
      "inputs": [
        {
          "internalType": "bytes32",
          "name": "role",
          "type": "bytes32"
        }
      ],
      "name": "acceptRole",
      "outputs": [],
      "stateMutability": "nonpayable",
      "type": "function"
    },
    {
      "inputs": [
        {
          "internalType": "bytes32",
          "name": "role",
          "type": "bytes32"
        }
      ],
      "name": "acceptRoleAdmin",
      "outputs": [],
      "stateMutability": "nonpayable",
      "type": "function"
    },
    {
      "inputs": [
        {
          "internalType": "address",
          "name": "account",
          "type": "address"
        },
        {
          "internalType": "uint256",
          "name": "amount",
          "type": "uint256"
        }
      ],
      "name": "exceedsAccountLimit",
      "outputs": [
        {
          "internalType": "bool",
          "name": "",
          "type": "bool"
        }
      ],
      "stateMutability": "view",
      "type": "function"
    },
    {
      "inputs": [],
      "name": "getAccountLimitPerPeriod",
      "outputs": [
        {
          "internalType": "uint256",
          "name": "",
          "type": "uint256"
        }
      ],
      "stateMutability": "view",
      "type": "function"
    },
    {
      "inputs": [],
      "name": "getAccountLimitResetPeriod",
      "outputs": [
        {
          "internalType": "uint256",
          "name": "",
          "type": "uint256"
        }
      ],
      "stateMutability": "view",
      "type": "function"
    },
    {
      "inputs": [],
      "name": "getAllowedMsgSenders",
      "outputs": [
        {
          "internalType": "contract IAccountList",
          "name": "",
          "type": "address"
        }
      ],
      "stateMutability": "view",
      "type": "function"
    },
    {
      "inputs": [
        {
          "internalType": "address",
          "name": "account",
          "type": "address"
        }
      ],
      "name": "getAmountThisPeriod",
      "outputs": [
        {
          "internalType": "uint256",
          "name": "",
          "type": "uint256"
        }
      ],
      "stateMutability": "view",
      "type": "function"
    },
    {
      "inputs": [
        {
          "internalType": "address",
          "name": "account",
          "type": "address"
        }
      ],
      "name": "getLastPeriodReset",
      "outputs": [
        {
          "internalType": "uint256",
          "name": "",
          "type": "uint256"
        }
      ],
      "stateMutability": "view",
      "type": "function"
    },
    {
      "inputs": [],
      "name": "getOutputToken",
      "outputs": [
        {
          "internalType": "contract IERC20",
          "name": "",
          "type": "address"
        }
      ],
      "stateMutability": "view",
      "type": "function"
    },
    {
      "inputs": [],
      "name": "getPriceLowerBound",
      "outputs": [
        {
          "internalType": "uint256",
          "name": "",
          "type": "uint256"
        }
      ],
      "stateMutability": "view",
      "type": "function"
    },
    {
      "inputs": [],
      "name": "getPriceOracle",
      "outputs": [
        {
          "internalType": "contract IUintValue",
          "name": "",
          "type": "address"
        }
      ],
      "stateMutability": "view",
      "type": "function"
    },
    {
      "inputs": [
        {
          "internalType": "bytes32",
          "name": "role",
          "type": "bytes32"
        }
      ],
      "name": "getRoleAdmin",
      "outputs": [
        {
          "internalType": "bytes32",
          "name": "",
          "type": "bytes32"
        }
      ],
      "stateMutability": "view",
      "type": "function"
    },
    {
      "inputs": [
        {
          "internalType": "bytes32",
          "name": "role",
          "type": "bytes32"
        }
      ],
      "name": "getRoleAdminNominee",
      "outputs": [
        {
          "internalType": "bytes32",
          "name": "",
          "type": "bytes32"
        }
      ],
      "stateMutability": "view",
      "type": "function"
    },
    {
      "inputs": [
        {
          "internalType": "bytes32",
          "name": "role",
          "type": "bytes32"
        },
        {
          "internalType": "uint256",
          "name": "index",
          "type": "uint256"
        }
      ],
      "name": "getRoleMember",
      "outputs": [
        {
          "internalType": "address",
          "name": "",
          "type": "address"
        }
      ],
      "stateMutability": "view",
      "type": "function"
    },
    {
      "inputs": [
        {
          "internalType": "bytes32",
          "name": "role",
          "type": "bytes32"
        }
      ],
      "name": "getRoleMemberCount",
      "outputs": [
        {
          "internalType": "uint256",
          "name": "",
          "type": "uint256"
        }
      ],
      "stateMutability": "view",
      "type": "function"
    },
    {
      "inputs": [
        {
          "internalType": "bytes32",
          "name": "role",
          "type": "bytes32"
        },
        {
          "internalType": "address",
          "name": "account",
          "type": "address"
        }
      ],
      "name": "grantRole",
      "outputs": [],
      "stateMutability": "nonpayable",
      "type": "function"
    },
    {
      "inputs": [
        {
          "internalType": "bytes32",
          "name": "role",
          "type": "bytes32"
        },
        {
          "internalType": "address",
          "name": "account",
          "type": "address"
        }
      ],
      "name": "hasRole",
      "outputs": [
        {
          "internalType": "bool",
          "name": "",
          "type": "bool"
        }
      ],
      "stateMutability": "view",
      "type": "function"
    },
    {
      "inputs": [
        {
          "internalType": "bytes32",
          "name": "role",
          "type": "bytes32"
        },
        {
          "internalType": "address",
          "name": "account",
          "type": "address"
        }
      ],
      "name": "isNominated",
      "outputs": [
        {
          "internalType": "bool",
          "name": "",
          "type": "bool"
        }
      ],
      "stateMutability": "view",
      "type": "function"
    },
    {
      "inputs": [
        {
          "internalType": "bytes32",
          "name": "role",
          "type": "bytes32"
        },
        {
          "internalType": "address",
          "name": "account",
          "type": "address"
        }
      ],
      "name": "renounceRole",
      "outputs": [],
      "stateMutability": "nonpayable",
      "type": "function"
    },
    {
      "inputs": [
        {
          "internalType": "bytes32",
          "name": "role",
          "type": "bytes32"
        },
        {
          "internalType": "address",
          "name": "account",
          "type": "address"
        }
      ],
      "name": "revokeNomination",
      "outputs": [],
      "stateMutability": "nonpayable",
      "type": "function"
    },
    {
      "inputs": [
        {
          "internalType": "bytes32",
          "name": "role",
          "type": "bytes32"
        },
        {
          "internalType": "address",
          "name": "account",
          "type": "address"
        }
      ],
      "name": "revokeRole",
      "outputs": [],
      "stateMutability": "nonpayable",
      "type": "function"
    },
    {
      "inputs": [
        {
          "internalType": "address",
          "name": "recipient",
          "type": "address"
        },
        {
          "internalType": "uint256",
          "name": "inputAmount",
          "type": "uint256"
        }
      ],
      "name": "send",
      "outputs": [],
      "stateMutability": "nonpayable",
      "type": "function"
    },
    {
      "inputs": [
        {
          "internalType": "uint256",
          "name": "accountLimitPerPeriod",
          "type": "uint256"
        }
      ],
      "name": "setAccountLimitPerPeriod",
      "outputs": [],
      "stateMutability": "nonpayable",
      "type": "function"
    },
    {
      "inputs": [
        {
          "internalType": "uint256",
          "name": "accountLimitResetPeriod",
          "type": "uint256"
        }
      ],
      "name": "setAccountLimitResetPeriod",
      "outputs": [],
      "stateMutability": "nonpayable",
      "type": "function"
    },
    {
      "inputs": [
        {
          "internalType": "contract IAccountList",
          "name": "allowedMsgSenders",
          "type": "address"
        }
      ],
      "name": "setAllowedMsgSenders",
      "outputs": [],
      "stateMutability": "nonpayable",
      "type": "function"
    },
    {
      "inputs": [
        {
          "internalType": "uint256",
          "name": "priceLowerBound",
          "type": "uint256"
        }
      ],
      "name": "setPriceLowerBound",
      "outputs": [],
      "stateMutability": "nonpayable",
      "type": "function"
    },
    {
      "inputs": [
        {
          "internalType": "contract IUintValue",
          "name": "priceOracle",
          "type": "address"
        }
      ],
      "name": "setPriceOracle",
      "outputs": [],
      "stateMutability": "nonpayable",
      "type": "function"
    },
    {
      "inputs": [
        {
          "internalType": "bytes32",
          "name": "role",
          "type": "bytes32"
        },
        {
          "internalType": "bytes32",
          "name": "roleAdminNominee",
          "type": "bytes32"
        }
      ],
      "name": "setRoleAdminNominee",
      "outputs": [],
      "stateMutability": "nonpayable",
      "type": "function"
    },
    {
      "inputs": [
        {
          "internalType": "bytes4",
          "name": "interfaceId",
          "type": "bytes4"
        }
      ],
      "name": "supportsInterface",
      "outputs": [
        {
          "internalType": "bool",
          "name": "",
          "type": "bool"
        }
      ],
      "stateMutability": "view",
      "type": "function"
    },
    {
      "inputs": [
        {
          "internalType": "address[]",
          "name": "erc20Tokens",
          "type": "address[]"
        },
        {
          "internalType": "uint256[]",
          "name": "amounts",
          "type": "uint256[]"
        }
      ],
      "name": "withdrawERC20",
      "outputs": [],
      "stateMutability": "nonpayable",
      "type": "function"
    },
    {
      "inputs": [
        {
          "internalType": "address[]",
          "name": "erc20Tokens",
          "type": "address[]"
        }
      ],
      "name": "withdrawERC20",
      "outputs": [],
      "stateMutability": "nonpayable",
      "type": "function"
    }
  ],
  "transactionHash": "0x6aa5fae657c3d140a819a7d5627c6c1b31e53a8fb0632fc5b01284c4a5e4f527",
  "args": [
    "0xB40DBBb7931Cfef8Be73AEEC6c67d3809bD4600B",
    18
  ],
  "numDeployments": 1,
  "solcInputHash": "84b86c455dfe286363523437f420d411",
  "bytecode": "0x60c06040523480156200001157600080fd5b506040516200226d3803806200226d8339810160408190526200003491620002e1565b60016007556200004660003362000178565b6001600160601b0319606083901b166080526200006581600a62000366565b60a052620000947f258bf7ce4dbd93c45f1ae8ff83c6dbf952426468a7a5f94621a173574ea663943362000188565b620000c07f56937d8a02549a7032377b03217f34e3b07fa98e1eb09c1102cdc4d789e2540e3362000188565b620000ec7f866b4848de4af255be133f7c25c7ee2d1d6f688d2da0be4351123daaf2c8f16c3362000188565b620001187f9b24ae46ebdfc60e12da9c693712115154aecb7ac668cde8de733094205729b43362000188565b620001447f7ed8c19206b80ae37c236293475b0ecd37e16ace86505ded50a9627d9b145fad3362000188565b620001707f5ae63e664766ed63ceb860dbffc0f7aa0ccb76f90368617bfca90bc294e6ad0a3362000188565b505062000438565b62000184828262000188565b5050565b6200019f8282620001cb60201b62000dae1760201c565b6000828152600660209081526040909120620001c691839062000e346200026f821b17901c565b505050565b60008281526005602090815260408083206001600160a01b038516845290915290205460ff16620001845760008281526005602090815260408083206001600160a01b03851684529091529020805460ff191660011790556200022b3390565b6001600160a01b0316816001600160a01b0316837f2f8788117e7eff1d82e926ec794901d17c78024a50270940304540a733656f0d60405160405180910390a45050565b600062000286836001600160a01b0384166200028f565b90505b92915050565b6000818152600183016020526040812054620002d85750815460018181018455600084815260208082209093018490558454848252828601909352604090209190915562000289565b50600062000289565b60008060408385031215620002f557600080fd5b82516001600160a01b03811681146200030d57600080fd5b6020939093015192949293505050565b600181815b808511156200035e57816000190482111562000342576200034262000422565b808516156200035057918102915b93841c939080029062000322565b509250929050565b60006200028683836000826200037f5750600162000289565b816200038e5750600062000289565b8160018114620003a75760028114620003b257620003d2565b600191505062000289565b60ff841115620003c657620003c662000422565b50506001821b62000289565b5060208310610133831016604e8410600b8410161715620003f7575081810a62000289565b6200040383836200031d565b80600019048211156200041a576200041a62000422565b029392505050565b634e487b7160e01b600052601160045260246000fd5b60805160601c60a051611dfe6200046f6000396000610ba401526000818161027301528181610bf60152610ccc0152611dfe6000f3fe608060405234801561001057600080fd5b50600436106102325760003560e01c8063881abae811610130578063a217fddf116100b8578063d3220fe41161007c578063d3220fe414610583578063d547741f14610596578063de805f14146105a9578063fc641ea0146105d0578063fca513a8146105f757600080fd5b8063a217fddf1461053a578063ca15c87314610542578063cb35043314610555578063cd0c1d961461055d578063d0679d341461057057600080fd5b806391d14854116100ff57806391d14854146104d0578063920f8859146104e357806394147044146104f65780639c65c1ac1461051f578063a2088cc91461052757600080fd5b8063881abae8146104845780638bb06b0b146104975780639010d07c146104aa57806390e89bb8146104bd57600080fd5b80633e538cb4116101be57806368f27d201161018257806368f27d20146103f05780636acfd673146104015780637312f37714610414578063768ba6eb1461043d57806380db43291461046457600080fd5b80633e538cb41461032f57806348c20a5314610356578063530e784f1461037d5780635c449f7c14610390578063623fa2c4146103c957600080fd5b806319d66b0e1161020557806319d66b0e146102c0578063248a9ca3146102d35780632f2ff15d146102f657806336568abe1461030957806336fc17871461031c57600080fd5b806301ffc9a71461023757806306a4f7b11461025f57806316305cd81461027157806318819022146102ab575b600080fd5b61024a610245366004611ba1565b610608565b60405190151581526020015b60405180910390f35b600b545b604051908152602001610256565b7f00000000000000000000000000000000000000000000000000000000000000005b6040516001600160a01b039091168152602001610256565b6102be6102b9366004611aa8565b610633565b005b61024a6102ce366004611a3a565b610670565b6102636102e1366004611b36565b60009081526005602052604090206001015490565b6102be610304366004611b4f565b6106da565b6102be610317366004611b4f565b610706565b6102be61032a366004611b36565b610789565b6102637f258bf7ce4dbd93c45f1ae8ff83c6dbf952426468a7a5f94621a173574ea6639481565b6102637f56937d8a02549a7032377b03217f34e3b07fa98e1eb09c1102cdc4d789e2540e81565b6102be61038b366004611a1d565b61080b565b61024a61039e366004611b4f565b60009182526009602090815260408084206001600160a01b0393909316845291905290205460ff1690565b6102637f5ae63e664766ed63ceb860dbffc0f7aa0ccb76f90368617bfca90bc294e6ad0a81565b6000546001600160a01b0316610293565b6102be61040f366004611b4f565b61088b565b610263610422366004611a1d565b6001600160a01b031660009081526003602052604090205490565b6102637f866b4848de4af255be133f7c25c7ee2d1d6f688d2da0be4351123daaf2c8f16c81565b610263610472366004611b36565b60009081526008602052604090205490565b6102be610492366004611b36565b6108b2565b6102be6104a5366004611b36565b610911565b6102936104b8366004611b7f565b61094e565b6102be6104cb366004611a66565b61096d565b61024a6104de366004611b4f565b6109a1565b6102be6104f1366004611b36565b6109cc565b610263610504366004611a1d565b6001600160a01b031660009081526004602052604090205490565b600254610263565b6102be610535366004611a1d565b6109ff565b610263600081565b610263610550366004611b36565b610a32565b600154610263565b6102be61056b366004611b7f565b610a49565b6102be61057e366004611a3a565b610a6e565b6102be610591366004611b36565b610d56565b6102be6105a4366004611b4f565b610d89565b6102637f7ed8c19206b80ae37c236293475b0ecd37e16ace86505ded50a9627d9b145fad81565b6102637f9b24ae46ebdfc60e12da9c693712115154aecb7ac668cde8de733094205729b481565b600a546001600160a01b0316610293565b60006001600160e01b03198216635a05180f60e01b148061062d575061062d82610e49565b92915050565b7f5ae63e664766ed63ceb860dbffc0f7aa0ccb76f90368617bfca90bc294e6ad0a61065d81610e7e565b61066985858585610e88565b5050505050565b6001546001600160a01b0383166000908152600360205260408120549091429161069a9190611ca8565b10156106ab5750600254811161062d565b6002546001600160a01b0384166000908152600460205260409020546106d2908490611ca8565b119392505050565b6000828152600560205260409020600101546106f581610e7e565b61070183836001610f2a565b505050565b6001600160a01b038116331461077b5760405162461bcd60e51b815260206004820152602f60248201527f416363657373436f6e74726f6c3a2063616e206f6e6c792072656e6f756e636560448201526e103937b632b9903337b91039b2b63360891b60648201526084015b60405180910390fd5b6107858282610fa2565b5050565b600081815260096020908152604080832033845290915290205460ff166107f25760405162461bcd60e51b815260206004820152601a60248201527f6d73672e73656e64657220213d20726f6c65206e6f6d696e65650000000000006044820152606401610772565b6107fe81336000610f2a565b6108088133610fc4565b50565b7f258bf7ce4dbd93c45f1ae8ff83c6dbf952426468a7a5f94621a173574ea6639461083581610e7e565b600a80546001600160a01b0319166001600160a01b0384169081179091556040519081527f50f00a2e72696d981b6ba41c727758c61783b7a40317c3c8c7c0aa22156b1a13906020015b60405180910390a15050565b6000828152600560205260409020600101546108a681610e7e565b61070183836000610f2a565b7f56937d8a02549a7032377b03217f34e3b07fa98e1eb09c1102cdc4d789e2540e6108dc81610e7e565b600b8290556040518281527fe353b517d4917be5ed6f66b327986d216056b50c5b6b295310392845d6c23e1e9060200161087f565b60008181526008602052604090205461092981610e7e565b600082815260086020526040902054610943908390610fe6565b610785826000611031565b6000828152600660205260408120610966908361108c565b9392505050565b7f5ae63e664766ed63ceb860dbffc0f7aa0ccb76f90368617bfca90bc294e6ad0a61099781610e7e565b6107018383611098565b60009182526005602090815260408084206001600160a01b0393909316845291905290205460ff1690565b7f9b24ae46ebdfc60e12da9c693712115154aecb7ac668cde8de733094205729b46109f681610e7e565b61078582611176565b7f866b4848de4af255be133f7c25c7ee2d1d6f688d2da0be4351123daaf2c8f16c610a2981610e7e565b610785826111b2565b600081815260066020526040812061062d90611200565b600082815260056020526040902060010154610a6481610e7e565b6107018383611031565b610a7661120a565b6000546040516304d93ff560e31b81523360048201526001600160a01b03909116906326c9ffa89060240160206040518083038186803b158015610ab957600080fd5b505afa158015610acd573d6000803e3d6000fd5b505050506040513d601f19601f82011682018060405250810190610af19190611b14565b610b0e5760405163ec49aeb560e01b815260040160405180910390fd5b600a5460408051631b53398f60e21b815290516000926001600160a01b031691636d4ce63c916004808301926020929190829003018186803b158015610b5357600080fd5b505afa158015610b67573d6000803e3d6000fd5b505050506040513d601f19601f82011682018060405250810190610b8b9190611bcb565b9050600b548111610b9c5750610d4c565b600081610bc97f000000000000000000000000000000000000000000000000000000000000000085611ce2565b610bd39190611cc0565b905080610be1575050610d4c565b6040516370a0823160e01b81523060048201527f00000000000000000000000000000000000000000000000000000000000000006001600160a01b0316906370a082319060240160206040518083038186803b158015610c4057600080fd5b505afa158015610c54573d6000803e3d6000fd5b505050506040513d601f19601f82011682018060405250810190610c789190611bcb565b811115610c86575050610d4c565b610c903382610670565b15610c9c575050610d4c565b610ca63382611264565b60405163a9059cbb60e01b81526001600160a01b038581166004830152602482018390527f0000000000000000000000000000000000000000000000000000000000000000169063a9059cbb90604401602060405180830381600087803b158015610d1057600080fd5b505af1158015610d24573d6000803e3d6000fd5b505050506040513d601f19601f82011682018060405250810190610d489190611b14565b5050505b6107856001600755565b7f7ed8c19206b80ae37c236293475b0ecd37e16ace86505ded50a9627d9b145fad610d8081610e7e565b610785826112fc565b600082815260056020526040902060010154610da481610e7e565b6107018383610fa2565b610db882826109a1565b6107855760008281526005602090815260408083206001600160a01b03851684529091529020805460ff19166001179055610df03390565b6001600160a01b0316816001600160a01b0316837f2f8788117e7eff1d82e926ec794901d17c78024a50270940304540a733656f0d60405160405180910390a45050565b6000610966836001600160a01b038416611331565b60006001600160e01b03198216637965db0b60e01b148061062d57506301ffc9a760e01b6001600160e01b031983161461062d565b6108088133611380565b610e9061120a565b828114610eb05760405163512509d360e11b815260040160405180910390fd5b8260005b81811015610f1857610f1033858584818110610ed257610ed2611d87565b90506020020135888885818110610eeb57610eeb611d87565b9050602002016020810190610f009190611a1d565b6001600160a01b031691906113d9565b600101610eb4565b5050610f246001600755565b50505050565b60008381526009602090815260408083206001600160a01b03861680855290835292819020805460ff19168515159081179091558151878152928301939093528101919091527fd4eaea07a6439b4db5273291dd4d77f204d9eaf0d67149318c911f449f3df5d69060600160405180910390a1505050565b610fac828261142b565b60008281526006602052604090206107019082611492565b610fce8282610dae565b60008281526006602052604090206107019082610e34565b600082815260056020526040808220600101805490849055905190918391839186917fbd79b86ffe0ab8e8776151514217cd7cacd52c909f66475c3af44e129f0b00ff9190a4505050565b6000828152600860209081526040918290205482519081529081018390527fb7f84e320be67bd09b884f0142b70ae1256025837c61650411a58567f9137c5d910160405180910390a160009182526008602052604090912055565b600061096683836114a7565b6110a061120a565b8060005b8181101561116a57611162338585848181106110c2576110c2611d87565b90506020020160208101906110d79190611a1d565b6040516370a0823160e01b81523060048201526001600160a01b0391909116906370a082319060240160206040518083038186803b15801561111857600080fd5b505afa15801561112c573d6000803e3d6000fd5b505050506040513d601f19601f820116820180604052508101906111509190611bcb565b868685818110610eeb57610eeb611d87565b6001016110a4565b50506107856001600755565b60018190556040518181527f8276c667a79f599ef3626a358b1e37d862c255362290b6248174219a88c069b2906020015b60405180910390a150565b600080546001600160a01b0319166001600160a01b0383169081179091556040519081527f0dacf1df82205439fd27104877c9ed6bec034e24daf9b3afb96f62191e0a7ea7906020016111a7565b600061062d825490565b6002600754141561125d5760405162461bcd60e51b815260206004820152601f60248201527f5265656e7472616e637947756172643a207265656e7472616e742063616c6c006044820152606401610772565b6002600755565b6001546001600160a01b038316600090815260036020526040902054429161128b91611ca8565b10156112b8576001600160a01b038216600090815260036020908152604080832042905560049091528120555b6001600160a01b0382166000908152600460205260409020546112dc908290611ca8565b6001600160a01b0390921660009081526004602052604090209190915550565b60028190556040518181527fef9c4992aa100fded0150707e28d682ed78c24025eff223cd0392dbfcae7bb3d906020016111a7565b60008181526001830160205260408120546113785750815460018181018455600084815260208082209093018490558454848252828601909352604090209190915561062d565b50600061062d565b61138a82826109a1565b61078557611397816114d1565b6113a28360206114e3565b6040516020016113b3929190611c00565b60408051601f198184030181529082905262461bcd60e51b825261077291600401611c75565b604080516001600160a01b038416602482015260448082018490528251808303909101815260649091019091526020810180516001600160e01b031663a9059cbb60e01b17905261070190849061167f565b61143582826109a1565b156107855760008281526005602090815260408083206001600160a01b0385168085529252808320805460ff1916905551339285917ff6391f5c32d9c69d2a47ea670b442974b53935d1edc7fd64eb21e047a839171b9190a45050565b6000610966836001600160a01b038416611751565b60008260000182815481106114be576114be611d87565b9060005260206000200154905092915050565b606061062d6001600160a01b03831660145b606060006114f2836002611ce2565b6114fd906002611ca8565b67ffffffffffffffff81111561151557611515611d9d565b6040519080825280601f01601f19166020018201604052801561153f576020820181803683370190505b509050600360fc1b8160008151811061155a5761155a611d87565b60200101906001600160f81b031916908160001a905350600f60fb1b8160018151811061158957611589611d87565b60200101906001600160f81b031916908160001a90535060006115ad846002611ce2565b6115b8906001611ca8565b90505b6001811115611630576f181899199a1a9b1b9c1cb0b131b232b360811b85600f16601081106115ec576115ec611d87565b1a60f81b82828151811061160257611602611d87565b60200101906001600160f81b031916908160001a90535060049490941c9361162981611d44565b90506115bb565b5083156109665760405162461bcd60e51b815260206004820181905260248201527f537472696e67733a20686578206c656e67746820696e73756666696369656e746044820152606401610772565b60006116d4826040518060400160405280602081526020017f5361666545524332303a206c6f772d6c6576656c2063616c6c206661696c6564815250856001600160a01b03166118449092919063ffffffff16565b80519091501561070157808060200190518101906116f29190611b14565b6107015760405162461bcd60e51b815260206004820152602a60248201527f5361666545524332303a204552433230206f7065726174696f6e20646964206e6044820152691bdd081cdd58d8d9595960b21b6064820152608401610772565b6000818152600183016020526040812054801561183a576000611775600183611d01565b855490915060009061178990600190611d01565b90508181146117ee5760008660000182815481106117a9576117a9611d87565b90600052602060002001549050808760000184815481106117cc576117cc611d87565b6000918252602080832090910192909255918252600188019052604090208390555b85548690806117ff576117ff611d71565b60019003818190600052602060002001600090559055856001016000868152602001908152602001600020600090556001935050505061062d565b600091505061062d565b6060611853848460008561185b565b949350505050565b6060824710156118bc5760405162461bcd60e51b815260206004820152602660248201527f416464726573733a20696e73756666696369656e742062616c616e636520666f6044820152651c8818d85b1b60d21b6064820152608401610772565b600080866001600160a01b031685876040516118d89190611be4565b60006040518083038185875af1925050503d8060008114611915576040519150601f19603f3d011682016040523d82523d6000602084013e61191a565b606091505b509150915061192b87838387611936565b979650505050505050565b606083156119a257825161199b576001600160a01b0385163b61199b5760405162461bcd60e51b815260206004820152601d60248201527f416464726573733a2063616c6c20746f206e6f6e2d636f6e74726163740000006044820152606401610772565b5081611853565b61185383838151156119b75781518083602001fd5b8060405162461bcd60e51b81526004016107729190611c75565b60008083601f8401126119e357600080fd5b50813567ffffffffffffffff8111156119fb57600080fd5b6020830191508360208260051b8501011115611a1657600080fd5b9250929050565b600060208284031215611a2f57600080fd5b813561096681611db3565b60008060408385031215611a4d57600080fd5b8235611a5881611db3565b946020939093013593505050565b60008060208385031215611a7957600080fd5b823567ffffffffffffffff811115611a9057600080fd5b611a9c858286016119d1565b90969095509350505050565b60008060008060408587031215611abe57600080fd5b843567ffffffffffffffff80821115611ad657600080fd5b611ae2888389016119d1565b90965094506020870135915080821115611afb57600080fd5b50611b08878288016119d1565b95989497509550505050565b600060208284031215611b2657600080fd5b8151801515811461096657600080fd5b600060208284031215611b4857600080fd5b5035919050565b60008060408385031215611b6257600080fd5b823591506020830135611b7481611db3565b809150509250929050565b60008060408385031215611b9257600080fd5b50508035926020909101359150565b600060208284031215611bb357600080fd5b81356001600160e01b03198116811461096657600080fd5b600060208284031215611bdd57600080fd5b5051919050565b60008251611bf6818460208701611d18565b9190910192915050565b7f416363657373436f6e74726f6c3a206163636f756e7420000000000000000000815260008351611c38816017850160208801611d18565b7001034b99036b4b9b9b4b733903937b6329607d1b6017918401918201528351611c69816028840160208801611d18565b01602801949350505050565b6020815260008251806020840152611c94816040850160208701611d18565b601f01601f19169190910160400192915050565b60008219821115611cbb57611cbb611d5b565b500190565b600082611cdd57634e487b7160e01b600052601260045260246000fd5b500490565b6000816000190483118215151615611cfc57611cfc611d5b565b500290565b600082821015611d1357611d13611d5b565b500390565b60005b83811015611d33578181015183820152602001611d1b565b83811115610f245750506000910152565b600081611d5357611d53611d5b565b506000190190565b634e487b7160e01b600052601160045260246000fd5b634e487b7160e01b600052603160045260246000fd5b634e487b7160e01b600052603260045260246000fd5b634e487b7160e01b600052604160045260246000fd5b6001600160a01b038116811461080857600080fdfea264697066735822122093af955b6238d639e01da35eec7b2c83165082d4396aa1ee53e1ab8a849b1f6464736f6c63430008070033",
  "devdoc": {
    "kind": "dev",
    "methods": {
      "acceptRole(bytes32)": {
        "details": "Only callable by the role nominee.",
        "params": {
          "role": "The role of the nomination to be accepted"
        }
      },
      "acceptRoleAdmin(bytes32)": {
        "details": "Only callable by a member of the role admin nominee.",
        "params": {
          "role": "The role a role admin nomination is to be accepted for"
        }
      },
      "getRoleAdmin(bytes32)": {
        "details": "Returns the admin role that controls `role`. See {grantRole} and {revokeRole}. To change a role's admin, use {_setRoleAdmin}."
      },
      "getRoleAdminNominee(bytes32)": {
        "params": {
          "role": "The role to retrieve the role admin nominee for"
        },
        "returns": {
          "_0": "The current role admin nominee of `role`"
        }
      },
      "getRoleMember(bytes32,uint256)": {
        "details": "Returns one of the accounts that have `role`. `index` must be a value between 0 and {getRoleMemberCount}, non-inclusive. Role bearers are not sorted in any particular way, and their ordering may change at any point. WARNING: When using {getRoleMember} and {getRoleMemberCount}, make sure you perform all queries on the same block. See the following https://forum.openzeppelin.com/t/iterating-over-elements-on-enumerableset-in-openzeppelin-contracts/2296[forum post] for more information."
      },
      "getRoleMemberCount(bytes32)": {
        "details": "Returns the number of accounts that have `role`. Can be used together with {getRoleMember} to enumerate all bearers of a role."
      },
      "grantRole(bytes32,address)": {
        "details": "Grants `role` to `account`. If `account` had not been already granted `role`, emits a {RoleGranted} event. Requirements: - the caller must have ``role``'s admin role."
      },
      "hasRole(bytes32,address)": {
        "details": "Returns `true` if `account` has been granted `role`."
      },
      "isNominated(bytes32,address)": {
        "params": {
          "account": "The address to retrieve nomination status for",
          "role": "The role to retrieve nomination status for"
        },
        "returns": {
          "_0": "Whether `account` is nominated for `role`"
        }
      },
      "renounceRole(bytes32,address)": {
        "details": "Revokes `role` from the calling account. Roles are often managed via {grantRole} and {revokeRole}: this function's purpose is to provide a mechanism for accounts to lose their privileges if they are compromised (such as when a trusted device is misplaced). If the calling account had been revoked `role`, emits a {RoleRevoked} event. Requirements: - the caller must be `account`. May emit a {RoleRevoked} event."
      },
      "revokeNomination(bytes32,address)": {
        "details": "Only callable by a member of the role's current role admin.",
        "params": {
          "account": "Address for which nomination is to be revoked",
          "role": "The role of the nomination to be revoked"
        }
      },
      "revokeRole(bytes32,address)": {
        "details": "Revokes `role` from `account`. If `account` had been granted `role`, emits a {RoleRevoked} event. Requirements: - the caller must have ``role``'s admin role. May emit a {RoleRevoked} event."
      },
      "supportsInterface(bytes4)": {
        "details": "See {IERC165-supportsInterface}."
      },
      "withdrawERC20(address[])": {
        "details": "Only callable by `owner()`.",
        "params": {
          "erc20Tokens": "ERC20 tokens to be withdrawn"
        }
      },
      "withdrawERC20(address[],uint256[])": {
        "details": "Length of `erc20Tokens` and `amounts` must match. Only callable by `owner()`.",
        "params": {
          "amounts": "Amounts to be withdrawn",
          "erc20Tokens": "ERC20 tokens to be withdrawn"
        }
      }
    },
    "version": 1
  },
  "userdoc": {
    "kind": "user",
    "methods": {
      "acceptRole(bytes32)": {
        "notice": "Accepts a role nomination."
      },
      "acceptRoleAdmin(bytes32)": {
        "notice": "Accepts a role admin nomination."
      },
      "revokeNomination(bytes32,address)": {
        "notice": "Revokes a role nomination."
      },
      "withdrawERC20(address[])": {
        "notice": "Withdraws entire balance of each ERC20 in `erc20Tokens`."
      },
      "withdrawERC20(address[],uint256[])": {
        "notice": "Withdraws corresponding `amounts` of each ERC20 in `erc20Tokens`."
      }
    },
    "version": 1
  },
  "storageLayout": {
    "storage": [
      {
        "astId": 19399,
        "contract": "contracts/TokenSender.sol:TokenSender",
        "label": "_allowedMsgSenders",
        "offset": 0,
        "slot": "0",
        "type": "t_contract(IAccountList)20502"
      },
      {
        "astId": 19448,
        "contract": "contracts/TokenSender.sol:TokenSender",
        "label": "_accountLimitResetPeriod",
        "offset": 0,
        "slot": "1",
        "type": "t_uint256"
      },
      {
        "astId": 19450,
        "contract": "contracts/TokenSender.sol:TokenSender",
        "label": "_accountLimitPerPeriod",
        "offset": 0,
        "slot": "2",
        "type": "t_uint256"
      },
      {
        "astId": 19454,
        "contract": "contracts/TokenSender.sol:TokenSender",
        "label": "_accountToLastPeriodReset",
        "offset": 0,
        "slot": "3",
        "type": "t_mapping(t_address,t_uint256)"
      },
      {
        "astId": 19458,
        "contract": "contracts/TokenSender.sol:TokenSender",
        "label": "_accountToAmountThisPeriod",
        "offset": 0,
        "slot": "4",
        "type": "t_mapping(t_address,t_uint256)"
      },
      {
        "astId": 4407,
        "contract": "contracts/TokenSender.sol:TokenSender",
        "label": "_roles",
        "offset": 0,
        "slot": "5",
        "type": "t_mapping(t_bytes32,t_struct(RoleData)4402_storage)"
      },
      {
        "astId": 4717,
        "contract": "contracts/TokenSender.sol:TokenSender",
        "label": "_roleMembers",
        "offset": 0,
        "slot": "6",
        "type": "t_mapping(t_bytes32,t_struct(AddressSet)10882_storage)"
      },
      {
        "astId": 5045,
        "contract": "contracts/TokenSender.sol:TokenSender",
        "label": "_status",
        "offset": 0,
        "slot": "7",
        "type": "t_uint256"
      },
      {
        "astId": 19620,
        "contract": "contracts/TokenSender.sol:TokenSender",
        "label": "_roleToRoleAdminNominee",
        "offset": 0,
        "slot": "8",
        "type": "t_mapping(t_bytes32,t_bytes32)"
      },
      {
        "astId": 19626,
        "contract": "contracts/TokenSender.sol:TokenSender",
        "label": "_roleToAccountToNominated",
        "offset": 0,
        "slot": "9",
        "type": "t_mapping(t_bytes32,t_mapping(t_address,t_bool))"
      },
      {
        "astId": 16067,
        "contract": "contracts/TokenSender.sol:TokenSender",
        "label": "_priceOracle",
        "offset": 0,
        "slot": "10",
        "type": "t_contract(IUintValue)20986"
      },
      {
        "astId": 16069,
        "contract": "contracts/TokenSender.sol:TokenSender",
        "label": "_priceLowerBound",
        "offset": 0,
        "slot": "11",
        "type": "t_uint256"
      }
    ],
    "types": {
      "t_address": {
        "encoding": "inplace",
        "label": "address",
        "numberOfBytes": "20"
      },
      "t_array(t_bytes32)dyn_storage": {
        "base": "t_bytes32",
        "encoding": "dynamic_array",
        "label": "bytes32[]",
        "numberOfBytes": "32"
      },
      "t_bool": {
        "encoding": "inplace",
        "label": "bool",
        "numberOfBytes": "1"
      },
      "t_bytes32": {
        "encoding": "inplace",
        "label": "bytes32",
        "numberOfBytes": "32"
      },
      "t_contract(IAccountList)20502": {
        "encoding": "inplace",
        "label": "contract IAccountList",
        "numberOfBytes": "20"
      },
      "t_contract(IUintValue)20986": {
        "encoding": "inplace",
        "label": "contract IUintValue",
        "numberOfBytes": "20"
      },
      "t_mapping(t_address,t_bool)": {
        "encoding": "mapping",
        "key": "t_address",
        "label": "mapping(address => bool)",
        "numberOfBytes": "32",
        "value": "t_bool"
      },
      "t_mapping(t_address,t_uint256)": {
        "encoding": "mapping",
        "key": "t_address",
        "label": "mapping(address => uint256)",
        "numberOfBytes": "32",
        "value": "t_uint256"
      },
      "t_mapping(t_bytes32,t_bytes32)": {
        "encoding": "mapping",
        "key": "t_bytes32",
        "label": "mapping(bytes32 => bytes32)",
        "numberOfBytes": "32",
        "value": "t_bytes32"
      },
      "t_mapping(t_bytes32,t_mapping(t_address,t_bool))": {
        "encoding": "mapping",
        "key": "t_bytes32",
        "label": "mapping(bytes32 => mapping(address => bool))",
        "numberOfBytes": "32",
        "value": "t_mapping(t_address,t_bool)"
      },
      "t_mapping(t_bytes32,t_struct(AddressSet)10882_storage)": {
        "encoding": "mapping",
        "key": "t_bytes32",
        "label": "mapping(bytes32 => struct EnumerableSet.AddressSet)",
        "numberOfBytes": "32",
        "value": "t_struct(AddressSet)10882_storage"
      },
      "t_mapping(t_bytes32,t_struct(RoleData)4402_storage)": {
        "encoding": "mapping",
        "key": "t_bytes32",
        "label": "mapping(bytes32 => struct AccessControl.RoleData)",
        "numberOfBytes": "32",
        "value": "t_struct(RoleData)4402_storage"
      },
      "t_mapping(t_bytes32,t_uint256)": {
        "encoding": "mapping",
        "key": "t_bytes32",
        "label": "mapping(bytes32 => uint256)",
        "numberOfBytes": "32",
        "value": "t_uint256"
      },
      "t_struct(AddressSet)10882_storage": {
        "encoding": "inplace",
        "label": "struct EnumerableSet.AddressSet",
        "members": [
          {
            "astId": 10881,
            "contract": "contracts/TokenSender.sol:TokenSender",
            "label": "_inner",
            "offset": 0,
            "slot": "0",
            "type": "t_struct(Set)10567_storage"
          }
        ],
        "numberOfBytes": "64"
      },
      "t_struct(RoleData)4402_storage": {
        "encoding": "inplace",
        "label": "struct AccessControl.RoleData",
        "members": [
          {
            "astId": 4399,
            "contract": "contracts/TokenSender.sol:TokenSender",
            "label": "members",
            "offset": 0,
            "slot": "0",
            "type": "t_mapping(t_address,t_bool)"
          },
          {
            "astId": 4401,
            "contract": "contracts/TokenSender.sol:TokenSender",
            "label": "adminRole",
            "offset": 0,
            "slot": "1",
            "type": "t_bytes32"
          }
        ],
        "numberOfBytes": "64"
      },
      "t_struct(Set)10567_storage": {
        "encoding": "inplace",
        "label": "struct EnumerableSet.Set",
        "members": [
          {
            "astId": 10562,
            "contract": "contracts/TokenSender.sol:TokenSender",
            "label": "_values",
            "offset": 0,
            "slot": "0",
            "type": "t_array(t_bytes32)dyn_storage"
          },
          {
            "astId": 10566,
            "contract": "contracts/TokenSender.sol:TokenSender",
            "label": "_indexes",
            "offset": 0,
            "slot": "1",
            "type": "t_mapping(t_bytes32,t_uint256)"
          }
        ],
        "numberOfBytes": "64"
      },
      "t_uint256": {
        "encoding": "inplace",
        "label": "uint256",
        "numberOfBytes": "32"
      }
    }
  }
}