{
  "address": "0x240b7b469397c19A347d5A9C9cBA9E3D93D8Db85",
  "abi": [
    {
      "inputs": [],
      "name": "AddressBeaconNotSet",
      "type": "error"
    },
    {
      "inputs": [],
      "name": "LongTokenAddressTooHigh",
      "type": "error"
    },
    {
      "inputs": [],
      "name": "ShortTokenAddressTooHigh",
      "type": "error"
    },
    {
      "inputs": [],
      "name": "UintBeaconNotSet",
      "type": "error"
    },
    {
      "anonymous": false,
      "inputs": [
        {
          "indexed": false,
          "internalType": "address",
          "name": "beacon",
          "type": "address"
        }
      ],
      "name": "AddressBeaconChange",
      "type": "event"
    },
    {
      "anonymous": false,
      "inputs": [
        {
          "indexed": false,
          "internalType": "address",
          "name": "market",
          "type": "address"
        },
        {
          "indexed": false,
          "internalType": "address",
          "name": "deployer",
          "type": "address"
        },
        {
          "indexed": false,
          "internalType": "address",
          "name": "longToken",
          "type": "address"
        },
        {
          "indexed": false,
          "internalType": "address",
          "name": "shortToken",
          "type": "address"
        },
        {
          "indexed": false,
          "internalType": "address",
          "name": "addressBeacon",
          "type": "address"
        },
        {
          "indexed": false,
          "internalType": "address",
          "name": "uintBeacon",
          "type": "address"
        },
        {
          "components": [
            {
              "internalType": "address",
              "name": "collateral",
              "type": "address"
            },
            {
              "internalType": "uint256",
              "name": "floorLongPayout",
              "type": "uint256"
            },
            {
              "internalType": "uint256",
              "name": "ceilingLongPayout",
              "type": "uint256"
            },
            {
              "internalType": "uint256",
              "name": "expiryLongPayout",
              "type": "uint256"
            },
            {
              "internalType": "uint256",
              "name": "floorValuation",
              "type": "uint256"
            },
            {
              "internalType": "uint256",
              "name": "ceilingValuation",
              "type": "uint256"
            },
            {
              "internalType": "uint256",
              "name": "expiryTime",
              "type": "uint256"
            }
          ],
          "indexed": false,
          "internalType": "struct IPrePOMarket.MarketParameters",
          "name": "parameters",
          "type": "tuple"
        }
      ],
      "name": "MarketCreation",
      "type": "event"
    },
    {
      "anonymous": false,
      "inputs": [
        {
          "indexed": true,
          "internalType": "address",
          "name": "previousNominee",
          "type": "address"
        },
        {
          "indexed": true,
          "internalType": "address",
          "name": "newNominee",
          "type": "address"
        }
      ],
      "name": "NomineeUpdate",
      "type": "event"
    },
    {
      "anonymous": false,
      "inputs": [
        {
          "indexed": true,
          "internalType": "address",
          "name": "previousOwner",
          "type": "address"
        },
        {
          "indexed": true,
          "internalType": "address",
          "name": "newOwner",
          "type": "address"
        }
      ],
      "name": "OwnershipTransferred",
      "type": "event"
    },
    {
      "anonymous": false,
      "inputs": [
        {
          "indexed": false,
          "internalType": "address",
          "name": "beacon",
          "type": "address"
        }
      ],
      "name": "UintBeaconChange",
      "type": "event"
    },
    {
      "inputs": [],
      "name": "acceptOwnership",
      "outputs": [],
      "stateMutability": "nonpayable",
      "type": "function"
    },
    {
      "inputs": [
        {
          "internalType": "string",
          "name": "tokenNameSuffix",
          "type": "string"
        },
        {
          "internalType": "string",
          "name": "tokenSymbolSuffix",
          "type": "string"
        },
        {
          "internalType": "bytes32",
          "name": "longTokenSalt",
          "type": "bytes32"
        },
        {
          "internalType": "bytes32",
          "name": "shortTokenSalt",
          "type": "bytes32"
        },
        {
          "components": [
            {
              "internalType": "address",
              "name": "collateral",
              "type": "address"
            },
            {
              "internalType": "uint256",
              "name": "floorLongPayout",
              "type": "uint256"
            },
            {
              "internalType": "uint256",
              "name": "ceilingLongPayout",
              "type": "uint256"
            },
            {
              "internalType": "uint256",
              "name": "expiryLongPayout",
              "type": "uint256"
            },
            {
              "internalType": "uint256",
              "name": "floorValuation",
              "type": "uint256"
            },
            {
              "internalType": "uint256",
              "name": "ceilingValuation",
              "type": "uint256"
            },
            {
              "internalType": "uint256",
              "name": "expiryTime",
              "type": "uint256"
            }
          ],
          "internalType": "struct IPrePOMarket.MarketParameters",
          "name": "parameters",
          "type": "tuple"
        }
      ],
      "name": "createMarket",
      "outputs": [],
      "stateMutability": "nonpayable",
      "type": "function"
    },
    {
      "inputs": [],
      "name": "getAddressBeacon",
      "outputs": [
        {
          "internalType": "contract IAddressBeacon",
          "name": "",
          "type": "address"
        }
      ],
      "stateMutability": "view",
      "type": "function"
    },
    {
      "inputs": [],
      "name": "getNominee",
      "outputs": [
        {
          "internalType": "address",
          "name": "",
          "type": "address"
        }
      ],
      "stateMutability": "view",
      "type": "function"
    },
    {
      "inputs": [],
      "name": "getUintBeacon",
      "outputs": [
        {
          "internalType": "contract IUintBeacon",
          "name": "",
          "type": "address"
        }
      ],
      "stateMutability": "view",
      "type": "function"
    },
    {
      "inputs": [],
      "name": "owner",
      "outputs": [
        {
          "internalType": "address",
          "name": "",
          "type": "address"
        }
      ],
      "stateMutability": "view",
      "type": "function"
    },
    {
      "inputs": [],
      "name": "renounceOwnership",
      "outputs": [],
      "stateMutability": "nonpayable",
      "type": "function"
    },
    {
      "inputs": [
        {
          "internalType": "contract IAddressBeacon",
          "name": "addressBeacon",
          "type": "address"
        }
      ],
      "name": "setAddressBeacon",
      "outputs": [],
      "stateMutability": "nonpayable",
      "type": "function"
    },
    {
      "inputs": [
        {
          "internalType": "contract IUintBeacon",
          "name": "uintBeacon",
          "type": "address"
        }
      ],
      "name": "setUintBeacon",
      "outputs": [],
      "stateMutability": "nonpayable",
      "type": "function"
    },
    {
      "inputs": [
        {
          "internalType": "address",
          "name": "nominee",
          "type": "address"
        }
      ],
      "name": "transferOwnership",
      "outputs": [],
      "stateMutability": "nonpayable",
      "type": "function"
    }
  ],
  "transactionHash": "0x45166065d69b502e0d3fb173f81e51b698c4ab2f4bfd915e57945e0b62348588",
  "args": [],
  "numDeployments": 1,
  "solcInputHash": "84b86c455dfe286363523437f420d411",
  "bytecode": "0x608060405234801561001057600080fd5b50600160005561001f33610024565b610076565b600180546001600160a01b038381166001600160a01b0319831681179093556040519116919082907f8be0079c531659141344cd1fd0a4f28419497f9722a3daafe3b4186f6b6457e090600090a35050565b6151a0806100856000396000f3fe60806040523480156200001157600080fd5b5060043610620000ab5760003560e01c80638da5cb5b116200006e5780638da5cb5b146200011d578063b2fc0e69146200012f578063b6ca0b631462000146578063db0da0481462000158578063f2fde38b146200016a57600080fd5b806307c2962414620000b0578063715018a614620000d9578063797e304414620000e557806379ba509714620000fc57806388cc770b1462000106575b600080fd5b6003546001600160a01b03165b6040516001600160a01b03909116815260200160405180910390f35b620000e362000181565b005b620000e3620000f636600462000927565b620001a3565b620000e362000202565b620000e3620001173660046200094e565b6200027a565b6001546001600160a01b0316620000bd565b620000e36200014036600462000927565b620005b0565b6002546001600160a01b0316620000bd565b6004546001600160a01b0316620000bd565b620000e36200017b36600462000927565b62000609565b6200018b62000621565b620001956200067d565b620001a1600062000693565b565b620001ad62000621565b600480546001600160a01b0319166001600160a01b0383169081179091556040519081527fdd9ea2ef622d5a0feb18625614e110e4ed31b520d671629c93f98baff98d8fc9906020015b60405180910390a150565b6002546001600160a01b0316336001600160a01b031614620002635760405162461bcd60e51b81526020600482015260156024820152746d73672e73656e64657220213d206e6f6d696e656560581b60448201526064015b60405180910390fd5b60025462000195906001600160a01b0316620006e5565b6200028462000737565b6003546001600160a01b0316620002ae57604051630a8a366d60e11b815260040160405180910390fd5b6004546001600160a01b0316620002d857604051631ecc96a160e11b815260040160405180910390fd5b6000806200035489898080601f01602080910402602001604051908101604052809392919081815260200183838082843760009201919091525050604080516020601f8d018190048102820181019092528b815292508b91508a90819084018382808284376000920191909152508a9250899150620007939050565b909250905062000368602084018462000927565b6001600160a01b0316826001600160a01b031611156200039b57604051639efde05d60e01b815260040160405180910390fd5b620003aa602084018462000927565b6001600160a01b0316816001600160a01b03161115620003dd5760405163b810d27560e01b815260040160405180910390fd5b6040516bffffffffffffffffffffffff19606084811b8216602084015283901b16603482015260009060480160408051601f1981840301815290829052805160209091012060035460045491935060009284923392889288926001600160a01b039283169216908b906200045190620008bf565b620004629695949392919062000b9b565b8190604051809103906000f590508015801562000483573d6000803e3d6000fd5b5060405163f2fde38b60e01b81526001600160a01b0380831660048301529192509085169063f2fde38b90602401600060405180830381600087803b158015620004cc57600080fd5b505af1158015620004e1573d6000803e3d6000fd5b505060405163f2fde38b60e01b81526001600160a01b0384811660048301528616925063f2fde38b9150602401600060405180830381600087803b1580156200052957600080fd5b505af11580156200053e573d6000803e3d6000fd5b50506003546004546040517f70fe6a5efe69fd759182d14d6b80f301cdff42110d295b0661b362b7e8fada3d9450620005909350859233928a928a926001600160a01b039081169216908d9062000b47565b60405180910390a150505050620005a76001600055565b50505050505050565b620005ba62000621565b600380546001600160a01b0319166001600160a01b0383169081179091556040519081527fbcfbdc3d0c5b05010c8bb38262f41f22e721d8d6f117103f1f4c368e6cac0a6390602001620001f7565b6200061362000621565b6200061e8162000693565b50565b6001546001600160a01b03163314620001a15760405162461bcd60e51b815260206004820181905260248201527f4f776e61626c653a2063616c6c6572206973206e6f7420746865206f776e657260448201526064016200025a565b6200068762000621565b620001a16000620006e5565b600280546001600160a01b038381166001600160a01b0319831681179093556040519116919082907fe7624d724357e317f51579affee5050a97c60b060e513e69aa8a1a35fb3315a790600090a35050565b600180546001600160a01b038381166001600160a01b0319831681179093556040519116919082907f8be0079c531659141344cd1fd0a4f28419497f9722a3daafe3b4186f6b6457e090600090a35050565b600260005414156200078c5760405162461bcd60e51b815260206004820152601f60248201527f5265656e7472616e637947756172643a207265656e7472616e742063616c6c0060448201526064016200025a565b6002600055565b600080600086604051602001620007ab919062000a79565b6040516020818303038152906040529050600087604051602001620007d1919062000ab1565b6040516020818303038152906040529050600087604051602001620007f7919062000aea565b60405160208183030381529060405290506000886040516020016200081d919062000b1f565b60405160208183030381529060405290508784836040516200083f90620008cd565b6200084c92919062000be6565b8190604051809103906000f59050801580156200086d573d6000803e3d6000fd5b5095508683826040516200088190620008cd565b6200088e92919062000be6565b8190604051809103906000f5905080158015620008af573d6000803e3d6000fd5b5094505050505094509492505050565b612dde8062000c6283390190565b61172b8062003a4083390190565b60008083601f840112620008ee57600080fd5b50813567ffffffffffffffff8111156200090757600080fd5b6020830191508360208285010111156200092057600080fd5b9250929050565b6000602082840312156200093a57600080fd5b8135620009478162000c4b565b9392505050565b60008060008060008060008789036101608112156200096c57600080fd5b883567ffffffffffffffff808211156200098557600080fd5b620009938c838d01620008db565b909a50985060208b0135915080821115620009ad57600080fd5b50620009bc8b828c01620008db565b909750955050604089013593506060890135925060e0607f1982011215620009e357600080fd5b5060808801905092959891949750929550565b6000815180845262000a1081602086016020860162000c18565b601f01601f19169290920160200192915050565b803562000a318162000c4b565b6001600160a01b031682526020818101359083015260408082013590830152606080820135908301526080808201359083015260a0818101359083015260c090810135910152565b634c4f4e4760e01b8152600160fd1b60048201526000825162000aa481600585016020870162000c18565b9190910160050192915050565b6414d213d49560da1b8152600160fd1b60058201526000825162000add81600685016020870162000c18565b9190910160060192915050565b601360fa1b8152605f60f81b60018201526000825162000b1281600285016020870162000c18565b9190910160020192915050565b605360f81b8152605f60f81b60018201526000825162000b1281600285016020870162000c18565b6001600160a01b0388811682528781166020830152868116604083015285811660608301528481166080830152831660a08201526101a0810162000b8f60c083018462000a24565b98975050505050505050565b6001600160a01b03878116825286811660208301528581166040830152848116606083015283166080820152610180810162000bdb60a083018462000a24565b979650505050505050565b60408152600062000bfb6040830185620009f6565b828103602084015262000c0f8185620009f6565b95945050505050565b60005b8381101562000c3557818101518382015260200162000c1b565b8381111562000c45576000848401525b50505050565b6001600160a01b03811681146200061e57600080fdfe6101e06040523480156200001257600080fd5b5060405162002dde38038062002dde83398101604081905262000035916200057c565b60016000908155620000489033620001f3565b8060200151816040015111620000715760405163bdf5494360e01b815260040160405180910390fd5b670de0b6b3a7640000816040015111156200009f5760405163fabfffff60e01b815260040160405180910390fd5b806020015181606001511015620000c957604051631118fbc760e21b815260040160405180910390fd5b806040015181606001511115620000f3576040516374b015ad60e11b815260040160405180910390fd5b8060c001514210620001185760405163079955a160e41b815260040160405180910390fd5b6200012560003362000203565b620001517f6277df547c9740e5c99a69c4bb32861284d2c5d224317168740012fdee5e79898762000246565b6200017d7f6277df547c9740e5c99a69c4bb32861284d2c5d224317168740012fdee5e79898062000284565b6001600160601b0319606095861b8116608090815294861b811660a090815293861b811660c090815292861b811660e0528151861b1661010052602081015161012052604081015161014052938401516101605260001960055591830151610180528201516101a05201516101c0525062000704565b620001ff828262000246565b5050565b6200021a8282620002d160201b6200123d1760201c565b600082815260026020908152604090912062000241918390620012a462000355821b17901c565b505050565b6200025d82826200037560201b620012b91760201c565b60008281526002602090815260409091206200024191839062001324620003fd821b17901c565b6000828152600160208190526040808320909101805490849055905190918391839186917fbd79b86ffe0ab8e8776151514217cd7cacd52c909f66475c3af44e129f0b00ff9190a4505050565b60008281526001602090815260408083206001600160a01b038516845290915290205460ff1615620001ff5760008281526001602090815260408083206001600160a01b0385168085529252808320805460ff1916905551339285917ff6391f5c32d9c69d2a47ea670b442974b53935d1edc7fd64eb21e047a839171b9190a45050565b60006200036c836001600160a01b03841662000414565b90505b92915050565b60008281526001602090815260408083206001600160a01b038516845290915290205460ff16620001ff5760008281526001602081815260408084206001600160a01b0386168086529252808420805460ff19169093179092559051339285917f2f8788117e7eff1d82e926ec794901d17c78024a50270940304540a733656f0d9190a45050565b60006200036c836001600160a01b03841662000518565b600081815260018301602052604081205480156200050d5760006200043b60018362000699565b8554909150600090620004519060019062000699565b9050818114620004bd576000866000018281548110620004755762000475620006d5565b90600052602060002001549050808760000184815481106200049b576200049b620006d5565b6000918252602080832090910192909255918252600188019052604090208390555b8554869080620004d157620004d1620006bf565b6001900381819060005260206000200160009055905585600101600086815260200190815260200160002060009055600193505050506200036f565b60009150506200036f565b600081815260018301602052604081205462000561575081546001818101845560008481526020808220909301849055845484825282860190935260409020919091556200036f565b5060006200036f565b80516200057781620006eb565b919050565b6000806000806000808688036101808112156200059857600080fd5b8751620005a581620006eb565b6020890151909750620005b881620006eb565b6040890151909650620005cb81620006eb565b6060890151909550620005de81620006eb565b6080890151909450620005f181620006eb565b925060e0609f19820112156200060657600080fd5b5060405160e081016001600160401b03811182821017156200063857634e487b7160e01b600052604160045260246000fd5b6040526200064960a089016200056a565b815260c0880151602082015260e088015160408201526101008801516060820152610120880151608082015261014088015160a082015261016088015160c0820152809150509295509295509295565b600082821015620006ba57634e487b7160e01b600052601160045260246000fd5b500390565b634e487b7160e01b600052603160045260246000fd5b634e487b7160e01b600052603260045260246000fd5b6001600160a01b03811681146200070157600080fd5b50565b60805160601c60a05160601c60c05160601c60e05160601c6101005160601c610120516101405161016051610180516101a0516101c05161259c620008426000396000818161032b015261072f015260006105fa0152600061035b015260008181610277015261076f0152600081816104aa015281816106ed01528181610f6c01528181610fef01526119400152600081816106940152610fae01526000818161042501528181610b8601528181610dd101528181611604015281816116a9015281816117bb0152818161186a015281816119950152611a59015260008181610620015281816110c1015261117a0152600081816102a7015261146d0152600081816104d0015281816108c801528181610aec0152611be50152600081816102e10152818161081201528181610a650152611b63015261259c6000f3fe608060405234801561001057600080fd5b50600436106102485760003560e01c80637a71e6841161013b578063ca15c873116100b8578063db0da0481161007c578063db0da0481461061e578063e46bd1cc14610644578063e90e4e691461066b578063f12c7be614610692578063fa415632146106b857600080fd5b8063ca15c873146105ac578063cd0c1d96146105bf578063cebad90a146105d2578063d547741f146105e5578063dab12f86146105f857600080fd5b80639010d07c116100ff5780639010d07c1461056157806391d1485414610574578063a217fddf14610587578063b0b843741461058f578063bd30da0e1461059957600080fd5b80637a71e684146104ce5780637b56f2b9146104f457806380db43291461051b57806381a2cf791461053b5780638bb06b0b1461054e57600080fd5b806336568abe116101c95780635c1548fb1161018d5780635c1548fb146104235780635c449f7c146104495780636acfd6731461048257806373c025191461049557806378195e5d146104a857600080fd5b806336568abe146103a557806336fc1787146103b85780633e005d4a146103cb57806340163a63146103f257806358136165146103fc57600080fd5b806325cb5bc01161021057806325cb5bc0146103295780632c41f2971461034f5780632c6826f7146103595780632f2ff15d1461037f57806332bc34641461039257600080fd5b806301ffc9a71461024d57806307c0d26f1461027557806307c29624146102a557806313c7df66146102df578063248a9ca314610305575b600080fd5b61026061025b3660046121b6565b6106c0565b60405190151581526020015b60405180910390f35b7f00000000000000000000000000000000000000000000000000000000000000005b60405190815260200161026c565b7f00000000000000000000000000000000000000000000000000000000000000005b6040516001600160a01b03909116815260200161026c565b7f00000000000000000000000000000000000000000000000000000000000000006102c7565b61029761031336600461214b565b6000908152600160208190526040909120015490565b7f0000000000000000000000000000000000000000000000000000000000000000610297565b6103576106eb565b005b7f0000000000000000000000000000000000000000000000000000000000000000610297565b61035761038d366004612164565b6107c8565b6103576103a03660046122ce565b6107f5565b6103576103b3366004612164565b610c5f565b6103576103c636600461214b565b610ce2565b6102977f6277df547c9740e5c99a69c4bb32861284d2c5d224317168740012fdee5e798981565b610297620f424081565b6102977f146f48974fc095fc7e77b15586006eb4b8b4d0d4f840a96e8258529bcfb6c5eb81565b7f00000000000000000000000000000000000000000000000000000000000000006102c7565b610260610457366004612164565b60009182526004602090815260408084206001600160a01b0393909316845291905290205460ff1690565b610357610490366004612164565b610d64565b6102976104a3366004612272565b610d8c565b7f0000000000000000000000000000000000000000000000000000000000000000610297565b7f00000000000000000000000000000000000000000000000000000000000000006102c7565b6102977f02bc46a2df2f34e2dd488f99d3b46825185f3c15356a2d43fbada8c4702190eb81565b61029761052936600461214b565b60009081526003602052604090205490565b6102976105493660046121e0565b610db6565b61035761055c36600461214b565b610eb9565b6102c761056f366004612194565b610ef6565b610260610582366004612164565b610f15565b610297600081565b610297620186a081565b6103576105a736600461214b565b610f40565b6102976105ba36600461214b565b61106a565b6103576105cd366004612194565b611081565b6102976105e036600461214b565b6110a7565b6103576105f3366004612164565b611217565b7f0000000000000000000000000000000000000000000000000000000000000000610297565b7f00000000000000000000000000000000000000000000000000000000000000006102c7565b6102977f5e86c8fc8b92fef7e25b2dfd331ced3bbe16e1ea4896dd49d32b34f8d6bd608f81565b6102977fe3b8046d7e6959c2d85a97e02cad9b35438693e986956269362f56ca0819169881565b7f0000000000000000000000000000000000000000000000000000000000000000610297565b600554610297565b60006001600160e01b03198216635a05180f60e01b14806106e557506106e582611339565b92915050565b7f00000000000000000000000000000000000000000000000000000000000000006005541161072d5760405163262b753160e21b815260040160405180910390fd5b7f0000000000000000000000000000000000000000000000000000000000000000421161076d576040516349a2522760e01b815260040160405180910390fd5b7f000000000000000000000000000000000000000000000000000000000000000060058190556040519081527ff5a9597b2040ee4886f0ddfdab78b03fb09f3bbf04edde66d81f3b9f07e2f5c09060200160405180910390a1565b600082815260016020819052604090912001546107e48161136e565b6107f083836001611378565b505050565b6107fd6113f0565b6040516370a0823160e01b81523360048201527f00000000000000000000000000000000000000000000000000000000000000006001600160a01b0316906370a082319060240160206040518083038186803b15801561085c57600080fd5b505afa158015610870573d6000803e3d6000fd5b505050506040513d601f19601f820116820180604052508101906108949190612259565b8511156108b35760405162a7b40560e41b815260040160405180910390fd5b6040516370a0823160e01b81523360048201527f00000000000000000000000000000000000000000000000000000000000000006001600160a01b0316906370a082319060240160206040518083038186803b15801561091257600080fd5b505afa158015610926573d6000803e3d6000fd5b505050506040513d601f19601f8201168201806040525081019061094a9190612259565b84111561096a5760405163355650f560e01b815260040160405180910390fd5b6000600019600554146109ce576000600554670de0b6b3a764000061098f919061249b565b9050670de0b6b3a76400006109a4878361247c565b886005546109b2919061247c565b6109bc9190612442565b6109c6919061245a565b9150506109f1565b8486146109ee576040516379b8989160e11b815260040160405180910390fd5b50845b6000610a417f02bc46a2df2f34e2dd488f99d3b46825185f3c15356a2d43fbada8c4702190eb7f5e86c8fc8b92fef7e25b2dfd331ced3bbe16e1ea4896dd49d32b34f8d6bd608f8488888861144a565b90508615610aca5760405163079cc67960e41b8152336004820152602481018890527f00000000000000000000000000000000000000000000000000000000000000006001600160a01b0316906379cc679090604401600060405180830381600087803b158015610ab157600080fd5b505af1158015610ac5573d6000803e3d6000fd5b505050505b8515610b515760405163079cc67960e41b8152336004820152602481018790527f00000000000000000000000000000000000000000000000000000000000000006001600160a01b0316906379cc679090604401600060405180830381600087803b158015610b3857600080fd5b505af1158015610b4c573d6000803e3d6000fd5b505050505b6000610b5d828461249b565b60405163a9059cbb60e01b81526001600160a01b038881166004830152602482018390529192507f00000000000000000000000000000000000000000000000000000000000000009091169063a9059cbb90604401602060405180830381600087803b158015610bcc57600080fd5b505af1158015610be0573d6000803e3d6000fd5b505050506040513d601f19601f82011682018060405250810190610c049190612129565b5060408051828152602081018490526001600160a01b0388169133917fa28d80c9910787c0c058ed9b50c577f1389264bf61563fa45529e0771976f562910160405180910390a3505050610c586001600055565b5050505050565b6001600160a01b0381163314610cd45760405162461bcd60e51b815260206004820152602f60248201527f416363657373436f6e74726f6c3a2063616e206f6e6c792072656e6f756e636560448201526e103937b632b9903337b91039b2b63360891b60648201526084015b60405180910390fd5b610cde82826118f8565b5050565b600081815260046020908152604080832033845290915290205460ff16610d4b5760405162461bcd60e51b815260206004820152601a60248201527f6d73672e73656e64657220213d20726f6c65206e6f6d696e65650000000000006044820152606401610ccb565b610d5781336000611378565b610d61813361191a565b50565b60008281526001602081905260409091200154610d808161136e565b6107f083836000611378565b6000610d966113f0565b610da28585858561193c565b9050610dae6001600055565b949350505050565b6000610dc06113f0565b853515610e98576001600160a01b037f00000000000000000000000000000000000000000000000000000000000000001663d505accf33306000198a35610e0d60408d0160208e0161231b565b604080516001600160e01b031960e089901b1681526001600160a01b0396871660048201529590941660248601526044850192909252606484015260ff16608483015289013560a4820152606089013560c482015260e401600060405180830381600087803b158015610e7f57600080fd5b505af1158015610e93573d6000803e3d6000fd5b505050505b610ea48585858561193c565b9050610eb06001600055565b95945050505050565b600081815260036020526040902054610ed18161136e565b600082815260036020526040902054610eeb908390611c92565b610cde826000611cdf565b6000828152600260205260408120610f0e9083611d3a565b9392505050565b60009182526001602090815260408084206001600160a01b0393909316845291905290205460ff1690565b7f6277df547c9740e5c99a69c4bb32861284d2c5d224317168740012fdee5e7989610f6a8161136e565b7f000000000000000000000000000000000000000000000000000000000000000060055411610fac5760405163262b753160e21b815260040160405180910390fd5b7f0000000000000000000000000000000000000000000000000000000000000000821015610fed57604051631118fbc760e21b815260040160405180910390fd5b7f000000000000000000000000000000000000000000000000000000000000000082111561102e576040516374b015ad60e11b815260040160405180910390fd5b60058290556040518281527ff5a9597b2040ee4886f0ddfdab78b03fb09f3bbf04edde66d81f3b9f07e2f5c09060200160405180910390a15050565b60008181526002602052604081206106e590611d46565b6000828152600160208190526040909120015461109d8161136e565b6107f08383611cdf565b60405163023aa9ab60e61b815230600482015260009081907f00000000000000000000000000000000000000000000000000000000000000006001600160a01b031690638eaa6ac09060240160206040518083038186803b15801561110b57600080fd5b505afa15801561111f573d6000803e3d6000fd5b505050506040513d601f19601f820116820180604052508101906111439190612259565b9050801561116457600019811461115a578061115d565b60005b91506111ff565b60405163023aa9ab60e61b8152600481018490527f00000000000000000000000000000000000000000000000000000000000000006001600160a01b031690638eaa6ac09060240160206040518083038186803b1580156111c457600080fd5b505afa1580156111d8573d6000803e3d6000fd5b505050506040513d601f19601f820116820180604052508101906111fc9190612259565b91505b620186a082111561121157620186a091505b50919050565b600082815260016020819052604090912001546112338161136e565b6107f083836118f8565b6112478282610f15565b15610cde5760008281526001602090815260408083206001600160a01b0385168085529252808320805460ff1916905551339285917ff6391f5c32d9c69d2a47ea670b442974b53935d1edc7fd64eb21e047a839171b9190a45050565b6000610f0e836001600160a01b038416611d50565b6112c38282610f15565b610cde5760008281526001602081815260408084206001600160a01b0386168086529252808420805460ff19169093179092559051339285917f2f8788117e7eff1d82e926ec794901d17c78024a50270940304540a733656f0d9190a45050565b6000610f0e836001600160a01b038416611e43565b60006001600160e01b03198216637965db0b60e01b14806106e557506301ffc9a760e01b6001600160e01b03198316146106e5565b610d618133611e92565b60008381526004602090815260408083206001600160a01b03861680855290835292819020805460ff19168515159081179091558151878152928301939093528101919091527fd4eaea07a6439b4db5273291dd4d77f204d9eaf0d67149318c911f449f3df5d69060600160405180910390a1505050565b600260005414156114435760405162461bcd60e51b815260206004820152601f60248201527f5265656e7472616e637947756172643a207265656e7472616e742063616c6c006044820152606401610ccb565b6002600055565b60405163023aa9ab60e61b81526004810187905260009081906001600160a01b037f00000000000000000000000000000000000000000000000000000000000000001690638eaa6ac09060240160206040518083038186803b1580156114af57600080fd5b505afa1580156114c3573d6000803e3d6000fd5b505050506040513d601f19601f820116820180604052508101906114e7919061210c565b90506001600160a01b0381166115015760009150506118ee565b600061150c886110a7565b9050806115a4578661153157604051632006714760e01b815260040160405180910390fd5b604051631a04f3b560e21b81526001600160a01b03831690636813ced4906115679033908a908c9081908c908c906004016123b3565b600060405180830381600087803b15801561158157600080fd5b505af1158015611595573d6000803e3d6000fd5b505050506000925050506118ee565b6000620f42406115b4838a61247c565b6115be919061245a565b9050806115de576040516375e4ec8360e01b815260040160405180910390fd5b60405163095ea7b360e01b81526001600160a01b038481166004830152602482018390527f0000000000000000000000000000000000000000000000000000000000000000169063095ea7b390604401602060405180830381600087803b15801561164857600080fd5b505af115801561165c573d6000803e3d6000fd5b505050506040513d601f19601f820116820180604052508101906116809190612129565b50604051636eb1769f60e11b81523060048201526001600160a01b0384811660248301526000917f00000000000000000000000000000000000000000000000000000000000000009091169063dd62ed3e9060440160206040518083038186803b1580156116ed57600080fd5b505afa158015611701573d6000803e3d6000fd5b505050506040513d601f19601f820116820180604052508101906117259190612259565b90506001600160a01b038416636813ced4338a8c611743878261249b565b8c8c6040518763ffffffff1660e01b8152600401611766969594939291906123b3565b600060405180830381600087803b15801561178057600080fd5b505af1158015611794573d6000803e3d6000fd5b5050604051636eb1769f60e11b81523060048201526001600160a01b0387811660248301527f000000000000000000000000000000000000000000000000000000000000000016925063dd62ed3e915060440160206040518083038186803b1580156117ff57600080fd5b505afa158015611813573d6000803e3d6000fd5b505050506040513d601f19601f820116820180604052508101906118379190612259565b611841908261249b565b60405163095ea7b360e01b81526001600160a01b038681166004830152600060248301529196507f00000000000000000000000000000000000000000000000000000000000000009091169063095ea7b390604401602060405180830381600087803b1580156118b057600080fd5b505af11580156118c4573d6000803e3d6000fd5b505050506040513d601f19601f820116820180604052508101906118e89190612129565b50505050505b9695505050505050565b611902828261123d565b60008281526002602052604090206107f090826112a4565b61192482826112b9565b60008281526002602052604090206107f09082611324565b60007f0000000000000000000000000000000000000000000000000000000000000000600554116119805760405163262b753160e21b815260040160405180910390fd5b6040516370a0823160e01b81523360048201527f00000000000000000000000000000000000000000000000000000000000000006001600160a01b0316906370a082319060240160206040518083038186803b1580156119df57600080fd5b505afa1580156119f3573d6000803e3d6000fd5b505050506040513d601f19601f82011682018060405250810190611a179190612259565b851115611a3757604051633a23d82560e01b815260040160405180910390fd5b6040516323b872dd60e01b8152336004820152306024820152604481018690527f00000000000000000000000000000000000000000000000000000000000000006001600160a01b0316906323b872dd90606401602060405180830381600087803b158015611aa557600080fd5b505af1158015611ab9573d6000803e3d6000fd5b505050506040513d601f19601f82011682018060405250810190611add9190612129565b506000611b2e7fe3b8046d7e6959c2d85a97e02cad9b35438693e986956269362f56ca081916987f146f48974fc095fc7e77b15586006eb4b8b4d0d4f840a96e8258529bcfb6c5eb8888888861144a565b9050611b3a818761249b565b6040516340c10f1960e01b81526001600160a01b038781166004830152602482018390529193507f0000000000000000000000000000000000000000000000000000000000000000909116906340c10f1990604401600060405180830381600087803b158015611ba957600080fd5b505af1158015611bbd573d6000803e3d6000fd5b50506040516340c10f1960e01b81526001600160a01b038881166004830152602482018690527f00000000000000000000000000000000000000000000000000000000000000001692506340c10f199150604401600060405180830381600087803b158015611c2b57600080fd5b505af1158015611c3f573d6000803e3d6000fd5b505060408051858152602081018590526001600160a01b03891693503392507f2f00e3cdd69a77be7ed215ec7b2a36784dd158f921fca79ac29deffa353fe6ee910160405180910390a350949350505050565b6000828152600160208190526040808320909101805490849055905190918391839186917fbd79b86ffe0ab8e8776151514217cd7cacd52c909f66475c3af44e129f0b00ff9190a4505050565b6000828152600360209081526040918290205482519081529081018390527fb7f84e320be67bd09b884f0142b70ae1256025837c61650411a58567f9137c5d910160405180910390a160009182526003602052604090912055565b6000610f0e8383611eeb565b60006106e5825490565b60008181526001830160205260408120548015611e39576000611d7460018361249b565b8554909150600090611d889060019061249b565b9050818114611ded576000866000018281548110611da857611da8612525565b9060005260206000200154905080876000018481548110611dcb57611dcb612525565b6000918252602080832090910192909255918252600188019052604090208390555b8554869080611dfe57611dfe61250f565b6001900381819060005260206000200160009055905585600101600086815260200190815260200160002060009055600193505050506106e5565b60009150506106e5565b6000818152600183016020526040812054611e8a575081546001818101845560008481526020808220909301849055845484825282860190935260409020919091556106e5565b5060006106e5565b611e9c8282610f15565b610cde57611ea981611f15565b611eb4836020611f27565b604051602001611ec592919061233e565b60408051601f198184030181529082905262461bcd60e51b8252610ccb9160040161240f565b6000826000018281548110611f0257611f02612525565b9060005260206000200154905092915050565b60606106e56001600160a01b03831660145b60606000611f3683600261247c565b611f41906002612442565b67ffffffffffffffff811115611f5957611f5961253b565b6040519080825280601f01601f191660200182016040528015611f83576020820181803683370190505b509050600360fc1b81600081518110611f9e57611f9e612525565b60200101906001600160f81b031916908160001a905350600f60fb1b81600181518110611fcd57611fcd612525565b60200101906001600160f81b031916908160001a9053506000611ff184600261247c565b611ffc906001612442565b90505b6001811115612074576f181899199a1a9b1b9c1cb0b131b232b360811b85600f166010811061203057612030612525565b1a60f81b82828151811061204657612046612525565b60200101906001600160f81b031916908160001a90535060049490941c9361206d816124e2565b9050611fff565b508315610f0e5760405162461bcd60e51b815260206004820181905260248201527f537472696e67733a20686578206c656e67746820696e73756666696369656e746044820152606401610ccb565b60008083601f8401126120d557600080fd5b50813567ffffffffffffffff8111156120ed57600080fd5b60208301915083602082850101111561210557600080fd5b9250929050565b60006020828403121561211e57600080fd5b8151610f0e81612551565b60006020828403121561213b57600080fd5b81518015158114610f0e57600080fd5b60006020828403121561215d57600080fd5b5035919050565b6000806040838503121561217757600080fd5b82359150602083013561218981612551565b809150509250929050565b600080604083850312156121a757600080fd5b50508035926020909101359150565b6000602082840312156121c857600080fd5b81356001600160e01b031981168114610f0e57600080fd5b600080600080600085870360e08112156121f957600080fd5b608081121561220757600080fd5b508594506080860135935060a086013561222081612551565b925060c086013567ffffffffffffffff81111561223c57600080fd5b612248888289016120c3565b969995985093965092949392505050565b60006020828403121561226b57600080fd5b5051919050565b6000806000806060858703121561228857600080fd5b84359350602085013561229a81612551565b9250604085013567ffffffffffffffff8111156122b657600080fd5b6122c2878288016120c3565b95989497509550505050565b6000806000806000608086880312156122e657600080fd5b853594506020860135935060408601356122ff81612551565b9250606086013567ffffffffffffffff81111561223c57600080fd5b60006020828403121561232d57600080fd5b813560ff81168114610f0e57600080fd5b7f416363657373436f6e74726f6c3a206163636f756e74200000000000000000008152600083516123768160178501602088016124b2565b7001034b99036b4b9b9b4b733903937b6329607d1b60179184019182015283516123a78160288401602088016124b2565b01602801949350505050565b6001600160a01b03878116825286166020820152604081018590526060810184905260a06080820181905281018290526000828460c0840137600060c0848401015260c0601f19601f8501168301019050979650505050505050565b602081526000825180602084015261242e8160408501602087016124b2565b601f01601f19169190910160400192915050565b60008219821115612455576124556124f9565b500190565b60008261247757634e487b7160e01b600052601260045260246000fd5b500490565b6000816000190483118215151615612496576124966124f9565b500290565b6000828210156124ad576124ad6124f9565b500390565b60005b838110156124cd5781810151838201526020016124b5565b838111156124dc576000848401525b50505050565b6000816124f1576124f16124f9565b506000190190565b634e487b7160e01b600052601160045260246000fd5b634e487b7160e01b600052603160045260246000fd5b634e487b7160e01b600052603260045260246000fd5b634e487b7160e01b600052604160045260246000fd5b6001600160a01b0381168114610d6157600080fdfea26469706673582212208d1fd10dab64bef7b86df4743eaebe7801d72f2fcee9840922cea5839e4be7e664736f6c634300080700336101406040523480156200001257600080fd5b506040516200172b3803806200172b8339810160408190526200003591620002eb565b8180604051806040016040528060018152602001603160f81b815250848481600390805190602001906200006b9291906200018e565b508051620000819060049060208401906200018e565b5050825160208085019190912083518483012060e08290526101008190524660a0818152604080517f8b73c3c69bb8fe3d512ecc4cf759cc79239f7b179b0ffacaa9a75d522b39400f81880181905281830187905260608201869052608082019490945230818401528151808203909301835260c0019052805194019390932091935091906080523060601b60c05261012052506200013093506200012a925050620001389050565b6200013c565b5050620003a8565b3390565b600780546001600160a01b038381166001600160a01b0319831681179093556040519116919082907f8be0079c531659141344cd1fd0a4f28419497f9722a3daafe3b4186f6b6457e090600090a35050565b8280546200019c9062000355565b90600052602060002090601f016020900481019282620001c057600085556200020b565b82601f10620001db57805160ff19168380011785556200020b565b828001600101855582156200020b579182015b828111156200020b578251825591602001919060010190620001ee565b50620002199291506200021d565b5090565b5b808211156200021957600081556001016200021e565b600082601f8301126200024657600080fd5b81516001600160401b038082111562000263576200026362000392565b604051601f8301601f19908116603f011681019082821181831017156200028e576200028e62000392565b81604052838152602092508683858801011115620002ab57600080fd5b600091505b83821015620002cf5785820183015181830184015290820190620002b0565b83821115620002e15760008385830101525b9695505050505050565b60008060408385031215620002ff57600080fd5b82516001600160401b03808211156200031757600080fd5b620003258683870162000234565b935060208501519150808211156200033c57600080fd5b506200034b8582860162000234565b9150509250929050565b600181811c908216806200036a57607f821691505b602082108114156200038c57634e487b7160e01b600052602260045260246000fd5b50919050565b634e487b7160e01b600052604160045260246000fd5b60805160a05160c05160601c60e0516101005161012051611330620003fb6000396000610ad501526000610b2401526000610aff01526000610a5801526000610a8201526000610aac01526113306000f3fe608060405234801561001057600080fd5b506004361061012c5760003560e01c8063715018a6116100ad578063a457c2d711610071578063a457c2d714610268578063a9059cbb1461027b578063d505accf1461028e578063dd62ed3e146102a1578063f2fde38b146102b457600080fd5b8063715018a61461021257806379cc67901461021a5780637ecebe001461022d5780638da5cb5b1461024057806395d89b411461026057600080fd5b80633644e515116100f45780633644e515146101a657806339509351146101ae57806340c10f19146101c157806342966c68146101d657806370a08231146101e957600080fd5b806306fdde0314610131578063095ea7b31461014f57806318160ddd1461017257806323b872dd14610184578063313ce56714610197575b600080fd5b6101396102c7565b6040516101469190611234565b60405180910390f35b61016261015d3660046111f1565b610359565b6040519015158152602001610146565b6002545b604051908152602001610146565b610162610192366004611142565b610371565b60405160128152602001610146565b610176610395565b6101626101bc3660046111f1565b6103a4565b6101d46101cf3660046111f1565b6103c6565b005b6101d46101e436600461121b565b6103dc565b6101766101f73660046110ed565b6001600160a01b031660009081526020819052604090205490565b6101d46103e9565b6101d46102283660046111f1565b6103fd565b61017661023b3660046110ed565b610432565b610248610452565b6040516001600160a01b039091168152602001610146565b610139610466565b6101626102763660046111f1565b610475565b6101626102893660046111f1565b6104f5565b6101d461029c36600461117e565b610503565b6101766102af36600461110f565b610667565b6101d46102c23660046110ed565b610692565b6060600380546102d6906112af565b80601f0160208091040260200160405190810160405280929190818152602001828054610302906112af565b801561034f5780601f106103245761010080835404028352916020019161034f565b820191906000526020600020905b81548152906001019060200180831161033257829003601f168201915b5050505050905090565b600033610367818585610708565b5060019392505050565b60003361037f85828561082d565b61038a8585856108a7565b506001949350505050565b600061039f610a4b565b905090565b6000336103678185856103b78383610667565b6103c19190611289565b610708565b6103ce610b72565b6103d88282610bd1565b5050565b6103e63382610c90565b50565b6103f1610b72565b6103fb6000610dba565b565b610405610452565b6001600160a01b0316336001600160a01b03161415610428576103d88282610c90565b6103d88282610e0c565b6001600160a01b0381166000908152600560205260408120545b92915050565b600061039f6007546001600160a01b031690565b6060600480546102d6906112af565b600033816104838286610667565b9050838110156104e85760405162461bcd60e51b815260206004820152602560248201527f45524332303a2064656372656173656420616c6c6f77616e63652062656c6f77604482015264207a65726f60d81b60648201526084015b60405180910390fd5b61038a8286868403610708565b6000336103678185856108a7565b834211156105535760405162461bcd60e51b815260206004820152601d60248201527f45524332305065726d69743a206578706972656420646561646c696e6500000060448201526064016104df565b60007f6e71edae12b1b97f4d1f60370fef10105fa2faae0126114a169c64845d6126c98888886105828c610e21565b6040805160208101969096526001600160a01b0394851690860152929091166060840152608083015260a082015260c0810186905260e00160405160208183030381529060405280519060200120905060006105dd82610e49565b905060006105ed82878787610e97565b9050896001600160a01b0316816001600160a01b0316146106505760405162461bcd60e51b815260206004820152601e60248201527f45524332305065726d69743a20696e76616c6964207369676e6174757265000060448201526064016104df565b61065b8a8a8a610708565b50505050505050505050565b6001600160a01b03918216600090815260016020908152604080832093909416825291909152205490565b61069a610b72565b6001600160a01b0381166106ff5760405162461bcd60e51b815260206004820152602660248201527f4f776e61626c653a206e6577206f776e657220697320746865207a65726f206160448201526564647265737360d01b60648201526084016104df565b6103e681610dba565b6001600160a01b03831661076a5760405162461bcd60e51b8152602060048201526024808201527f45524332303a20617070726f76652066726f6d20746865207a65726f206164646044820152637265737360e01b60648201526084016104df565b6001600160a01b0382166107cb5760405162461bcd60e51b815260206004820152602260248201527f45524332303a20617070726f766520746f20746865207a65726f206164647265604482015261737360f01b60648201526084016104df565b6001600160a01b0383811660008181526001602090815260408083209487168084529482529182902085905590518481527f8c5be1e5ebec7d5bd14f71427d1e84f3dd0314c0f7b2291e5b200ac8c7c3b92591015b60405180910390a3505050565b60006108398484610667565b905060001981146108a157818110156108945760405162461bcd60e51b815260206004820152601d60248201527f45524332303a20696e73756666696369656e7420616c6c6f77616e636500000060448201526064016104df565b6108a18484848403610708565b50505050565b6001600160a01b03831661090b5760405162461bcd60e51b815260206004820152602560248201527f45524332303a207472616e736665722066726f6d20746865207a65726f206164604482015264647265737360d81b60648201526084016104df565b6001600160a01b03821661096d5760405162461bcd60e51b815260206004820152602360248201527f45524332303a207472616e7366657220746f20746865207a65726f206164647260448201526265737360e81b60648201526084016104df565b6001600160a01b038316600090815260208190526040902054818110156109e55760405162461bcd60e51b815260206004820152602660248201527f45524332303a207472616e7366657220616d6f756e7420657863656564732062604482015265616c616e636560d01b60648201526084016104df565b6001600160a01b03848116600081815260208181526040808320878703905593871680835291849020805487019055925185815290927fddf252ad1be2c89b69c2b068fc378daa952ba7f163c4a11628f55a4df523b3ef910160405180910390a36108a1565b6000306001600160a01b037f000000000000000000000000000000000000000000000000000000000000000016148015610aa457507f000000000000000000000000000000000000000000000000000000000000000046145b15610ace57507f000000000000000000000000000000000000000000000000000000000000000090565b50604080517f00000000000000000000000000000000000000000000000000000000000000006020808301919091527f0000000000000000000000000000000000000000000000000000000000000000828401527f000000000000000000000000000000000000000000000000000000000000000060608301524660808301523060a0808401919091528351808403909101815260c0909201909252805191012090565b33610b7b610452565b6001600160a01b0316146103fb5760405162461bcd60e51b815260206004820181905260248201527f4f776e61626c653a2063616c6c6572206973206e6f7420746865206f776e657260448201526064016104df565b6001600160a01b038216610c275760405162461bcd60e51b815260206004820152601f60248201527f45524332303a206d696e7420746f20746865207a65726f20616464726573730060448201526064016104df565b8060026000828254610c399190611289565b90915550506001600160a01b038216600081815260208181526040808320805486019055518481527fddf252ad1be2c89b69c2b068fc378daa952ba7f163c4a11628f55a4df523b3ef910160405180910390a35050565b6001600160a01b038216610cf05760405162461bcd60e51b815260206004820152602160248201527f45524332303a206275726e2066726f6d20746865207a65726f206164647265736044820152607360f81b60648201526084016104df565b6001600160a01b03821660009081526020819052604090205481811015610d645760405162461bcd60e51b815260206004820152602260248201527f45524332303a206275726e20616d6f756e7420657863656564732062616c616e604482015261636560f01b60648201526084016104df565b6001600160a01b0383166000818152602081815260408083208686039055600280548790039055518581529192917fddf252ad1be2c89b69c2b068fc378daa952ba7f163c4a11628f55a4df523b3ef9101610820565b600780546001600160a01b038381166001600160a01b0319831681179093556040519116919082907f8be0079c531659141344cd1fd0a4f28419497f9722a3daafe3b4186f6b6457e090600090a35050565b610e1782338361082d565b6103d88282610c90565b6001600160a01b03811660009081526005602052604090208054600181018255905b50919050565b600061044c610e56610a4b565b8360405161190160f01b6020820152602281018390526042810182905260009060620160405160208183030381529060405280519060200120905092915050565b6000806000610ea887878787610ebf565b91509150610eb581610f83565b5095945050505050565b6000807f7fffffffffffffffffffffffffffffff5d576e7357a4501ddfe92f46681b20a0831115610ef65750600090506003610f7a565b6040805160008082526020820180845289905260ff881692820192909252606081018690526080810185905260019060a0016020604051602081039080840390855afa158015610f4a573d6000803e3d6000fd5b5050604051601f1901519150506001600160a01b038116610f7357600060019250925050610f7a565b9150600090505b94509492505050565b6000816004811115610f9757610f976112e4565b1415610fa05750565b6001816004811115610fb457610fb46112e4565b14156110025760405162461bcd60e51b815260206004820152601860248201527f45434453413a20696e76616c6964207369676e6174757265000000000000000060448201526064016104df565b6002816004811115611016576110166112e4565b14156110645760405162461bcd60e51b815260206004820152601f60248201527f45434453413a20696e76616c6964207369676e6174757265206c656e6774680060448201526064016104df565b6003816004811115611078576110786112e4565b14156103e65760405162461bcd60e51b815260206004820152602260248201527f45434453413a20696e76616c6964207369676e6174757265202773272076616c604482015261756560f01b60648201526084016104df565b80356001600160a01b03811681146110e857600080fd5b919050565b6000602082840312156110ff57600080fd5b611108826110d1565b9392505050565b6000806040838503121561112257600080fd5b61112b836110d1565b9150611139602084016110d1565b90509250929050565b60008060006060848603121561115757600080fd5b611160846110d1565b925061116e602085016110d1565b9150604084013590509250925092565b600080600080600080600060e0888a03121561119957600080fd5b6111a2886110d1565b96506111b0602089016110d1565b95506040880135945060608801359350608088013560ff811681146111d457600080fd5b9699959850939692959460a0840135945060c09093013592915050565b6000806040838503121561120457600080fd5b61120d836110d1565b946020939093013593505050565b60006020828403121561122d57600080fd5b5035919050565b600060208083528351808285015260005b8181101561126157858101830151858201604001528201611245565b81811115611273576000604083870101525b50601f01601f1916929092016040019392505050565b600082198211156112aa57634e487b7160e01b600052601160045260246000fd5b500190565b600181811c908216806112c357607f821691505b60208210811415610e4357634e487b7160e01b600052602260045260246000fd5b634e487b7160e01b600052602160045260246000fdfea2646970667358221220966b30691582f0f1e994d4be86388219b7102c213078aafb9a85c84bcede701964736f6c63430008070033a264697066735822122065ac8c4ba9f5587cb0f7f488e1d733748a79bc9e57b5342f3b52969f81f33e3c64736f6c63430008070033",
  "devdoc": {
    "kind": "dev",
    "methods": {
      "acceptOwnership()": {
        "details": "Only callable by the current nominee. Sets nominee back to zero address."
      },
      "getNominee()": {
        "returns": {
          "_0": "The current nominee"
        }
      },
      "owner()": {
        "details": "Returns the address of the current owner."
      }
    },
    "version": 1
  },
  "userdoc": {
    "kind": "user",
    "methods": {
      "acceptOwnership()": {
        "notice": "Accepts ownership nomination."
      }
    },
    "version": 1
  },
  "storageLayout": {
    "storage": [
      {
        "astId": 5045,
        "contract": "contracts/PrePOMarketFactory.sol:PrePOMarketFactory",
        "label": "_status",
        "offset": 0,
        "slot": "0",
        "type": "t_uint256"
      },
      {
        "astId": 4929,
        "contract": "contracts/PrePOMarketFactory.sol:PrePOMarketFactory",
        "label": "_owner",
        "offset": 0,
        "slot": "1",
        "type": "t_address"
      },
      {
        "astId": 20063,
        "contract": "contracts/PrePOMarketFactory.sol:PrePOMarketFactory",
        "label": "_nominee",
        "offset": 0,
        "slot": "2",
        "type": "t_address"
      },
      {
        "astId": 15715,
        "contract": "contracts/PrePOMarketFactory.sol:PrePOMarketFactory",
        "label": "_addressBeacon",
        "offset": 0,
        "slot": "3",
        "type": "t_contract(IAddressBeacon)20547"
      },
      {
        "astId": 15718,
        "contract": "contracts/PrePOMarketFactory.sol:PrePOMarketFactory",
        "label": "_uintBeacon",
        "offset": 0,
        "slot": "4",
        "type": "t_contract(IUintBeacon)20978"
      }
    ],
    "types": {
      "t_address": {
        "encoding": "inplace",
        "label": "address",
        "numberOfBytes": "20"
      },
      "t_contract(IAddressBeacon)20547": {
        "encoding": "inplace",
        "label": "contract IAddressBeacon",
        "numberOfBytes": "20"
      },
      "t_contract(IUintBeacon)20978": {
        "encoding": "inplace",
        "label": "contract IUintBeacon",
        "numberOfBytes": "20"
      },
      "t_uint256": {
        "encoding": "inplace",
        "label": "uint256",
        "numberOfBytes": "32"
      }
    }
  }
}