{
  "address": "0x28e2031598Bb491D5a34c2ED02c83cC15CeB355E",
  "abi": [
    {
      "inputs": [],
      "stateMutability": "nonpayable",
      "type": "constructor"
    },
    {
      "inputs": [],
      "name": "DepositsNotAllowed",
      "type": "error"
    },
    {
      "inputs": [],
      "name": "InvalidAccount",
      "type": "error"
    },
    {
      "inputs": [],
      "name": "MsgSenderNotCollateral",
      "type": "error"
    },
    {
      "anonymous": false,
      "inputs": [
        {
          "indexed": false,
          "internalType": "contract IAccountList",
          "name": "accountList",
          "type": "address"
        }
      ],
      "name": "AccountListChange",
      "type": "event"
    },
    {
      "anonymous": false,
      "inputs": [
        {
          "indexed": false,
          "internalType": "address",
          "name": "account",
          "type": "address"
        },
        {
          "indexed": false,
          "internalType": "uint256",
          "name": "multiplier",
          "type": "uint256"
        }
      ],
      "name": "AmountMultiplierChange",
      "type": "event"
    },
    {
      "anonymous": false,
      "inputs": [
        {
          "indexed": false,
          "internalType": "address",
          "name": "collateral",
          "type": "address"
        }
      ],
      "name": "CollateralChange",
      "type": "event"
    },
    {
      "anonymous": false,
      "inputs": [
        {
          "indexed": false,
          "internalType": "contract IDepositRecord",
          "name": "depositRecord",
          "type": "address"
        }
      ],
      "name": "DepositRecordChange",
      "type": "event"
    },
    {
      "anonymous": false,
      "inputs": [
        {
          "indexed": false,
          "internalType": "bool",
          "name": "allowed",
          "type": "bool"
        }
      ],
      "name": "DepositsAllowedChange",
      "type": "event"
    },
    {
      "anonymous": false,
      "inputs": [
        {
          "indexed": true,
          "internalType": "bytes32",
          "name": "role",
          "type": "bytes32"
        },
        {
          "indexed": true,
          "internalType": "bytes32",
          "name": "previousAdminRole",
          "type": "bytes32"
        },
        {
          "indexed": true,
          "internalType": "bytes32",
          "name": "newAdminRole",
          "type": "bytes32"
        }
      ],
      "name": "RoleAdminChanged",
      "type": "event"
    },
    {
      "anonymous": false,
      "inputs": [
        {
          "indexed": false,
          "internalType": "bytes32",
          "name": "role",
          "type": "bytes32"
        },
        {
          "indexed": false,
          "internalType": "bytes32",
          "name": "newRoleAdminNominee",
          "type": "bytes32"
        }
      ],
      "name": "RoleAdminNomineeUpdate",
      "type": "event"
    },
    {
      "anonymous": false,
      "inputs": [
        {
          "indexed": true,
          "internalType": "bytes32",
          "name": "role",
          "type": "bytes32"
        },
        {
          "indexed": true,
          "internalType": "address",
          "name": "account",
          "type": "address"
        },
        {
          "indexed": true,
          "internalType": "address",
          "name": "sender",
          "type": "address"
        }
      ],
      "name": "RoleGranted",
      "type": "event"
    },
    {
      "anonymous": false,
      "inputs": [
        {
          "indexed": false,
          "internalType": "bytes32",
          "name": "role",
          "type": "bytes32"
        },
        {
          "indexed": false,
          "internalType": "address",
          "name": "account",
          "type": "address"
        },
        {
          "indexed": false,
          "internalType": "bool",
          "name": "nominated",
          "type": "bool"
        }
      ],
      "name": "RoleNomineeUpdate",
      "type": "event"
    },
    {
      "anonymous": false,
      "inputs": [
        {
          "indexed": true,
          "internalType": "bytes32",
          "name": "role",
          "type": "bytes32"
        },
        {
          "indexed": true,
          "internalType": "address",
          "name": "account",
          "type": "address"
        },
        {
          "indexed": true,
          "internalType": "address",
          "name": "sender",
          "type": "address"
        }
      ],
      "name": "RoleRevoked",
      "type": "event"
    },
    {
      "anonymous": false,
      "inputs": [
        {
          "indexed": false,
          "internalType": "address",
          "name": "sender",
          "type": "address"
        }
      ],
      "name": "TokenSenderChange",
      "type": "event"
    },
    {
      "anonymous": false,
      "inputs": [
        {
          "indexed": false,
          "internalType": "address",
          "name": "treasury",
          "type": "address"
        }
      ],
      "name": "TreasuryChange",
      "type": "event"
    },
    {
      "inputs": [],
      "name": "DEFAULT_ADMIN_ROLE",
      "outputs": [
        {
          "internalType": "bytes32",
          "name": "",
          "type": "bytes32"
        }
      ],
      "stateMutability": "view",
      "type": "function"
    },
    {
      "inputs": [],
      "name": "PERCENT_UNIT",
      "outputs": [
        {
          "internalType": "uint256",
          "name": "",
          "type": "uint256"
        }
      ],
      "stateMutability": "view",
      "type": "function"
    },
    {
      "inputs": [],
      "name": "SET_ACCOUNT_LIST_ROLE",
      "outputs": [
        {
          "internalType": "bytes32",
          "name": "",
          "type": "bytes32"
        }
      ],
      "stateMutability": "view",
      "type": "function"
    },
    {
      "inputs": [],
      "name": "SET_AMOUNT_MULTIPLIER_ROLE",
      "outputs": [
        {
          "internalType": "bytes32",
          "name": "",
          "type": "bytes32"
        }
      ],
      "stateMutability": "view",
      "type": "function"
    },
    {
      "inputs": [],
      "name": "SET_COLLATERAL_ROLE",
      "outputs": [
        {
          "internalType": "bytes32",
          "name": "",
          "type": "bytes32"
        }
      ],
      "stateMutability": "view",
      "type": "function"
    },
    {
      "inputs": [],
      "name": "SET_DEPOSITS_ALLOWED_ROLE",
      "outputs": [
        {
          "internalType": "bytes32",
          "name": "",
          "type": "bytes32"
        }
      ],
      "stateMutability": "view",
      "type": "function"
    },
    {
      "inputs": [],
      "name": "SET_DEPOSIT_RECORD_ROLE",
      "outputs": [
        {
          "internalType": "bytes32",
          "name": "",
          "type": "bytes32"
        }
      ],
      "stateMutability": "view",
      "type": "function"
    },
    {
      "inputs": [],
      "name": "SET_TOKEN_SENDER_ROLE",
      "outputs": [
        {
          "internalType": "bytes32",
          "name": "",
          "type": "bytes32"
        }
      ],
      "stateMutability": "view",
      "type": "function"
    },
    {
      "inputs": [],
      "name": "SET_TREASURY_ROLE",
      "outputs": [
        {
          "internalType": "bytes32",
          "name": "",
          "type": "bytes32"
        }
      ],
      "stateMutability": "view",
      "type": "function"
    },
    {
      "inputs": [
        {
          "internalType": "bytes32",
          "name": "role",
          "type": "bytes32"
        }
      ],
      "name": "acceptRole",
      "outputs": [],
      "stateMutability": "nonpayable",
      "type": "function"
    },
    {
      "inputs": [
        {
          "internalType": "bytes32",
          "name": "role",
          "type": "bytes32"
        }
      ],
      "name": "acceptRoleAdmin",
      "outputs": [],
      "stateMutability": "nonpayable",
      "type": "function"
    },
    {
      "inputs": [],
      "name": "getAccountList",
      "outputs": [
        {
          "internalType": "contract IAccountList",
          "name": "",
          "type": "address"
        }
      ],
      "stateMutability": "view",
      "type": "function"
    },
    {
      "inputs": [
        {
          "internalType": "address",
          "name": "account",
          "type": "address"
        }
      ],
      "name": "getAmountMultiplier",
      "outputs": [
        {
          "internalType": "uint256",
          "name": "",
          "type": "uint256"
        }
      ],
      "stateMutability": "view",
      "type": "function"
    },
    {
      "inputs": [],
      "name": "getCollateral",
      "outputs": [
        {
          "internalType": "contract ICollateral",
          "name": "",
          "type": "address"
        }
      ],
      "stateMutability": "view",
      "type": "function"
    },
    {
      "inputs": [],
      "name": "getDepositRecord",
      "outputs": [
        {
          "internalType": "contract IDepositRecord",
          "name": "",
          "type": "address"
        }
      ],
      "stateMutability": "view",
      "type": "function"
    },
    {
      "inputs": [],
      "name": "getDepositsAllowed",
      "outputs": [
        {
          "internalType": "bool",
          "name": "",
          "type": "bool"
        }
      ],
      "stateMutability": "view",
      "type": "function"
    },
    {
      "inputs": [
        {
          "internalType": "bytes32",
          "name": "role",
          "type": "bytes32"
        }
      ],
      "name": "getRoleAdmin",
      "outputs": [
        {
          "internalType": "bytes32",
          "name": "",
          "type": "bytes32"
        }
      ],
      "stateMutability": "view",
      "type": "function"
    },
    {
      "inputs": [
        {
          "internalType": "bytes32",
          "name": "role",
          "type": "bytes32"
        }
      ],
      "name": "getRoleAdminNominee",
      "outputs": [
        {
          "internalType": "bytes32",
          "name": "",
          "type": "bytes32"
        }
      ],
      "stateMutability": "view",
      "type": "function"
    },
    {
      "inputs": [
        {
          "internalType": "bytes32",
          "name": "role",
          "type": "bytes32"
        },
        {
          "internalType": "uint256",
          "name": "index",
          "type": "uint256"
        }
      ],
      "name": "getRoleMember",
      "outputs": [
        {
          "internalType": "address",
          "name": "",
          "type": "address"
        }
      ],
      "stateMutability": "view",
      "type": "function"
    },
    {
      "inputs": [
        {
          "internalType": "bytes32",
          "name": "role",
          "type": "bytes32"
        }
      ],
      "name": "getRoleMemberCount",
      "outputs": [
        {
          "internalType": "uint256",
          "name": "",
          "type": "uint256"
        }
      ],
      "stateMutability": "view",
      "type": "function"
    },
    {
      "inputs": [],
      "name": "getTokenSender",
      "outputs": [
        {
          "internalType": "contract ITokenSender",
          "name": "",
          "type": "address"
        }
      ],
      "stateMutability": "view",
      "type": "function"
    },
    {
      "inputs": [],
      "name": "getTreasury",
      "outputs": [
        {
          "internalType": "address",
          "name": "",
          "type": "address"
        }
      ],
      "stateMutability": "view",
      "type": "function"
    },
    {
      "inputs": [
        {
          "internalType": "bytes32",
          "name": "role",
          "type": "bytes32"
        },
        {
          "internalType": "address",
          "name": "account",
          "type": "address"
        }
      ],
      "name": "grantRole",
      "outputs": [],
      "stateMutability": "nonpayable",
      "type": "function"
    },
    {
      "inputs": [
        {
          "internalType": "bytes32",
          "name": "role",
          "type": "bytes32"
        },
        {
          "internalType": "address",
          "name": "account",
          "type": "address"
        }
      ],
      "name": "hasRole",
      "outputs": [
        {
          "internalType": "bool",
          "name": "",
          "type": "bool"
        }
      ],
      "stateMutability": "view",
      "type": "function"
    },
    {
      "inputs": [
        {
          "internalType": "address",
          "name": "",
          "type": "address"
        },
        {
          "internalType": "address",
          "name": "recipient",
          "type": "address"
        },
        {
          "internalType": "uint256",
          "name": "amountBeforeFee",
          "type": "uint256"
        },
        {
          "internalType": "uint256",
          "name": "amountAfterFee",
          "type": "uint256"
        },
        {
          "internalType": "bytes",
          "name": "",
          "type": "bytes"
        }
      ],
      "name": "hook",
      "outputs": [],
      "stateMutability": "nonpayable",
      "type": "function"
    },
    {
      "inputs": [
        {
          "internalType": "address",
          "name": "",
          "type": "address"
        },
        {
          "internalType": "address",
          "name": "recipient",
          "type": "address"
        },
        {
          "internalType": "uint256",
          "name": "amountBeforeFee",
          "type": "uint256"
        },
        {
          "internalType": "uint256",
          "name": "amountAfterFee",
          "type": "uint256"
        }
      ],
      "name": "hook",
      "outputs": [],
      "stateMutability": "nonpayable",
      "type": "function"
    },
    {
      "inputs": [
        {
          "internalType": "bytes32",
          "name": "role",
          "type": "bytes32"
        },
        {
          "internalType": "address",
          "name": "account",
          "type": "address"
        }
      ],
      "name": "isNominated",
      "outputs": [
        {
          "internalType": "bool",
          "name": "",
          "type": "bool"
        }
      ],
      "stateMutability": "view",
      "type": "function"
    },
    {
      "inputs": [
        {
          "internalType": "bytes32",
          "name": "role",
          "type": "bytes32"
        },
        {
          "internalType": "address",
          "name": "account",
          "type": "address"
        }
      ],
      "name": "renounceRole",
      "outputs": [],
      "stateMutability": "nonpayable",
      "type": "function"
    },
    {
      "inputs": [
        {
          "internalType": "bytes32",
          "name": "role",
          "type": "bytes32"
        },
        {
          "internalType": "address",
          "name": "account",
          "type": "address"
        }
      ],
      "name": "revokeNomination",
      "outputs": [],
      "stateMutability": "nonpayable",
      "type": "function"
    },
    {
      "inputs": [
        {
          "internalType": "bytes32",
          "name": "role",
          "type": "bytes32"
        },
        {
          "internalType": "address",
          "name": "account",
          "type": "address"
        }
      ],
      "name": "revokeRole",
      "outputs": [],
      "stateMutability": "nonpayable",
      "type": "function"
    },
    {
      "inputs": [
        {
          "internalType": "contract IAccountList",
          "name": "accountList",
          "type": "address"
        }
      ],
      "name": "setAccountList",
      "outputs": [],
      "stateMutability": "nonpayable",
      "type": "function"
    },
    {
      "inputs": [
        {
          "internalType": "address",
          "name": "account",
          "type": "address"
        },
        {
          "internalType": "uint256",
          "name": "amountMultiplier",
          "type": "uint256"
        }
      ],
      "name": "setAmountMultiplier",
      "outputs": [],
      "stateMutability": "nonpayable",
      "type": "function"
    },
    {
      "inputs": [
        {
          "internalType": "contract ICollateral",
          "name": "collateral",
          "type": "address"
        }
      ],
      "name": "setCollateral",
      "outputs": [],
      "stateMutability": "nonpayable",
      "type": "function"
    },
    {
      "inputs": [
        {
          "internalType": "contract IDepositRecord",
          "name": "depositRecord",
          "type": "address"
        }
      ],
      "name": "setDepositRecord",
      "outputs": [],
      "stateMutability": "nonpayable",
      "type": "function"
    },
    {
      "inputs": [
        {
          "internalType": "bool",
          "name": "depositsAllowed",
          "type": "bool"
        }
      ],
      "name": "setDepositsAllowed",
      "outputs": [],
      "stateMutability": "nonpayable",
      "type": "function"
    },
    {
      "inputs": [
        {
          "internalType": "bytes32",
          "name": "role",
          "type": "bytes32"
        },
        {
          "internalType": "bytes32",
          "name": "roleAdminNominee",
          "type": "bytes32"
        }
      ],
      "name": "setRoleAdminNominee",
      "outputs": [],
      "stateMutability": "nonpayable",
      "type": "function"
    },
    {
      "inputs": [
        {
          "internalType": "contract ITokenSender",
          "name": "tokenSender",
          "type": "address"
        }
      ],
      "name": "setTokenSender",
      "outputs": [],
      "stateMutability": "nonpayable",
      "type": "function"
    },
    {
      "inputs": [
        {
          "internalType": "address",
          "name": "treasury",
          "type": "address"
        }
      ],
      "name": "setTreasury",
      "outputs": [],
      "stateMutability": "nonpayable",
      "type": "function"
    },
    {
      "inputs": [
        {
          "internalType": "bytes4",
          "name": "interfaceId",
          "type": "bytes4"
        }
      ],
      "name": "supportsInterface",
      "outputs": [
        {
          "internalType": "bool",
          "name": "",
          "type": "bool"
        }
      ],
      "stateMutability": "view",
      "type": "function"
    }
  ],
  "transactionHash": "0x93f7370fe6c38ceb0f2b38a6644221f0b3416800954cfdb2eca00b06cafbd771",
  "args": [],
  "numDeployments": 1,
  "solcInputHash": "28f6de7e1fb5c639ce6bc33576032228",
  "bytecode": "0x60806040523480156200001157600080fd5b506001600355620000246000336200015e565b620000507f69fa7e30d0a933b5cf231c0c7bfb58ba5098b62118a7e5acb78259799e68e589336200016e565b6200007c7faa846091102164c5e21f54b3e3ad83b6a638fdd7025f564e23a465397fbac3d5336200016e565b620000a87f357c24628d3ecfb70f936144a6921732c185d66a24d3a75869fbd9533119835a336200016e565b620000d47f51f0e445b56336263a25d1b6a4bae84f9a4355bb6a8b710d9bde5afb6b69514b336200016e565b620001007fca340be9c865de87d324561df7a6aca1b08da06af6cc85e021e2b5a44c2bef71336200016e565b6200012c7f97d3ebf3736ba04f7144b2608338c5a26ff9a7e2119e9bde25b4463cf8e924fd336200016e565b620001587fa3f9a4ddb4f0094faa188145d8045d8ee03937d3a640f2fdc74166e9e1e53805336200016e565b620002c7565b6200016a82826200016e565b5050565b620001858282620001b160201b620012051760201c565b6000828152600560209081526040909120620001ac9183906200128b62000255821b17901c565b505050565b60008281526004602090815260408083206001600160a01b038516845290915290205460ff166200016a5760008281526004602090815260408083206001600160a01b03851684529091529020805460ff19166001179055620002113390565b6001600160a01b0316816001600160a01b0316837f2f8788117e7eff1d82e926ec794901d17c78024a50270940304540a733656f0d60405160405180910390a45050565b60006200026c836001600160a01b03841662000275565b90505b92915050565b6000818152600183016020526040812054620002be575081546001818101845560008481526020808220909301849055845484825282860190935260409020919091556200026f565b5060006200026f565b611eaf80620002d76000396000f3fe608060405234801561001057600080fd5b506004361061023d5760003560e01c8063886abef51161013b578063ca15c873116100b8578063d8dc02901161007c578063d8dc0290146105b5578063dff6964d146105c8578063e6dab1a8146105ef578063e9bee61714610600578063f0f442601461061357600080fd5b8063ca15c87314610542578063cd0c1d9614610555578063d338107e14610568578063d427cec41461057b578063d547741f146105a257600080fd5b8063a217fddf116100ff578063a217fddf146104dc578063a85cae9f146104e4578063bd94904b146104f5578063bfdbb7be1461051c578063c4a1e98b1461052f57600080fd5b8063886abef51461047e5780638bb06b0b146104915780638dca02c6146104a45780639010d07c146104b657806391d14854146104c957600080fd5b80633b19e84a116101c95780636acfd6731161018d5780636acfd673146103ea5780636d14bd1f146103fd5780637949ffdf146104105780637fe1175f1461043757806380db43291461045e57600080fd5b80633b19e84a1461037257806340163a63146103835780635c1548fb1461038d5780635c449f7c1461039e5780636813ced4146103d757600080fd5b80632f2ff15d116102105780632f2ff15d146102e757806333a41797146102fc57806335eaf7e31461032557806336568abe1461034c57806336fc17871461035f57600080fd5b806301ffc9a714610242578063248a9ca31461026a5780632843314e1461029b5780632b3d5545146102c0575b600080fd5b610255610250366004611c5c565b610626565b60405190151581526020015b60405180910390f35b61028d610278366004611bf1565b60009081526004602052604090206001015490565b604051908152602001610261565b6000546001600160a01b03165b6040516001600160a01b039091168152602001610261565b61028d7fca340be9c865de87d324561df7a6aca1b08da06af6cc85e021e2b5a44c2bef7181565b6102fa6102f5366004611c0a565b610651565b005b61028d61030a366004611a7e565b6001600160a01b031660009081526008602052604090205490565b61028d7faa846091102164c5e21f54b3e3ad83b6a638fdd7025f564e23a465397fbac3d581565b6102fa61035a366004611c0a565b61067d565b6102fa61036d366004611bf1565b610700565b600a546001600160a01b03166102a8565b61028d620f424081565b6001546001600160a01b03166102a8565b6102556103ac366004611c0a565b60009182526007602090815260408084206001600160a01b0393909316845291905290205460ff1690565b6102fa6103e5366004611ae1565b610782565b6102fa6103f8366004611c0a565b610b41565b6102fa61040b366004611a9b565b610b68565b61028d7f51f0e445b56336263a25d1b6a4bae84f9a4355bb6a8b710d9bde5afb6b69514b81565b61028d7fa3f9a4ddb4f0094faa188145d8045d8ee03937d3a640f2fdc74166e9e1e5380581565b61028d61046c366004611bf1565b60009081526006602052604090205490565b6102fa61048c366004611a7e565b610f25565b6102fa61049f366004611bf1565b610f58565b600a54600160a01b900460ff16610255565b6102a86104c4366004611c3a565b610f95565b6102556104d7366004611c0a565b610fb4565b61028d600081565b6002546001600160a01b03166102a8565b61028d7f69fa7e30d0a933b5cf231c0c7bfb58ba5098b62118a7e5acb78259799e68e58981565b6102fa61052a366004611a7e565b610fdf565b6102fa61053d366004611a7e565b611012565b61028d610550366004611bf1565b611045565b6102fa610563366004611c3a565b61105c565b6102fa610576366004611a7e565b611081565b61028d7f97d3ebf3736ba04f7144b2608338c5a26ff9a7e2119e9bde25b4463cf8e924fd81565b6102fa6105b0366004611c0a565b6110b4565b6102fa6105c3366004611b8b565b6110d9565b61028d7f357c24628d3ecfb70f936144a6921732c185d66a24d3a75869fbd9533119835a81565b6009546001600160a01b03166102a8565b6102fa61060e366004611bb7565b61114f565b6102fa610621366004611a7e565b6111d2565b60006001600160e01b03198216635a05180f60e01b148061064b575061064b826112a0565b92915050565b60008281526004602052604090206001015461066c816112d5565b610678838360016112df565b505050565b6001600160a01b03811633146106f25760405162461bcd60e51b815260206004820152602f60248201527f416363657373436f6e74726f6c3a2063616e206f6e6c792072656e6f756e636560448201526e103937b632b9903337b91039b2b63360891b60648201526084015b60405180910390fd5b6106fc8282611357565b5050565b600081815260076020908152604080832033845290915290205460ff166107695760405162461bcd60e51b815260206004820152601a60248201527f6d73672e73656e64657220213d20726f6c65206e6f6d696e656500000000000060448201526064016106e9565b610775813360006112df565b61077f8133611379565b50565b61078a61139b565b6001546001600160a01b031633146107b5576040516307cb78b360e51b815260040160405180910390fd5b600a54600160a01b900460ff166107df5760405163a7b1d0c560e01b815260040160405180910390fd5b6000546001600160a01b03161580159061087157506000546040516304d93ff560e31b81526001600160a01b038781166004830152909116906326c9ffa89060240160206040518083038186803b15801561083957600080fd5b505afa15801561084d573d6000803e3d6000fd5b505050506040513d601f19601f820116820180604052508101906108719190611bd4565b156108e157600254604051630f2bc5d760e11b81526001600160a01b0387811660048301526024820187905290911690631e578bae90604401600060405180830381600087803b1580156108c457600080fd5b505af11580156108d8573d6000803e3d6000fd5b50505050610b2f565b600254604051630f2bc5d760e11b81526001600160a01b0387811660048301526024820186905290911690631e578bae90604401600060405180830381600087803b15801561092f57600080fd5b505af1158015610943573d6000803e3d6000fd5b50505050600083856109559190611da4565b9050806109625750610b2f565b600160009054906101000a90046001600160a01b03166001600160a01b03166398acd7a66040518163ffffffff1660e01b815260040160206040518083038186803b1580156109b057600080fd5b505afa1580156109c4573d6000803e3d6000fd5b505050506040513d601f19601f820116820180604052508101906109e89190611c86565b600154600a546040516323b872dd60e01b81526001600160a01b0392831660048201529082166024820152604481018490529116906323b872dd90606401602060405180830381600087803b158015610a4057600080fd5b505af1158015610a54573d6000803e3d6000fd5b505050506040513d601f19601f82011682018060405250810190610a789190611bd4565b506009546001600160a01b0316610a8f5750610b2f565b33600090815260086020526040812054620f424090610aae9084611d85565b610ab89190611d63565b905080610ac6575050610b2f565b600954604051633419e74d60e21b81526001600160a01b038981166004830152602482018490529091169063d0679d3490604401600060405180830381600087803b158015610b1457600080fd5b505af1158015610b28573d6000803e3d6000fd5b5050505050505b610b396001600355565b505050505050565b600082815260046020526040902060010154610b5c816112d5565b610678838360006112df565b610b7061139b565b6001546001600160a01b03163314610b9b576040516307cb78b360e51b815260040160405180910390fd5b600a54600160a01b900460ff16610bc55760405163a7b1d0c560e01b815260040160405180910390fd5b6000546001600160a01b031615801590610c5757506000546040516304d93ff560e31b81526001600160a01b038581166004830152909116906326c9ffa89060240160206040518083038186803b158015610c1f57600080fd5b505afa158015610c33573d6000803e3d6000fd5b505050506040513d601f19601f82011682018060405250810190610c579190611bd4565b15610cc757600254604051630f2bc5d760e11b81526001600160a01b0385811660048301526024820185905290911690631e578bae90604401600060405180830381600087803b158015610caa57600080fd5b505af1158015610cbe573d6000803e3d6000fd5b50505050610f15565b600254604051630f2bc5d760e11b81526001600160a01b0385811660048301526024820184905290911690631e578bae90604401600060405180830381600087803b158015610d1557600080fd5b505af1158015610d29573d6000803e3d6000fd5b5050505060008183610d3b9190611da4565b905080610d485750610f15565b600160009054906101000a90046001600160a01b03166001600160a01b03166398acd7a66040518163ffffffff1660e01b815260040160206040518083038186803b158015610d9657600080fd5b505afa158015610daa573d6000803e3d6000fd5b505050506040513d601f19601f82011682018060405250810190610dce9190611c86565b600154600a546040516323b872dd60e01b81526001600160a01b0392831660048201529082166024820152604481018490529116906323b872dd90606401602060405180830381600087803b158015610e2657600080fd5b505af1158015610e3a573d6000803e3d6000fd5b505050506040513d601f19601f82011682018060405250810190610e5e9190611bd4565b506009546001600160a01b0316610e755750610f15565b33600090815260086020526040812054620f424090610e949084611d85565b610e9e9190611d63565b905080610eac575050610f15565b600954604051633419e74d60e21b81526001600160a01b038781166004830152602482018490529091169063d0679d3490604401600060405180830381600087803b158015610efa57600080fd5b505af1158015610f0e573d6000803e3d6000fd5b5050505050505b610f1f6001600355565b50505050565b7faa846091102164c5e21f54b3e3ad83b6a638fdd7025f564e23a465397fbac3d5610f4f816112d5565b6106fc826113f5565b600081815260066020526040902054610f70816112d5565b600082815260066020526040902054610f8a90839061144a565b6106fc826000611495565b6000828152600560205260408120610fad90836114f0565b9392505050565b60009182526004602090815260408084206001600160a01b0393909316845291905290205460ff1690565b7fa3f9a4ddb4f0094faa188145d8045d8ee03937d3a640f2fdc74166e9e1e53805611009816112d5565b6106fc826114fc565b7f357c24628d3ecfb70f936144a6921732c185d66a24d3a75869fbd9533119835a61103c816112d5565b6106fc8261154a565b600081815260056020526040812061064b90611598565b600082815260046020526040902060010154611077816112d5565b6106788383611495565b7f69fa7e30d0a933b5cf231c0c7bfb58ba5098b62118a7e5acb78259799e68e5896110ab816112d5565b6106fc826115a2565b6000828152600460205260409020600101546110cf816112d5565b6106788383611357565b7f97d3ebf3736ba04f7144b2608338c5a26ff9a7e2119e9bde25b4463cf8e924fd611103816112d5565b6001600160a01b038316158061112757506001546001600160a01b03848116911614155b1561114557604051630da30f6560e31b815260040160405180910390fd5b61067883836115f0565b7f51f0e445b56336263a25d1b6a4bae84f9a4355bb6a8b710d9bde5afb6b69514b611179816112d5565b600a8054831515600160a01b0260ff60a01b199091161790556040517f6102db823f2616eb15ca2816adc1bc5272b51b15450b65d1c4b2d1d2ab514c20906111c690841515815260200190565b60405180910390a15050565b7fca340be9c865de87d324561df7a6aca1b08da06af6cc85e021e2b5a44c2bef716111fc816112d5565b6106fc82611641565b61120f8282610fb4565b6106fc5760008281526004602090815260408083206001600160a01b03851684529091529020805460ff191660011790556112473390565b6001600160a01b0316816001600160a01b0316837f2f8788117e7eff1d82e926ec794901d17c78024a50270940304540a733656f0d60405160405180910390a45050565b6000610fad836001600160a01b03841661168f565b60006001600160e01b03198216637965db0b60e01b148061064b57506301ffc9a760e01b6001600160e01b031983161461064b565b61077f81336116de565b60008381526007602090815260408083206001600160a01b03861680855290835292819020805460ff19168515159081179091558151878152928301939093528101919091527fd4eaea07a6439b4db5273291dd4d77f204d9eaf0d67149318c911f449f3df5d69060600160405180910390a1505050565b6113618282611737565b6000828152600560205260409020610678908261179e565b6113838282611205565b6000828152600560205260409020610678908261128b565b600260035414156113ee5760405162461bcd60e51b815260206004820152601f60248201527f5265656e7472616e637947756172643a207265656e7472616e742063616c6c0060448201526064016106e9565b6002600355565b600180546001600160a01b0319166001600160a01b0383169081179091556040519081527ff3284c6e8673de2d189baf6ddfffc24826d300bd1767b9ad96325f0edebc7657906020015b60405180910390a150565b600082815260046020526040808220600101805490849055905190918391839186917fbd79b86ffe0ab8e8776151514217cd7cacd52c909f66475c3af44e129f0b00ff9190a4505050565b6000828152600660209081526040918290205482519081529081018390527fb7f84e320be67bd09b884f0142b70ae1256025837c61650411a58567f9137c5d910160405180910390a160009182526006602052604090912055565b6000610fad83836117b3565b600980546001600160a01b0319166001600160a01b0383169081179091556040519081527fc675cdccdd880d63acbe7af916bd9e4b8e8ffc96d4b0e1764619fa064658e93e9060200161143f565b600280546001600160a01b0319166001600160a01b0383169081179091556040519081527f24e473e0668a41393ec884ab1a2903d849b9c98d187fea4e0c19dcda22ce3dc49060200161143f565b600061064b825490565b600080546001600160a01b0319166001600160a01b0383169081179091556040519081527f310aaf5db2aa9335d0aebcc973d03748ed641890df20d89139a312856b5a675c9060200161143f565b6001600160a01b038216600081815260086020908152604091829020849055815192835282018390527fd5ed868d32725cecbd7093a294cc2e71fc63dfbe7a241899218d41a6810fbf5391016111c6565b600a80546001600160a01b0319166001600160a01b0383169081179091556040519081527f1ac54af2084ba0e4b86b7bc54b978ce7dd4ca046d3dec89d7c8963873820c0bb9060200161143f565b60008181526001830160205260408120546116d65750815460018181018455600084815260208082209093018490558454848252828601909352604090209190915561064b565b50600061064b565b6116e88282610fb4565b6106fc576116f5816117dd565b6117008360206117ef565b604051602001611711929190611ca3565b60408051601f198184030181529082905262461bcd60e51b82526106e991600401611d18565b6117418282610fb4565b156106fc5760008281526004602090815260408083206001600160a01b0385168085529252808320805460ff1916905551339285917ff6391f5c32d9c69d2a47ea670b442974b53935d1edc7fd64eb21e047a839171b9190a45050565b6000610fad836001600160a01b03841661198b565b60008260000182815481106117ca576117ca611e2a565b9060005260206000200154905092915050565b606061064b6001600160a01b03831660145b606060006117fe836002611d85565b611809906002611d4b565b67ffffffffffffffff81111561182157611821611e40565b6040519080825280601f01601f19166020018201604052801561184b576020820181803683370190505b509050600360fc1b8160008151811061186657611866611e2a565b60200101906001600160f81b031916908160001a905350600f60fb1b8160018151811061189557611895611e2a565b60200101906001600160f81b031916908160001a90535060006118b9846002611d85565b6118c4906001611d4b565b90505b600181111561193c576f181899199a1a9b1b9c1cb0b131b232b360811b85600f16601081106118f8576118f8611e2a565b1a60f81b82828151811061190e5761190e611e2a565b60200101906001600160f81b031916908160001a90535060049490941c9361193581611de7565b90506118c7565b508315610fad5760405162461bcd60e51b815260206004820181905260248201527f537472696e67733a20686578206c656e67746820696e73756666696369656e7460448201526064016106e9565b60008181526001830160205260408120548015611a745760006119af600183611da4565b85549091506000906119c390600190611da4565b9050818114611a285760008660000182815481106119e3576119e3611e2a565b9060005260206000200154905080876000018481548110611a0657611a06611e2a565b6000918252602080832090910192909255918252600188019052604090208390555b8554869080611a3957611a39611e14565b60019003818190600052602060002001600090559055856001016000868152602001908152602001600020600090556001935050505061064b565b600091505061064b565b600060208284031215611a9057600080fd5b8135610fad81611e56565b60008060008060808587031215611ab157600080fd5b8435611abc81611e56565b93506020850135611acc81611e56565b93969395505050506040820135916060013590565b60008060008060008060a08789031215611afa57600080fd5b8635611b0581611e56565b95506020870135611b1581611e56565b94506040870135935060608701359250608087013567ffffffffffffffff80821115611b4057600080fd5b818901915089601f830112611b5457600080fd5b813581811115611b6357600080fd5b8a6020828501011115611b7557600080fd5b6020830194508093505050509295509295509295565b60008060408385031215611b9e57600080fd5b8235611ba981611e56565b946020939093013593505050565b600060208284031215611bc957600080fd5b8135610fad81611e6b565b600060208284031215611be657600080fd5b8151610fad81611e6b565b600060208284031215611c0357600080fd5b5035919050565b60008060408385031215611c1d57600080fd5b823591506020830135611c2f81611e56565b809150509250929050565b60008060408385031215611c4d57600080fd5b50508035926020909101359150565b600060208284031215611c6e57600080fd5b81356001600160e01b031981168114610fad57600080fd5b600060208284031215611c9857600080fd5b8151610fad81611e56565b7f416363657373436f6e74726f6c3a206163636f756e7420000000000000000000815260008351611cdb816017850160208801611dbb565b7001034b99036b4b9b9b4b733903937b6329607d1b6017918401918201528351611d0c816028840160208801611dbb565b01602801949350505050565b6020815260008251806020840152611d37816040850160208701611dbb565b601f01601f19169190910160400192915050565b60008219821115611d5e57611d5e611dfe565b500190565b600082611d8057634e487b7160e01b600052601260045260246000fd5b500490565b6000816000190483118215151615611d9f57611d9f611dfe565b500290565b600082821015611db657611db6611dfe565b500390565b60005b83811015611dd6578181015183820152602001611dbe565b83811115610f1f5750506000910152565b600081611df657611df6611dfe565b506000190190565b634e487b7160e01b600052601160045260246000fd5b634e487b7160e01b600052603160045260246000fd5b634e487b7160e01b600052603260045260246000fd5b634e487b7160e01b600052604160045260246000fd5b6001600160a01b038116811461077f57600080fd5b801515811461077f57600080fdfea26469706673582212207772043cb3e68f477a975079cb96ba22e3176190ce4c7171ac41a985a15e5f1164736f6c63430008070033",
  "devdoc": {
    "kind": "dev",
    "methods": {
      "acceptRole(bytes32)": {
        "details": "Only callable by the role nominee.",
        "params": {
          "role": "The role of the nomination to be accepted"
        }
      },
      "acceptRoleAdmin(bytes32)": {
        "details": "Only callable by a member of the role admin nominee.",
        "params": {
          "role": "The role a role admin nomination is to be accepted for"
        }
      },
      "getRoleAdmin(bytes32)": {
        "details": "Returns the admin role that controls `role`. See {grantRole} and {revokeRole}. To change a role's admin, use {_setRoleAdmin}."
      },
      "getRoleAdminNominee(bytes32)": {
        "params": {
          "role": "The role to retrieve the role admin nominee for"
        },
        "returns": {
          "_0": "The current role admin nominee of `role`"
        }
      },
      "getRoleMember(bytes32,uint256)": {
        "details": "Returns one of the accounts that have `role`. `index` must be a value between 0 and {getRoleMemberCount}, non-inclusive. Role bearers are not sorted in any particular way, and their ordering may change at any point. WARNING: When using {getRoleMember} and {getRoleMemberCount}, make sure you perform all queries on the same block. See the following https://forum.openzeppelin.com/t/iterating-over-elements-on-enumerableset-in-openzeppelin-contracts/2296[forum post] for more information."
      },
      "getRoleMemberCount(bytes32)": {
        "details": "Returns the number of accounts that have `role`. Can be used together with {getRoleMember} to enumerate all bearers of a role."
      },
      "grantRole(bytes32,address)": {
        "details": "Grants `role` to `account`. If `account` had not been already granted `role`, emits a {RoleGranted} event. Requirements: - the caller must have ``role``'s admin role."
      },
      "hasRole(bytes32,address)": {
        "details": "Returns `true` if `account` has been granted `role`."
      },
      "isNominated(bytes32,address)": {
        "params": {
          "account": "The address to retrieve nomination status for",
          "role": "The role to retrieve nomination status for"
        },
        "returns": {
          "_0": "Whether `account` is nominated for `role`"
        }
      },
      "renounceRole(bytes32,address)": {
        "details": "Revokes `role` from the calling account. Roles are often managed via {grantRole} and {revokeRole}: this function's purpose is to provide a mechanism for accounts to lose their privileges if they are compromised (such as when a trusted device is misplaced). If the calling account had been revoked `role`, emits a {RoleRevoked} event. Requirements: - the caller must be `account`. May emit a {RoleRevoked} event."
      },
      "revokeNomination(bytes32,address)": {
        "details": "Only callable by a member of the role's current role admin.",
        "params": {
          "account": "Address for which nomination is to be revoked",
          "role": "The role of the nomination to be revoked"
        }
      },
      "revokeRole(bytes32,address)": {
        "details": "Revokes `role` from `account`. If `account` had been granted `role`, emits a {RoleRevoked} event. Requirements: - the caller must have ``role``'s admin role. May emit a {RoleRevoked} event."
      },
      "supportsInterface(bytes4)": {
        "details": "See {IERC165-supportsInterface}."
      }
    },
    "version": 1
  },
  "userdoc": {
    "kind": "user",
    "methods": {
      "acceptRole(bytes32)": {
        "notice": "Accepts a role nomination."
      },
      "acceptRoleAdmin(bytes32)": {
        "notice": "Accepts a role admin nomination."
      },
      "revokeNomination(bytes32,address)": {
        "notice": "Revokes a role nomination."
      }
    },
    "version": 1
  },
  "storageLayout": {
    "storage": [
      {
        "astId": 19781,
        "contract": "contracts/DepositHook.sol:DepositHook",
        "label": "_accountList",
        "offset": 0,
        "slot": "0",
        "type": "t_contract(IAccountList)20921"
      },
      {
        "astId": 11594,
        "contract": "contracts/DepositHook.sol:DepositHook",
        "label": "_collateral",
        "offset": 0,
        "slot": "1",
        "type": "t_contract(ICollateral)17985"
      },
      {
        "astId": 13606,
        "contract": "contracts/DepositHook.sol:DepositHook",
        "label": "_depositRecord",
        "offset": 0,
        "slot": "2",
        "type": "t_contract(IDepositRecord)18118"
      },
      {
        "astId": 5045,
        "contract": "contracts/DepositHook.sol:DepositHook",
        "label": "_status",
        "offset": 0,
        "slot": "3",
        "type": "t_uint256"
      },
      {
        "astId": 4407,
        "contract": "contracts/DepositHook.sol:DepositHook",
        "label": "_roles",
        "offset": 0,
        "slot": "4",
        "type": "t_mapping(t_bytes32,t_struct(RoleData)4402_storage)"
      },
      {
        "astId": 4717,
        "contract": "contracts/DepositHook.sol:DepositHook",
        "label": "_roleMembers",
        "offset": 0,
        "slot": "5",
        "type": "t_mapping(t_bytes32,t_struct(AddressSet)10882_storage)"
      },
      {
        "astId": 20039,
        "contract": "contracts/DepositHook.sol:DepositHook",
        "label": "_roleToRoleAdminNominee",
        "offset": 0,
        "slot": "6",
        "type": "t_mapping(t_bytes32,t_bytes32)"
      },
      {
        "astId": 20045,
        "contract": "contracts/DepositHook.sol:DepositHook",
        "label": "_roleToAccountToNominated",
        "offset": 0,
        "slot": "7",
        "type": "t_mapping(t_bytes32,t_mapping(t_address,t_bool))"
      },
      {
        "astId": 20588,
        "contract": "contracts/DepositHook.sol:DepositHook",
        "label": "_accountToAmountMultiplier",
        "offset": 0,
        "slot": "8",
        "type": "t_mapping(t_address,t_uint256)"
      },
      {
        "astId": 20591,
        "contract": "contracts/DepositHook.sol:DepositHook",
        "label": "_tokenSender",
        "offset": 0,
        "slot": "9",
        "type": "t_contract(ITokenSender)21309"
      },
      {
        "astId": 20666,
        "contract": "contracts/DepositHook.sol:DepositHook",
        "label": "_treasury",
        "offset": 0,
        "slot": "10",
        "type": "t_address"
      },
      {
        "astId": 12867,
        "contract": "contracts/DepositHook.sol:DepositHook",
        "label": "_depositsAllowed",
        "offset": 20,
        "slot": "10",
        "type": "t_bool"
      }
    ],
    "types": {
      "t_address": {
        "encoding": "inplace",
        "label": "address",
        "numberOfBytes": "20"
      },
      "t_array(t_bytes32)dyn_storage": {
        "base": "t_bytes32",
        "encoding": "dynamic_array",
        "label": "bytes32[]",
        "numberOfBytes": "32"
      },
      "t_bool": {
        "encoding": "inplace",
        "label": "bool",
        "numberOfBytes": "1"
      },
      "t_bytes32": {
        "encoding": "inplace",
        "label": "bytes32",
        "numberOfBytes": "32"
      },
      "t_contract(IAccountList)20921": {
        "encoding": "inplace",
        "label": "contract IAccountList",
        "numberOfBytes": "20"
      },
      "t_contract(ICollateral)17985": {
        "encoding": "inplace",
        "label": "contract ICollateral",
        "numberOfBytes": "20"
      },
      "t_contract(IDepositRecord)18118": {
        "encoding": "inplace",
        "label": "contract IDepositRecord",
        "numberOfBytes": "20"
      },
      "t_contract(ITokenSender)21309": {
        "encoding": "inplace",
        "label": "contract ITokenSender",
        "numberOfBytes": "20"
      },
      "t_mapping(t_address,t_bool)": {
        "encoding": "mapping",
        "key": "t_address",
        "label": "mapping(address => bool)",
        "numberOfBytes": "32",
        "value": "t_bool"
      },
      "t_mapping(t_address,t_uint256)": {
        "encoding": "mapping",
        "key": "t_address",
        "label": "mapping(address => uint256)",
        "numberOfBytes": "32",
        "value": "t_uint256"
      },
      "t_mapping(t_bytes32,t_bytes32)": {
        "encoding": "mapping",
        "key": "t_bytes32",
        "label": "mapping(bytes32 => bytes32)",
        "numberOfBytes": "32",
        "value": "t_bytes32"
      },
      "t_mapping(t_bytes32,t_mapping(t_address,t_bool))": {
        "encoding": "mapping",
        "key": "t_bytes32",
        "label": "mapping(bytes32 => mapping(address => bool))",
        "numberOfBytes": "32",
        "value": "t_mapping(t_address,t_bool)"
      },
      "t_mapping(t_bytes32,t_struct(AddressSet)10882_storage)": {
        "encoding": "mapping",
        "key": "t_bytes32",
        "label": "mapping(bytes32 => struct EnumerableSet.AddressSet)",
        "numberOfBytes": "32",
        "value": "t_struct(AddressSet)10882_storage"
      },
      "t_mapping(t_bytes32,t_struct(RoleData)4402_storage)": {
        "encoding": "mapping",
        "key": "t_bytes32",
        "label": "mapping(bytes32 => struct AccessControl.RoleData)",
        "numberOfBytes": "32",
        "value": "t_struct(RoleData)4402_storage"
      },
      "t_mapping(t_bytes32,t_uint256)": {
        "encoding": "mapping",
        "key": "t_bytes32",
        "label": "mapping(bytes32 => uint256)",
        "numberOfBytes": "32",
        "value": "t_uint256"
      },
      "t_struct(AddressSet)10882_storage": {
        "encoding": "inplace",
        "label": "struct EnumerableSet.AddressSet",
        "members": [
          {
            "astId": 10881,
            "contract": "contracts/DepositHook.sol:DepositHook",
            "label": "_inner",
            "offset": 0,
            "slot": "0",
            "type": "t_struct(Set)10567_storage"
          }
        ],
        "numberOfBytes": "64"
      },
      "t_struct(RoleData)4402_storage": {
        "encoding": "inplace",
        "label": "struct AccessControl.RoleData",
        "members": [
          {
            "astId": 4399,
            "contract": "contracts/DepositHook.sol:DepositHook",
            "label": "members",
            "offset": 0,
            "slot": "0",
            "type": "t_mapping(t_address,t_bool)"
          },
          {
            "astId": 4401,
            "contract": "contracts/DepositHook.sol:DepositHook",
            "label": "adminRole",
            "offset": 0,
            "slot": "1",
            "type": "t_bytes32"
          }
        ],
        "numberOfBytes": "64"
      },
      "t_struct(Set)10567_storage": {
        "encoding": "inplace",
        "label": "struct EnumerableSet.Set",
        "members": [
          {
            "astId": 10562,
            "contract": "contracts/DepositHook.sol:DepositHook",
            "label": "_values",
            "offset": 0,
            "slot": "0",
            "type": "t_array(t_bytes32)dyn_storage"
          },
          {
            "astId": 10566,
            "contract": "contracts/DepositHook.sol:DepositHook",
            "label": "_indexes",
            "offset": 0,
            "slot": "1",
            "type": "t_mapping(t_bytes32,t_uint256)"
          }
        ],
        "numberOfBytes": "64"
      },
      "t_uint256": {
        "encoding": "inplace",
        "label": "uint256",
        "numberOfBytes": "32"
      }
    }
  }
}