{
  "address": "0x641F6b46b0E694Ebc4631284B3b0020Cb577daC7",
  "abi": [
    {
      "anonymous": false,
      "inputs": [
        {
          "indexed": false,
          "internalType": "contract IAccountList",
          "name": "accountList",
          "type": "address"
        }
      ],
      "name": "AccountListChange",
      "type": "event"
    },
    {
      "anonymous": false,
      "inputs": [
        {
          "indexed": false,
          "internalType": "contract IAccountList",
          "name": "allowedMsgSenders",
          "type": "address"
        }
      ],
      "name": "AllowedMsgSendersChange",
      "type": "event"
    },
    {
      "anonymous": false,
      "inputs": [
        {
          "indexed": false,
          "internalType": "uint256",
          "name": "cap",
          "type": "uint256"
        }
      ],
      "name": "GlobalNetDepositCapChange",
      "type": "event"
    },
    {
      "anonymous": false,
      "inputs": [
        {
          "indexed": true,
          "internalType": "bytes32",
          "name": "role",
          "type": "bytes32"
        },
        {
          "indexed": true,
          "internalType": "bytes32",
          "name": "previousAdminRole",
          "type": "bytes32"
        },
        {
          "indexed": true,
          "internalType": "bytes32",
          "name": "newAdminRole",
          "type": "bytes32"
        }
      ],
      "name": "RoleAdminChanged",
      "type": "event"
    },
    {
      "anonymous": false,
      "inputs": [
        {
          "indexed": false,
          "internalType": "bytes32",
          "name": "role",
          "type": "bytes32"
        },
        {
          "indexed": false,
          "internalType": "bytes32",
          "name": "newRoleAdminNominee",
          "type": "bytes32"
        }
      ],
      "name": "RoleAdminNomineeUpdate",
      "type": "event"
    },
    {
      "anonymous": false,
      "inputs": [
        {
          "indexed": true,
          "internalType": "bytes32",
          "name": "role",
          "type": "bytes32"
        },
        {
          "indexed": true,
          "internalType": "address",
          "name": "account",
          "type": "address"
        },
        {
          "indexed": true,
          "internalType": "address",
          "name": "sender",
          "type": "address"
        }
      ],
      "name": "RoleGranted",
      "type": "event"
    },
    {
      "anonymous": false,
      "inputs": [
        {
          "indexed": false,
          "internalType": "bytes32",
          "name": "role",
          "type": "bytes32"
        },
        {
          "indexed": false,
          "internalType": "address",
          "name": "account",
          "type": "address"
        },
        {
          "indexed": false,
          "internalType": "bool",
          "name": "nominated",
          "type": "bool"
        }
      ],
      "name": "RoleNomineeUpdate",
      "type": "event"
    },
    {
      "anonymous": false,
      "inputs": [
        {
          "indexed": true,
          "internalType": "bytes32",
          "name": "role",
          "type": "bytes32"
        },
        {
          "indexed": true,
          "internalType": "address",
          "name": "account",
          "type": "address"
        },
        {
          "indexed": true,
          "internalType": "address",
          "name": "sender",
          "type": "address"
        }
      ],
      "name": "RoleRevoked",
      "type": "event"
    },
    {
      "anonymous": false,
      "inputs": [
        {
          "indexed": false,
          "internalType": "uint256",
          "name": "cap",
          "type": "uint256"
        }
      ],
      "name": "UserDepositCapChange",
      "type": "event"
    },
    {
      "inputs": [],
      "name": "DEFAULT_ADMIN_ROLE",
      "outputs": [
        {
          "internalType": "bytes32",
          "name": "",
          "type": "bytes32"
        }
      ],
      "stateMutability": "view",
      "type": "function"
    },
    {
      "inputs": [],
      "name": "SET_ACCOUNT_LIST_ROLE",
      "outputs": [
        {
          "internalType": "bytes32",
          "name": "",
          "type": "bytes32"
        }
      ],
      "stateMutability": "view",
      "type": "function"
    },
    {
      "inputs": [],
      "name": "SET_ALLOWED_MSG_SENDERS_ROLE",
      "outputs": [
        {
          "internalType": "bytes32",
          "name": "",
          "type": "bytes32"
        }
      ],
      "stateMutability": "view",
      "type": "function"
    },
    {
      "inputs": [],
      "name": "SET_GLOBAL_NET_DEPOSIT_CAP_ROLE",
      "outputs": [
        {
          "internalType": "bytes32",
          "name": "",
          "type": "bytes32"
        }
      ],
      "stateMutability": "view",
      "type": "function"
    },
    {
      "inputs": [],
      "name": "SET_USER_DEPOSIT_CAP_ROLE",
      "outputs": [
        {
          "internalType": "bytes32",
          "name": "",
          "type": "bytes32"
        }
      ],
      "stateMutability": "view",
      "type": "function"
    },
    {
      "inputs": [
        {
          "internalType": "bytes32",
          "name": "role",
          "type": "bytes32"
        }
      ],
      "name": "acceptRole",
      "outputs": [],
      "stateMutability": "nonpayable",
      "type": "function"
    },
    {
      "inputs": [
        {
          "internalType": "bytes32",
          "name": "role",
          "type": "bytes32"
        }
      ],
      "name": "acceptRoleAdmin",
      "outputs": [],
      "stateMutability": "nonpayable",
      "type": "function"
    },
    {
      "inputs": [],
      "name": "getAccountList",
      "outputs": [
        {
          "internalType": "contract IAccountList",
          "name": "",
          "type": "address"
        }
      ],
      "stateMutability": "view",
      "type": "function"
    },
    {
      "inputs": [],
      "name": "getAllowedMsgSenders",
      "outputs": [
        {
          "internalType": "contract IAccountList",
          "name": "",
          "type": "address"
        }
      ],
      "stateMutability": "view",
      "type": "function"
    },
    {
      "inputs": [],
      "name": "getGlobalNetDepositAmount",
      "outputs": [
        {
          "internalType": "uint256",
          "name": "",
          "type": "uint256"
        }
      ],
      "stateMutability": "view",
      "type": "function"
    },
    {
      "inputs": [],
      "name": "getGlobalNetDepositCap",
      "outputs": [
        {
          "internalType": "uint256",
          "name": "",
          "type": "uint256"
        }
      ],
      "stateMutability": "view",
      "type": "function"
    },
    {
      "inputs": [
        {
          "internalType": "bytes32",
          "name": "role",
          "type": "bytes32"
        }
      ],
      "name": "getRoleAdmin",
      "outputs": [
        {
          "internalType": "bytes32",
          "name": "",
          "type": "bytes32"
        }
      ],
      "stateMutability": "view",
      "type": "function"
    },
    {
      "inputs": [
        {
          "internalType": "bytes32",
          "name": "role",
          "type": "bytes32"
        }
      ],
      "name": "getRoleAdminNominee",
      "outputs": [
        {
          "internalType": "bytes32",
          "name": "",
          "type": "bytes32"
        }
      ],
      "stateMutability": "view",
      "type": "function"
    },
    {
      "inputs": [
        {
          "internalType": "bytes32",
          "name": "role",
          "type": "bytes32"
        },
        {
          "internalType": "uint256",
          "name": "index",
          "type": "uint256"
        }
      ],
      "name": "getRoleMember",
      "outputs": [
        {
          "internalType": "address",
          "name": "",
          "type": "address"
        }
      ],
      "stateMutability": "view",
      "type": "function"
    },
    {
      "inputs": [
        {
          "internalType": "bytes32",
          "name": "role",
          "type": "bytes32"
        }
      ],
      "name": "getRoleMemberCount",
      "outputs": [
        {
          "internalType": "uint256",
          "name": "",
          "type": "uint256"
        }
      ],
      "stateMutability": "view",
      "type": "function"
    },
    {
      "inputs": [
        {
          "internalType": "address",
          "name": "account",
          "type": "address"
        }
      ],
      "name": "getUserDepositAmount",
      "outputs": [
        {
          "internalType": "uint256",
          "name": "",
          "type": "uint256"
        }
      ],
      "stateMutability": "view",
      "type": "function"
    },
    {
      "inputs": [],
      "name": "getUserDepositCap",
      "outputs": [
        {
          "internalType": "uint256",
          "name": "",
          "type": "uint256"
        }
      ],
      "stateMutability": "view",
      "type": "function"
    },
    {
      "inputs": [
        {
          "internalType": "bytes32",
          "name": "role",
          "type": "bytes32"
        },
        {
          "internalType": "address",
          "name": "account",
          "type": "address"
        }
      ],
      "name": "grantRole",
      "outputs": [],
      "stateMutability": "nonpayable",
      "type": "function"
    },
    {
      "inputs": [
        {
          "internalType": "bytes32",
          "name": "role",
          "type": "bytes32"
        },
        {
          "internalType": "address",
          "name": "account",
          "type": "address"
        }
      ],
      "name": "hasRole",
      "outputs": [
        {
          "internalType": "bool",
          "name": "",
          "type": "bool"
        }
      ],
      "stateMutability": "view",
      "type": "function"
    },
    {
      "inputs": [
        {
          "internalType": "bytes32",
          "name": "role",
          "type": "bytes32"
        },
        {
          "internalType": "address",
          "name": "account",
          "type": "address"
        }
      ],
      "name": "isNominated",
      "outputs": [
        {
          "internalType": "bool",
          "name": "",
          "type": "bool"
        }
      ],
      "stateMutability": "view",
      "type": "function"
    },
    {
      "inputs": [
        {
          "internalType": "address",
          "name": "user",
          "type": "address"
        },
        {
          "internalType": "uint256",
          "name": "amount",
          "type": "uint256"
        }
      ],
      "name": "recordDeposit",
      "outputs": [],
      "stateMutability": "nonpayable",
      "type": "function"
    },
    {
      "inputs": [
        {
          "internalType": "uint256",
          "name": "amount",
          "type": "uint256"
        }
      ],
      "name": "recordWithdrawal",
      "outputs": [],
      "stateMutability": "nonpayable",
      "type": "function"
    },
    {
      "inputs": [
        {
          "internalType": "bytes32",
          "name": "role",
          "type": "bytes32"
        },
        {
          "internalType": "address",
          "name": "account",
          "type": "address"
        }
      ],
      "name": "renounceRole",
      "outputs": [],
      "stateMutability": "nonpayable",
      "type": "function"
    },
    {
      "inputs": [
        {
          "internalType": "bytes32",
          "name": "role",
          "type": "bytes32"
        },
        {
          "internalType": "address",
          "name": "account",
          "type": "address"
        }
      ],
      "name": "revokeNomination",
      "outputs": [],
      "stateMutability": "nonpayable",
      "type": "function"
    },
    {
      "inputs": [
        {
          "internalType": "bytes32",
          "name": "role",
          "type": "bytes32"
        },
        {
          "internalType": "address",
          "name": "account",
          "type": "address"
        }
      ],
      "name": "revokeRole",
      "outputs": [],
      "stateMutability": "nonpayable",
      "type": "function"
    },
    {
      "inputs": [
        {
          "internalType": "contract IAccountList",
          "name": "accountList",
          "type": "address"
        }
      ],
      "name": "setAccountList",
      "outputs": [],
      "stateMutability": "nonpayable",
      "type": "function"
    },
    {
      "inputs": [
        {
          "internalType": "contract IAccountList",
          "name": "allowedMsgSenders",
          "type": "address"
        }
      ],
      "name": "setAllowedMsgSenders",
      "outputs": [],
      "stateMutability": "nonpayable",
      "type": "function"
    },
    {
      "inputs": [
        {
          "internalType": "uint256",
          "name": "globalNetDepositCap",
          "type": "uint256"
        }
      ],
      "name": "setGlobalNetDepositCap",
      "outputs": [],
      "stateMutability": "nonpayable",
      "type": "function"
    },
    {
      "inputs": [
        {
          "internalType": "bytes32",
          "name": "role",
          "type": "bytes32"
        },
        {
          "internalType": "bytes32",
          "name": "roleAdminNominee",
          "type": "bytes32"
        }
      ],
      "name": "setRoleAdminNominee",
      "outputs": [],
      "stateMutability": "nonpayable",
      "type": "function"
    },
    {
      "inputs": [
        {
          "internalType": "uint256",
          "name": "userDepositCap",
          "type": "uint256"
        }
      ],
      "name": "setUserDepositCap",
      "outputs": [],
      "stateMutability": "nonpayable",
      "type": "function"
    },
    {
      "inputs": [
        {
          "internalType": "bytes4",
          "name": "interfaceId",
          "type": "bytes4"
        }
      ],
      "name": "supportsInterface",
      "outputs": [
        {
          "internalType": "bool",
          "name": "",
          "type": "bool"
        }
      ],
      "stateMutability": "view",
      "type": "function"
    }
  ],
  "transactionHash": "0x27d0331cf0c06ecf2a3aa058dab3881ed6c45cb22d8d9a706112f001b56a2b6a",
  "args": [],
  "numDeployments": 1,
  "solcInputHash": "026479a94a0487036a93211e4dc69f86",
  "bytecode": "0x60806040523480156200001157600080fd5b506200001f60003362000025565b6200018e565b62000031828262000035565b5050565b6200004c82826200007860201b62000bc81760201c565b60008281526003602090815260409091206200007391839062000c4e6200011c821b17901c565b505050565b60008281526002602090815260408083206001600160a01b038516845290915290205460ff16620000315760008281526002602090815260408083206001600160a01b03851684529091529020805460ff19166001179055620000d83390565b6001600160a01b0316816001600160a01b0316837f2f8788117e7eff1d82e926ec794901d17c78024a50270940304540a733656f0d60405160405180910390a45050565b600062000133836001600160a01b0384166200013c565b90505b92915050565b6000818152600183016020526040812054620001855750815460018181018455600084815260208082209093018490558454848252828601909352604090209190915562000136565b50600062000136565b61158c806200019e6000396000f3fe608060405234801561001057600080fd5b50600436106101e55760003560e01c80636acfd6731161010f57806391d14854116100a2578063ca15c87311610071578063ca15c8731461049d578063cd0c1d96146104b0578063d338107e146104c3578063d547741f146104d657600080fd5b806391d1485414610448578063a2088cc91461045b578063a217fddf1461046e578063bd94904b1461047657600080fd5b806387bafc32116100de57806387bafc32146104075780638bb06b0b1461040f5780639010d07c146104225780639135b6c31461043557600080fd5b80636acfd6731461039a578063768ba6eb146103ad57806377eb716a146103d457806380db4329146103e757600080fd5b80632f2ff15d116101875780634712ccd2116101565780634712ccd2146103215780634b51193e146103295780635c449f7c1461035057806368f27d201461038957600080fd5b80632f2ff15d146102e057806336568abe146102f357806336fc17871461030657806340553ac11461031957600080fd5b80630cec2a76116101c35780630cec2a761461025c5780631e578bae14610285578063248a9ca3146102985780632843314e146102bb57600080fd5b806301ffc9a7146101ea578063095ef1ac146102125780630ab20d3f14610247575b600080fd5b6101fd6101f8366004611382565b6104e9565b60405190151581526020015b60405180910390f35b6102397fbf82397a3927acd3c3ad36b93381d84735dd62fe25270671ba9e02d1ee1e972881565b604051908152602001610209565b61025a610255366004611317565b610514565b005b61023961026a3660046112ac565b6001600160a01b031660009081526009602052604090205490565b61025a6102933660046112c9565b610609565b6102396102a6366004611317565b60009081526002602052604090206001015490565b6000546001600160a01b03165b6040516001600160a01b039091168152602001610209565b61025a6102ee366004611330565b610864565b61025a610301366004611330565b610890565b61025a610314366004611317565b61090e565b600654610239565b600754610239565b6102397f8ed80d477aa11837d1ddc9dc23751899d7e3fe18c664a7dbc9a0341a34e81c0b81565b6101fd61035e366004611330565b60009182526005602090815260408084206001600160a01b0393909316845291905290205460ff1690565b6001546001600160a01b03166102c8565b61025a6103a8366004611330565b61098d565b6102397f866b4848de4af255be133f7c25c7ee2d1d6f688d2da0be4351123daaf2c8f16c81565b61025a6103e2366004611317565b6109b4565b6102396103f5366004611317565b60009081526004602052604090205490565b600854610239565b61025a61041d366004611317565b610a1b565b6102c8610430366004611360565b610a58565b61025a610443366004611317565b610a77565b6101fd610456366004611330565b610ad6565b61025a6104693660046112ac565b610b01565b610239600081565b6102397f69fa7e30d0a933b5cf231c0c7bfb58ba5098b62118a7e5acb78259799e68e58981565b6102396104ab366004611317565b610b34565b61025a6104be366004611360565b610b4b565b61025a6104d13660046112ac565b610b70565b61025a6104e4366004611330565b610ba3565b60006001600160e01b03198216635a05180f60e01b148061050e575061050e82610c63565b92915050565b6001546040516304d93ff560e31b81523360048201526001600160a01b03909116906326c9ffa89060240160206040518083038186803b15801561055757600080fd5b505afa15801561056b573d6000803e3d6000fd5b505050506040513d601f19601f8201168201806040525081019061058f91906112f5565b6105d95760405162461bcd60e51b81526020600482015260166024820152751b5cd9cb9cd95b99195c881b9bdd08185b1b1bddd95960521b60448201526064015b60405180910390fd5b8060075411156106005780600760008282546105f5919061148b565b909155506106069050565b60006007555b50565b6001546040516304d93ff560e31b81523360048201526001600160a01b03909116906326c9ffa89060240160206040518083038186803b15801561064c57600080fd5b505afa158015610660573d6000803e3d6000fd5b505050506040513d601f19601f8201168201806040525081019061068491906112f5565b6106c95760405162461bcd60e51b81526020600482015260166024820152751b5cd9cb9cd95b99195c881b9bdd08185b1b1bddd95960521b60448201526064016105d0565b6006546007546106d99083611454565b11156107275760405162461bcd60e51b815260206004820152601b60248201527f476c6f62616c206465706f73697420636170206578636565646564000000000060448201526064016105d0565b6000546040516304d93ff560e31b81526001600160a01b038481166004830152909116906326c9ffa89060240160206040518083038186803b15801561076c57600080fd5b505afa158015610780573d6000803e3d6000fd5b505050506040513d601f19601f820116820180604052508101906107a491906112f5565b61081c576008546001600160a01b0383166000908152600960205260409020546107ce9083611454565b111561081c5760405162461bcd60e51b815260206004820152601960248201527f55736572206465706f736974206361702065786365656465640000000000000060448201526064016105d0565b806007600082825461082e9190611454565b90915550506001600160a01b0382166000908152600960205260408120805483929061085b908490611454565b90915550505050565b60008281526002602052604090206001015461087f81610c98565b61088b83836001610ca2565b505050565b6001600160a01b03811633146109005760405162461bcd60e51b815260206004820152602f60248201527f416363657373436f6e74726f6c3a2063616e206f6e6c792072656e6f756e636560448201526e103937b632b9903337b91039b2b63360891b60648201526084016105d0565b61090a8282610d1a565b5050565b600081815260056020908152604080832033845290915290205460ff166109775760405162461bcd60e51b815260206004820152601a60248201527f6d73672e73656e64657220213d20726f6c65206e6f6d696e656500000000000060448201526064016105d0565b61098381336000610ca2565b6106068133610d3c565b6000828152600260205260409020600101546109a881610c98565b61088b83836000610ca2565b7f8ed80d477aa11837d1ddc9dc23751899d7e3fe18c664a7dbc9a0341a34e81c0b6109de81610c98565b60068290556040518281527f0391c1383c6b57c1a78c5b6cf5aeec5796e7e5c2e8a60c1303b80763c5696262906020015b60405180910390a15050565b600081815260046020526040902054610a3381610c98565b600082815260046020526040902054610a4d908390610d5e565b61090a826000610da9565b6000828152600360205260408120610a709083610e04565b9392505050565b7fbf82397a3927acd3c3ad36b93381d84735dd62fe25270671ba9e02d1ee1e9728610aa181610c98565b60088290556040518281527fed53e3744df7e0baa481ef16216782c98696f1fbcd93c1dedcf2100516ff0d4690602001610a0f565b60009182526002602090815260408084206001600160a01b0393909316845291905290205460ff1690565b7f866b4848de4af255be133f7c25c7ee2d1d6f688d2da0be4351123daaf2c8f16c610b2b81610c98565b61090a82610e10565b600081815260036020526040812061050e90610e65565b600082815260026020526040902060010154610b6681610c98565b61088b8383610da9565b7f69fa7e30d0a933b5cf231c0c7bfb58ba5098b62118a7e5acb78259799e68e589610b9a81610c98565b61090a82610e6f565b600082815260026020526040902060010154610bbe81610c98565b61088b8383610d1a565b610bd28282610ad6565b61090a5760008281526002602090815260408083206001600160a01b03851684529091529020805460ff19166001179055610c0a3390565b6001600160a01b0316816001600160a01b0316837f2f8788117e7eff1d82e926ec794901d17c78024a50270940304540a733656f0d60405160405180910390a45050565b6000610a70836001600160a01b038416610ebd565b60006001600160e01b03198216637965db0b60e01b148061050e57506301ffc9a760e01b6001600160e01b031983161461050e565b6106068133610f0c565b60008381526005602090815260408083206001600160a01b03861680855290835292819020805460ff19168515159081179091558151878152928301939093528101919091527fd4eaea07a6439b4db5273291dd4d77f204d9eaf0d67149318c911f449f3df5d69060600160405180910390a1505050565b610d248282610f65565b600082815260036020526040902061088b9082610fcc565b610d468282610bc8565b600082815260036020526040902061088b9082610c4e565b600082815260026020526040808220600101805490849055905190918391839186917fbd79b86ffe0ab8e8776151514217cd7cacd52c909f66475c3af44e129f0b00ff9190a4505050565b6000828152600460209081526040918290205482519081529081018390527fb7f84e320be67bd09b884f0142b70ae1256025837c61650411a58567f9137c5d910160405180910390a160009182526004602052604090912055565b6000610a708383610fe1565b600180546001600160a01b0319166001600160a01b0383169081179091556040519081527f0dacf1df82205439fd27104877c9ed6bec034e24daf9b3afb96f62191e0a7ea7906020015b60405180910390a150565b600061050e825490565b600080546001600160a01b0319166001600160a01b0383169081179091556040519081527f310aaf5db2aa9335d0aebcc973d03748ed641890df20d89139a312856b5a675c90602001610e5a565b6000818152600183016020526040812054610f045750815460018181018455600084815260208082209093018490558454848252828601909352604090209190915561050e565b50600061050e565b610f168282610ad6565b61090a57610f238161100b565b610f2e83602061101d565b604051602001610f3f9291906113ac565b60408051601f198184030181529082905262461bcd60e51b82526105d091600401611421565b610f6f8282610ad6565b1561090a5760008281526002602090815260408083206001600160a01b0385168085529252808320805460ff1916905551339285917ff6391f5c32d9c69d2a47ea670b442974b53935d1edc7fd64eb21e047a839171b9190a45050565b6000610a70836001600160a01b0384166111b9565b6000826000018281548110610ff857610ff8611515565b9060005260206000200154905092915050565b606061050e6001600160a01b03831660145b6060600061102c83600261146c565b611037906002611454565b67ffffffffffffffff81111561104f5761104f61152b565b6040519080825280601f01601f191660200182016040528015611079576020820181803683370190505b509050600360fc1b8160008151811061109457611094611515565b60200101906001600160f81b031916908160001a905350600f60fb1b816001815181106110c3576110c3611515565b60200101906001600160f81b031916908160001a90535060006110e784600261146c565b6110f2906001611454565b90505b600181111561116a576f181899199a1a9b1b9c1cb0b131b232b360811b85600f166010811061112657611126611515565b1a60f81b82828151811061113c5761113c611515565b60200101906001600160f81b031916908160001a90535060049490941c93611163816114d2565b90506110f5565b508315610a705760405162461bcd60e51b815260206004820181905260248201527f537472696e67733a20686578206c656e67746820696e73756666696369656e7460448201526064016105d0565b600081815260018301602052604081205480156112a25760006111dd60018361148b565b85549091506000906111f19060019061148b565b905081811461125657600086600001828154811061121157611211611515565b906000526020600020015490508087600001848154811061123457611234611515565b6000918252602080832090910192909255918252600188019052604090208390555b8554869080611267576112676114ff565b60019003818190600052602060002001600090559055856001016000868152602001908152602001600020600090556001935050505061050e565b600091505061050e565b6000602082840312156112be57600080fd5b8135610a7081611541565b600080604083850312156112dc57600080fd5b82356112e781611541565b946020939093013593505050565b60006020828403121561130757600080fd5b81518015158114610a7057600080fd5b60006020828403121561132957600080fd5b5035919050565b6000806040838503121561134357600080fd5b82359150602083013561135581611541565b809150509250929050565b6000806040838503121561137357600080fd5b50508035926020909101359150565b60006020828403121561139457600080fd5b81356001600160e01b031981168114610a7057600080fd5b7f416363657373436f6e74726f6c3a206163636f756e74200000000000000000008152600083516113e48160178501602088016114a2565b7001034b99036b4b9b9b4b733903937b6329607d1b60179184019182015283516114158160288401602088016114a2565b01602801949350505050565b60208152600082518060208401526114408160408501602087016114a2565b601f01601f19169190910160400192915050565b60008219821115611467576114676114e9565b500190565b6000816000190483118215151615611486576114866114e9565b500290565b60008282101561149d5761149d6114e9565b500390565b60005b838110156114bd5781810151838201526020016114a5565b838111156114cc576000848401525b50505050565b6000816114e1576114e16114e9565b506000190190565b634e487b7160e01b600052601160045260246000fd5b634e487b7160e01b600052603160045260246000fd5b634e487b7160e01b600052603260045260246000fd5b634e487b7160e01b600052604160045260246000fd5b6001600160a01b038116811461060657600080fdfea26469706673582212202db46fac2f67daf80c63d6bc4c728c22500734b29f6116748692df079203320664736f6c63430008070033",
  "devdoc": {
    "kind": "dev",
    "methods": {
      "acceptRole(bytes32)": {
        "details": "Only callable by the role nominee.",
        "params": {
          "role": "The role of the nomination to be accepted"
        }
      },
      "acceptRoleAdmin(bytes32)": {
        "details": "Only callable by a member of the role admin nominee.",
        "params": {
          "role": "The role a role admin nomination is to be accepted for"
        }
      },
      "getRoleAdmin(bytes32)": {
        "details": "Returns the admin role that controls `role`. See {grantRole} and {revokeRole}. To change a role's admin, use {_setRoleAdmin}."
      },
      "getRoleAdminNominee(bytes32)": {
        "params": {
          "role": "The role to retrieve the role admin nominee for"
        },
        "returns": {
          "_0": "The current role admin nominee of `role`"
        }
      },
      "getRoleMember(bytes32,uint256)": {
        "details": "Returns one of the accounts that have `role`. `index` must be a value between 0 and {getRoleMemberCount}, non-inclusive. Role bearers are not sorted in any particular way, and their ordering may change at any point. WARNING: When using {getRoleMember} and {getRoleMemberCount}, make sure you perform all queries on the same block. See the following https://forum.openzeppelin.com/t/iterating-over-elements-on-enumerableset-in-openzeppelin-contracts/2296[forum post] for more information."
      },
      "getRoleMemberCount(bytes32)": {
        "details": "Returns the number of accounts that have `role`. Can be used together with {getRoleMember} to enumerate all bearers of a role."
      },
      "grantRole(bytes32,address)": {
        "details": "Grants `role` to `account`. If `account` had not been already granted `role`, emits a {RoleGranted} event. Requirements: - the caller must have ``role``'s admin role."
      },
      "hasRole(bytes32,address)": {
        "details": "Returns `true` if `account` has been granted `role`."
      },
      "isNominated(bytes32,address)": {
        "params": {
          "account": "The address to retrieve nomination status for",
          "role": "The role to retrieve nomination status for"
        },
        "returns": {
          "_0": "Whether `account` is nominated for `role`"
        }
      },
      "renounceRole(bytes32,address)": {
        "details": "Revokes `role` from the calling account. Roles are often managed via {grantRole} and {revokeRole}: this function's purpose is to provide a mechanism for accounts to lose their privileges if they are compromised (such as when a trusted device is misplaced). If the calling account had been revoked `role`, emits a {RoleRevoked} event. Requirements: - the caller must be `account`. May emit a {RoleRevoked} event."
      },
      "revokeNomination(bytes32,address)": {
        "details": "Only callable by a member of the role's current role admin.",
        "params": {
          "account": "Address for which nomination is to be revoked",
          "role": "The role of the nomination to be revoked"
        }
      },
      "revokeRole(bytes32,address)": {
        "details": "Revokes `role` from `account`. If `account` had been granted `role`, emits a {RoleRevoked} event. Requirements: - the caller must have ``role``'s admin role. May emit a {RoleRevoked} event."
      },
      "supportsInterface(bytes4)": {
        "details": "See {IERC165-supportsInterface}."
      }
    },
    "version": 1
  },
  "userdoc": {
    "kind": "user",
    "methods": {
      "acceptRole(bytes32)": {
        "notice": "Accepts a role nomination."
      },
      "acceptRoleAdmin(bytes32)": {
        "notice": "Accepts a role admin nomination."
      },
      "revokeNomination(bytes32,address)": {
        "notice": "Revokes a role nomination."
      }
    },
    "version": 1
  },
  "storageLayout": {
    "storage": [
      {
        "astId": 16603,
        "contract": "contracts/DepositRecord.sol:DepositRecord",
        "label": "_accountList",
        "offset": 0,
        "slot": "0",
        "type": "t_contract(IAccountList)17439"
      },
      {
        "astId": 16639,
        "contract": "contracts/DepositRecord.sol:DepositRecord",
        "label": "_allowedMsgSenders",
        "offset": 0,
        "slot": "1",
        "type": "t_contract(IAccountList)17439"
      },
      {
        "astId": 4407,
        "contract": "contracts/DepositRecord.sol:DepositRecord",
        "label": "_roles",
        "offset": 0,
        "slot": "2",
        "type": "t_mapping(t_bytes32,t_struct(RoleData)4402_storage)"
      },
      {
        "astId": 4717,
        "contract": "contracts/DepositRecord.sol:DepositRecord",
        "label": "_roleMembers",
        "offset": 0,
        "slot": "3",
        "type": "t_mapping(t_bytes32,t_struct(AddressSet)9760_storage)"
      },
      {
        "astId": 16691,
        "contract": "contracts/DepositRecord.sol:DepositRecord",
        "label": "_roleToRoleAdminNominee",
        "offset": 0,
        "slot": "4",
        "type": "t_mapping(t_bytes32,t_bytes32)"
      },
      {
        "astId": 16697,
        "contract": "contracts/DepositRecord.sol:DepositRecord",
        "label": "_roleToAccountToNominated",
        "offset": 0,
        "slot": "5",
        "type": "t_mapping(t_bytes32,t_mapping(t_address,t_bool))"
      },
      {
        "astId": 11694,
        "contract": "contracts/DepositRecord.sol:DepositRecord",
        "label": "_globalNetDepositCap",
        "offset": 0,
        "slot": "6",
        "type": "t_uint256"
      },
      {
        "astId": 11696,
        "contract": "contracts/DepositRecord.sol:DepositRecord",
        "label": "_globalNetDepositAmount",
        "offset": 0,
        "slot": "7",
        "type": "t_uint256"
      },
      {
        "astId": 11698,
        "contract": "contracts/DepositRecord.sol:DepositRecord",
        "label": "_userDepositCap",
        "offset": 0,
        "slot": "8",
        "type": "t_uint256"
      },
      {
        "astId": 11702,
        "contract": "contracts/DepositRecord.sol:DepositRecord",
        "label": "_userToDeposits",
        "offset": 0,
        "slot": "9",
        "type": "t_mapping(t_address,t_uint256)"
      }
    ],
    "types": {
      "t_address": {
        "encoding": "inplace",
        "label": "address",
        "numberOfBytes": "20"
      },
      "t_array(t_bytes32)dyn_storage": {
        "base": "t_bytes32",
        "encoding": "dynamic_array",
        "label": "bytes32[]",
        "numberOfBytes": "32"
      },
      "t_bool": {
        "encoding": "inplace",
        "label": "bool",
        "numberOfBytes": "1"
      },
      "t_bytes32": {
        "encoding": "inplace",
        "label": "bytes32",
        "numberOfBytes": "32"
      },
      "t_contract(IAccountList)17439": {
        "encoding": "inplace",
        "label": "contract IAccountList",
        "numberOfBytes": "20"
      },
      "t_mapping(t_address,t_bool)": {
        "encoding": "mapping",
        "key": "t_address",
        "label": "mapping(address => bool)",
        "numberOfBytes": "32",
        "value": "t_bool"
      },
      "t_mapping(t_address,t_uint256)": {
        "encoding": "mapping",
        "key": "t_address",
        "label": "mapping(address => uint256)",
        "numberOfBytes": "32",
        "value": "t_uint256"
      },
      "t_mapping(t_bytes32,t_bytes32)": {
        "encoding": "mapping",
        "key": "t_bytes32",
        "label": "mapping(bytes32 => bytes32)",
        "numberOfBytes": "32",
        "value": "t_bytes32"
      },
      "t_mapping(t_bytes32,t_mapping(t_address,t_bool))": {
        "encoding": "mapping",
        "key": "t_bytes32",
        "label": "mapping(bytes32 => mapping(address => bool))",
        "numberOfBytes": "32",
        "value": "t_mapping(t_address,t_bool)"
      },
      "t_mapping(t_bytes32,t_struct(AddressSet)9760_storage)": {
        "encoding": "mapping",
        "key": "t_bytes32",
        "label": "mapping(bytes32 => struct EnumerableSet.AddressSet)",
        "numberOfBytes": "32",
        "value": "t_struct(AddressSet)9760_storage"
      },
      "t_mapping(t_bytes32,t_struct(RoleData)4402_storage)": {
        "encoding": "mapping",
        "key": "t_bytes32",
        "label": "mapping(bytes32 => struct AccessControl.RoleData)",
        "numberOfBytes": "32",
        "value": "t_struct(RoleData)4402_storage"
      },
      "t_mapping(t_bytes32,t_uint256)": {
        "encoding": "mapping",
        "key": "t_bytes32",
        "label": "mapping(bytes32 => uint256)",
        "numberOfBytes": "32",
        "value": "t_uint256"
      },
      "t_struct(AddressSet)9760_storage": {
        "encoding": "inplace",
        "label": "struct EnumerableSet.AddressSet",
        "members": [
          {
            "astId": 9759,
            "contract": "contracts/DepositRecord.sol:DepositRecord",
            "label": "_inner",
            "offset": 0,
            "slot": "0",
            "type": "t_struct(Set)9445_storage"
          }
        ],
        "numberOfBytes": "64"
      },
      "t_struct(RoleData)4402_storage": {
        "encoding": "inplace",
        "label": "struct AccessControl.RoleData",
        "members": [
          {
            "astId": 4399,
            "contract": "contracts/DepositRecord.sol:DepositRecord",
            "label": "members",
            "offset": 0,
            "slot": "0",
            "type": "t_mapping(t_address,t_bool)"
          },
          {
            "astId": 4401,
            "contract": "contracts/DepositRecord.sol:DepositRecord",
            "label": "adminRole",
            "offset": 0,
            "slot": "1",
            "type": "t_bytes32"
          }
        ],
        "numberOfBytes": "64"
      },
      "t_struct(Set)9445_storage": {
        "encoding": "inplace",
        "label": "struct EnumerableSet.Set",
        "members": [
          {
            "astId": 9440,
            "contract": "contracts/DepositRecord.sol:DepositRecord",
            "label": "_values",
            "offset": 0,
            "slot": "0",
            "type": "t_array(t_bytes32)dyn_storage"
          },
          {
            "astId": 9444,
            "contract": "contracts/DepositRecord.sol:DepositRecord",
            "label": "_indexes",
            "offset": 0,
            "slot": "1",
            "type": "t_mapping(t_bytes32,t_uint256)"
          }
        ],
        "numberOfBytes": "64"
      },
      "t_uint256": {
        "encoding": "inplace",
        "label": "uint256",
        "numberOfBytes": "32"
      }
    }
  }
}