{
  "address": "0x8c5aF2aB40D3Bed62d99ABeDC17a45084da96354",
  "abi": [
    {
      "inputs": [
        {
          "internalType": "uint256",
          "name": "baseTokenDecimals",
          "type": "uint256"
        }
      ],
      "stateMutability": "nonpayable",
      "type": "constructor"
    },
    {
      "inputs": [],
      "name": "GlobalPeriodTooLong",
      "type": "error"
    },
    {
      "inputs": [],
      "name": "GlobalWithdrawLimitExceeded",
      "type": "error"
    },
    {
      "inputs": [],
      "name": "GlobalWithdrawLimitTooLow",
      "type": "error"
    },
    {
      "inputs": [],
      "name": "InvalidAccount",
      "type": "error"
    },
    {
      "inputs": [],
      "name": "MsgSenderNotCollateral",
      "type": "error"
    },
    {
      "anonymous": false,
      "inputs": [
        {
          "indexed": false,
          "internalType": "contract IAccountList",
          "name": "accountList",
          "type": "address"
        }
      ],
      "name": "AccountListChange",
      "type": "event"
    },
    {
      "anonymous": false,
      "inputs": [
        {
          "indexed": false,
          "internalType": "address",
          "name": "account",
          "type": "address"
        },
        {
          "indexed": false,
          "internalType": "uint256",
          "name": "multiplier",
          "type": "uint256"
        }
      ],
      "name": "AmountMultiplierChange",
      "type": "event"
    },
    {
      "anonymous": false,
      "inputs": [
        {
          "indexed": false,
          "internalType": "address",
          "name": "collateral",
          "type": "address"
        }
      ],
      "name": "CollateralChange",
      "type": "event"
    },
    {
      "anonymous": false,
      "inputs": [
        {
          "indexed": false,
          "internalType": "contract IDepositRecord",
          "name": "depositRecord",
          "type": "address"
        }
      ],
      "name": "DepositRecordChange",
      "type": "event"
    },
    {
      "anonymous": false,
      "inputs": [
        {
          "indexed": false,
          "internalType": "uint256",
          "name": "period",
          "type": "uint256"
        }
      ],
      "name": "GlobalPeriodLengthChange",
      "type": "event"
    },
    {
      "anonymous": false,
      "inputs": [
        {
          "indexed": false,
          "internalType": "uint256",
          "name": "limit",
          "type": "uint256"
        }
      ],
      "name": "GlobalWithdrawLimitPerPeriodChange",
      "type": "event"
    },
    {
      "anonymous": false,
      "inputs": [
        {
          "indexed": true,
          "internalType": "bytes32",
          "name": "role",
          "type": "bytes32"
        },
        {
          "indexed": true,
          "internalType": "bytes32",
          "name": "previousAdminRole",
          "type": "bytes32"
        },
        {
          "indexed": true,
          "internalType": "bytes32",
          "name": "newAdminRole",
          "type": "bytes32"
        }
      ],
      "name": "RoleAdminChanged",
      "type": "event"
    },
    {
      "anonymous": false,
      "inputs": [
        {
          "indexed": false,
          "internalType": "bytes32",
          "name": "role",
          "type": "bytes32"
        },
        {
          "indexed": false,
          "internalType": "bytes32",
          "name": "newRoleAdminNominee",
          "type": "bytes32"
        }
      ],
      "name": "RoleAdminNomineeUpdate",
      "type": "event"
    },
    {
      "anonymous": false,
      "inputs": [
        {
          "indexed": true,
          "internalType": "bytes32",
          "name": "role",
          "type": "bytes32"
        },
        {
          "indexed": true,
          "internalType": "address",
          "name": "account",
          "type": "address"
        },
        {
          "indexed": true,
          "internalType": "address",
          "name": "sender",
          "type": "address"
        }
      ],
      "name": "RoleGranted",
      "type": "event"
    },
    {
      "anonymous": false,
      "inputs": [
        {
          "indexed": false,
          "internalType": "bytes32",
          "name": "role",
          "type": "bytes32"
        },
        {
          "indexed": false,
          "internalType": "address",
          "name": "account",
          "type": "address"
        },
        {
          "indexed": false,
          "internalType": "bool",
          "name": "nominated",
          "type": "bool"
        }
      ],
      "name": "RoleNomineeUpdate",
      "type": "event"
    },
    {
      "anonymous": false,
      "inputs": [
        {
          "indexed": true,
          "internalType": "bytes32",
          "name": "role",
          "type": "bytes32"
        },
        {
          "indexed": true,
          "internalType": "address",
          "name": "account",
          "type": "address"
        },
        {
          "indexed": true,
          "internalType": "address",
          "name": "sender",
          "type": "address"
        }
      ],
      "name": "RoleRevoked",
      "type": "event"
    },
    {
      "anonymous": false,
      "inputs": [
        {
          "indexed": false,
          "internalType": "address",
          "name": "sender",
          "type": "address"
        }
      ],
      "name": "TokenSenderChange",
      "type": "event"
    },
    {
      "anonymous": false,
      "inputs": [
        {
          "indexed": false,
          "internalType": "address",
          "name": "treasury",
          "type": "address"
        }
      ],
      "name": "TreasuryChange",
      "type": "event"
    },
    {
      "inputs": [],
      "name": "DEFAULT_ADMIN_ROLE",
      "outputs": [
        {
          "internalType": "bytes32",
          "name": "",
          "type": "bytes32"
        }
      ],
      "stateMutability": "view",
      "type": "function"
    },
    {
      "inputs": [],
      "name": "MAX_GLOBAL_PERIOD_LENGTH",
      "outputs": [
        {
          "internalType": "uint256",
          "name": "",
          "type": "uint256"
        }
      ],
      "stateMutability": "view",
      "type": "function"
    },
    {
      "inputs": [],
      "name": "MIN_GLOBAL_WITHDRAW_LIMIT_PERCENT_PER_PERIOD",
      "outputs": [
        {
          "internalType": "uint256",
          "name": "",
          "type": "uint256"
        }
      ],
      "stateMutability": "view",
      "type": "function"
    },
    {
      "inputs": [],
      "name": "MIN_GLOBAL_WITHDRAW_LIMIT_PER_PERIOD",
      "outputs": [
        {
          "internalType": "uint256",
          "name": "",
          "type": "uint256"
        }
      ],
      "stateMutability": "view",
      "type": "function"
    },
    {
      "inputs": [],
      "name": "PERCENT_UNIT",
      "outputs": [
        {
          "internalType": "uint256",
          "name": "",
          "type": "uint256"
        }
      ],
      "stateMutability": "view",
      "type": "function"
    },
    {
      "inputs": [],
      "name": "SET_ACCOUNT_LIST_ROLE",
      "outputs": [
        {
          "internalType": "bytes32",
          "name": "",
          "type": "bytes32"
        }
      ],
      "stateMutability": "view",
      "type": "function"
    },
    {
      "inputs": [],
      "name": "SET_AMOUNT_MULTIPLIER_ROLE",
      "outputs": [
        {
          "internalType": "bytes32",
          "name": "",
          "type": "bytes32"
        }
      ],
      "stateMutability": "view",
      "type": "function"
    },
    {
      "inputs": [],
      "name": "SET_COLLATERAL_ROLE",
      "outputs": [
        {
          "internalType": "bytes32",
          "name": "",
          "type": "bytes32"
        }
      ],
      "stateMutability": "view",
      "type": "function"
    },
    {
      "inputs": [],
      "name": "SET_DEPOSIT_RECORD_ROLE",
      "outputs": [
        {
          "internalType": "bytes32",
          "name": "",
          "type": "bytes32"
        }
      ],
      "stateMutability": "view",
      "type": "function"
    },
    {
      "inputs": [],
      "name": "SET_GLOBAL_PERIOD_LENGTH_ROLE",
      "outputs": [
        {
          "internalType": "bytes32",
          "name": "",
          "type": "bytes32"
        }
      ],
      "stateMutability": "view",
      "type": "function"
    },
    {
      "inputs": [],
      "name": "SET_GLOBAL_WITHDRAW_LIMIT_PER_PERIOD_ROLE",
      "outputs": [
        {
          "internalType": "bytes32",
          "name": "",
          "type": "bytes32"
        }
      ],
      "stateMutability": "view",
      "type": "function"
    },
    {
      "inputs": [],
      "name": "SET_TOKEN_SENDER_ROLE",
      "outputs": [
        {
          "internalType": "bytes32",
          "name": "",
          "type": "bytes32"
        }
      ],
      "stateMutability": "view",
      "type": "function"
    },
    {
      "inputs": [],
      "name": "SET_TREASURY_ROLE",
      "outputs": [
        {
          "internalType": "bytes32",
          "name": "",
          "type": "bytes32"
        }
      ],
      "stateMutability": "view",
      "type": "function"
    },
    {
      "inputs": [
        {
          "internalType": "bytes32",
          "name": "role",
          "type": "bytes32"
        }
      ],
      "name": "acceptRole",
      "outputs": [],
      "stateMutability": "nonpayable",
      "type": "function"
    },
    {
      "inputs": [
        {
          "internalType": "bytes32",
          "name": "role",
          "type": "bytes32"
        }
      ],
      "name": "acceptRoleAdmin",
      "outputs": [],
      "stateMutability": "nonpayable",
      "type": "function"
    },
    {
      "inputs": [],
      "name": "getAccountList",
      "outputs": [
        {
          "internalType": "contract IAccountList",
          "name": "",
          "type": "address"
        }
      ],
      "stateMutability": "view",
      "type": "function"
    },
    {
      "inputs": [
        {
          "internalType": "address",
          "name": "account",
          "type": "address"
        }
      ],
      "name": "getAmountMultiplier",
      "outputs": [
        {
          "internalType": "uint256",
          "name": "",
          "type": "uint256"
        }
      ],
      "stateMutability": "view",
      "type": "function"
    },
    {
      "inputs": [],
      "name": "getCollateral",
      "outputs": [
        {
          "internalType": "contract ICollateral",
          "name": "",
          "type": "address"
        }
      ],
      "stateMutability": "view",
      "type": "function"
    },
    {
      "inputs": [],
      "name": "getDepositRecord",
      "outputs": [
        {
          "internalType": "contract IDepositRecord",
          "name": "",
          "type": "address"
        }
      ],
      "stateMutability": "view",
      "type": "function"
    },
    {
      "inputs": [],
      "name": "getEffectiveGlobalWithdrawLimitPerPeriod",
      "outputs": [
        {
          "internalType": "uint256",
          "name": "",
          "type": "uint256"
        }
      ],
      "stateMutability": "view",
      "type": "function"
    },
    {
      "inputs": [],
      "name": "getGlobalAmountWithdrawnThisPeriod",
      "outputs": [
        {
          "internalType": "uint256",
          "name": "",
          "type": "uint256"
        }
      ],
      "stateMutability": "view",
      "type": "function"
    },
    {
      "inputs": [],
      "name": "getGlobalPeriodLength",
      "outputs": [
        {
          "internalType": "uint256",
          "name": "",
          "type": "uint256"
        }
      ],
      "stateMutability": "view",
      "type": "function"
    },
    {
      "inputs": [],
      "name": "getGlobalWithdrawLimitPerPeriod",
      "outputs": [
        {
          "internalType": "uint256",
          "name": "",
          "type": "uint256"
        }
      ],
      "stateMutability": "view",
      "type": "function"
    },
    {
      "inputs": [],
      "name": "getLastGlobalPeriodReset",
      "outputs": [
        {
          "internalType": "uint256",
          "name": "",
          "type": "uint256"
        }
      ],
      "stateMutability": "view",
      "type": "function"
    },
    {
      "inputs": [
        {
          "internalType": "bytes32",
          "name": "role",
          "type": "bytes32"
        }
      ],
      "name": "getRoleAdmin",
      "outputs": [
        {
          "internalType": "bytes32",
          "name": "",
          "type": "bytes32"
        }
      ],
      "stateMutability": "view",
      "type": "function"
    },
    {
      "inputs": [
        {
          "internalType": "bytes32",
          "name": "role",
          "type": "bytes32"
        }
      ],
      "name": "getRoleAdminNominee",
      "outputs": [
        {
          "internalType": "bytes32",
          "name": "",
          "type": "bytes32"
        }
      ],
      "stateMutability": "view",
      "type": "function"
    },
    {
      "inputs": [
        {
          "internalType": "bytes32",
          "name": "role",
          "type": "bytes32"
        },
        {
          "internalType": "uint256",
          "name": "index",
          "type": "uint256"
        }
      ],
      "name": "getRoleMember",
      "outputs": [
        {
          "internalType": "address",
          "name": "",
          "type": "address"
        }
      ],
      "stateMutability": "view",
      "type": "function"
    },
    {
      "inputs": [
        {
          "internalType": "bytes32",
          "name": "role",
          "type": "bytes32"
        }
      ],
      "name": "getRoleMemberCount",
      "outputs": [
        {
          "internalType": "uint256",
          "name": "",
          "type": "uint256"
        }
      ],
      "stateMutability": "view",
      "type": "function"
    },
    {
      "inputs": [],
      "name": "getTokenSender",
      "outputs": [
        {
          "internalType": "contract ITokenSender",
          "name": "",
          "type": "address"
        }
      ],
      "stateMutability": "view",
      "type": "function"
    },
    {
      "inputs": [],
      "name": "getTreasury",
      "outputs": [
        {
          "internalType": "address",
          "name": "",
          "type": "address"
        }
      ],
      "stateMutability": "view",
      "type": "function"
    },
    {
      "inputs": [
        {
          "internalType": "bytes32",
          "name": "role",
          "type": "bytes32"
        },
        {
          "internalType": "address",
          "name": "account",
          "type": "address"
        }
      ],
      "name": "grantRole",
      "outputs": [],
      "stateMutability": "nonpayable",
      "type": "function"
    },
    {
      "inputs": [
        {
          "internalType": "bytes32",
          "name": "role",
          "type": "bytes32"
        },
        {
          "internalType": "address",
          "name": "account",
          "type": "address"
        }
      ],
      "name": "hasRole",
      "outputs": [
        {
          "internalType": "bool",
          "name": "",
          "type": "bool"
        }
      ],
      "stateMutability": "view",
      "type": "function"
    },
    {
      "inputs": [
        {
          "internalType": "address",
          "name": "",
          "type": "address"
        },
        {
          "internalType": "address",
          "name": "recipient",
          "type": "address"
        },
        {
          "internalType": "uint256",
          "name": "amountBeforeFee",
          "type": "uint256"
        },
        {
          "internalType": "uint256",
          "name": "amountAfterFee",
          "type": "uint256"
        },
        {
          "internalType": "bytes",
          "name": "",
          "type": "bytes"
        }
      ],
      "name": "hook",
      "outputs": [],
      "stateMutability": "nonpayable",
      "type": "function"
    },
    {
      "inputs": [
        {
          "internalType": "address",
          "name": "",
          "type": "address"
        },
        {
          "internalType": "address",
          "name": "recipient",
          "type": "address"
        },
        {
          "internalType": "uint256",
          "name": "amountBeforeFee",
          "type": "uint256"
        },
        {
          "internalType": "uint256",
          "name": "amountAfterFee",
          "type": "uint256"
        }
      ],
      "name": "hook",
      "outputs": [],
      "stateMutability": "nonpayable",
      "type": "function"
    },
    {
      "inputs": [
        {
          "internalType": "bytes32",
          "name": "role",
          "type": "bytes32"
        },
        {
          "internalType": "address",
          "name": "account",
          "type": "address"
        }
      ],
      "name": "isNominated",
      "outputs": [
        {
          "internalType": "bool",
          "name": "",
          "type": "bool"
        }
      ],
      "stateMutability": "view",
      "type": "function"
    },
    {
      "inputs": [
        {
          "internalType": "bytes32",
          "name": "role",
          "type": "bytes32"
        },
        {
          "internalType": "address",
          "name": "account",
          "type": "address"
        }
      ],
      "name": "renounceRole",
      "outputs": [],
      "stateMutability": "nonpayable",
      "type": "function"
    },
    {
      "inputs": [
        {
          "internalType": "bytes32",
          "name": "role",
          "type": "bytes32"
        },
        {
          "internalType": "address",
          "name": "account",
          "type": "address"
        }
      ],
      "name": "revokeNomination",
      "outputs": [],
      "stateMutability": "nonpayable",
      "type": "function"
    },
    {
      "inputs": [
        {
          "internalType": "bytes32",
          "name": "role",
          "type": "bytes32"
        },
        {
          "internalType": "address",
          "name": "account",
          "type": "address"
        }
      ],
      "name": "revokeRole",
      "outputs": [],
      "stateMutability": "nonpayable",
      "type": "function"
    },
    {
      "inputs": [
        {
          "internalType": "contract IAccountList",
          "name": "accountList",
          "type": "address"
        }
      ],
      "name": "setAccountList",
      "outputs": [],
      "stateMutability": "nonpayable",
      "type": "function"
    },
    {
      "inputs": [
        {
          "internalType": "address",
          "name": "account",
          "type": "address"
        },
        {
          "internalType": "uint256",
          "name": "amountMultiplier",
          "type": "uint256"
        }
      ],
      "name": "setAmountMultiplier",
      "outputs": [],
      "stateMutability": "nonpayable",
      "type": "function"
    },
    {
      "inputs": [
        {
          "internalType": "contract ICollateral",
          "name": "collateral",
          "type": "address"
        }
      ],
      "name": "setCollateral",
      "outputs": [],
      "stateMutability": "nonpayable",
      "type": "function"
    },
    {
      "inputs": [
        {
          "internalType": "contract IDepositRecord",
          "name": "depositRecord",
          "type": "address"
        }
      ],
      "name": "setDepositRecord",
      "outputs": [],
      "stateMutability": "nonpayable",
      "type": "function"
    },
    {
      "inputs": [
        {
          "internalType": "uint256",
          "name": "globalPeriodLength",
          "type": "uint256"
        }
      ],
      "name": "setGlobalPeriodLength",
      "outputs": [],
      "stateMutability": "nonpayable",
      "type": "function"
    },
    {
      "inputs": [
        {
          "internalType": "uint256",
          "name": "globalWithdrawLimitPerPeriod",
          "type": "uint256"
        }
      ],
      "name": "setGlobalWithdrawLimitPerPeriod",
      "outputs": [],
      "stateMutability": "nonpayable",
      "type": "function"
    },
    {
      "inputs": [
        {
          "internalType": "bytes32",
          "name": "role",
          "type": "bytes32"
        },
        {
          "internalType": "bytes32",
          "name": "roleAdminNominee",
          "type": "bytes32"
        }
      ],
      "name": "setRoleAdminNominee",
      "outputs": [],
      "stateMutability": "nonpayable",
      "type": "function"
    },
    {
      "inputs": [
        {
          "internalType": "contract ITokenSender",
          "name": "tokenSender",
          "type": "address"
        }
      ],
      "name": "setTokenSender",
      "outputs": [],
      "stateMutability": "nonpayable",
      "type": "function"
    },
    {
      "inputs": [
        {
          "internalType": "address",
          "name": "treasury",
          "type": "address"
        }
      ],
      "name": "setTreasury",
      "outputs": [],
      "stateMutability": "nonpayable",
      "type": "function"
    },
    {
      "inputs": [
        {
          "internalType": "bytes4",
          "name": "interfaceId",
          "type": "bytes4"
        }
      ],
      "name": "supportsInterface",
      "outputs": [
        {
          "internalType": "bool",
          "name": "",
          "type": "bool"
        }
      ],
      "stateMutability": "view",
      "type": "function"
    }
  ],
  "transactionHash": "0x6857cb5e9ddccb2deb48b49dac580260256711e092dd880ea5b7917b88e891d8",
  "args": [
    18
  ],
  "numDeployments": 1,
  "solcInputHash": "28f6de7e1fb5c639ce6bc33576032228",
  "bytecode": "0x60a06040523480156200001157600080fd5b506040516200257c3803806200257c833981016040819052620000349162000333565b600160035562000046600033620001ca565b6200005381600a62000396565b6200006090600562000452565b6080526200008f7f69fa7e30d0a933b5cf231c0c7bfb58ba5098b62118a7e5acb78259799e68e58933620001da565b620000bb7faa846091102164c5e21f54b3e3ad83b6a638fdd7025f564e23a465397fbac3d533620001da565b620000e77f357c24628d3ecfb70f936144a6921732c185d66a24d3a75869fbd9533119835a33620001da565b620001137f7ae716f4f13977691bb5f40b1fd3802682bf6e3ba166958adf32b4fbc1a6926233620001da565b6200013f7f71f40c14b394194ea8350ae582534284c0d095e28b31dca7637f0d56b892dc4733620001da565b6200016b7fca340be9c865de87d324561df7a6aca1b08da06af6cc85e021e2b5a44c2bef7133620001da565b620001977f97d3ebf3736ba04f7144b2608338c5a26ff9a7e2119e9bde25b4463cf8e924fd33620001da565b620001c37fa3f9a4ddb4f0094faa188145d8045d8ee03937d3a640f2fdc74166e9e1e5380533620001da565b506200048a565b620001d68282620001da565b5050565b620001f182826200021d60201b620013451760201c565b600082815260056020908152604090912062000218918390620013cb620002c1821b17901c565b505050565b60008281526004602090815260408083206001600160a01b038516845290915290205460ff16620001d65760008281526004602090815260408083206001600160a01b03851684529091529020805460ff191660011790556200027d3390565b6001600160a01b0316816001600160a01b0316837f2f8788117e7eff1d82e926ec794901d17c78024a50270940304540a733656f0d60405160405180910390a45050565b6000620002d8836001600160a01b038416620002e1565b90505b92915050565b60008181526001830160205260408120546200032a57508154600181810184556000848152602080822090930184905584548482528286019093526040902091909155620002db565b506000620002db565b6000602082840312156200034657600080fd5b5051919050565b600181815b808511156200038e57816000190482111562000372576200037262000474565b808516156200038057918102915b93841c939080029062000352565b509250929050565b6000620002d88383600082620003af57506001620002db565b81620003be57506000620002db565b8160018114620003d75760028114620003e25762000402565b6001915050620002db565b60ff841115620003f657620003f662000474565b50506001821b620002db565b5060208310610133831016604e8410600b841016171562000427575081810a620002db565b6200043383836200034d565b80600019048211156200044a576200044a62000474565b029392505050565b60008160001904831182151516156200046f576200046f62000474565b500290565b634e487b7160e01b600052601160045260246000fd5b6080516120cf620004ad6000396000818161053f01526114c001526120cf6000f3fe608060405234801561001057600080fd5b50600436106102a05760003560e01c8063886abef511610167578063c4a1e98b116100ce578063d8dc029011610087578063d8dc0290146106a4578063dff6964d146106b7578063e6dab1a8146106de578063ea7fbba6146106ef578063f0f44260146106f7578063fc01c4f21461070a57600080fd5b8063c4a1e98b1461061e578063ca15c87314610631578063cd0c1d9614610644578063d338107e14610657578063d427cec41461066a578063d547741f1461069157600080fd5b8063a85cae9f11610120578063a85cae9f1461058f578063adbcb0e3146105a0578063b6aa0ecb146105b3578063bd94904b146105da578063bfdbb7be14610601578063c2b290661461061457600080fd5b8063886abef5146105145780638bb06b0b146105275780638cb7dad81461053a5780639010d07c1461056157806391d1485414610574578063a217fddf1461058757600080fd5b806340163a631161020b5780636acfd673116101c45780636acfd673146104785780636d14bd1f1461048b57806371544d941461049e5780637fe1175f146104c557806380db4329146104ec57806383641b9b1461050c57600080fd5b806340163a63146103f6578063485b1584146104005780634f7c40b1146104135780635c1548fb1461041b5780635c449f7c1461042c5780636813ced41461046557600080fd5b806333a417971161025d57806333a417971461036757806335eaf7e31461039057806336568abe146103b757806336fc1787146103ca5780633705573d146103dd5780633b19e84a146103e557600080fd5b806301ffc9a7146102a557806316af4a39146102cd578063248a9ca3146102e35780632843314e146103065780632b3d55451461032b5780632f2ff15d14610352575b600080fd5b6102b86102b3366004611e71565b610713565b60405190151581526020015b60405180910390f35b6102d561073e565b6040519081526020016102c4565b6102d56102f1366004611e06565b60009081526004602052604090206001015490565b6000546001600160a01b03165b6040516001600160a01b0390911681526020016102c4565b6102d57fca340be9c865de87d324561df7a6aca1b08da06af6cc85e021e2b5a44c2bef7181565b610365610360366004611e1f565b610758565b005b6102d5610375366004611cab565b6001600160a01b031660009081526008602052604090205490565b6102d57faa846091102164c5e21f54b3e3ad83b6a638fdd7025f564e23a465397fbac3d581565b6103656103c5366004611e1f565b610784565b6103656103d8366004611e06565b610807565b600d546102d5565b600a546001600160a01b0316610313565b6102d5620f424081565b61036561040e366004611e06565b610889565b600e546102d5565b6001546001600160a01b0316610313565b6102b861043a366004611e1f565b60009182526007602090815260408084206001600160a01b0393909316845291905290205460ff1690565b610365610473366004611d0e565b610918565b610365610486366004611e1f565b610cac565b610365610499366004611cc8565b610cd3565b6102d57f71f40c14b394194ea8350ae582534284c0d095e28b31dca7637f0d56b892dc4781565b6102d57fa3f9a4ddb4f0094faa188145d8045d8ee03937d3a640f2fdc74166e9e1e5380581565b6102d56104fa366004611e06565b60009081526006602052604090205490565b600c546102d5565b610365610522366004611cab565b611065565b610365610535366004611e06565b611098565b6102d57f000000000000000000000000000000000000000000000000000000000000000081565b61031361056f366004611e4f565b6110d5565b6102b8610582366004611e1f565b6110f4565b6102d5600081565b6002546001600160a01b0316610313565b6103656105ae366004611e06565b61111f565b6102d57f7ae716f4f13977691bb5f40b1fd3802682bf6e3ba166958adf32b4fbc1a6926281565b6102d57f69fa7e30d0a933b5cf231c0c7bfb58ba5098b62118a7e5acb78259799e68e58981565b61036561060f366004611cab565b6111a2565b6102d562093a8081565b61036561062c366004611cab565b6111d5565b6102d561063f366004611e06565b611208565b610365610652366004611e4f565b61121f565b610365610665366004611cab565b611244565b6102d57f97d3ebf3736ba04f7144b2608338c5a26ff9a7e2119e9bde25b4463cf8e924fd81565b61036561069f366004611e1f565b611277565b6103656106b2366004611db8565b61129c565b6102d57f357c24628d3ecfb70f936144a6921732c185d66a24d3a75869fbd9533119835a81565b6009546001600160a01b0316610313565b600b546102d5565b610365610705366004611cab565b611312565b6102d561753081565b60006001600160e01b03198216635a05180f60e01b14806107385750610738826113e0565b92915050565b6000610753600c5461074e611415565b6114eb565b905090565b60008281526004602052604090206001015461077381611502565b61077f8383600161150c565b505050565b6001600160a01b03811633146107f95760405162461bcd60e51b815260206004820152602f60248201527f416363657373436f6e74726f6c3a2063616e206f6e6c792072656e6f756e636560448201526e103937b632b9903337b91039b2b63360891b60648201526084015b60405180910390fd5b6108038282611584565b5050565b600081815260076020908152604080832033845290915290205460ff166108705760405162461bcd60e51b815260206004820152601a60248201527f6d73672e73656e64657220213d20726f6c65206e6f6d696e656500000000000060448201526064016107f0565b61087c8133600061150c565b61088681336115a6565b50565b7f71f40c14b394194ea8350ae582534284c0d095e28b31dca7637f0d56b892dc476108b381611502565b6108bb611415565b8210156108db5760405163155d67bf60e21b815260040160405180910390fd5b600c8290556040518281527f645739288fe21915c141abe0f0fe90648e8eff755bc9db6fd7193df03c1febf5906020015b60405180910390a15050565b6109206115c8565b6001546001600160a01b0316331461094b576040516307cb78b360e51b815260040160405180910390fd5b600254604051630ab20d3f60e01b8152600481018690526001600160a01b0390911690630ab20d3f90602401600060405180830381600087803b15801561099157600080fd5b505af11580156109a5573d6000803e3d6000fd5b50506000546001600160a01b031615801592509050610a3c57506000546040516304d93ff560e31b81526001600160a01b038781166004830152909116906326c9ffa89060240160206040518083038186803b158015610a0457600080fd5b505afa158015610a18573d6000803e3d6000fd5b505050506040513d601f19601f82011682018060405250810190610a3c9190611de4565b15610a4657610c9a565b42600b54600d54610a579190611f79565b1015610a675742600d556000600e555b610a6f61073e565b84600e54610a7d9190611f79565b1115610a9c5760405163073c5a6b60e41b815260040160405180910390fd5b83600e6000828254610aae9190611f79565b9091555060009050610ac08486611fd2565b905080610acd5750610c9a565b600160009054906101000a90046001600160a01b03166001600160a01b03166398acd7a66040518163ffffffff1660e01b815260040160206040518083038186803b158015610b1b57600080fd5b505afa158015610b2f573d6000803e3d6000fd5b505050506040513d601f19601f82011682018060405250810190610b539190611e9b565b600154600a546040516323b872dd60e01b81526001600160a01b0392831660048201529082166024820152604481018490529116906323b872dd90606401602060405180830381600087803b158015610bab57600080fd5b505af1158015610bbf573d6000803e3d6000fd5b505050506040513d601f19601f82011682018060405250810190610be39190611de4565b506009546001600160a01b0316610bfa5750610c9a565b33600090815260086020526040812054620f424090610c199084611fb3565b610c239190611f91565b905080610c31575050610c9a565b600954604051633419e74d60e21b81526001600160a01b038981166004830152602482018490529091169063d0679d3490604401600060405180830381600087803b158015610c7f57600080fd5b505af1158015610c93573d6000803e3d6000fd5b5050505050505b610ca46001600355565b505050505050565b600082815260046020526040902060010154610cc781611502565b61077f8383600061150c565b610cdb6115c8565b6001546001600160a01b03163314610d06576040516307cb78b360e51b815260040160405180910390fd5b600254604051630ab20d3f60e01b8152600481018490526001600160a01b0390911690630ab20d3f90602401600060405180830381600087803b158015610d4c57600080fd5b505af1158015610d60573d6000803e3d6000fd5b50506000546001600160a01b031615801592509050610df757506000546040516304d93ff560e31b81526001600160a01b038581166004830152909116906326c9ffa89060240160206040518083038186803b158015610dbf57600080fd5b505afa158015610dd3573d6000803e3d6000fd5b505050506040513d601f19601f82011682018060405250810190610df79190611de4565b15610e0157611055565b42600b54600d54610e129190611f79565b1015610e225742600d556000600e555b610e2a61073e565b82600e54610e389190611f79565b1115610e575760405163073c5a6b60e41b815260040160405180910390fd5b81600e6000828254610e699190611f79565b9091555060009050610e7b8284611fd2565b905080610e885750611055565b600160009054906101000a90046001600160a01b03166001600160a01b03166398acd7a66040518163ffffffff1660e01b815260040160206040518083038186803b158015610ed657600080fd5b505afa158015610eea573d6000803e3d6000fd5b505050506040513d601f19601f82011682018060405250810190610f0e9190611e9b565b600154600a546040516323b872dd60e01b81526001600160a01b0392831660048201529082166024820152604481018490529116906323b872dd90606401602060405180830381600087803b158015610f6657600080fd5b505af1158015610f7a573d6000803e3d6000fd5b505050506040513d601f19601f82011682018060405250810190610f9e9190611de4565b506009546001600160a01b0316610fb55750611055565b33600090815260086020526040812054620f424090610fd49084611fb3565b610fde9190611f91565b905080610fec575050611055565b600954604051633419e74d60e21b81526001600160a01b038781166004830152602482018490529091169063d0679d3490604401600060405180830381600087803b15801561103a57600080fd5b505af115801561104e573d6000803e3d6000fd5b5050505050505b61105f6001600355565b50505050565b7faa846091102164c5e21f54b3e3ad83b6a638fdd7025f564e23a465397fbac3d561108f81611502565b61080382611622565b6000818152600660205260409020546110b081611502565b6000828152600660205260409020546110ca908390611677565b6108038260006116c2565b60008281526005602052604081206110ed908361171d565b9392505050565b60009182526004602090815260408084206001600160a01b0393909316845291905290205460ff1690565b7f7ae716f4f13977691bb5f40b1fd3802682bf6e3ba166958adf32b4fbc1a6926261114981611502565b62093a8082111561116d576040516315bcbb8d60e21b815260040160405180910390fd5b600b8290556040518281527f5e47dfa6af5e928e5f40d2e84a51b862764bac0b06697d9cceea21de575ed43b9060200161090c565b7fa3f9a4ddb4f0094faa188145d8045d8ee03937d3a640f2fdc74166e9e1e538056111cc81611502565b61080382611729565b7f357c24628d3ecfb70f936144a6921732c185d66a24d3a75869fbd9533119835a6111ff81611502565b61080382611777565b6000818152600560205260408120610738906117c5565b60008281526004602052604090206001015461123a81611502565b61077f83836116c2565b7f69fa7e30d0a933b5cf231c0c7bfb58ba5098b62118a7e5acb78259799e68e58961126e81611502565b610803826117cf565b60008281526004602052604090206001015461129281611502565b61077f8383611584565b7f97d3ebf3736ba04f7144b2608338c5a26ff9a7e2119e9bde25b4463cf8e924fd6112c681611502565b6001600160a01b03831615806112ea57506001546001600160a01b03848116911614155b1561130857604051630da30f6560e31b815260040160405180910390fd5b61077f838361181d565b7fca340be9c865de87d324561df7a6aca1b08da06af6cc85e021e2b5a44c2bef7161133c81611502565b6108038261186e565b61134f82826110f4565b6108035760008281526004602090815260408083206001600160a01b03851684529091529020805460ff191660011790556113873390565b6001600160a01b0316816001600160a01b0316837f2f8788117e7eff1d82e926ec794901d17c78024a50270940304540a733656f0d60405160405180910390a45050565b60006110ed836001600160a01b0384166118bc565b60006001600160e01b03198216637965db0b60e01b148061073857506301ffc9a760e01b6001600160e01b0319831614610738565b600080620f4240617530600260009054906101000a90046001600160a01b03166001600160a01b0316634712ccd26040518163ffffffff1660e01b815260040160206040518083038186803b15801561146d57600080fd5b505afa158015611481573d6000803e3d6000fd5b505050506040513d601f19601f820116820180604052508101906114a59190611eb8565b6114af9190611fb3565b6114b99190611f91565b90506114e57f0000000000000000000000000000000000000000000000000000000000000000826114eb565b91505090565b6000818310156114fb57816110ed565b5090919050565b610886813361190b565b60008381526007602090815260408083206001600160a01b03861680855290835292819020805460ff19168515159081179091558151878152928301939093528101919091527fd4eaea07a6439b4db5273291dd4d77f204d9eaf0d67149318c911f449f3df5d69060600160405180910390a1505050565b61158e8282611964565b600082815260056020526040902061077f90826119cb565b6115b08282611345565b600082815260056020526040902061077f90826113cb565b6002600354141561161b5760405162461bcd60e51b815260206004820152601f60248201527f5265656e7472616e637947756172643a207265656e7472616e742063616c6c0060448201526064016107f0565b6002600355565b600180546001600160a01b0319166001600160a01b0383169081179091556040519081527ff3284c6e8673de2d189baf6ddfffc24826d300bd1767b9ad96325f0edebc7657906020015b60405180910390a150565b600082815260046020526040808220600101805490849055905190918391839186917fbd79b86ffe0ab8e8776151514217cd7cacd52c909f66475c3af44e129f0b00ff9190a4505050565b6000828152600660209081526040918290205482519081529081018390527fb7f84e320be67bd09b884f0142b70ae1256025837c61650411a58567f9137c5d910160405180910390a160009182526006602052604090912055565b60006110ed83836119e0565b600980546001600160a01b0319166001600160a01b0383169081179091556040519081527fc675cdccdd880d63acbe7af916bd9e4b8e8ffc96d4b0e1764619fa064658e93e9060200161166c565b600280546001600160a01b0319166001600160a01b0383169081179091556040519081527f24e473e0668a41393ec884ab1a2903d849b9c98d187fea4e0c19dcda22ce3dc49060200161166c565b6000610738825490565b600080546001600160a01b0319166001600160a01b0383169081179091556040519081527f310aaf5db2aa9335d0aebcc973d03748ed641890df20d89139a312856b5a675c9060200161166c565b6001600160a01b038216600081815260086020908152604091829020849055815192835282018390527fd5ed868d32725cecbd7093a294cc2e71fc63dfbe7a241899218d41a6810fbf53910161090c565b600a80546001600160a01b0319166001600160a01b0383169081179091556040519081527f1ac54af2084ba0e4b86b7bc54b978ce7dd4ca046d3dec89d7c8963873820c0bb9060200161166c565b600081815260018301602052604081205461190357508154600181810184556000848152602080822090930184905584548482528286019093526040902091909155610738565b506000610738565b61191582826110f4565b6108035761192281611a0a565b61192d836020611a1c565b60405160200161193e929190611ed1565b60408051601f198184030181529082905262461bcd60e51b82526107f091600401611f46565b61196e82826110f4565b156108035760008281526004602090815260408083206001600160a01b0385168085529252808320805460ff1916905551339285917ff6391f5c32d9c69d2a47ea670b442974b53935d1edc7fd64eb21e047a839171b9190a45050565b60006110ed836001600160a01b038416611bb8565b60008260000182815481106119f7576119f7612058565b9060005260206000200154905092915050565b60606107386001600160a01b03831660145b60606000611a2b836002611fb3565b611a36906002611f79565b67ffffffffffffffff811115611a4e57611a4e61206e565b6040519080825280601f01601f191660200182016040528015611a78576020820181803683370190505b509050600360fc1b81600081518110611a9357611a93612058565b60200101906001600160f81b031916908160001a905350600f60fb1b81600181518110611ac257611ac2612058565b60200101906001600160f81b031916908160001a9053506000611ae6846002611fb3565b611af1906001611f79565b90505b6001811115611b69576f181899199a1a9b1b9c1cb0b131b232b360811b85600f1660108110611b2557611b25612058565b1a60f81b828281518110611b3b57611b3b612058565b60200101906001600160f81b031916908160001a90535060049490941c93611b6281612015565b9050611af4565b5083156110ed5760405162461bcd60e51b815260206004820181905260248201527f537472696e67733a20686578206c656e67746820696e73756666696369656e7460448201526064016107f0565b60008181526001830160205260408120548015611ca1576000611bdc600183611fd2565b8554909150600090611bf090600190611fd2565b9050818114611c55576000866000018281548110611c1057611c10612058565b9060005260206000200154905080876000018481548110611c3357611c33612058565b6000918252602080832090910192909255918252600188019052604090208390555b8554869080611c6657611c66612042565b600190038181906000526020600020016000905590558560010160008681526020019081526020016000206000905560019350505050610738565b6000915050610738565b600060208284031215611cbd57600080fd5b81356110ed81612084565b60008060008060808587031215611cde57600080fd5b8435611ce981612084565b93506020850135611cf981612084565b93969395505050506040820135916060013590565b60008060008060008060a08789031215611d2757600080fd5b8635611d3281612084565b95506020870135611d4281612084565b94506040870135935060608701359250608087013567ffffffffffffffff80821115611d6d57600080fd5b818901915089601f830112611d8157600080fd5b813581811115611d9057600080fd5b8a6020828501011115611da257600080fd5b6020830194508093505050509295509295509295565b60008060408385031215611dcb57600080fd5b8235611dd681612084565b946020939093013593505050565b600060208284031215611df657600080fd5b815180151581146110ed57600080fd5b600060208284031215611e1857600080fd5b5035919050565b60008060408385031215611e3257600080fd5b823591506020830135611e4481612084565b809150509250929050565b60008060408385031215611e6257600080fd5b50508035926020909101359150565b600060208284031215611e8357600080fd5b81356001600160e01b0319811681146110ed57600080fd5b600060208284031215611ead57600080fd5b81516110ed81612084565b600060208284031215611eca57600080fd5b5051919050565b7f416363657373436f6e74726f6c3a206163636f756e7420000000000000000000815260008351611f09816017850160208801611fe9565b7001034b99036b4b9b9b4b733903937b6329607d1b6017918401918201528351611f3a816028840160208801611fe9565b01602801949350505050565b6020815260008251806020840152611f65816040850160208701611fe9565b601f01601f19169190910160400192915050565b60008219821115611f8c57611f8c61202c565b500190565b600082611fae57634e487b7160e01b600052601260045260246000fd5b500490565b6000816000190483118215151615611fcd57611fcd61202c565b500290565b600082821015611fe457611fe461202c565b500390565b60005b83811015612004578181015183820152602001611fec565b8381111561105f5750506000910152565b6000816120245761202461202c565b506000190190565b634e487b7160e01b600052601160045260246000fd5b634e487b7160e01b600052603160045260246000fd5b634e487b7160e01b600052603260045260246000fd5b634e487b7160e01b600052604160045260246000fd5b6001600160a01b038116811461088657600080fdfea26469706673582212201a09073ce68470c137b5297d67b54ab8ae7d9787b888ef322037c480040f4e3664736f6c63430008070033",
  "devdoc": {
    "kind": "dev",
    "methods": {
      "acceptRole(bytes32)": {
        "details": "Only callable by the role nominee.",
        "params": {
          "role": "The role of the nomination to be accepted"
        }
      },
      "acceptRoleAdmin(bytes32)": {
        "details": "Only callable by a member of the role admin nominee.",
        "params": {
          "role": "The role a role admin nomination is to be accepted for"
        }
      },
      "getRoleAdmin(bytes32)": {
        "details": "Returns the admin role that controls `role`. See {grantRole} and {revokeRole}. To change a role's admin, use {_setRoleAdmin}."
      },
      "getRoleAdminNominee(bytes32)": {
        "params": {
          "role": "The role to retrieve the role admin nominee for"
        },
        "returns": {
          "_0": "The current role admin nominee of `role`"
        }
      },
      "getRoleMember(bytes32,uint256)": {
        "details": "Returns one of the accounts that have `role`. `index` must be a value between 0 and {getRoleMemberCount}, non-inclusive. Role bearers are not sorted in any particular way, and their ordering may change at any point. WARNING: When using {getRoleMember} and {getRoleMemberCount}, make sure you perform all queries on the same block. See the following https://forum.openzeppelin.com/t/iterating-over-elements-on-enumerableset-in-openzeppelin-contracts/2296[forum post] for more information."
      },
      "getRoleMemberCount(bytes32)": {
        "details": "Returns the number of accounts that have `role`. Can be used together with {getRoleMember} to enumerate all bearers of a role."
      },
      "grantRole(bytes32,address)": {
        "details": "Grants `role` to `account`. If `account` had not been already granted `role`, emits a {RoleGranted} event. Requirements: - the caller must have ``role``'s admin role."
      },
      "hasRole(bytes32,address)": {
        "details": "Returns `true` if `account` has been granted `role`."
      },
      "isNominated(bytes32,address)": {
        "params": {
          "account": "The address to retrieve nomination status for",
          "role": "The role to retrieve nomination status for"
        },
        "returns": {
          "_0": "Whether `account` is nominated for `role`"
        }
      },
      "renounceRole(bytes32,address)": {
        "details": "Revokes `role` from the calling account. Roles are often managed via {grantRole} and {revokeRole}: this function's purpose is to provide a mechanism for accounts to lose their privileges if they are compromised (such as when a trusted device is misplaced). If the calling account had been revoked `role`, emits a {RoleRevoked} event. Requirements: - the caller must be `account`. May emit a {RoleRevoked} event."
      },
      "revokeNomination(bytes32,address)": {
        "details": "Only callable by a member of the role's current role admin.",
        "params": {
          "account": "Address for which nomination is to be revoked",
          "role": "The role of the nomination to be revoked"
        }
      },
      "revokeRole(bytes32,address)": {
        "details": "Revokes `role` from `account`. If `account` had been granted `role`, emits a {RoleRevoked} event. Requirements: - the caller must have ``role``'s admin role. May emit a {RoleRevoked} event."
      },
      "supportsInterface(bytes4)": {
        "details": "See {IERC165-supportsInterface}."
      }
    },
    "version": 1
  },
  "userdoc": {
    "kind": "user",
    "methods": {
      "acceptRole(bytes32)": {
        "notice": "Accepts a role nomination."
      },
      "acceptRoleAdmin(bytes32)": {
        "notice": "Accepts a role admin nomination."
      },
      "revokeNomination(bytes32,address)": {
        "notice": "Revokes a role nomination."
      }
    },
    "version": 1
  },
  "storageLayout": {
    "storage": [
      {
        "astId": 19781,
        "contract": "contracts/WithdrawHook.sol:WithdrawHook",
        "label": "_accountList",
        "offset": 0,
        "slot": "0",
        "type": "t_contract(IAccountList)20921"
      },
      {
        "astId": 11594,
        "contract": "contracts/WithdrawHook.sol:WithdrawHook",
        "label": "_collateral",
        "offset": 0,
        "slot": "1",
        "type": "t_contract(ICollateral)17985"
      },
      {
        "astId": 13606,
        "contract": "contracts/WithdrawHook.sol:WithdrawHook",
        "label": "_depositRecord",
        "offset": 0,
        "slot": "2",
        "type": "t_contract(IDepositRecord)18118"
      },
      {
        "astId": 5045,
        "contract": "contracts/WithdrawHook.sol:WithdrawHook",
        "label": "_status",
        "offset": 0,
        "slot": "3",
        "type": "t_uint256"
      },
      {
        "astId": 4407,
        "contract": "contracts/WithdrawHook.sol:WithdrawHook",
        "label": "_roles",
        "offset": 0,
        "slot": "4",
        "type": "t_mapping(t_bytes32,t_struct(RoleData)4402_storage)"
      },
      {
        "astId": 4717,
        "contract": "contracts/WithdrawHook.sol:WithdrawHook",
        "label": "_roleMembers",
        "offset": 0,
        "slot": "5",
        "type": "t_mapping(t_bytes32,t_struct(AddressSet)10882_storage)"
      },
      {
        "astId": 20039,
        "contract": "contracts/WithdrawHook.sol:WithdrawHook",
        "label": "_roleToRoleAdminNominee",
        "offset": 0,
        "slot": "6",
        "type": "t_mapping(t_bytes32,t_bytes32)"
      },
      {
        "astId": 20045,
        "contract": "contracts/WithdrawHook.sol:WithdrawHook",
        "label": "_roleToAccountToNominated",
        "offset": 0,
        "slot": "7",
        "type": "t_mapping(t_bytes32,t_mapping(t_address,t_bool))"
      },
      {
        "astId": 20588,
        "contract": "contracts/WithdrawHook.sol:WithdrawHook",
        "label": "_accountToAmountMultiplier",
        "offset": 0,
        "slot": "8",
        "type": "t_mapping(t_address,t_uint256)"
      },
      {
        "astId": 20591,
        "contract": "contracts/WithdrawHook.sol:WithdrawHook",
        "label": "_tokenSender",
        "offset": 0,
        "slot": "9",
        "type": "t_contract(ITokenSender)21309"
      },
      {
        "astId": 20666,
        "contract": "contracts/WithdrawHook.sol:WithdrawHook",
        "label": "_treasury",
        "offset": 0,
        "slot": "10",
        "type": "t_address"
      },
      {
        "astId": 16952,
        "contract": "contracts/WithdrawHook.sol:WithdrawHook",
        "label": "_globalPeriodLength",
        "offset": 0,
        "slot": "11",
        "type": "t_uint256"
      },
      {
        "astId": 16954,
        "contract": "contracts/WithdrawHook.sol:WithdrawHook",
        "label": "_globalWithdrawLimitPerPeriod",
        "offset": 0,
        "slot": "12",
        "type": "t_uint256"
      },
      {
        "astId": 16956,
        "contract": "contracts/WithdrawHook.sol:WithdrawHook",
        "label": "_lastGlobalPeriodReset",
        "offset": 0,
        "slot": "13",
        "type": "t_uint256"
      },
      {
        "astId": 16958,
        "contract": "contracts/WithdrawHook.sol:WithdrawHook",
        "label": "_globalAmountWithdrawnThisPeriod",
        "offset": 0,
        "slot": "14",
        "type": "t_uint256"
      }
    ],
    "types": {
      "t_address": {
        "encoding": "inplace",
        "label": "address",
        "numberOfBytes": "20"
      },
      "t_array(t_bytes32)dyn_storage": {
        "base": "t_bytes32",
        "encoding": "dynamic_array",
        "label": "bytes32[]",
        "numberOfBytes": "32"
      },
      "t_bool": {
        "encoding": "inplace",
        "label": "bool",
        "numberOfBytes": "1"
      },
      "t_bytes32": {
        "encoding": "inplace",
        "label": "bytes32",
        "numberOfBytes": "32"
      },
      "t_contract(IAccountList)20921": {
        "encoding": "inplace",
        "label": "contract IAccountList",
        "numberOfBytes": "20"
      },
      "t_contract(ICollateral)17985": {
        "encoding": "inplace",
        "label": "contract ICollateral",
        "numberOfBytes": "20"
      },
      "t_contract(IDepositRecord)18118": {
        "encoding": "inplace",
        "label": "contract IDepositRecord",
        "numberOfBytes": "20"
      },
      "t_contract(ITokenSender)21309": {
        "encoding": "inplace",
        "label": "contract ITokenSender",
        "numberOfBytes": "20"
      },
      "t_mapping(t_address,t_bool)": {
        "encoding": "mapping",
        "key": "t_address",
        "label": "mapping(address => bool)",
        "numberOfBytes": "32",
        "value": "t_bool"
      },
      "t_mapping(t_address,t_uint256)": {
        "encoding": "mapping",
        "key": "t_address",
        "label": "mapping(address => uint256)",
        "numberOfBytes": "32",
        "value": "t_uint256"
      },
      "t_mapping(t_bytes32,t_bytes32)": {
        "encoding": "mapping",
        "key": "t_bytes32",
        "label": "mapping(bytes32 => bytes32)",
        "numberOfBytes": "32",
        "value": "t_bytes32"
      },
      "t_mapping(t_bytes32,t_mapping(t_address,t_bool))": {
        "encoding": "mapping",
        "key": "t_bytes32",
        "label": "mapping(bytes32 => mapping(address => bool))",
        "numberOfBytes": "32",
        "value": "t_mapping(t_address,t_bool)"
      },
      "t_mapping(t_bytes32,t_struct(AddressSet)10882_storage)": {
        "encoding": "mapping",
        "key": "t_bytes32",
        "label": "mapping(bytes32 => struct EnumerableSet.AddressSet)",
        "numberOfBytes": "32",
        "value": "t_struct(AddressSet)10882_storage"
      },
      "t_mapping(t_bytes32,t_struct(RoleData)4402_storage)": {
        "encoding": "mapping",
        "key": "t_bytes32",
        "label": "mapping(bytes32 => struct AccessControl.RoleData)",
        "numberOfBytes": "32",
        "value": "t_struct(RoleData)4402_storage"
      },
      "t_mapping(t_bytes32,t_uint256)": {
        "encoding": "mapping",
        "key": "t_bytes32",
        "label": "mapping(bytes32 => uint256)",
        "numberOfBytes": "32",
        "value": "t_uint256"
      },
      "t_struct(AddressSet)10882_storage": {
        "encoding": "inplace",
        "label": "struct EnumerableSet.AddressSet",
        "members": [
          {
            "astId": 10881,
            "contract": "contracts/WithdrawHook.sol:WithdrawHook",
            "label": "_inner",
            "offset": 0,
            "slot": "0",
            "type": "t_struct(Set)10567_storage"
          }
        ],
        "numberOfBytes": "64"
      },
      "t_struct(RoleData)4402_storage": {
        "encoding": "inplace",
        "label": "struct AccessControl.RoleData",
        "members": [
          {
            "astId": 4399,
            "contract": "contracts/WithdrawHook.sol:WithdrawHook",
            "label": "members",
            "offset": 0,
            "slot": "0",
            "type": "t_mapping(t_address,t_bool)"
          },
          {
            "astId": 4401,
            "contract": "contracts/WithdrawHook.sol:WithdrawHook",
            "label": "adminRole",
            "offset": 0,
            "slot": "1",
            "type": "t_bytes32"
          }
        ],
        "numberOfBytes": "64"
      },
      "t_struct(Set)10567_storage": {
        "encoding": "inplace",
        "label": "struct EnumerableSet.Set",
        "members": [
          {
            "astId": 10562,
            "contract": "contracts/WithdrawHook.sol:WithdrawHook",
            "label": "_values",
            "offset": 0,
            "slot": "0",
            "type": "t_array(t_bytes32)dyn_storage"
          },
          {
            "astId": 10566,
            "contract": "contracts/WithdrawHook.sol:WithdrawHook",
            "label": "_indexes",
            "offset": 0,
            "slot": "1",
            "type": "t_mapping(t_bytes32,t_uint256)"
          }
        ],
        "numberOfBytes": "64"
      },
      "t_uint256": {
        "encoding": "inplace",
        "label": "uint256",
        "numberOfBytes": "32"
      }
    }
  }
}