{
  "address": "0x0fBBfd902a379b50E869f279758463Fc26Ac02ad",
  "abi": [
    {
      "inputs": [
        {
          "internalType": "contract IUniswapV3Oracle",
          "name": "oracle",
          "type": "address"
        },
        {
          "internalType": "address",
          "name": "baseToken",
          "type": "address"
        },
        {
          "internalType": "address",
          "name": "quoteToken",
          "type": "address"
        }
      ],
      "stateMutability": "nonpayable",
      "type": "constructor"
    },
    {
      "anonymous": false,
      "inputs": [
        {
          "indexed": false,
          "internalType": "uint128",
          "name": "amount",
          "type": "uint128"
        }
      ],
      "name": "BaseAmountChange",
      "type": "event"
    },
    {
      "anonymous": false,
      "inputs": [
        {
          "indexed": true,
          "internalType": "address",
          "name": "previousNominee",
          "type": "address"
        },
        {
          "indexed": true,
          "internalType": "address",
          "name": "newNominee",
          "type": "address"
        }
      ],
      "name": "NomineeUpdate",
      "type": "event"
    },
    {
      "anonymous": false,
      "inputs": [
        {
          "indexed": false,
          "internalType": "uint32",
          "name": "period",
          "type": "uint32"
        }
      ],
      "name": "ObservationPeriodChange",
      "type": "event"
    },
    {
      "anonymous": false,
      "inputs": [
        {
          "indexed": true,
          "internalType": "address",
          "name": "previousOwner",
          "type": "address"
        },
        {
          "indexed": true,
          "internalType": "address",
          "name": "newOwner",
          "type": "address"
        }
      ],
      "name": "OwnershipTransferred",
      "type": "event"
    },
    {
      "inputs": [],
      "name": "acceptOwnership",
      "outputs": [],
      "stateMutability": "nonpayable",
      "type": "function"
    },
    {
      "inputs": [],
      "name": "get",
      "outputs": [
        {
          "internalType": "uint256",
          "name": "quoteAmount",
          "type": "uint256"
        }
      ],
      "stateMutability": "view",
      "type": "function"
    },
    {
      "inputs": [],
      "name": "getBaseAmount",
      "outputs": [
        {
          "internalType": "uint128",
          "name": "",
          "type": "uint128"
        }
      ],
      "stateMutability": "view",
      "type": "function"
    },
    {
      "inputs": [],
      "name": "getBaseToken",
      "outputs": [
        {
          "internalType": "address",
          "name": "",
          "type": "address"
        }
      ],
      "stateMutability": "view",
      "type": "function"
    },
    {
      "inputs": [],
      "name": "getNominee",
      "outputs": [
        {
          "internalType": "address",
          "name": "",
          "type": "address"
        }
      ],
      "stateMutability": "view",
      "type": "function"
    },
    {
      "inputs": [],
      "name": "getObservationPeriod",
      "outputs": [
        {
          "internalType": "uint32",
          "name": "",
          "type": "uint32"
        }
      ],
      "stateMutability": "view",
      "type": "function"
    },
    {
      "inputs": [],
      "name": "getOracle",
      "outputs": [
        {
          "internalType": "contract IUniswapV3Oracle",
          "name": "",
          "type": "address"
        }
      ],
      "stateMutability": "view",
      "type": "function"
    },
    {
      "inputs": [],
      "name": "getQuoteToken",
      "outputs": [
        {
          "internalType": "address",
          "name": "",
          "type": "address"
        }
      ],
      "stateMutability": "view",
      "type": "function"
    },
    {
      "inputs": [],
      "name": "owner",
      "outputs": [
        {
          "internalType": "address",
          "name": "",
          "type": "address"
        }
      ],
      "stateMutability": "view",
      "type": "function"
    },
    {
      "inputs": [],
      "name": "renounceOwnership",
      "outputs": [],
      "stateMutability": "nonpayable",
      "type": "function"
    },
    {
      "inputs": [
        {
          "internalType": "uint128",
          "name": "baseAmount",
          "type": "uint128"
        }
      ],
      "name": "setBaseAmount",
      "outputs": [],
      "stateMutability": "nonpayable",
      "type": "function"
    },
    {
      "inputs": [
        {
          "internalType": "uint32",
          "name": "observationPeriod",
          "type": "uint32"
        }
      ],
      "name": "setObservationPeriod",
      "outputs": [],
      "stateMutability": "nonpayable",
      "type": "function"
    },
    {
      "inputs": [
        {
          "internalType": "address",
          "name": "nominee",
          "type": "address"
        }
      ],
      "name": "transferOwnership",
      "outputs": [],
      "stateMutability": "nonpayable",
      "type": "function"
    }
  ],
  "transactionHash": "0x505d9a37dfece014c25b173ddf97eedb483990cd9c32343cbeacf5bad863bbe8",
  "args": [
    "0xA8C2682a616cC8c5848d531793678D945388955f",
    "0xFF970A61A04b1cA14834A43f5dE4533eBDDB5CC8",
    "0x82aF49447D8a07e3bd95BD0d56f35241523fBab1"
  ],
  "numDeployments": 1,
  "solcInputHash": "026479a94a0487036a93211e4dc69f86",
  "bytecode": "0x60e060405234801561001057600080fd5b506040516108cd3803806108cd83398101604081905261002f916100af565b6100383361005f565b6001600160601b0319606093841b811660805291831b821660a05290911b1660c052610114565b600080546001600160a01b038381166001600160a01b0319831681178455604051919092169283917f8be0079c531659141344cd1fd0a4f28419497f9722a3daafe3b4186f6b6457e09190a35050565b6000806000606084860312156100c457600080fd5b83516100cf816100fc565b60208501519093506100e0816100fc565b60408501519092506100f1816100fc565b809150509250925092565b6001600160a01b038116811461011157600080fd5b50565b60805160601c60a05160601c60c05160601c61076d6101606000396000818160eb01526102de0152600081816101a201526102ad01526000818161016b015261031c015261076d6000f3fe608060405234801561001057600080fd5b50600436106100cf5760003560e01c8063833b1fce1161008c578063b6ca0b6311610066578063b6ca0b63146101c6578063ca71d0f1146101d7578063f1eaebae146101ea578063f2fde38b1461020f57600080fd5b8063833b1fce146101695780638da5cb5b1461018f57806398acd7a6146101a057600080fd5b806333dcbca4146100d45780634a64d67d146100e95780636a5ff66f146101285780636d4ce63c14610143578063715018a61461015957806379ba509714610161575b600080fd5b6100e76100e23660046105e5565b610222565b005b7f00000000000000000000000000000000000000000000000000000000000000005b6040516001600160a01b0390911681526020015b60405180910390f35b6002546040516001600160801b03909116815260200161011f565b61014b610288565b60405190815260200161011f565b6100e76103a2565b6100e76103be565b7f000000000000000000000000000000000000000000000000000000000000000061010b565b6000546001600160a01b031661010b565b7f000000000000000000000000000000000000000000000000000000000000000061010b565b6001546001600160a01b031661010b565b6100e76101e53660046106e6565b610433565b600154600160a01b900463ffffffff1660405163ffffffff909116815260200161011f565b6100e761021d3660046105c1565b61048f565b61022a6104a3565b600280546fffffffffffffffffffffffffffffffff19166001600160801b0383169081179091556040519081527f91b24045e1c14539fb7c7bb8d5a3dafbf55ccd97f72e6356b45fa4f6edf3950d906020015b60405180910390a150565b600254600154604051630757bc8160e01b81526001600160801b0390921660048301527f00000000000000000000000000000000000000000000000000000000000000006001600160a01b0390811660248401527f000000000000000000000000000000000000000000000000000000000000000081166044840152600160a01b90910463ffffffff1660648301526000917f000000000000000000000000000000000000000000000000000000000000000090911690630757bc819060840160006040518083038186803b15801561036057600080fd5b505afa158015610374573d6000803e3d6000fd5b505050506040513d6000823e601f3d908101601f1916820160405261039c919081019061060e565b50919050565b6103aa6104a3565b6103b26104fd565b6103bc600061050f565b565b6001546001600160a01b0316336001600160a01b03161461041e5760405162461bcd60e51b81526020600482015260156024820152746d73672e73656e64657220213d206e6f6d696e656560581b60448201526064015b60405180910390fd5b6001546103b2906001600160a01b0316610561565b61043b6104a3565b6001805463ffffffff60a01b1916600160a01b63ffffffff8416908102919091179091556040519081527fd812e713c674b07e43d52e41856e3a34b842fb6ffa99daa2c252d6d75426f7409060200161027d565b6104976104a3565b6104a08161050f565b50565b6000546001600160a01b031633146103bc5760405162461bcd60e51b815260206004820181905260248201527f4f776e61626c653a2063616c6c6572206973206e6f7420746865206f776e65726044820152606401610415565b6105056104a3565b6103bc6000610561565b600180546001600160a01b038381166001600160a01b0319831681179093556040519116919082907fe7624d724357e317f51579affee5050a97c60b060e513e69aa8a1a35fb3315a790600090a35050565b600080546001600160a01b038381166001600160a01b0319831681178455604051919092169283917f8be0079c531659141344cd1fd0a4f28419497f9722a3daafe3b4186f6b6457e09190a35050565b80516105bc81610722565b919050565b6000602082840312156105d357600080fd5b81356105de81610722565b9392505050565b6000602082840312156105f757600080fd5b81356001600160801b03811681146105de57600080fd5b6000806040838503121561062157600080fd5b8251915060208084015167ffffffffffffffff8082111561064157600080fd5b818601915086601f83011261065557600080fd5b8151818111156106675761066761070c565b8060051b604051601f19603f8301168101818110858211171561068c5761068c61070c565b604052828152858101935084860182860187018b10156106ab57600080fd5b600095505b838610156106d5576106c1816105b1565b8552600195909501949386019386016106b0565b508096505050505050509250929050565b6000602082840312156106f857600080fd5b813563ffffffff811681146105de57600080fd5b634e487b7160e01b600052604160045260246000fd5b6001600160a01b03811681146104a057600080fdfea26469706673582212200c99ed90cb0e377940f9e4989b6668785ddc1a1f113074dab8d5faa123d268e864736f6c63430008070033",
  "devdoc": {
    "kind": "dev",
    "methods": {
      "acceptOwnership()": {
        "details": "Only callable by the current nominee. Sets nominee back to zero address."
      },
      "getNominee()": {
        "returns": {
          "_0": "The current nominee"
        }
      },
      "owner()": {
        "details": "Returns the address of the current owner."
      }
    },
    "version": 1
  },
  "userdoc": {
    "kind": "user",
    "methods": {
      "acceptOwnership()": {
        "notice": "Accepts ownership nomination."
      }
    },
    "version": 1
  },
  "storageLayout": {
    "storage": [
      {
        "astId": 4929,
        "contract": "contracts/UniswapV3OracleUintValue.sol:UniswapV3OracleUintValue",
        "label": "_owner",
        "offset": 0,
        "slot": "0",
        "type": "t_address"
      },
      {
        "astId": 17130,
        "contract": "contracts/UniswapV3OracleUintValue.sol:UniswapV3OracleUintValue",
        "label": "_nominee",
        "offset": 0,
        "slot": "1",
        "type": "t_address"
      },
      {
        "astId": 14224,
        "contract": "contracts/UniswapV3OracleUintValue.sol:UniswapV3OracleUintValue",
        "label": "_observationPeriod",
        "offset": 20,
        "slot": "1",
        "type": "t_uint32"
      },
      {
        "astId": 14226,
        "contract": "contracts/UniswapV3OracleUintValue.sol:UniswapV3OracleUintValue",
        "label": "_baseAmount",
        "offset": 0,
        "slot": "2",
        "type": "t_uint128"
      }
    ],
    "types": {
      "t_address": {
        "encoding": "inplace",
        "label": "address",
        "numberOfBytes": "20"
      },
      "t_uint128": {
        "encoding": "inplace",
        "label": "uint128",
        "numberOfBytes": "16"
      },
      "t_uint32": {
        "encoding": "inplace",
        "label": "uint32",
        "numberOfBytes": "4"
      }
    }
  }
}