{
  "address": "0x844daF73D5cf8dC705a2cb43f8A8Cd92dcC84dB9",
  "abi": [
    {
      "inputs": [
        {
          "internalType": "contract IUniswapV3Oracle",
          "name": "uniswapOracle",
          "type": "address"
        },
        {
          "internalType": "address",
          "name": "uniswapBaseToken",
          "type": "address"
        },
        {
          "internalType": "address",
          "name": "uniswapQuoteToken",
          "type": "address"
        },
        {
          "internalType": "contract AggregatorInterface",
          "name": "chainlinkOracle",
          "type": "address"
        },
        {
          "internalType": "address",
          "name": "chainlinkBaseToken",
          "type": "address"
        },
        {
          "internalType": "address",
          "name": "chainlinkQuoteToken",
          "type": "address"
        },
        {
          "internalType": "uint256",
          "name": "uniswapQuoteTokenDecimals",
          "type": "uint256"
        },
        {
          "internalType": "uint256",
          "name": "chainlinkBaseTokenDecimals",
          "type": "uint256"
        }
      ],
      "stateMutability": "nonpayable",
      "type": "constructor"
    },
    {
      "anonymous": false,
      "inputs": [
        {
          "indexed": false,
          "internalType": "uint128",
          "name": "amount",
          "type": "uint128"
        }
      ],
      "name": "BaseAmountChange",
      "type": "event"
    },
    {
      "anonymous": false,
      "inputs": [
        {
          "indexed": true,
          "internalType": "address",
          "name": "previousNominee",
          "type": "address"
        },
        {
          "indexed": true,
          "internalType": "address",
          "name": "newNominee",
          "type": "address"
        }
      ],
      "name": "NomineeUpdate",
      "type": "event"
    },
    {
      "anonymous": false,
      "inputs": [
        {
          "indexed": false,
          "internalType": "uint32",
          "name": "period",
          "type": "uint32"
        }
      ],
      "name": "ObservationPeriodChange",
      "type": "event"
    },
    {
      "anonymous": false,
      "inputs": [
        {
          "indexed": true,
          "internalType": "address",
          "name": "previousOwner",
          "type": "address"
        },
        {
          "indexed": true,
          "internalType": "address",
          "name": "newOwner",
          "type": "address"
        }
      ],
      "name": "OwnershipTransferred",
      "type": "event"
    },
    {
      "inputs": [],
      "name": "acceptOwnership",
      "outputs": [],
      "stateMutability": "nonpayable",
      "type": "function"
    },
    {
      "inputs": [],
      "name": "get",
      "outputs": [
        {
          "internalType": "uint256",
          "name": "finalOutputAmount",
          "type": "uint256"
        }
      ],
      "stateMutability": "view",
      "type": "function"
    },
    {
      "inputs": [],
      "name": "getBaseAmount",
      "outputs": [
        {
          "internalType": "uint128",
          "name": "",
          "type": "uint128"
        }
      ],
      "stateMutability": "view",
      "type": "function"
    },
    {
      "inputs": [],
      "name": "getChainlinkBaseToken",
      "outputs": [
        {
          "internalType": "address",
          "name": "",
          "type": "address"
        }
      ],
      "stateMutability": "view",
      "type": "function"
    },
    {
      "inputs": [],
      "name": "getChainlinkOracle",
      "outputs": [
        {
          "internalType": "contract AggregatorInterface",
          "name": "",
          "type": "address"
        }
      ],
      "stateMutability": "view",
      "type": "function"
    },
    {
      "inputs": [],
      "name": "getChainlinkQuoteToken",
      "outputs": [
        {
          "internalType": "address",
          "name": "",
          "type": "address"
        }
      ],
      "stateMutability": "view",
      "type": "function"
    },
    {
      "inputs": [],
      "name": "getFinalQuoteToken",
      "outputs": [
        {
          "internalType": "address",
          "name": "",
          "type": "address"
        }
      ],
      "stateMutability": "view",
      "type": "function"
    },
    {
      "inputs": [],
      "name": "getNominee",
      "outputs": [
        {
          "internalType": "address",
          "name": "",
          "type": "address"
        }
      ],
      "stateMutability": "view",
      "type": "function"
    },
    {
      "inputs": [],
      "name": "getObservationPeriod",
      "outputs": [
        {
          "internalType": "uint32",
          "name": "",
          "type": "uint32"
        }
      ],
      "stateMutability": "view",
      "type": "function"
    },
    {
      "inputs": [],
      "name": "getUniswapBaseToken",
      "outputs": [
        {
          "internalType": "address",
          "name": "",
          "type": "address"
        }
      ],
      "stateMutability": "view",
      "type": "function"
    },
    {
      "inputs": [],
      "name": "getUniswapOracle",
      "outputs": [
        {
          "internalType": "contract IUniswapV3Oracle",
          "name": "",
          "type": "address"
        }
      ],
      "stateMutability": "view",
      "type": "function"
    },
    {
      "inputs": [],
      "name": "getUniswapQuoteToken",
      "outputs": [
        {
          "internalType": "address",
          "name": "",
          "type": "address"
        }
      ],
      "stateMutability": "view",
      "type": "function"
    },
    {
      "inputs": [],
      "name": "owner",
      "outputs": [
        {
          "internalType": "address",
          "name": "",
          "type": "address"
        }
      ],
      "stateMutability": "view",
      "type": "function"
    },
    {
      "inputs": [],
      "name": "renounceOwnership",
      "outputs": [],
      "stateMutability": "nonpayable",
      "type": "function"
    },
    {
      "inputs": [
        {
          "internalType": "uint128",
          "name": "baseAmount",
          "type": "uint128"
        }
      ],
      "name": "setBaseAmount",
      "outputs": [],
      "stateMutability": "nonpayable",
      "type": "function"
    },
    {
      "inputs": [
        {
          "internalType": "uint32",
          "name": "observationPeriod",
          "type": "uint32"
        }
      ],
      "name": "setObservationPeriod",
      "outputs": [],
      "stateMutability": "nonpayable",
      "type": "function"
    },
    {
      "inputs": [
        {
          "internalType": "address",
          "name": "nominee",
          "type": "address"
        }
      ],
      "name": "transferOwnership",
      "outputs": [],
      "stateMutability": "nonpayable",
      "type": "function"
    }
  ],
  "transactionHash": "0xc39157e3f35357d5aedea46bedfbb53cc4f24ce8b04e18066d902c5271cc9761",
  "args": [
    "0xA8C2682a616cC8c5848d531793678D945388955f",
    "0xFF970A61A04b1cA14834A43f5dE4533eBDDB5CC8",
    "0x82aF49447D8a07e3bd95BD0d56f35241523fBab1",
    "0xb523AE262D20A936BC152e6023996e46FDC2A95D",
    "0x5979D7b546E38E414F7E9822514be443A4800529",
    "0x82aF49447D8a07e3bd95BD0d56f35241523fBab1",
    18,
    18
  ],
  "numDeployments": 1,
  "solcInputHash": "c449b60ac1be72a5ecd2b574b2b96c0a",
  "bytecode": "0x6101806040523480156200001257600080fd5b5060405162000eda38038062000eda833981016040819052620000359162000144565b8787876200004333620000f4565b6001600160601b0319606093841b811660805291831b821660a05290911b1660c0526001600160a01b0386811690851614801590620000945750826001600160a01b0316866001600160a01b031614155b156200009f57600080fd5b6001600160601b0319606086811b821660e05285811b82166101005284901b1661012052620000d082600a62000233565b61014052620000e181600a62000233565b61016052506200032d9650505050505050565b600080546001600160a01b038381166001600160a01b0319831681178455604051919092169283917f8be0079c531659141344cd1fd0a4f28419497f9722a3daafe3b4186f6b6457e09190a35050565b600080600080600080600080610100898b0312156200016257600080fd5b88516200016f8162000314565b60208a0151909850620001828162000314565b60408a0151909750620001958162000314565b60608a0151909650620001a88162000314565b60808a0151909550620001bb8162000314565b60a08a0151909450620001ce8162000314565b60c08a015160e0909a0151989b979a5095989497939692505050565b600181815b808511156200022b5781600019048211156200020f576200020f620002fe565b808516156200021d57918102915b93841c9390800290620001ef565b509250929050565b600062000241838362000248565b9392505050565b6000826200025957506001620002f8565b816200026857506000620002f8565b81600181146200028157600281146200028c57620002ac565b6001915050620002f8565b60ff841115620002a057620002a0620002fe565b50506001821b620002f8565b5060208310610133831016604e8410600b8410161715620002d1575081810a620002f8565b620002dd8383620001ea565b8060001904821115620002f457620002f4620002fe565b0290505b92915050565b634e487b7160e01b600052601160045260246000fd5b6001600160a01b03811681146200032a57600080fd5b50565b60805160601c60a05160601c60c05160601c60e05160601c6101005160601c6101205160601c6101405161016051610aef620003eb600039600061058b0152600061054d0152600081816101cd015281816104f40152818161065601526106b001526000818161016601526106d5015260008181610256015261045c01526000818161027c015281816103940152818161051e0152610680015260008181610112015261036301526000818161020c01526103d40152610aef6000f3fe608060405234801561001057600080fd5b506004361061010b5760003560e01c80638da5cb5b116100a2578063ca71d0f111610071578063ca71d0f114610241578063f0ace3ff14610254578063f13e9a611461027a578063f1eaebae146102a0578063f2fde38b146102c557600080fd5b80638da5cb5b146101f1578063ad15422c14610202578063af8433291461020a578063b6ca0b631461023057600080fd5b80636d4ce63c116100de5780636d4ce63c146101a5578063715018a6146101bb57806379ba5097146101c35780637f05e0c6146101cb57600080fd5b80631b384dad1461011057806333dcbca41461014f5780634c7586dc146101645780636a5ff66f1461018a575b600080fd5b7f00000000000000000000000000000000000000000000000000000000000000005b6040516001600160a01b0390911681526020015b60405180910390f35b61016261015d366004610918565b6102d8565b005b7f0000000000000000000000000000000000000000000000000000000000000000610132565b6002546040516001600160801b039091168152602001610146565b6101ad61033e565b604051908152602001610146565b6101626105c1565b6101626105dd565b7f0000000000000000000000000000000000000000000000000000000000000000610132565b6000546001600160a01b0316610132565b610132610652565b7f0000000000000000000000000000000000000000000000000000000000000000610132565b6001546001600160a01b0316610132565b61016261024f366004610a19565b6106f7565b7f0000000000000000000000000000000000000000000000000000000000000000610132565b7f0000000000000000000000000000000000000000000000000000000000000000610132565b600154600160a01b900463ffffffff1660405163ffffffff9091168152602001610146565b6101626102d33660046108db565b610753565b6102e0610767565b600280546fffffffffffffffffffffffffffffffff19166001600160801b0383169081179091556040519081527f91b24045e1c14539fb7c7bb8d5a3dafbf55ccd97f72e6356b45fa4f6edf3950d906020015b60405180910390a150565b600254600154604051630757bc8160e01b81526001600160801b0390921660048301527f00000000000000000000000000000000000000000000000000000000000000006001600160a01b0390811660248401527f000000000000000000000000000000000000000000000000000000000000000081166044840152600160a01b90910463ffffffff16606483015260009182917f00000000000000000000000000000000000000000000000000000000000000001690630757bc819060840160006040518083038186803b15801561041657600080fd5b505afa15801561042a573d6000803e3d6000fd5b505050506040513d6000823e601f3d908101601f191682016040526104529190810190610941565b50905060006104f07f00000000000000000000000000000000000000000000000000000000000000006001600160a01b03166350d25bcd6040518163ffffffff1660e01b815260040160206040518083038186803b1580156104b357600080fd5b505afa1580156104c7573d6000803e3d6000fd5b505050506040513d601f19601f820116820180604052508101906104eb91906108ff565b6107c1565b90507f00000000000000000000000000000000000000000000000000000000000000006001600160a01b03167f00000000000000000000000000000000000000000000000000000000000000006001600160a01b031614610585577f00000000000000000000000000000000000000000000000000000000000000006105768284610a61565b6105809190610a3f565b6105ba565b806105b07f000000000000000000000000000000000000000000000000000000000000000084610a61565b6105ba9190610a3f565b9250505090565b6105c9610767565b6105d1610817565b6105db6000610829565b565b6001546001600160a01b0316336001600160a01b03161461063d5760405162461bcd60e51b81526020600482015260156024820152746d73672e73656e64657220213d206e6f6d696e656560581b60448201526064015b60405180910390fd5b6001546105d1906001600160a01b031661087b565b60007f00000000000000000000000000000000000000000000000000000000000000006001600160a01b03167f00000000000000000000000000000000000000000000000000000000000000006001600160a01b0316146106d257507f000000000000000000000000000000000000000000000000000000000000000090565b507f000000000000000000000000000000000000000000000000000000000000000090565b6106ff610767565b6001805463ffffffff60a01b1916600160a01b63ffffffff8416908102919091179091556040519081527fd812e713c674b07e43d52e41856e3a34b842fb6ffa99daa2c252d6d75426f74090602001610333565b61075b610767565b61076481610829565b50565b6000546001600160a01b031633146105db5760405162461bcd60e51b815260206004820181905260248201527f4f776e61626c653a2063616c6c6572206973206e6f7420746865206f776e65726044820152606401610634565b6000808212156108135760405162461bcd60e51b815260206004820181905260248201527f53616665436173743a2076616c7565206d75737420626520706f7369746976656044820152606401610634565b5090565b61081f610767565b6105db600061087b565b600180546001600160a01b038381166001600160a01b0319831681179093556040519116919082907fe7624d724357e317f51579affee5050a97c60b060e513e69aa8a1a35fb3315a790600090a35050565b600080546001600160a01b038381166001600160a01b0319831681178455604051919092169283917f8be0079c531659141344cd1fd0a4f28419497f9722a3daafe3b4186f6b6457e09190a35050565b80516108d681610aa4565b919050565b6000602082840312156108ed57600080fd5b81356108f881610aa4565b9392505050565b60006020828403121561091157600080fd5b5051919050565b60006020828403121561092a57600080fd5b81356001600160801b03811681146108f857600080fd5b6000806040838503121561095457600080fd5b8251915060208084015167ffffffffffffffff8082111561097457600080fd5b818601915086601f83011261098857600080fd5b81518181111561099a5761099a610a8e565b8060051b604051601f19603f830116810181811085821117156109bf576109bf610a8e565b604052828152858101935084860182860187018b10156109de57600080fd5b600095505b83861015610a08576109f4816108cb565b8552600195909501949386019386016109e3565b508096505050505050509250929050565b600060208284031215610a2b57600080fd5b813563ffffffff811681146108f857600080fd5b600082610a5c57634e487b7160e01b600052601260045260246000fd5b500490565b6000816000190483118215151615610a8957634e487b7160e01b600052601160045260246000fd5b500290565b634e487b7160e01b600052604160045260246000fd5b6001600160a01b038116811461076457600080fdfea26469706673582212204e91828d2fa3bb9576cba0111217a28a3761e8b9b408744e6efc8ac81956e5d164736f6c63430008070033",
  "devdoc": {
    "kind": "dev",
    "methods": {
      "acceptOwnership()": {
        "details": "Only callable by the current nominee. Sets nominee back to zero address."
      },
      "getNominee()": {
        "returns": {
          "_0": "The current nominee"
        }
      },
      "owner()": {
        "details": "Returns the address of the current owner."
      }
    },
    "version": 1
  },
  "userdoc": {
    "kind": "user",
    "methods": {
      "acceptOwnership()": {
        "notice": "Accepts ownership nomination."
      }
    },
    "version": 1
  },
  "storageLayout": {
    "storage": [
      {
        "astId": 4929,
        "contract": "contracts/UniswapV3ToChainlinkOracleUintValue.sol:UniswapV3ToChainlinkOracleUintValue",
        "label": "_owner",
        "offset": 0,
        "slot": "0",
        "type": "t_address"
      },
      {
        "astId": 19044,
        "contract": "contracts/UniswapV3ToChainlinkOracleUintValue.sol:UniswapV3ToChainlinkOracleUintValue",
        "label": "_nominee",
        "offset": 0,
        "slot": "1",
        "type": "t_address"
      },
      {
        "astId": 16029,
        "contract": "contracts/UniswapV3ToChainlinkOracleUintValue.sol:UniswapV3ToChainlinkOracleUintValue",
        "label": "_observationPeriod",
        "offset": 20,
        "slot": "1",
        "type": "t_uint32"
      },
      {
        "astId": 16031,
        "contract": "contracts/UniswapV3ToChainlinkOracleUintValue.sol:UniswapV3ToChainlinkOracleUintValue",
        "label": "_baseAmount",
        "offset": 0,
        "slot": "2",
        "type": "t_uint128"
      }
    ],
    "types": {
      "t_address": {
        "encoding": "inplace",
        "label": "address",
        "numberOfBytes": "20"
      },
      "t_uint128": {
        "encoding": "inplace",
        "label": "uint128",
        "numberOfBytes": "16"
      },
      "t_uint32": {
        "encoding": "inplace",
        "label": "uint32",
        "numberOfBytes": "4"
      }
    }
  }
}