{
  "address": "0x7f704257239650bF641fC6d8585d4B45B1720141",
  "abi": [
    {
      "inputs": [],
      "stateMutability": "nonpayable",
      "type": "constructor"
    },
    {
      "anonymous": false,
      "inputs": [
        {
          "indexed": true,
          "internalType": "address",
          "name": "previousNominee",
          "type": "address"
        },
        {
          "indexed": true,
          "internalType": "address",
          "name": "newNominee",
          "type": "address"
        }
      ],
      "name": "NomineeUpdate",
      "type": "event"
    },
    {
      "anonymous": false,
      "inputs": [
        {
          "indexed": true,
          "internalType": "address",
          "name": "previousOwner",
          "type": "address"
        },
        {
          "indexed": true,
          "internalType": "address",
          "name": "newOwner",
          "type": "address"
        }
      ],
      "name": "OwnershipTransferred",
      "type": "event"
    },
    {
      "inputs": [],
      "name": "acceptOwnership",
      "outputs": [],
      "stateMutability": "nonpayable",
      "type": "function"
    },
    {
      "inputs": [],
      "name": "getNominee",
      "outputs": [
        {
          "internalType": "address",
          "name": "",
          "type": "address"
        }
      ],
      "stateMutability": "view",
      "type": "function"
    },
    {
      "inputs": [
        {
          "internalType": "address",
          "name": "account",
          "type": "address"
        }
      ],
      "name": "isIncluded",
      "outputs": [
        {
          "internalType": "bool",
          "name": "",
          "type": "bool"
        }
      ],
      "stateMutability": "view",
      "type": "function"
    },
    {
      "inputs": [],
      "name": "owner",
      "outputs": [
        {
          "internalType": "address",
          "name": "",
          "type": "address"
        }
      ],
      "stateMutability": "view",
      "type": "function"
    },
    {
      "inputs": [],
      "name": "renounceOwnership",
      "outputs": [],
      "stateMutability": "nonpayable",
      "type": "function"
    },
    {
      "inputs": [
        {
          "internalType": "address[]",
          "name": "includedAccounts",
          "type": "address[]"
        }
      ],
      "name": "reset",
      "outputs": [],
      "stateMutability": "nonpayable",
      "type": "function"
    },
    {
      "inputs": [
        {
          "internalType": "address[]",
          "name": "accounts",
          "type": "address[]"
        },
        {
          "internalType": "bool[]",
          "name": "included",
          "type": "bool[]"
        }
      ],
      "name": "set",
      "outputs": [],
      "stateMutability": "nonpayable",
      "type": "function"
    },
    {
      "inputs": [
        {
          "internalType": "address",
          "name": "nominee",
          "type": "address"
        }
      ],
      "name": "transferOwnership",
      "outputs": [],
      "stateMutability": "nonpayable",
      "type": "function"
    }
  ],
  "transactionHash": "0xff831ea2a6e0efbac4378ded94e509e98887963d1517095958fc62bd0fd6616a",
  "args": [],
  "numDeployments": 1,
  "solcInputHash": "42e53d7d7e0c132b240d2ca5560eea51",
  "bytecode": "0x608060405234801561001057600080fd5b5061001a3361001f565b61006f565b600080546001600160a01b038381166001600160a01b0319831681178455604051919092169283917f8be0079c531659141344cd1fd0a4f28419497f9722a3daafe3b4186f6b6457e09190a35050565b61065f8061007e6000396000f3fe608060405234801561001057600080fd5b50600436106100885760003560e01c8063b6ca0b631161005b578063b6ca0b6314610113578063b916de5914610124578063bfec52e714610137578063f2fde38b1461014a57600080fd5b806326c9ffa81461008d578063715018a6146100dc57806379ba5097146100e65780638da5cb5b146100ee575b600080fd5b6100c761009b3660046104ea565b60025460009081526003602090815260408083206001600160a01b039094168352929052205460ff1690565b60405190151581526020015b60405180910390f35b6100e461015d565b005b6100e4610179565b6000546001600160a01b03165b6040516001600160a01b0390911681526020016100d3565b6001546001600160a01b03166100fb565b6100e461013236600461051a565b6101ee565b6100e461014536600461055c565b610289565b6100e46101583660046104ea565b61037c565b610165610390565b61016d6103ea565b61017760006103fc565b565b6001546001600160a01b0316336001600160a01b0316146101d95760405162461bcd60e51b81526020600482015260156024820152746d73672e73656e64657220213d206e6f6d696e656560581b60448201526064015b60405180910390fd5b60015461016d906001600160a01b031661044e565b6101f6610390565b60028054906000610206836105ea565b9091555081905060005b8181101561028357600254600090815260036020526040812060019186868581811061023e5761023e610613565b905060200201602081019061025391906104ea565b6001600160a01b031681526020810191909152604001600020805460ff1916911515919091179055600101610210565b50505050565b610291610390565b8281146102d85760405162461bcd60e51b8152602060048201526015602482015274082e4e4c2f240d8cadccee8d040dad2e6dac2e8c6d605b1b60448201526064016101d0565b8260005b81811015610374578383828181106102f6576102f6610613565b905060200201602081019061030b91906105c8565b60025460009081526003602052604081209088888581811061032f5761032f610613565b905060200201602081019061034491906104ea565b6001600160a01b031681526020810191909152604001600020805460ff19169115159190911790556001016102dc565b505050505050565b610384610390565b61038d816103fc565b50565b6000546001600160a01b031633146101775760405162461bcd60e51b815260206004820181905260248201527f4f776e61626c653a2063616c6c6572206973206e6f7420746865206f776e657260448201526064016101d0565b6103f2610390565b610177600061044e565b600180546001600160a01b038381166001600160a01b0319831681179093556040519116919082907fe7624d724357e317f51579affee5050a97c60b060e513e69aa8a1a35fb3315a790600090a35050565b600080546001600160a01b038381166001600160a01b0319831681178455604051919092169283917f8be0079c531659141344cd1fd0a4f28419497f9722a3daafe3b4186f6b6457e09190a35050565b60008083601f8401126104b057600080fd5b50813567ffffffffffffffff8111156104c857600080fd5b6020830191508360208260051b85010111156104e357600080fd5b9250929050565b6000602082840312156104fc57600080fd5b81356001600160a01b038116811461051357600080fd5b9392505050565b6000806020838503121561052d57600080fd5b823567ffffffffffffffff81111561054457600080fd5b6105508582860161049e565b90969095509350505050565b6000806000806040858703121561057257600080fd5b843567ffffffffffffffff8082111561058a57600080fd5b6105968883890161049e565b909650945060208701359150808211156105af57600080fd5b506105bc8782880161049e565b95989497509550505050565b6000602082840312156105da57600080fd5b8135801515811461051357600080fd5b600060001982141561060c57634e487b7160e01b600052601160045260246000fd5b5060010190565b634e487b7160e01b600052603260045260246000fdfea26469706673582212203097055e290ec35fc9b33dfd7653571fe7e9f880fb7a7b4994e911e4b5772cc164736f6c63430008070033",
  "devdoc": {
    "kind": "dev",
    "methods": {
      "acceptOwnership()": {
        "details": "Only callable by the current nominee. Sets nominee back to zero address."
      },
      "getNominee()": {
        "returns": {
          "_0": "The current nominee"
        }
      },
      "isIncluded(address)": {
        "params": {
          "account": "Address to check inclusion for"
        },
        "returns": {
          "_0": "Whether `account` is included"
        }
      },
      "owner()": {
        "details": "Returns the address of the current owner."
      },
      "reset(address[])": {
        "details": "Only callable by `owner()`.",
        "params": {
          "includedAccounts": "Addresses to include after reset"
        }
      },
      "set(address[],bool[])": {
        "details": "Whether an account is included is based on the boolean value at its respective index in `included`. This function will only edit the inclusion of addresses in `accounts`. The length of `accounts` and `included` must match. Only callable by `owner()`.",
        "params": {
          "accounts": "Addresses to change inclusion for",
          "included": "Whether to include corresponding address in `accounts`"
        }
      }
    },
    "version": 1
  },
  "userdoc": {
    "kind": "user",
    "methods": {
      "acceptOwnership()": {
        "notice": "Accepts ownership nomination."
      },
      "reset(address[])": {
        "notice": "Removes every address from the set. Atomically includes any addresses in `newIncludedAccounts`."
      },
      "set(address[],bool[])": {
        "notice": "Sets whether an address in `accounts` is included."
      }
    },
    "version": 1
  },
  "storageLayout": {
    "storage": [
      {
        "astId": 4929,
        "contract": "contracts/AccountList.sol:AccountList",
        "label": "_owner",
        "offset": 0,
        "slot": "0",
        "type": "t_address"
      },
      {
        "astId": 17545,
        "contract": "contracts/AccountList.sol:AccountList",
        "label": "_nominee",
        "offset": 0,
        "slot": "1",
        "type": "t_address"
      },
      {
        "astId": 10254,
        "contract": "contracts/AccountList.sol:AccountList",
        "label": "_resetIndex",
        "offset": 0,
        "slot": "2",
        "type": "t_uint256"
      },
      {
        "astId": 10260,
        "contract": "contracts/AccountList.sol:AccountList",
        "label": "_resetIndexToAccountToIncluded",
        "offset": 0,
        "slot": "3",
        "type": "t_mapping(t_uint256,t_mapping(t_address,t_bool))"
      }
    ],
    "types": {
      "t_address": {
        "encoding": "inplace",
        "label": "address",
        "numberOfBytes": "20"
      },
      "t_bool": {
        "encoding": "inplace",
        "label": "bool",
        "numberOfBytes": "1"
      },
      "t_mapping(t_address,t_bool)": {
        "encoding": "mapping",
        "key": "t_address",
        "label": "mapping(address => bool)",
        "numberOfBytes": "32",
        "value": "t_bool"
      },
      "t_mapping(t_uint256,t_mapping(t_address,t_bool))": {
        "encoding": "mapping",
        "key": "t_uint256",
        "label": "mapping(uint256 => mapping(address => bool))",
        "numberOfBytes": "32",
        "value": "t_mapping(t_address,t_bool)"
      },
      "t_uint256": {
        "encoding": "inplace",
        "label": "uint256",
        "numberOfBytes": "32"
      }
    }
  }
}